{
  "contractName": "AccessControlMixin",
  "abi": [
    {
      "anonymous": false,
      "inputs": [
        {
          "indexed": true,
          "internalType": "bytes32",
          "name": "role",
          "type": "bytes32"
        },
        {
          "indexed": true,
          "internalType": "bytes32",
          "name": "previousAdminRole",
          "type": "bytes32"
        },
        {
          "indexed": true,
          "internalType": "bytes32",
          "name": "newAdminRole",
          "type": "bytes32"
        }
      ],
      "name": "RoleAdminChanged",
      "type": "event"
    },
    {
      "anonymous": false,
      "inputs": [
        {
          "indexed": true,
          "internalType": "bytes32",
          "name": "role",
          "type": "bytes32"
        },
        {
          "indexed": true,
          "internalType": "address",
          "name": "account",
          "type": "address"
        },
        {
          "indexed": true,
          "internalType": "address",
          "name": "sender",
          "type": "address"
        }
      ],
      "name": "RoleGranted",
      "type": "event"
    },
    {
      "anonymous": false,
      "inputs": [
        {
          "indexed": true,
          "internalType": "bytes32",
          "name": "role",
          "type": "bytes32"
        },
        {
          "indexed": true,
          "internalType": "address",
          "name": "account",
          "type": "address"
        },
        {
          "indexed": true,
          "internalType": "address",
          "name": "sender",
          "type": "address"
        }
      ],
      "name": "RoleRevoked",
      "type": "event"
    },
    {
      "inputs": [],
      "name": "DEFAULT_ADMIN_ROLE",
      "outputs": [
        {
          "internalType": "bytes32",
          "name": "",
          "type": "bytes32"
        }
      ],
      "stateMutability": "view",
      "type": "function"
    },
    {
      "inputs": [
        {
          "internalType": "bytes32",
          "name": "role",
          "type": "bytes32"
        }
      ],
      "name": "getRoleAdmin",
      "outputs": [
        {
          "internalType": "bytes32",
          "name": "",
          "type": "bytes32"
        }
      ],
      "stateMutability": "view",
      "type": "function"
    },
    {
      "inputs": [
        {
          "internalType": "bytes32",
          "name": "role",
          "type": "bytes32"
        },
        {
          "internalType": "uint256",
          "name": "index",
          "type": "uint256"
        }
      ],
      "name": "getRoleMember",
      "outputs": [
        {
          "internalType": "address",
          "name": "",
          "type": "address"
        }
      ],
      "stateMutability": "view",
      "type": "function"
    },
    {
      "inputs": [
        {
          "internalType": "bytes32",
          "name": "role",
          "type": "bytes32"
        }
      ],
      "name": "getRoleMemberCount",
      "outputs": [
        {
          "internalType": "uint256",
          "name": "",
          "type": "uint256"
        }
      ],
      "stateMutability": "view",
      "type": "function"
    },
    {
      "inputs": [
        {
          "internalType": "bytes32",
          "name": "role",
          "type": "bytes32"
        },
        {
          "internalType": "address",
          "name": "account",
          "type": "address"
        }
      ],
      "name": "grantRole",
      "outputs": [],
      "stateMutability": "nonpayable",
      "type": "function"
    },
    {
      "inputs": [
        {
          "internalType": "bytes32",
          "name": "role",
          "type": "bytes32"
        },
        {
          "internalType": "address",
          "name": "account",
          "type": "address"
        }
      ],
      "name": "hasRole",
      "outputs": [
        {
          "internalType": "bool",
          "name": "",
          "type": "bool"
        }
      ],
      "stateMutability": "view",
      "type": "function"
    },
    {
      "inputs": [
        {
          "internalType": "bytes32",
          "name": "role",
          "type": "bytes32"
        },
        {
          "internalType": "address",
          "name": "account",
          "type": "address"
        }
      ],
      "name": "renounceRole",
      "outputs": [],
      "stateMutability": "nonpayable",
      "type": "function"
    },
    {
      "inputs": [
        {
          "internalType": "bytes32",
          "name": "role",
          "type": "bytes32"
        },
        {
          "internalType": "address",
          "name": "account",
          "type": "address"
        }
      ],
      "name": "revokeRole",
      "outputs": [],
      "stateMutability": "nonpayable",
      "type": "function"
    }
  ],
  "bytecode": "0x608060405234801561001057600080fd5b50610720806100206000396000f3fe608060405234801561001057600080fd5b50600436106100785760003560e01c8063248a9ca31461007d5780632f2ff15d146100ac57806336568abe146100da5780639010d07c1461010657806391d1485414610145578063a217fddf14610185578063ca15c8731461018d578063d547741f146101aa575b600080fd5b61009a6004803603602081101561009357600080fd5b50356101d6565b60408051918252519081900360200190f35b6100d8600480360360408110156100c257600080fd5b50803590602001356001600160a01b03166101eb565b005b6100d8600480360360408110156100f057600080fd5b50803590602001356001600160a01b0316610257565b6101296004803603604081101561011c57600080fd5b50803590602001356102b8565b604080516001600160a01b039092168252519081900360200190f35b6101716004803603604081101561015b57600080fd5b50803590602001356001600160a01b03166102df565b604080519115158252519081900360200190f35b61009a6102fd565b61009a600480360360208110156101a357600080fd5b5035610302565b6100d8600480360360408110156101c057600080fd5b50803590602001356001600160a01b0316610319565b60009081526033602052604090206002015490565b60008281526033602052604090206002015461020e90610209610372565b6102df565b6102495760405162461bcd60e51b815260040180806020018281038252602f81526020018061065d602f913960400191505060405180910390fd5b6102538282610376565b5050565b61025f610372565b6001600160a01b0316816001600160a01b0316146102ae5760405162461bcd60e51b815260040180806020018281038252602f8152602001806106bc602f913960400191505060405180910390fd5b61025382826103e5565b60008281526033602052604081206102d6908363ffffffff61045416565b90505b92915050565b60008281526033602052604081206102d6908363ffffffff61046016565b600081565b60008181526033602052604081206102d990610475565b60008281526033602052604090206002015461033790610209610372565b6102ae5760405162461bcd60e51b815260040180806020018281038252603081526020018061068c6030913960400191505060405180910390fd5b3390565b6000828152603360205260409020610394908263ffffffff61048016565b15610253576103a1610372565b6001600160a01b0316816001600160a01b0316837f2f8788117e7eff1d82e926ec794901d17c78024a50270940304540a733656f0d60405160405180910390a45050565b6000828152603360205260409020610403908263ffffffff61049516565b1561025357610410610372565b6001600160a01b0316816001600160a01b0316837ff6391f5c32d9c69d2a47ea670b442974b53935d1edc7fd64eb21e047a839171b60405160405180910390a45050565b60006102d683836104aa565b60006102d6836001600160a01b03841661050e565b60006102d982610526565b60006102d6836001600160a01b03841661052a565b60006102d6836001600160a01b038416610574565b815460009082106104ec5760405162461bcd60e51b815260040180806020018281038252602281526020018061063b6022913960400191505060405180910390fd5b8260000182815481106104fb57fe5b9060005260206000200154905092915050565b60009081526001919091016020526040902054151590565b5490565b6000610536838361050e565b61056c575081546001818101845560008481526020808220909301849055845484825282860190935260409020919091556102d9565b5060006102d9565b6000818152600183016020526040812054801561063057835460001980830191908101906000908790839081106105a757fe5b90600052602060002001549050808760000184815481106105c457fe5b6000918252602080832090910192909255828152600189810190925260409020908401905586548790806105f457fe5b600190038181906000526020600020016000905590558660010160008781526020019081526020016000206000905560019450505050506102d9565b60009150506102d956fe456e756d657261626c655365743a20696e646578206f7574206f6620626f756e6473416363657373436f6e74726f6c3a2073656e646572206d75737420626520616e2061646d696e20746f206772616e74416363657373436f6e74726f6c3a2073656e646572206d75737420626520616e2061646d696e20746f207265766f6b65416363657373436f6e74726f6c3a2063616e206f6e6c792072656e6f756e636520726f6c657320666f722073656c66a26469706673582212202040a2fd0c070850994c78e2f6a51433c3e1767a3cb964b7a218c1e4657edc6b64736f6c63430006060033",
  "immutableReferences": {},
  "source": "pragma solidity 0.6.6;\n\nimport {AccessControlUpgradeable} from \"@openzeppelin/contracts-upgradeable/access/AccessControlUpgradeable.sol\";\n\ncontract AccessControlMixin is AccessControlUpgradeable {\n    string private _revertMsg;\n    function _setupContractId(string memory contractId) internal {\n        _revertMsg = string(abi.encodePacked(contractId, \": INSUFFICIENT_PERMISSIONS\"));\n    }\n\n    modifier only(bytes32 role) {\n        require(\n            hasRole(role, _msgSender()),\n            _revertMsg\n        );\n        _;\n    }\n}\n",
  "sourcePath": "/home/gabriel/Documentos/Trabajo/Eibriel/Proyectos/Decentraland/GoldRush/SPContracts/ethereum/contracts/common/AccessControlMixin.sol",
  "compiler": {
    "name": "solc",
    "version": "0.6.6+commit.6c089d02.Emscripten.clang"
  },
  "schemaVersion": "3.3.2",
  "updatedAt": "2020-11-23T21:05:24.719Z",
  "devdoc": {
    "methods": {
      "getRoleAdmin(bytes32)": {
        "details": "Returns the admin role that controls `role`. See {grantRole} and {revokeRole}.     * To change a role's admin, use {_setRoleAdmin}."
      },
      "getRoleMember(bytes32,uint256)": {
        "details": "Returns one of the accounts that have `role`. `index` must be a value between 0 and {getRoleMemberCount}, non-inclusive.     * Role bearers are not sorted in any particular way, and their ordering may change at any point.     * WARNING: When using {getRoleMember} and {getRoleMemberCount}, make sure you perform all queries on the same block. See the following https://forum.openzeppelin.com/t/iterating-over-elements-on-enumerableset-in-openzeppelin-contracts/2296[forum post] for more information."
      },
      "getRoleMemberCount(bytes32)": {
        "details": "Returns the number of accounts that have `role`. Can be used together with {getRoleMember} to enumerate all bearers of a role."
      },
      "grantRole(bytes32,address)": {
        "details": "Grants `role` to `account`.     * If `account` had not been already granted `role`, emits a {RoleGranted} event.     * Requirements:     * - the caller must have ``role``'s admin role."
      },
      "hasRole(bytes32,address)": {
        "details": "Returns `true` if `account` has been granted `role`."
      },
      "renounceRole(bytes32,address)": {
        "details": "Revokes `role` from the calling account.     * Roles are often managed via {grantRole} and {revokeRole}: this function's purpose is to provide a mechanism for accounts to lose their privileges if they are compromised (such as when a trusted device is misplaced).     * If the calling account had been granted `role`, emits a {RoleRevoked} event.     * Requirements:     * - the caller must be `account`."
      },
      "revokeRole(bytes32,address)": {
        "details": "Revokes `role` from `account`.     * If `account` had been granted `role`, emits a {RoleRevoked} event.     * Requirements:     * - the caller must have ``role``'s admin role."
      }
    }
  },
  "userdoc": {
    "methods": {}
  }
}