{
  "contractName": "ChainConstants",
  "abi": [
    {
      "inputs": [],
      "name": "CHILD_CHAIN_ID",
      "outputs": [
        {
          "internalType": "uint256",
          "name": "",
          "type": "uint256"
        }
      ],
      "stateMutability": "view",
      "type": "function"
    },
    {
      "inputs": [],
      "name": "CHILD_CHAIN_ID_BYTES",
      "outputs": [
        {
          "internalType": "bytes",
          "name": "",
          "type": "bytes"
        }
      ],
      "stateMutability": "view",
      "type": "function"
    },
    {
      "inputs": [],
      "name": "ERC712_VERSION",
      "outputs": [
        {
          "internalType": "string",
          "name": "",
          "type": "string"
        }
      ],
      "stateMutability": "view",
      "type": "function"
    },
    {
      "inputs": [],
      "name": "ROOT_CHAIN_ID",
      "outputs": [
        {
          "internalType": "uint256",
          "name": "",
          "type": "uint256"
        }
      ],
      "stateMutability": "view",
      "type": "function"
    },
    {
      "inputs": [],
      "name": "ROOT_CHAIN_ID_BYTES",
      "outputs": [
        {
          "internalType": "bytes",
          "name": "",
          "type": "bytes"
        }
      ],
      "stateMutability": "view",
      "type": "function"
    }
  ],
  "bytecode": "0x608060405234801561001057600080fd5b506101a6806100206000396000f3fe608060405234801561001057600080fd5b50600436106100575760003560e01c80630b54817c1461005c5780630dd7531a146100d95780630f7e5970146100e1578063626381a0146100e95780638acfcaf714610103575b600080fd5b61006461010b565b6040805160208082528351818301528351919283929083019185019080838360005b8381101561009e578181015183820152602001610086565b50505050905090810190601f1680156100cb5780820380516001836020036101000a031916815260200191505b509250505060405180910390f35b61006461012a565b610064610147565b6100f1610164565b60408051918252519081900360200190f35b6100f161016b565b6040518060400160405280600381526020016201388160e81b81525081565b604051806040016040528060018152602001600560f81b81525081565b604051806040016040528060018152602001603160f81b81525081565b6201388181565b60058156fea2646970667358221220ed760d12dd01eba78df8fb2c1f52b443ffb584f224a5e6ecc7ee5de41bcbd62e64736f6c63430006060033",
  "immutableReferences": {},
  "source": "pragma solidity 0.6.6;\n\ncontract ChainConstants {\n    string constant public ERC712_VERSION = \"1\";\n\n    //uint256 constant public ROOT_CHAIN_ID = 1;\n    //bytes constant public ROOT_CHAIN_ID_BYTES = hex\"01\";\n\n    //uint256 constant public CHILD_CHAIN_ID = 137;\n    //bytes constant public CHILD_CHAIN_ID_BYTES = hex\"89\";\n\n    uint256 constant public ROOT_CHAIN_ID = 5;\n    bytes constant public ROOT_CHAIN_ID_BYTES = hex\"05\";\n\n    uint256 constant public CHILD_CHAIN_ID = 80001;\n    bytes constant public CHILD_CHAIN_ID_BYTES = hex\"013881\";\n}\n",
  "sourcePath": "/home/gabriel/Documentos/Trabajo/Eibriel/Proyectos/Decentraland/GoldRush/SPContracts/ethereum/contracts/common/ChainConstants.sol",
  "compiler": {
    "name": "solc",
    "version": "0.6.6+commit.6c089d02.Emscripten.clang"
  },
  "schemaVersion": "3.3.2",
  "updatedAt": "2020-11-23T21:05:24.720Z",
  "devdoc": {
    "methods": {}
  },
  "userdoc": {
    "methods": {}
  }
}