{
  "contractName": "SoapPunkCollectibles",
  "abi": [
    {
      "anonymous": false,
      "inputs": [
        {
          "indexed": true,
          "internalType": "address",
          "name": "account",
          "type": "address"
        },
        {
          "indexed": true,
          "internalType": "address",
          "name": "operator",
          "type": "address"
        },
        {
          "indexed": false,
          "internalType": "bool",
          "name": "approved",
          "type": "bool"
        }
      ],
      "name": "ApprovalForAll",
      "type": "event"
    },
    {
      "anonymous": false,
      "inputs": [
        {
          "indexed": false,
          "internalType": "address",
          "name": "account",
          "type": "address"
        }
      ],
      "name": "Paused",
      "type": "event"
    },
    {
      "anonymous": false,
      "inputs": [
        {
          "indexed": true,
          "internalType": "bytes32",
          "name": "role",
          "type": "bytes32"
        },
        {
          "indexed": true,
          "internalType": "bytes32",
          "name": "previousAdminRole",
          "type": "bytes32"
        },
        {
          "indexed": true,
          "internalType": "bytes32",
          "name": "newAdminRole",
          "type": "bytes32"
        }
      ],
      "name": "RoleAdminChanged",
      "type": "event"
    },
    {
      "anonymous": false,
      "inputs": [
        {
          "indexed": true,
          "internalType": "bytes32",
          "name": "role",
          "type": "bytes32"
        },
        {
          "indexed": true,
          "internalType": "address",
          "name": "account",
          "type": "address"
        },
        {
          "indexed": true,
          "internalType": "address",
          "name": "sender",
          "type": "address"
        }
      ],
      "name": "RoleGranted",
      "type": "event"
    },
    {
      "anonymous": false,
      "inputs": [
        {
          "indexed": true,
          "internalType": "bytes32",
          "name": "role",
          "type": "bytes32"
        },
        {
          "indexed": true,
          "internalType": "address",
          "name": "account",
          "type": "address"
        },
        {
          "indexed": true,
          "internalType": "address",
          "name": "sender",
          "type": "address"
        }
      ],
      "name": "RoleRevoked",
      "type": "event"
    },
    {
      "anonymous": false,
      "inputs": [
        {
          "indexed": true,
          "internalType": "address",
          "name": "operator",
          "type": "address"
        },
        {
          "indexed": true,
          "internalType": "address",
          "name": "from",
          "type": "address"
        },
        {
          "indexed": true,
          "internalType": "address",
          "name": "to",
          "type": "address"
        },
        {
          "indexed": false,
          "internalType": "uint256[]",
          "name": "ids",
          "type": "uint256[]"
        },
        {
          "indexed": false,
          "internalType": "uint256[]",
          "name": "values",
          "type": "uint256[]"
        }
      ],
      "name": "TransferBatch",
      "type": "event"
    },
    {
      "anonymous": false,
      "inputs": [
        {
          "indexed": true,
          "internalType": "address",
          "name": "operator",
          "type": "address"
        },
        {
          "indexed": true,
          "internalType": "address",
          "name": "from",
          "type": "address"
        },
        {
          "indexed": true,
          "internalType": "address",
          "name": "to",
          "type": "address"
        },
        {
          "indexed": false,
          "internalType": "uint256",
          "name": "id",
          "type": "uint256"
        },
        {
          "indexed": false,
          "internalType": "uint256",
          "name": "value",
          "type": "uint256"
        }
      ],
      "name": "TransferSingle",
      "type": "event"
    },
    {
      "anonymous": false,
      "inputs": [
        {
          "indexed": false,
          "internalType": "string",
          "name": "value",
          "type": "string"
        },
        {
          "indexed": true,
          "internalType": "uint256",
          "name": "id",
          "type": "uint256"
        }
      ],
      "name": "URI",
      "type": "event"
    },
    {
      "anonymous": false,
      "inputs": [
        {
          "indexed": false,
          "internalType": "address",
          "name": "account",
          "type": "address"
        }
      ],
      "name": "Unpaused",
      "type": "event"
    },
    {
      "inputs": [],
      "name": "DEFAULT_ADMIN_ROLE",
      "outputs": [
        {
          "internalType": "bytes32",
          "name": "",
          "type": "bytes32"
        }
      ],
      "stateMutability": "view",
      "type": "function",
      "constant": true
    },
    {
      "inputs": [],
      "name": "MINTER_ROLE",
      "outputs": [
        {
          "internalType": "bytes32",
          "name": "",
          "type": "bytes32"
        }
      ],
      "stateMutability": "view",
      "type": "function",
      "constant": true
    },
    {
      "inputs": [],
      "name": "PAUSER_ROLE",
      "outputs": [
        {
          "internalType": "bytes32",
          "name": "",
          "type": "bytes32"
        }
      ],
      "stateMutability": "view",
      "type": "function",
      "constant": true
    },
    {
      "inputs": [
        {
          "internalType": "address",
          "name": "account",
          "type": "address"
        },
        {
          "internalType": "uint256",
          "name": "id",
          "type": "uint256"
        }
      ],
      "name": "balanceOf",
      "outputs": [
        {
          "internalType": "uint256",
          "name": "",
          "type": "uint256"
        }
      ],
      "stateMutability": "view",
      "type": "function",
      "constant": true
    },
    {
      "inputs": [
        {
          "internalType": "address[]",
          "name": "accounts",
          "type": "address[]"
        },
        {
          "internalType": "uint256[]",
          "name": "ids",
          "type": "uint256[]"
        }
      ],
      "name": "balanceOfBatch",
      "outputs": [
        {
          "internalType": "uint256[]",
          "name": "",
          "type": "uint256[]"
        }
      ],
      "stateMutability": "view",
      "type": "function",
      "constant": true
    },
    {
      "inputs": [
        {
          "internalType": "address",
          "name": "account",
          "type": "address"
        },
        {
          "internalType": "uint256",
          "name": "id",
          "type": "uint256"
        },
        {
          "internalType": "uint256",
          "name": "value",
          "type": "uint256"
        }
      ],
      "name": "burn",
      "outputs": [],
      "stateMutability": "nonpayable",
      "type": "function"
    },
    {
      "inputs": [
        {
          "internalType": "address",
          "name": "account",
          "type": "address"
        },
        {
          "internalType": "uint256[]",
          "name": "ids",
          "type": "uint256[]"
        },
        {
          "internalType": "uint256[]",
          "name": "values",
          "type": "uint256[]"
        }
      ],
      "name": "burnBatch",
      "outputs": [],
      "stateMutability": "nonpayable",
      "type": "function"
    },
    {
      "inputs": [
        {
          "internalType": "bytes32",
          "name": "role",
          "type": "bytes32"
        }
      ],
      "name": "getRoleAdmin",
      "outputs": [
        {
          "internalType": "bytes32",
          "name": "",
          "type": "bytes32"
        }
      ],
      "stateMutability": "view",
      "type": "function",
      "constant": true
    },
    {
      "inputs": [
        {
          "internalType": "bytes32",
          "name": "role",
          "type": "bytes32"
        },
        {
          "internalType": "uint256",
          "name": "index",
          "type": "uint256"
        }
      ],
      "name": "getRoleMember",
      "outputs": [
        {
          "internalType": "address",
          "name": "",
          "type": "address"
        }
      ],
      "stateMutability": "view",
      "type": "function",
      "constant": true
    },
    {
      "inputs": [
        {
          "internalType": "bytes32",
          "name": "role",
          "type": "bytes32"
        }
      ],
      "name": "getRoleMemberCount",
      "outputs": [
        {
          "internalType": "uint256",
          "name": "",
          "type": "uint256"
        }
      ],
      "stateMutability": "view",
      "type": "function",
      "constant": true
    },
    {
      "inputs": [
        {
          "internalType": "bytes32",
          "name": "role",
          "type": "bytes32"
        },
        {
          "internalType": "address",
          "name": "account",
          "type": "address"
        }
      ],
      "name": "grantRole",
      "outputs": [],
      "stateMutability": "nonpayable",
      "type": "function"
    },
    {
      "inputs": [
        {
          "internalType": "bytes32",
          "name": "role",
          "type": "bytes32"
        },
        {
          "internalType": "address",
          "name": "account",
          "type": "address"
        }
      ],
      "name": "hasRole",
      "outputs": [
        {
          "internalType": "bool",
          "name": "",
          "type": "bool"
        }
      ],
      "stateMutability": "view",
      "type": "function",
      "constant": true
    },
    {
      "inputs": [
        {
          "internalType": "address",
          "name": "account",
          "type": "address"
        },
        {
          "internalType": "address",
          "name": "operator",
          "type": "address"
        }
      ],
      "name": "isApprovedForAll",
      "outputs": [
        {
          "internalType": "bool",
          "name": "",
          "type": "bool"
        }
      ],
      "stateMutability": "view",
      "type": "function",
      "constant": true
    },
    {
      "inputs": [
        {
          "internalType": "address",
          "name": "to",
          "type": "address"
        },
        {
          "internalType": "uint256",
          "name": "id",
          "type": "uint256"
        },
        {
          "internalType": "uint256",
          "name": "amount",
          "type": "uint256"
        },
        {
          "internalType": "bytes",
          "name": "data",
          "type": "bytes"
        }
      ],
      "name": "mint",
      "outputs": [],
      "stateMutability": "nonpayable",
      "type": "function"
    },
    {
      "inputs": [
        {
          "internalType": "address",
          "name": "to",
          "type": "address"
        },
        {
          "internalType": "uint256[]",
          "name": "ids",
          "type": "uint256[]"
        },
        {
          "internalType": "uint256[]",
          "name": "amounts",
          "type": "uint256[]"
        },
        {
          "internalType": "bytes",
          "name": "data",
          "type": "bytes"
        }
      ],
      "name": "mintBatch",
      "outputs": [],
      "stateMutability": "nonpayable",
      "type": "function"
    },
    {
      "inputs": [],
      "name": "pause",
      "outputs": [],
      "stateMutability": "nonpayable",
      "type": "function"
    },
    {
      "inputs": [],
      "name": "paused",
      "outputs": [
        {
          "internalType": "bool",
          "name": "",
          "type": "bool"
        }
      ],
      "stateMutability": "view",
      "type": "function",
      "constant": true
    },
    {
      "inputs": [
        {
          "internalType": "bytes32",
          "name": "role",
          "type": "bytes32"
        },
        {
          "internalType": "address",
          "name": "account",
          "type": "address"
        }
      ],
      "name": "renounceRole",
      "outputs": [],
      "stateMutability": "nonpayable",
      "type": "function"
    },
    {
      "inputs": [
        {
          "internalType": "bytes32",
          "name": "role",
          "type": "bytes32"
        },
        {
          "internalType": "address",
          "name": "account",
          "type": "address"
        }
      ],
      "name": "revokeRole",
      "outputs": [],
      "stateMutability": "nonpayable",
      "type": "function"
    },
    {
      "inputs": [
        {
          "internalType": "address",
          "name": "from",
          "type": "address"
        },
        {
          "internalType": "address",
          "name": "to",
          "type": "address"
        },
        {
          "internalType": "uint256[]",
          "name": "ids",
          "type": "uint256[]"
        },
        {
          "internalType": "uint256[]",
          "name": "amounts",
          "type": "uint256[]"
        },
        {
          "internalType": "bytes",
          "name": "data",
          "type": "bytes"
        }
      ],
      "name": "safeBatchTransferFrom",
      "outputs": [],
      "stateMutability": "nonpayable",
      "type": "function"
    },
    {
      "inputs": [
        {
          "internalType": "address",
          "name": "from",
          "type": "address"
        },
        {
          "internalType": "address",
          "name": "to",
          "type": "address"
        },
        {
          "internalType": "uint256",
          "name": "id",
          "type": "uint256"
        },
        {
          "internalType": "uint256",
          "name": "amount",
          "type": "uint256"
        },
        {
          "internalType": "bytes",
          "name": "data",
          "type": "bytes"
        }
      ],
      "name": "safeTransferFrom",
      "outputs": [],
      "stateMutability": "nonpayable",
      "type": "function"
    },
    {
      "inputs": [
        {
          "internalType": "address",
          "name": "operator",
          "type": "address"
        },
        {
          "internalType": "bool",
          "name": "approved",
          "type": "bool"
        }
      ],
      "name": "setApprovalForAll",
      "outputs": [],
      "stateMutability": "nonpayable",
      "type": "function"
    },
    {
      "inputs": [
        {
          "internalType": "bytes4",
          "name": "interfaceId",
          "type": "bytes4"
        }
      ],
      "name": "supportsInterface",
      "outputs": [
        {
          "internalType": "bool",
          "name": "",
          "type": "bool"
        }
      ],
      "stateMutability": "view",
      "type": "function",
      "constant": true
    },
    {
      "inputs": [],
      "name": "unpause",
      "outputs": [],
      "stateMutability": "nonpayable",
      "type": "function"
    },
    {
      "inputs": [
        {
          "internalType": "uint256",
          "name": "",
          "type": "uint256"
        }
      ],
      "name": "uri",
      "outputs": [
        {
          "internalType": "string",
          "name": "",
          "type": "string"
        }
      ],
      "stateMutability": "view",
      "type": "function",
      "constant": true
    },
    {
      "inputs": [
        {
          "internalType": "string",
          "name": "newuri",
          "type": "string"
        }
      ],
      "name": "initialize",
      "outputs": [],
      "stateMutability": "nonpayable",
      "type": "function"
    },
    {
      "inputs": [
        {
          "internalType": "string",
          "name": "newuri",
          "type": "string"
        },
        {
          "internalType": "uint256",
          "name": "id",
          "type": "uint256"
        }
      ],
      "name": "setURI",
      "outputs": [],
      "stateMutability": "nonpayable",
      "type": "function"
    }
  ],
  "bytecode": "0x608060405234801561001057600080fd5b5061372b806100206000396000f3fe608060405234801561001057600080fd5b50600436106101485760003560e01c8062fdd58e1461014d57806301ffc9a71461018b5780630e89341c146101c65780631f7fdffa14610258578063248a9ca3146104125780632eb2c2d61461042f5780632f2ff15d146105f057806336568abe1461061c5780633f4ba83a146106485780634e1273f4146106505780635c975abb146107c357806367db3b8f146107cb5780636b20c45414610871578063731133e9146109a45780638456cb5914610a645780639010d07c14610a6c57806391d1485414610aab578063a217fddf14610ad7578063a22cb46514610adf578063ca15c87314610b0d578063d539139314610b2a578063d547741f14610b32578063e63ab1e914610b5e578063e985e9c514610b66578063f242432a14610b94578063f5298aca14610c5d578063f62d188814610c8f575b600080fd5b6101796004803603604081101561016357600080fd5b506001600160a01b038135169060200135610d33565b60408051918252519081900360200190f35b6101b2600480360360208110156101a157600080fd5b50356001600160e01b031916610da5565b604080519115158252519081900360200190f35b6101e3600480360360208110156101dc57600080fd5b5035610dc4565b6040805160208082528351818301528351919283929083019185019080838360005b8381101561021d578181015183820152602001610205565b50505050905090810190601f16801561024a5780820380516001836020036101000a031916815260200191505b509250505060405180910390f35b6104106004803603608081101561026e57600080fd5b6001600160a01b038235169190810190604081016020820135600160201b81111561029857600080fd5b8201836020820111156102aa57600080fd5b803590602001918460208302840111600160201b831117156102cb57600080fd5b9190808060200260200160405190810160405280939291908181526020018383602002808284376000920191909152509295949360208101935035915050600160201b81111561031a57600080fd5b82018360208201111561032c57600080fd5b803590602001918460208302840111600160201b8311171561034d57600080fd5b9190808060200260200160405190810160405280939291908181526020018383602002808284376000920191909152509295949360208101935035915050600160201b81111561039c57600080fd5b8201836020820111156103ae57600080fd5b803590602001918460018302840111600160201b831117156103cf57600080fd5b91908080601f016020809104026020016040519081016040528093929190818152602001838380828437600092019190915250929550610e5c945050505050565b005b6101796004803603602081101561042857600080fd5b5035610eda565b610410600480360360a081101561044557600080fd5b6001600160a01b038235811692602081013590911691810190606081016040820135600160201b81111561047857600080fd5b82018360208201111561048a57600080fd5b803590602001918460208302840111600160201b831117156104ab57600080fd5b9190808060200260200160405190810160405280939291908181526020018383602002808284376000920191909152509295949360208101935035915050600160201b8111156104fa57600080fd5b82018360208201111561050c57600080fd5b803590602001918460208302840111600160201b8311171561052d57600080fd5b9190808060200260200160405190810160405280939291908181526020018383602002808284376000920191909152509295949360208101935035915050600160201b81111561057c57600080fd5b82018360208201111561058e57600080fd5b803590602001918460018302840111600160201b831117156105af57600080fd5b91908080601f016020809104026020016040519081016040528093929190818152602001838380828437600092019190915250929550610eef945050505050565b6104106004803603604081101561060657600080fd5b50803590602001356001600160a01b03166111e0565b6104106004803603604081101561063257600080fd5b50803590602001356001600160a01b0316611247565b6104106112a8565b6107736004803603604081101561066657600080fd5b810190602081018135600160201b81111561068057600080fd5b82018360208201111561069257600080fd5b803590602001918460208302840111600160201b831117156106b357600080fd5b9190808060200260200160405190810160405280939291908181526020018383602002808284376000920191909152509295949360208101935035915050600160201b81111561070257600080fd5b82018360208201111561071457600080fd5b803590602001918460208302840111600160201b8311171561073557600080fd5b919080806020026020016040519081016040528093929190818152602001838360200280828437600092019190915250929550611319945050505050565b60408051602080825283518183015283519192839290830191858101910280838360005b838110156107af578181015183820152602001610797565b505050509050019250505060405180910390f35b6101b2611496565b610410600480360360408110156107e157600080fd5b810190602081018135600160201b8111156107fb57600080fd5b82018360208201111561080d57600080fd5b803590602001918460018302840111600160201b8311171561082e57600080fd5b91908080601f01602080910402602001604051908101604052809392919081815260200183838082843760009201919091525092955050913592506114a0915050565b6104106004803603606081101561088757600080fd5b6001600160a01b038235169190810190604081016020820135600160201b8111156108b157600080fd5b8201836020820111156108c357600080fd5b803590602001918460208302840111600160201b831117156108e457600080fd5b9190808060200260200160405190810160405280939291908181526020018383602002808284376000920191909152509295949360208101935035915050600160201b81111561093357600080fd5b82018360208201111561094557600080fd5b803590602001918460208302840111600160201b8311171561096657600080fd5b91908080602002602001604051908101604052809392919081815260200183836020028082843760009201919091525092955061158b945050505050565b610410600480360360808110156109ba57600080fd5b6001600160a01b038235169160208101359160408201359190810190608081016060820135600160201b8111156109f057600080fd5b820183602082011115610a0257600080fd5b803590602001918460018302840111600160201b83111715610a2357600080fd5b91908080601f016020809104026020016040519081016040528093929190818152602001838380828437600092019190915250929550611604945050505050565b610410611677565b610a8f60048036036040811015610a8257600080fd5b50803590602001356116e6565b604080516001600160a01b039092168252519081900360200190f35b6101b260048036036040811015610ac157600080fd5b50803590602001356001600160a01b031661170b565b610179611729565b61041060048036036040811015610af557600080fd5b506001600160a01b038135169060200135151561172e565b61017960048036036020811015610b2357600080fd5b503561181d565b610179611834565b61041060048036036040811015610b4857600080fd5b50803590602001356001600160a01b0316611857565b6101796118b0565b6101b260048036036040811015610b7c57600080fd5b506001600160a01b03813581169160200135166118d3565b610410600480360360a0811015610baa57600080fd5b6001600160a01b03823581169260208101359091169160408201359160608101359181019060a081016080820135600160201b811115610be957600080fd5b820183602082011115610bfb57600080fd5b803590602001918460018302840111600160201b83111715610c1c57600080fd5b91908080601f016020809104026020016040519081016040528093929190818152602001838380828437600092019190915250929550611901945050505050565b61041060048036036060811015610c7357600080fd5b506001600160a01b038135169060208101359060400135611ac0565b61041060048036036020811015610ca557600080fd5b810190602081018135600160201b811115610cbf57600080fd5b820183602082011115610cd157600080fd5b803590602001918460018302840111600160201b83111715610cf257600080fd5b91908080601f016020809104026020016040519081016040528093929190818152602001838380828437600092019190915250929550611b34945050505050565b60006001600160a01b038316610d7a5760405162461bcd60e51b815260040180806020018281038252602b815260200180613371602b913960400191505060405180910390fd5b5060008181526097602090815260408083206001600160a01b03861684529091529020545b92915050565b6001600160e01b03191660009081526065602052604090205460ff1690565b60998054604080516020601f6002600019610100600188161502019095169490940493840181900481028201810190925282815260609390929091830182828015610e505780601f10610e2557610100808354040283529160200191610e50565b820191906000526020600020905b815481529060010190602001808311610e3357829003601f168201915b50505050509050919050565b604080516a4d494e5445525f524f4c4560a81b8152905190819003600b019020610e8d90610e88611bdf565b61170b565b610ec85760405162461bcd60e51b815260040180806020018281038252603881526020018061351e6038913960400191505060405180910390fd5b610ed484848484611be3565b50505050565b60009081526033602052604090206002015490565b8151835114610f2f5760405162461bcd60e51b815260040180806020018281038252602881526020018061367e6028913960400191505060405180910390fd5b6001600160a01b038416610f745760405162461bcd60e51b81526004018080602001828103825260258152602001806134766025913960400191505060405180910390fd5b610f7c611bdf565b6001600160a01b0316856001600160a01b03161480610fa75750610fa785610fa2611bdf565b6118d3565b610fe25760405162461bcd60e51b815260040180806020018281038252603281526020018061349b6032913960400191505060405180910390fd5b6000610fec611bdf565b9050610ffc818787878787611e26565b60005b845181101561110257600085828151811061101657fe5b60200260200101519050600085838151811061102e57fe5b6020026020010151905061109b816040518060600160405280602a8152602001613556602a91396097600086815260200190815260200160002060008d6001600160a01b03166001600160a01b0316815260200190815260200160002054611e349092919063ffffffff16565b60008381526097602090815260408083206001600160a01b038e811685529252808320939093558a16815220546110d29082611ecb565b60009283526097602090815260408085206001600160a01b038c1686529091529092209190915550600101610fff565b50846001600160a01b0316866001600160a01b0316826001600160a01b03166000805160206132848339815191528787604051808060200180602001838103835285818151815260200191508051906020019060200280838360005b8381101561117657818101518382015260200161115e565b50505050905001838103825284818151815260200191508051906020019060200280838360005b838110156111b557818101518382015260200161119d565b5050505090500194505050505060405180910390a46111d8818787878787611f23565b505050505050565b6000828152603360205260409020600201546111fe90610e88611bdf565b6112395760405162461bcd60e51b815260040180806020018281038252602f815260200180613322602f913960400191505060405180910390fd5b611243828261225f565b5050565b61124f611bdf565b6001600160a01b0316816001600160a01b03161461129e5760405162461bcd60e51b815260040180806020018281038252602f8152602001806136c7602f913960400191505060405180910390fd5b61124382826122ce565b604080516a5041555345525f524f4c4560a81b8152905190819003600b0190206112d490610e88611bdf565b61130f5760405162461bcd60e51b815260040180806020018281038252603b8152602001806135b8603b913960400191505060405180910390fd5b61131761233d565b565b6060815183511461135b5760405162461bcd60e51b81526004018080602001828103825260298152602001806136556029913960400191505060405180910390fd5b606083516001600160401b038111801561137457600080fd5b5060405190808252806020026020018201604052801561139e578160200160208202803683370190505b50905060005b845181101561148e5760006001600160a01b03168582815181106113c457fe5b60200260200101516001600160a01b031614156114125760405162461bcd60e51b815260040180806020018281038252603181526020018061339c6031913960400191505060405180910390fd5b6097600085838151811061142257fe5b60200260200101518152602001908152602001600020600086838151811061144657fe5b60200260200101516001600160a01b03166001600160a01b031681526020019081526020016000205482828151811061147b57fe5b60209081029190910101526001016113a4565b509392505050565b60fb5460ff165b90565b6114ad6000610e88611bdf565b6114e85760405162461bcd60e51b81526004018080602001828103825260388152602001806135806038913960400191505060405180910390fd5b807f6bb7ff708619ba0610cba295a58592e0451dee2622938c8755667688daf3529b836040518080602001828103825283818151815260200191508051906020019080838360005b83811015611548578181015183820152602001611530565b50505050905090810190601f1680156115755780820380516001836020036101000a031916815260200191505b509250505060405180910390a2611243826123db565b611593611bdf565b6001600160a01b0316836001600160a01b031614806115b957506115b983610fa2611bdf565b6115f45760405162461bcd60e51b815260040180806020018281038252602981526020018061341d6029913960400191505060405180910390fd5b6115ff8383836123ee565b505050565b604080516a4d494e5445525f524f4c4560a81b8152905190819003600b01902061163090610e88611bdf565b61166b5760405162461bcd60e51b815260040180806020018281038252603881526020018061351e6038913960400191505060405180910390fd5b610ed48484848461264a565b604080516a5041555345525f524f4c4560a81b8152905190819003600b0190206116a390610e88611bdf565b6116de5760405162461bcd60e51b81526004018080602001828103825260398152602001806135f36039913960400191505060405180910390fd5b61131761273f565b6000828152603360205260408120611704908363ffffffff6127c016565b9392505050565b6000828152603360205260408120611704908363ffffffff6127cc16565b600081565b816001600160a01b0316611740611bdf565b6001600160a01b031614156117865760405162461bcd60e51b815260040180806020018281038252602981526020018061362c6029913960400191505060405180910390fd5b8060986000611793611bdf565b6001600160a01b03908116825260208083019390935260409182016000908120918716808252919093529120805460ff1916921515929092179091556117d7611bdf565b60408051841515815290516001600160a01b0392909216917f17307eab39ab6107e8899845ad3d59bd9653f200f220920489ca2b5937696c319181900360200190a35050565b6000818152603360205260408120610d9f906127e1565b604080516a4d494e5445525f524f4c4560a81b8152905190819003600b01902081565b60008281526033602052604090206002015461187590610e88611bdf565b61129e5760405162461bcd60e51b81526004018080602001828103825260308152602001806134466030913960400191505060405180910390fd5b604080516a5041555345525f524f4c4560a81b8152905190819003600b01902081565b6001600160a01b03918216600090815260986020908152604080832093909416825291909152205460ff1690565b6001600160a01b0384166119465760405162461bcd60e51b81526004018080602001828103825260258152602001806134766025913960400191505060405180910390fd5b61194e611bdf565b6001600160a01b0316856001600160a01b03161480611974575061197485610fa2611bdf565b6119af5760405162461bcd60e51b815260040180806020018281038252602981526020018061341d6029913960400191505060405180910390fd5b60006119b9611bdf565b90506119d98187876119ca886127ec565b6119d3886127ec565b87611e26565b611a26836040518060600160405280602a8152602001613556602a913960008781526097602090815260408083206001600160a01b038d168452909152902054919063ffffffff611e3416565b60008581526097602090815260408083206001600160a01b038b81168552925280832093909355871681522054611a5d9084611ecb565b60008581526097602090815260408083206001600160a01b03808b168086529184529382902094909455805188815291820187905280518a84169386169260008051602061335183398151915292908290030190a46111d8818787878787612830565b611ac8611bdf565b6001600160a01b0316836001600160a01b03161480611aee5750611aee83610fa2611bdf565b611b295760405162461bcd60e51b815260040180806020018281038252602981526020018061341d6029913960400191505060405180910390fd5b6115ff8383836129c3565b600054610100900460ff1680611b4d5750611b4d612aea565b80611b5b575060005460ff16155b611b965760405162461bcd60e51b815260040180806020018281038252602e8152602001806134cd602e913960400191505060405180910390fd5b600054610100900460ff16158015611bc1576000805460ff1961ff0019909116610100171660011790555b611bca82612af0565b8015611243576000805461ff00191690555050565b3390565b6001600160a01b038416611c285760405162461bcd60e51b81526004018080602001828103825260218152602001806136a66021913960400191505060405180910390fd5b8151835114611c685760405162461bcd60e51b815260040180806020018281038252602881526020018061367e6028913960400191505060405180910390fd5b6000611c72611bdf565b9050611c8381600087878787611e26565b60005b8451811015611d4757611cfe60976000878481518110611ca257fe5b602002602001015181526020019081526020016000206000886001600160a01b03166001600160a01b0316815260200190815260200160002054858381518110611ce857fe5b6020026020010151611ecb90919063ffffffff16565b60976000878481518110611d0e57fe5b602090810291909101810151825281810192909252604090810160009081206001600160a01b038b168252909252902055600101611c86565b50846001600160a01b031660006001600160a01b0316826001600160a01b03166000805160206132848339815191528787604051808060200180602001838103835285818151815260200191508051906020019060200280838360005b83811015611dbc578181015183820152602001611da4565b50505050905001838103825284818151815260200191508051906020019060200280838360005b83811015611dfb578181015183820152602001611de3565b5050505090500194505050505060405180910390a4611e1f81600087878787611f23565b5050505050565b6111d8868686868686612bbf565b60008184841115611ec35760405162461bcd60e51b81526004018080602001828103825283818151815260200191508051906020019080838360005b83811015611e88578181015183820152602001611e70565b50505050905090810190601f168015611eb55780820380516001836020036101000a031916815260200191505b509250505060405180910390fd5b505050900390565b600082820183811015611704576040805162461bcd60e51b815260206004820152601b60248201527a536166654d6174683a206164646974696f6e206f766572666c6f7760281b604482015290519081900360640190fd5b611f35846001600160a01b0316612c11565b156111d857836001600160a01b031663bc197c8187878686866040518663ffffffff1660e01b815260040180866001600160a01b03166001600160a01b03168152602001856001600160a01b03166001600160a01b03168152602001806020018060200180602001848103845287818151815260200191508051906020019060200280838360005b83811015611fd5578181015183820152602001611fbd565b50505050905001848103835286818151815260200191508051906020019060200280838360005b83811015612014578181015183820152602001611ffc565b50505050905001848103825285818151815260200191508051906020019080838360005b83811015612050578181015183820152602001612038565b50505050905090810190601f16801561207d5780820380516001836020036101000a031916815260200191505b5098505050505050505050602060405180830381600087803b1580156120a257600080fd5b505af19250505080156120c757506040513d60208110156120c257600080fd5b505160015b612207576040516000815260443d10156120e35750600061217e565b60046000803e60005160e01c6308c379a0811461210457600091505061217e565b60043d036004833e81513d60248201116001600160401b038211171561212f5760009250505061217e565b80830180516001600160401b0381111561215057600094505050505061217e565b8060208301013d860181111561216e5760009550505050505061217e565b601f01601f191660405250925050505b8061218957506121d0565b60405162461bcd60e51b8152602060048201818152835160248401528351849391928392604401919085019080838360008315611e88578181015183820152602001611e70565b60405162461bcd60e51b81526004018080602001828103825260348152602001806132a46034913960400191505060405180910390fd5b6001600160e01b0319811663bc197c8160e01b146122565760405162461bcd60e51b81526004018080602001828103825260288152602001806132fa6028913960400191505060405180910390fd5b50505050505050565b600082815260336020526040902061227d908263ffffffff612c1716565b156112435761228a611bdf565b6001600160a01b0316816001600160a01b0316837f2f8788117e7eff1d82e926ec794901d17c78024a50270940304540a733656f0d60405160405180910390a45050565b60008281526033602052604090206122ec908263ffffffff612c2c16565b15611243576122f9611bdf565b6001600160a01b0316816001600160a01b0316837ff6391f5c32d9c69d2a47ea670b442974b53935d1edc7fd64eb21e047a839171b60405160405180910390a45050565b60fb5460ff1661238b576040805162461bcd60e51b815260206004820152601460248201527314185d5cd8589b194e881b9bdd081c185d5cd95960621b604482015290519081900360640190fd5b60fb805460ff191690557f5db9ee0a495bf2e6ff9c91a7834c1ba4fdd244a5e8aa4e537bd38aeae4b073aa6123be611bdf565b604080516001600160a01b039092168252519081900360200190a1565b80516112439060999060208401906131eb565b6001600160a01b0383166124335760405162461bcd60e51b81526004018080602001828103825260238152602001806134fb6023913960400191505060405180910390fd5b80518251146124735760405162461bcd60e51b815260040180806020018281038252602881526020018061367e6028913960400191505060405180910390fd5b600061247d611bdf565b905061249d81856000868660405180602001604052806000815250611e26565b60005b835181101561257b576125328382815181106124b857fe5b60200260200101516040518060600160405280602481526020016133cd60249139609760008886815181106124e957fe5b602002602001015181526020019081526020016000206000896001600160a01b03166001600160a01b0316815260200190815260200160002054611e349092919063ffffffff16565b6097600086848151811061254257fe5b602090810291909101810151825281810192909252604090810160009081206001600160a01b038a1682529092529020556001016124a0565b5060006001600160a01b0316846001600160a01b0316826001600160a01b03166000805160206132848339815191528686604051808060200180602001838103835285818151815260200191508051906020019060200280838360005b838110156125f05781810151838201526020016125d8565b50505050905001838103825284818151815260200191508051906020019060200280838360005b8381101561262f578181015183820152602001612617565b5050505090500194505050505060405180910390a450505050565b6001600160a01b03841661268f5760405162461bcd60e51b81526004018080602001828103825260218152602001806136a66021913960400191505060405180910390fd5b6000612699611bdf565b90506126ab816000876119ca886127ec565b60008481526097602090815260408083206001600160a01b03891684529091529020546126de908463ffffffff611ecb16565b60008581526097602090815260408083206001600160a01b03808b168086529184528285209590955581518981529283018890528151909486169260008051602061335183398151915292908290030190a4611e1f81600087878787612830565b60fb5460ff161561278a576040805162461bcd60e51b815260206004820152601060248201526f14185d5cd8589b194e881c185d5cd95960821b604482015290519081900360640190fd5b60fb805460ff191660011790557f62e78cea01bee320cd4e420270b5ea74000d11b0c9f74754ebdbfc544b05a2586123be611bdf565b60006117048383612c41565b6000611704836001600160a01b038416612ca5565b6000610d9f82612cbd565b60408051600180825281830190925260609182919060208083019080368337019050509050828160008151811061281f57fe5b602090810291909101015292915050565b612842846001600160a01b0316612c11565b156111d857836001600160a01b031663f23a6e6187878686866040518663ffffffff1660e01b815260040180866001600160a01b03166001600160a01b03168152602001856001600160a01b03166001600160a01b0316815260200184815260200183815260200180602001828103825283818151815260200191508051906020019080838360005b838110156128e35781810151838201526020016128cb565b50505050905090810190601f1680156129105780820380516001836020036101000a031916815260200191505b509650505050505050602060405180830381600087803b15801561293357600080fd5b505af192505050801561295857506040513d602081101561295357600080fd5b505160015b612974576040516000815260443d10156120e35750600061217e565b6001600160e01b0319811663f23a6e6160e01b146122565760405162461bcd60e51b81526004018080602001828103825260288152602001806132fa6028913960400191505060405180910390fd5b6001600160a01b038316612a085760405162461bcd60e51b81526004018080602001828103825260238152602001806134fb6023913960400191505060405180910390fd5b6000612a12611bdf565b9050612a4281856000612a24876127ec565b612a2d876127ec565b60405180602001604052806000815250611e26565b612a8f826040518060600160405280602481526020016133cd6024913960008681526097602090815260408083206001600160a01b038b168452909152902054919063ffffffff611e3416565b60008481526097602090815260408083206001600160a01b03808a168086529184528285209590955581518881529283018790528151939490939086169260008051602061335183398151915292908290030190a450505050565b303b1590565b600054610100900460ff1680612b095750612b09612aea565b80612b17575060005460ff16155b612b525760405162461bcd60e51b815260040180806020018281038252602e8152602001806134cd602e913960400191505060405180910390fd5b600054610100900460ff16158015612b7d576000805460ff1961ff0019909116610100171660011790555b612b85612cc1565b612b8d612cc1565b612b95612d63565b612b9e82612e00565b612ba6612cc1565b612bae612eb6565b612bb6612cc1565b611bca82612f61565b612bcd8686868686866111d8565b612bd5611496565b156111d85760405162461bcd60e51b815260040180806020018281038252602c8152602001806133f1602c913960400191505060405180910390fd5b3b151590565b6000611704836001600160a01b038416613058565b6000611704836001600160a01b0384166130a2565b81546000908210612c835760405162461bcd60e51b81526004018080602001828103825260228152602001806132d86022913960400191505060405180910390fd5b826000018281548110612c9257fe5b9060005260206000200154905092915050565b60009081526001919091016020526040902054151590565b5490565b600054610100900460ff1680612cda5750612cda612aea565b80612ce8575060005460ff16155b612d235760405162461bcd60e51b815260040180806020018281038252602e8152602001806134cd602e913960400191505060405180910390fd5b600054610100900460ff16158015612d4e576000805460ff1961ff0019909116610100171660011790555b8015612d60576000805461ff00191690555b50565b600054610100900460ff1680612d7c5750612d7c612aea565b80612d8a575060005460ff16155b612dc55760405162461bcd60e51b815260040180806020018281038252602e8152602001806134cd602e913960400191505060405180910390fd5b600054610100900460ff16158015612df0576000805460ff1961ff0019909116610100171660011790555b612d4e6301ffc9a760e01b613168565b600054610100900460ff1680612e195750612e19612aea565b80612e27575060005460ff16155b612e625760405162461bcd60e51b815260040180806020018281038252602e8152602001806134cd602e913960400191505060405180910390fd5b600054610100900460ff16158015612e8d576000805460ff1961ff0019909116610100171660011790555b612e96826123db565b612ea6636cdb3d1360e11b613168565b611bca6303a24d0760e21b613168565b600054610100900460ff1680612ecf5750612ecf612aea565b80612edd575060005460ff16155b612f185760405162461bcd60e51b815260040180806020018281038252602e8152602001806134cd602e913960400191505060405180910390fd5b600054610100900460ff16158015612f43576000805460ff1961ff0019909116610100171660011790555b60fb805460ff191690558015612d60576000805461ff001916905550565b600054610100900460ff1680612f7a5750612f7a612aea565b80612f88575060005460ff16155b612fc35760405162461bcd60e51b815260040180806020018281038252602e8152602001806134cd602e913960400191505060405180910390fd5b600054610100900460ff16158015612fee576000805460ff1961ff0019909116610100171660011790555b6130006000612ffb611bdf565b611239565b604080516a4d494e5445525f524f4c4560a81b8152905190819003600b01902061302c90612ffb611bdf565b604080516a5041555345525f524f4c4560a81b8152905190819003600b019020611bca90612ffb611bdf565b60006130648383612ca5565b61309a57508154600181810184556000848152602080822090930184905584548482528286019093526040902091909155610d9f565b506000610d9f565b6000818152600183016020526040812054801561315e57835460001980830191908101906000908790839081106130d557fe5b90600052602060002001549050808760000184815481106130f257fe5b60009182526020808320909101929092558281526001898101909252604090209084019055865487908061312257fe5b60019003818190600052602060002001600090559055866001016000878152602001908152602001600020600090556001945050505050610d9f565b6000915050610d9f565b6001600160e01b031980821614156131c6576040805162461bcd60e51b815260206004820152601c60248201527b115490cc4d8d4e881a5b9d985b1a59081a5b9d195c999858d9481a5960221b604482015290519081900360640190fd5b6001600160e01b0319166000908152606560205260409020805460ff19166001179055565b828054600181600116156101000203166002900490600052602060002090601f016020900481019282601f1061322c57805160ff1916838001178555613259565b82800160010185558215613259579182015b8281111561325957825182559160200191906001019061323e565b50613265929150613269565b5090565b61149d91905b80821115613265576000815560010161326f56fe4a39dc06d4c0dbc64b70af90fd698a233a518aa5d07e595d983b8c0526c8f7fb455243313135353a207472616e7366657220746f206e6f6e2045524331313535526563656976657220696d706c656d656e746572456e756d657261626c655365743a20696e646578206f7574206f6620626f756e6473455243313135353a204552433131353552656365697665722072656a656374656420746f6b656e73416363657373436f6e74726f6c3a2073656e646572206d75737420626520616e2061646d696e20746f206772616e74c3d58168c5ae7397731d063d5bbf3d657854427343f4c083240f7aacaa2d0f62455243313135353a2062616c616e636520717565727920666f7220746865207a65726f2061646472657373455243313135353a2062617463682062616c616e636520717565727920666f7220746865207a65726f2061646472657373455243313135353a206275726e20616d6f756e7420657863656564732062616c616e6365455243313135355061757361626c653a20746f6b656e207472616e73666572207768696c6520706175736564455243313135353a2063616c6c6572206973206e6f74206f776e6572206e6f7220617070726f766564416363657373436f6e74726f6c3a2073656e646572206d75737420626520616e2061646d696e20746f207265766f6b65455243313135353a207472616e7366657220746f20746865207a65726f2061646472657373455243313135353a207472616e736665722063616c6c6572206973206e6f74206f776e6572206e6f7220617070726f766564496e697469616c697a61626c653a20636f6e747261637420697320616c726561647920696e697469616c697a6564455243313135353a206275726e2066726f6d20746865207a65726f2061646472657373455243313135355072657365744d696e7465725061757365723a206d7573742068617665206d696e74657220726f6c6520746f206d696e74455243313135353a20696e73756666696369656e742062616c616e636520666f72207472616e73666572536f617050756e6b436f6c6c65637469626c65733a206d75737420686176652061646d696e20726f6c6520746f206368616e676520757269455243313135355072657365744d696e7465725061757365723a206d75737420686176652070617573657220726f6c6520746f20756e7061757365455243313135355072657365744d696e7465725061757365723a206d75737420686176652070617573657220726f6c6520746f207061757365455243313135353a2073657474696e6720617070726f76616c2073746174757320666f722073656c66455243313135353a206163636f756e747320616e6420696473206c656e677468206d69736d61746368455243313135353a2069647320616e6420616d6f756e7473206c656e677468206d69736d61746368455243313135353a206d696e7420746f20746865207a65726f2061646472657373416363657373436f6e74726f6c3a2063616e206f6e6c792072656e6f756e636520726f6c657320666f722073656c66a2646970667358221220f6c9d7b31da3b406c9cce4cb2c6d1c1cd32c409d2bfdfe2d3cc838d15d2a6c1464736f6c63430006060033",
  "immutableReferences": {},
  "source": "pragma solidity ^0.6.0;\n\nimport \"@openzeppelin/contracts-upgradeable/presets/ERC1155PresetMinterPauserUpgradeable.sol\";\n\ncontract SoapPunkCollectibles is\n    ERC1155PresetMinterPauserUpgradeable\n{\n\n    function initialize(string memory newuri) override initializer public {\n        __ERC1155PresetMinterPauser_init(newuri);\n     }\n\n     function setURI(string memory newuri, uint256 id) public {\n         require(hasRole(DEFAULT_ADMIN_ROLE, _msgSender()), \"SoapPunkCollectibles: must have admin role to change uri\");\n\n         emit URI(newuri, id);\n\n         _setURI(newuri);\n     }\n\n}\n",
  "sourcePath": "/home/gabriel/Documentos/Trabajo/Eibriel/Proyectos/Decentraland/GoldRush/SPContracts/ethereum/contracts/SoupPunk.sol",
  "compiler": {
    "name": "solc",
    "version": "0.6.6+commit.6c089d02.Emscripten.clang"
  },
  "schemaVersion": "3.3.2",
  "updatedAt": "2020-11-20T03:22:31.895Z",
  "networkType": "ethereum",
  "devdoc": {
    "methods": {
      "balanceOf(address,uint256)": {
        "details": "See {IERC1155-balanceOf}.     * Requirements:     * - `account` cannot be the zero address."
      },
      "balanceOfBatch(address[],uint256[])": {
        "details": "See {IERC1155-balanceOfBatch}.     * Requirements:     * - `accounts` and `ids` must have the same length."
      },
      "getRoleAdmin(bytes32)": {
        "details": "Returns the admin role that controls `role`. See {grantRole} and {revokeRole}.     * To change a role's admin, use {_setRoleAdmin}."
      },
      "getRoleMember(bytes32,uint256)": {
        "details": "Returns one of the accounts that have `role`. `index` must be a value between 0 and {getRoleMemberCount}, non-inclusive.     * Role bearers are not sorted in any particular way, and their ordering may change at any point.     * WARNING: When using {getRoleMember} and {getRoleMemberCount}, make sure you perform all queries on the same block. See the following https://forum.openzeppelin.com/t/iterating-over-elements-on-enumerableset-in-openzeppelin-contracts/2296[forum post] for more information."
      },
      "getRoleMemberCount(bytes32)": {
        "details": "Returns the number of accounts that have `role`. Can be used together with {getRoleMember} to enumerate all bearers of a role."
      },
      "grantRole(bytes32,address)": {
        "details": "Grants `role` to `account`.     * If `account` had not been already granted `role`, emits a {RoleGranted} event.     * Requirements:     * - the caller must have ``role``'s admin role."
      },
      "hasRole(bytes32,address)": {
        "details": "Returns `true` if `account` has been granted `role`."
      },
      "isApprovedForAll(address,address)": {
        "details": "See {IERC1155-isApprovedForAll}."
      },
      "mint(address,uint256,uint256,bytes)": {
        "details": "Creates `amount` new tokens for `to`, of token type `id`.     * See {ERC1155-_mint}.     * Requirements:     * - the caller must have the `MINTER_ROLE`."
      },
      "mintBatch(address,uint256[],uint256[],bytes)": {
        "details": "xref:ROOT:erc1155.adoc#batch-operations[Batched] variant of {mint}."
      },
      "pause()": {
        "details": "Pauses all token transfers.     * See {ERC1155Pausable} and {Pausable-_pause}.     * Requirements:     * - the caller must have the `PAUSER_ROLE`."
      },
      "paused()": {
        "details": "Returns true if the contract is paused, and false otherwise."
      },
      "renounceRole(bytes32,address)": {
        "details": "Revokes `role` from the calling account.     * Roles are often managed via {grantRole} and {revokeRole}: this function's purpose is to provide a mechanism for accounts to lose their privileges if they are compromised (such as when a trusted device is misplaced).     * If the calling account had been granted `role`, emits a {RoleRevoked} event.     * Requirements:     * - the caller must be `account`."
      },
      "revokeRole(bytes32,address)": {
        "details": "Revokes `role` from `account`.     * If `account` had been granted `role`, emits a {RoleRevoked} event.     * Requirements:     * - the caller must have ``role``'s admin role."
      },
      "safeBatchTransferFrom(address,address,uint256[],uint256[],bytes)": {
        "details": "See {IERC1155-safeBatchTransferFrom}."
      },
      "safeTransferFrom(address,address,uint256,uint256,bytes)": {
        "details": "See {IERC1155-safeTransferFrom}."
      },
      "setApprovalForAll(address,bool)": {
        "details": "See {IERC1155-setApprovalForAll}."
      },
      "supportsInterface(bytes4)": {
        "details": "See {IERC165-supportsInterface}.     * Time complexity O(1), guaranteed to always use less than 30 000 gas."
      },
      "unpause()": {
        "details": "Unpauses all token transfers.     * See {ERC1155Pausable} and {Pausable-_unpause}.     * Requirements:     * - the caller must have the `PAUSER_ROLE`."
      },
      "uri(uint256)": {
        "details": "See {IERC1155MetadataURI-uri}.     * This implementation returns the same URI for *all* token types. It relies on the token type ID substitution mechanism https://eips.ethereum.org/EIPS/eip-1155#metadata[defined in the EIP].     * Clients calling this function must replace the `\\{id\\}` substring with the actual token type ID."
      }
    }
  },
  "userdoc": {
    "methods": {}
  }
}