{
  "contractName": "SoapPunkCollectiblesV2",
  "abi": [
    {
      "anonymous": false,
      "inputs": [
        {
          "indexed": true,
          "internalType": "address",
          "name": "account",
          "type": "address"
        },
        {
          "indexed": true,
          "internalType": "address",
          "name": "operator",
          "type": "address"
        },
        {
          "indexed": false,
          "internalType": "bool",
          "name": "approved",
          "type": "bool"
        }
      ],
      "name": "ApprovalForAll",
      "type": "event"
    },
    {
      "anonymous": false,
      "inputs": [
        {
          "indexed": false,
          "internalType": "address",
          "name": "account",
          "type": "address"
        }
      ],
      "name": "Paused",
      "type": "event"
    },
    {
      "anonymous": false,
      "inputs": [
        {
          "indexed": true,
          "internalType": "bytes32",
          "name": "role",
          "type": "bytes32"
        },
        {
          "indexed": true,
          "internalType": "bytes32",
          "name": "previousAdminRole",
          "type": "bytes32"
        },
        {
          "indexed": true,
          "internalType": "bytes32",
          "name": "newAdminRole",
          "type": "bytes32"
        }
      ],
      "name": "RoleAdminChanged",
      "type": "event"
    },
    {
      "anonymous": false,
      "inputs": [
        {
          "indexed": true,
          "internalType": "bytes32",
          "name": "role",
          "type": "bytes32"
        },
        {
          "indexed": true,
          "internalType": "address",
          "name": "account",
          "type": "address"
        },
        {
          "indexed": true,
          "internalType": "address",
          "name": "sender",
          "type": "address"
        }
      ],
      "name": "RoleGranted",
      "type": "event"
    },
    {
      "anonymous": false,
      "inputs": [
        {
          "indexed": true,
          "internalType": "bytes32",
          "name": "role",
          "type": "bytes32"
        },
        {
          "indexed": true,
          "internalType": "address",
          "name": "account",
          "type": "address"
        },
        {
          "indexed": true,
          "internalType": "address",
          "name": "sender",
          "type": "address"
        }
      ],
      "name": "RoleRevoked",
      "type": "event"
    },
    {
      "anonymous": false,
      "inputs": [
        {
          "indexed": true,
          "internalType": "address",
          "name": "operator",
          "type": "address"
        },
        {
          "indexed": true,
          "internalType": "address",
          "name": "from",
          "type": "address"
        },
        {
          "indexed": true,
          "internalType": "address",
          "name": "to",
          "type": "address"
        },
        {
          "indexed": false,
          "internalType": "uint256[]",
          "name": "ids",
          "type": "uint256[]"
        },
        {
          "indexed": false,
          "internalType": "uint256[]",
          "name": "values",
          "type": "uint256[]"
        }
      ],
      "name": "TransferBatch",
      "type": "event"
    },
    {
      "anonymous": false,
      "inputs": [
        {
          "indexed": true,
          "internalType": "address",
          "name": "operator",
          "type": "address"
        },
        {
          "indexed": true,
          "internalType": "address",
          "name": "from",
          "type": "address"
        },
        {
          "indexed": true,
          "internalType": "address",
          "name": "to",
          "type": "address"
        },
        {
          "indexed": false,
          "internalType": "uint256",
          "name": "id",
          "type": "uint256"
        },
        {
          "indexed": false,
          "internalType": "uint256",
          "name": "value",
          "type": "uint256"
        }
      ],
      "name": "TransferSingle",
      "type": "event"
    },
    {
      "anonymous": false,
      "inputs": [
        {
          "indexed": false,
          "internalType": "string",
          "name": "value",
          "type": "string"
        },
        {
          "indexed": true,
          "internalType": "uint256",
          "name": "id",
          "type": "uint256"
        }
      ],
      "name": "URI",
      "type": "event"
    },
    {
      "anonymous": false,
      "inputs": [
        {
          "indexed": false,
          "internalType": "address",
          "name": "account",
          "type": "address"
        }
      ],
      "name": "Unpaused",
      "type": "event"
    },
    {
      "inputs": [],
      "name": "DEFAULT_ADMIN_ROLE",
      "outputs": [
        {
          "internalType": "bytes32",
          "name": "",
          "type": "bytes32"
        }
      ],
      "stateMutability": "view",
      "type": "function"
    },
    {
      "inputs": [],
      "name": "MINTER_ROLE",
      "outputs": [
        {
          "internalType": "bytes32",
          "name": "",
          "type": "bytes32"
        }
      ],
      "stateMutability": "view",
      "type": "function"
    },
    {
      "inputs": [],
      "name": "PAUSER_ROLE",
      "outputs": [
        {
          "internalType": "bytes32",
          "name": "",
          "type": "bytes32"
        }
      ],
      "stateMutability": "view",
      "type": "function"
    },
    {
      "inputs": [
        {
          "internalType": "address",
          "name": "account",
          "type": "address"
        },
        {
          "internalType": "uint256",
          "name": "id",
          "type": "uint256"
        }
      ],
      "name": "balanceOf",
      "outputs": [
        {
          "internalType": "uint256",
          "name": "",
          "type": "uint256"
        }
      ],
      "stateMutability": "view",
      "type": "function"
    },
    {
      "inputs": [
        {
          "internalType": "address[]",
          "name": "accounts",
          "type": "address[]"
        },
        {
          "internalType": "uint256[]",
          "name": "ids",
          "type": "uint256[]"
        }
      ],
      "name": "balanceOfBatch",
      "outputs": [
        {
          "internalType": "uint256[]",
          "name": "",
          "type": "uint256[]"
        }
      ],
      "stateMutability": "view",
      "type": "function"
    },
    {
      "inputs": [
        {
          "internalType": "address",
          "name": "account",
          "type": "address"
        },
        {
          "internalType": "uint256",
          "name": "id",
          "type": "uint256"
        },
        {
          "internalType": "uint256",
          "name": "value",
          "type": "uint256"
        }
      ],
      "name": "burn",
      "outputs": [],
      "stateMutability": "nonpayable",
      "type": "function"
    },
    {
      "inputs": [
        {
          "internalType": "address",
          "name": "account",
          "type": "address"
        },
        {
          "internalType": "uint256[]",
          "name": "ids",
          "type": "uint256[]"
        },
        {
          "internalType": "uint256[]",
          "name": "values",
          "type": "uint256[]"
        }
      ],
      "name": "burnBatch",
      "outputs": [],
      "stateMutability": "nonpayable",
      "type": "function"
    },
    {
      "inputs": [
        {
          "internalType": "bytes32",
          "name": "role",
          "type": "bytes32"
        }
      ],
      "name": "getRoleAdmin",
      "outputs": [
        {
          "internalType": "bytes32",
          "name": "",
          "type": "bytes32"
        }
      ],
      "stateMutability": "view",
      "type": "function"
    },
    {
      "inputs": [
        {
          "internalType": "bytes32",
          "name": "role",
          "type": "bytes32"
        },
        {
          "internalType": "uint256",
          "name": "index",
          "type": "uint256"
        }
      ],
      "name": "getRoleMember",
      "outputs": [
        {
          "internalType": "address",
          "name": "",
          "type": "address"
        }
      ],
      "stateMutability": "view",
      "type": "function"
    },
    {
      "inputs": [
        {
          "internalType": "bytes32",
          "name": "role",
          "type": "bytes32"
        }
      ],
      "name": "getRoleMemberCount",
      "outputs": [
        {
          "internalType": "uint256",
          "name": "",
          "type": "uint256"
        }
      ],
      "stateMutability": "view",
      "type": "function"
    },
    {
      "inputs": [
        {
          "internalType": "bytes32",
          "name": "role",
          "type": "bytes32"
        },
        {
          "internalType": "address",
          "name": "account",
          "type": "address"
        }
      ],
      "name": "grantRole",
      "outputs": [],
      "stateMutability": "nonpayable",
      "type": "function"
    },
    {
      "inputs": [
        {
          "internalType": "bytes32",
          "name": "role",
          "type": "bytes32"
        },
        {
          "internalType": "address",
          "name": "account",
          "type": "address"
        }
      ],
      "name": "hasRole",
      "outputs": [
        {
          "internalType": "bool",
          "name": "",
          "type": "bool"
        }
      ],
      "stateMutability": "view",
      "type": "function"
    },
    {
      "inputs": [
        {
          "internalType": "address",
          "name": "account",
          "type": "address"
        },
        {
          "internalType": "address",
          "name": "operator",
          "type": "address"
        }
      ],
      "name": "isApprovedForAll",
      "outputs": [
        {
          "internalType": "bool",
          "name": "",
          "type": "bool"
        }
      ],
      "stateMutability": "view",
      "type": "function"
    },
    {
      "inputs": [
        {
          "internalType": "address",
          "name": "to",
          "type": "address"
        },
        {
          "internalType": "uint256",
          "name": "id",
          "type": "uint256"
        },
        {
          "internalType": "uint256",
          "name": "amount",
          "type": "uint256"
        },
        {
          "internalType": "bytes",
          "name": "data",
          "type": "bytes"
        }
      ],
      "name": "mint",
      "outputs": [],
      "stateMutability": "nonpayable",
      "type": "function"
    },
    {
      "inputs": [
        {
          "internalType": "address",
          "name": "to",
          "type": "address"
        },
        {
          "internalType": "uint256[]",
          "name": "ids",
          "type": "uint256[]"
        },
        {
          "internalType": "uint256[]",
          "name": "amounts",
          "type": "uint256[]"
        },
        {
          "internalType": "bytes",
          "name": "data",
          "type": "bytes"
        }
      ],
      "name": "mintBatch",
      "outputs": [],
      "stateMutability": "nonpayable",
      "type": "function"
    },
    {
      "inputs": [],
      "name": "pause",
      "outputs": [],
      "stateMutability": "nonpayable",
      "type": "function"
    },
    {
      "inputs": [],
      "name": "paused",
      "outputs": [
        {
          "internalType": "bool",
          "name": "",
          "type": "bool"
        }
      ],
      "stateMutability": "view",
      "type": "function"
    },
    {
      "inputs": [
        {
          "internalType": "bytes32",
          "name": "role",
          "type": "bytes32"
        },
        {
          "internalType": "address",
          "name": "account",
          "type": "address"
        }
      ],
      "name": "renounceRole",
      "outputs": [],
      "stateMutability": "nonpayable",
      "type": "function"
    },
    {
      "inputs": [
        {
          "internalType": "bytes32",
          "name": "role",
          "type": "bytes32"
        },
        {
          "internalType": "address",
          "name": "account",
          "type": "address"
        }
      ],
      "name": "revokeRole",
      "outputs": [],
      "stateMutability": "nonpayable",
      "type": "function"
    },
    {
      "inputs": [
        {
          "internalType": "address",
          "name": "from",
          "type": "address"
        },
        {
          "internalType": "address",
          "name": "to",
          "type": "address"
        },
        {
          "internalType": "uint256[]",
          "name": "ids",
          "type": "uint256[]"
        },
        {
          "internalType": "uint256[]",
          "name": "amounts",
          "type": "uint256[]"
        },
        {
          "internalType": "bytes",
          "name": "data",
          "type": "bytes"
        }
      ],
      "name": "safeBatchTransferFrom",
      "outputs": [],
      "stateMutability": "nonpayable",
      "type": "function"
    },
    {
      "inputs": [
        {
          "internalType": "address",
          "name": "from",
          "type": "address"
        },
        {
          "internalType": "address",
          "name": "to",
          "type": "address"
        },
        {
          "internalType": "uint256",
          "name": "id",
          "type": "uint256"
        },
        {
          "internalType": "uint256",
          "name": "amount",
          "type": "uint256"
        },
        {
          "internalType": "bytes",
          "name": "data",
          "type": "bytes"
        }
      ],
      "name": "safeTransferFrom",
      "outputs": [],
      "stateMutability": "nonpayable",
      "type": "function"
    },
    {
      "inputs": [
        {
          "internalType": "address",
          "name": "operator",
          "type": "address"
        },
        {
          "internalType": "bool",
          "name": "approved",
          "type": "bool"
        }
      ],
      "name": "setApprovalForAll",
      "outputs": [],
      "stateMutability": "nonpayable",
      "type": "function"
    },
    {
      "inputs": [
        {
          "internalType": "bytes4",
          "name": "interfaceId",
          "type": "bytes4"
        }
      ],
      "name": "supportsInterface",
      "outputs": [
        {
          "internalType": "bool",
          "name": "",
          "type": "bool"
        }
      ],
      "stateMutability": "view",
      "type": "function"
    },
    {
      "inputs": [],
      "name": "unpause",
      "outputs": [],
      "stateMutability": "nonpayable",
      "type": "function"
    },
    {
      "inputs": [
        {
          "internalType": "uint256",
          "name": "",
          "type": "uint256"
        }
      ],
      "name": "uri",
      "outputs": [
        {
          "internalType": "string",
          "name": "",
          "type": "string"
        }
      ],
      "stateMutability": "view",
      "type": "function"
    },
    {
      "inputs": [
        {
          "internalType": "string",
          "name": "newuri",
          "type": "string"
        }
      ],
      "name": "initialize",
      "outputs": [],
      "stateMutability": "nonpayable",
      "type": "function"
    }
  ],
  "bytecode": "0x608060405234801561001057600080fd5b506134a0806100206000396000f3fe608060405234801561001057600080fd5b506004361061013d5760003560e01c8062fdd58e1461014257806301ffc9a7146101805780630e89341c146101bb5780631f7fdffa1461024d578063248a9ca3146104075780632eb2c2d6146104245780632f2ff15d146105e557806336568abe146106115780633f4ba83a1461063d5780634e1273f4146106455780635c975abb146107b85780636b20c454146107c0578063731133e9146108f35780638456cb59146109b35780639010d07c146109bb57806391d14854146109fa578063a217fddf14610a26578063a22cb46514610a2e578063ca15c87314610a5c578063d539139314610a79578063d547741f14610a81578063e63ab1e914610aad578063e985e9c514610ab5578063f242432a14610ae3578063f5298aca14610bac578063f62d188814610bde575b600080fd5b61016e6004803603604081101561015857600080fd5b506001600160a01b038135169060200135610c82565b60408051918252519081900360200190f35b6101a76004803603602081101561019657600080fd5b50356001600160e01b031916610cf4565b604080519115158252519081900360200190f35b6101d8600480360360208110156101d157600080fd5b5035610d13565b6040805160208082528351818301528351919283929083019185019080838360005b838110156102125781810151838201526020016101fa565b50505050905090810190601f16801561023f5780820380516001836020036101000a031916815260200191505b509250505060405180910390f35b6104056004803603608081101561026357600080fd5b6001600160a01b038235169190810190604081016020820135600160201b81111561028d57600080fd5b82018360208201111561029f57600080fd5b803590602001918460208302840111600160201b831117156102c057600080fd5b9190808060200260200160405190810160405280939291908181526020018383602002808284376000920191909152509295949360208101935035915050600160201b81111561030f57600080fd5b82018360208201111561032157600080fd5b803590602001918460208302840111600160201b8311171561034257600080fd5b9190808060200260200160405190810160405280939291908181526020018383602002808284376000920191909152509295949360208101935035915050600160201b81111561039157600080fd5b8201836020820111156103a357600080fd5b803590602001918460018302840111600160201b831117156103c457600080fd5b91908080601f016020809104026020016040519081016040528093929190818152602001838380828437600092019190915250929550610dab945050505050565b005b61016e6004803603602081101561041d57600080fd5b5035610e17565b610405600480360360a081101561043a57600080fd5b6001600160a01b038235811692602081013590911691810190606081016040820135600160201b81111561046d57600080fd5b82018360208201111561047f57600080fd5b803590602001918460208302840111600160201b831117156104a057600080fd5b9190808060200260200160405190810160405280939291908181526020018383602002808284376000920191909152509295949360208101935035915050600160201b8111156104ef57600080fd5b82018360208201111561050157600080fd5b803590602001918460208302840111600160201b8311171561052257600080fd5b9190808060200260200160405190810160405280939291908181526020018383602002808284376000920191909152509295949360208101935035915050600160201b81111561057157600080fd5b82018360208201111561058357600080fd5b803590602001918460018302840111600160201b831117156105a457600080fd5b91908080601f016020809104026020016040519081016040528093929190818152602001838380828437600092019190915250929550610e2c945050505050565b610405600480360360408110156105fb57600080fd5b50803590602001356001600160a01b031661111d565b6104056004803603604081101561062757600080fd5b50803590602001356001600160a01b0316611184565b6104056111e5565b6107686004803603604081101561065b57600080fd5b810190602081018135600160201b81111561067557600080fd5b82018360208201111561068757600080fd5b803590602001918460208302840111600160201b831117156106a857600080fd5b9190808060200260200160405190810160405280939291908181526020018383602002808284376000920191909152509295949360208101935035915050600160201b8111156106f757600080fd5b82018360208201111561070957600080fd5b803590602001918460208302840111600160201b8311171561072a57600080fd5b919080806020026020016040519081016040528093929190818152602001838360200280828437600092019190915250929550611244945050505050565b60408051602080825283518183015283519192839290830191858101910280838360005b838110156107a457818101518382015260200161078c565b505050509050019250505060405180910390f35b6101a76113c1565b610405600480360360608110156107d657600080fd5b6001600160a01b038235169190810190604081016020820135600160201b81111561080057600080fd5b82018360208201111561081257600080fd5b803590602001918460208302840111600160201b8311171561083357600080fd5b9190808060200260200160405190810160405280939291908181526020018383602002808284376000920191909152509295949360208101935035915050600160201b81111561088257600080fd5b82018360208201111561089457600080fd5b803590602001918460208302840111600160201b831117156108b557600080fd5b9190808060200260200160405190810160405280939291908181526020018383602002808284376000920191909152509295506113cb945050505050565b6104056004803603608081101561090957600080fd5b6001600160a01b038235169160208101359160408201359190810190608081016060820135600160201b81111561093f57600080fd5b82018360208201111561095157600080fd5b803590602001918460018302840111600160201b8311171561097257600080fd5b91908080601f016020809104026020016040519081016040528093929190818152602001838380828437600092019190915250929550611444945050505050565b6104056114a5565b6109de600480360360408110156109d157600080fd5b5080359060200135611502565b604080516001600160a01b039092168252519081900360200190f35b6101a760048036036040811015610a1057600080fd5b50803590602001356001600160a01b0316611521565b61016e611539565b61040560048036036040811015610a4457600080fd5b506001600160a01b038135169060200135151561153e565b61016e60048036036020811015610a7257600080fd5b503561162d565b61016e611644565b61040560048036036040811015610a9757600080fd5b50803590602001356001600160a01b0316611656565b61016e6116af565b6101a760048036036040811015610acb57600080fd5b506001600160a01b03813581169160200135166116c1565b610405600480360360a0811015610af957600080fd5b6001600160a01b03823581169260208101359091169160408201359160608101359181019060a081016080820135600160201b811115610b3857600080fd5b820183602082011115610b4a57600080fd5b803590602001918460018302840111600160201b83111715610b6b57600080fd5b91908080601f0160208091040260200160405190810160405280939291908181526020018383808284376000920191909152509295506116ef945050505050565b61040560048036036060811015610bc257600080fd5b506001600160a01b0381351690602081013590604001356118a8565b61040560048036036020811015610bf457600080fd5b810190602081018135600160201b811115610c0e57600080fd5b820183602082011115610c2057600080fd5b803590602001918460018302840111600160201b83111715610c4157600080fd5b91908080601f01602080910402602001604051908101604052809392919081815260200183838082843760009201919091525092955061191c945050505050565b60006001600160a01b038316610cc95760405162461bcd60e51b815260040180806020018281038252602b8152602001806130de602b913960400191505060405180910390fd5b5060008181526097602090815260408083206001600160a01b03861684529091529020545b92915050565b6001600160e01b03191660009081526065602052604090205460ff1690565b60998054604080516020601f6002600019610100600188161502019095169490940493840181900481028201810190925282815260609390929091830182828015610d9f5780601f10610d7457610100808354040283529160200191610d9f565b820191906000526020600020905b815481529060010190602001808311610d8257829003601f168201915b50505050509050919050565b610dca60008051602061330d833981519152610dc56119c7565b611521565b610e055760405162461bcd60e51b815260040180806020018281038252603881526020018061328b6038913960400191505060405180910390fd5b610e11848484846119cb565b50505050565b60009081526033602052604090206002015490565b8151835114610e6c5760405162461bcd60e51b81526004018080602001828103825260288152602001806133f36028913960400191505060405180910390fd5b6001600160a01b038416610eb15760405162461bcd60e51b81526004018080602001828103825260258152602001806131e36025913960400191505060405180910390fd5b610eb96119c7565b6001600160a01b0316856001600160a01b03161480610ee45750610ee485610edf6119c7565b6116c1565b610f1f5760405162461bcd60e51b81526004018080602001828103825260328152602001806132086032913960400191505060405180910390fd5b6000610f296119c7565b9050610f39818787878787611c0e565b60005b845181101561103f576000858281518110610f5357fe5b602002602001015190506000858381518110610f6b57fe5b60200260200101519050610fd8816040518060600160405280602a81526020016132c3602a91396097600086815260200190815260200160002060008d6001600160a01b03166001600160a01b0316815260200190815260200160002054611c1c9092919063ffffffff16565b60008381526097602090815260408083206001600160a01b038e811685529252808320939093558a168152205461100f9082611cb3565b60009283526097602090815260408085206001600160a01b038c1686529091529092209190915550600101610f3c565b50846001600160a01b0316866001600160a01b0316826001600160a01b0316600080516020612ff18339815191528787604051808060200180602001838103835285818151815260200191508051906020019060200280838360005b838110156110b357818101518382015260200161109b565b50505050905001838103825284818151815260200191508051906020019060200280838360005b838110156110f25781810151838201526020016110da565b5050505090500194505050505060405180910390a4611115818787878787611d0b565b505050505050565b60008281526033602052604090206002015461113b90610dc56119c7565b6111765760405162461bcd60e51b815260040180806020018281038252602f81526020018061308f602f913960400191505060405180910390fd5b6111808282611f8a565b5050565b61118c6119c7565b6001600160a01b0316816001600160a01b0316146111db5760405162461bcd60e51b815260040180806020018281038252602f81526020018061343c602f913960400191505060405180910390fd5b6111808282611ff3565b6111ff6000805160206132ed833981519152610dc56119c7565b61123a5760405162461bcd60e51b815260040180806020018281038252603b81526020018061332d603b913960400191505060405180910390fd5b61124261205c565b565b606081518351146112865760405162461bcd60e51b81526004018080602001828103825260298152602001806133ca6029913960400191505060405180910390fd5b606083516001600160401b038111801561129f57600080fd5b506040519080825280602002602001820160405280156112c9578160200160208202803683370190505b50905060005b84518110156113b95760006001600160a01b03168582815181106112ef57fe5b60200260200101516001600160a01b0316141561133d5760405162461bcd60e51b81526004018080602001828103825260318152602001806131096031913960400191505060405180910390fd5b6097600085838151811061134d57fe5b60200260200101518152602001908152602001600020600086838151811061137157fe5b60200260200101516001600160a01b03166001600160a01b03168152602001908152602001600020548282815181106113a657fe5b60209081029190910101526001016112cf565b509392505050565b60fb5460ff165b90565b6113d36119c7565b6001600160a01b0316836001600160a01b031614806113f957506113f983610edf6119c7565b6114345760405162461bcd60e51b815260040180806020018281038252602981526020018061318a6029913960400191505060405180910390fd5b61143f8383836120fa565b505050565b61145e60008051602061330d833981519152610dc56119c7565b6114995760405162461bcd60e51b815260040180806020018281038252603881526020018061328b6038913960400191505060405180910390fd5b610e1184848484612356565b6114bf6000805160206132ed833981519152610dc56119c7565b6114fa5760405162461bcd60e51b81526004018080602001828103825260398152602001806133686039913960400191505060405180910390fd5b611242612445565b600082815260336020526040812061151a90836124c6565b9392505050565b600082815260336020526040812061151a90836124d2565b600081565b816001600160a01b03166115506119c7565b6001600160a01b031614156115965760405162461bcd60e51b81526004018080602001828103825260298152602001806133a16029913960400191505060405180910390fd5b80609860006115a36119c7565b6001600160a01b03908116825260208083019390935260409182016000908120918716808252919093529120805460ff1916921515929092179091556115e76119c7565b6001600160a01b03167f17307eab39ab6107e8899845ad3d59bd9653f200f220920489ca2b5937696c318360405180821515815260200191505060405180910390a35050565b6000818152603360205260408120610cee906124e7565b60008051602061330d83398151915281565b60008281526033602052604090206002015461167490610dc56119c7565b6111db5760405162461bcd60e51b81526004018080602001828103825260308152602001806131b36030913960400191505060405180910390fd5b6000805160206132ed83398151915281565b6001600160a01b03918216600090815260986020908152604080832093909416825291909152205460ff1690565b6001600160a01b0384166117345760405162461bcd60e51b81526004018080602001828103825260258152602001806131e36025913960400191505060405180910390fd5b61173c6119c7565b6001600160a01b0316856001600160a01b03161480611762575061176285610edf6119c7565b61179d5760405162461bcd60e51b815260040180806020018281038252602981526020018061318a6029913960400191505060405180910390fd5b60006117a76119c7565b90506117c78187876117b8886124f2565b6117c1886124f2565b87611c0e565b61180e836040518060600160405280602a81526020016132c3602a913960008781526097602090815260408083206001600160a01b038d1684529091529020549190611c1c565b60008581526097602090815260408083206001600160a01b038b811685529252808320939093558716815220546118459084611cb3565b60008581526097602090815260408083206001600160a01b03808b168086529184529382902094909455805188815291820187905280518a8416938616926000805160206130be83398151915292908290030190a4611115818787878787612536565b6118b06119c7565b6001600160a01b0316836001600160a01b031614806118d657506118d683610edf6119c7565b6119115760405162461bcd60e51b815260040180806020018281038252602981526020018061318a6029913960400191505060405180910390fd5b61143f8383836126a7565b600054610100900460ff168061193557506119356127c8565b80611943575060005460ff16155b61197e5760405162461bcd60e51b815260040180806020018281038252602e81526020018061323a602e913960400191505060405180910390fd5b600054610100900460ff161580156119a9576000805460ff1961ff0019909116610100171660011790555b6119b2826127ce565b8015611180576000805461ff00191690555050565b3390565b6001600160a01b038416611a105760405162461bcd60e51b815260040180806020018281038252602181526020018061341b6021913960400191505060405180910390fd5b8151835114611a505760405162461bcd60e51b81526004018080602001828103825260288152602001806133f36028913960400191505060405180910390fd5b6000611a5a6119c7565b9050611a6b81600087878787611c0e565b60005b8451811015611b2f57611ae660976000878481518110611a8a57fe5b602002602001015181526020019081526020016000206000886001600160a01b03166001600160a01b0316815260200190815260200160002054858381518110611ad057fe5b6020026020010151611cb390919063ffffffff16565b60976000878481518110611af657fe5b602090810291909101810151825281810192909252604090810160009081206001600160a01b038b168252909252902055600101611a6e565b50846001600160a01b031660006001600160a01b0316826001600160a01b0316600080516020612ff18339815191528787604051808060200180602001838103835285818151815260200191508051906020019060200280838360005b83811015611ba4578181015183820152602001611b8c565b50505050905001838103825284818151815260200191508051906020019060200280838360005b83811015611be3578181015183820152602001611bcb565b5050505090500194505050505060405180910390a4611c0781600087878787611d0b565b5050505050565b61111586868686868661289d565b60008184841115611cab5760405162461bcd60e51b81526004018080602001828103825283818151815260200191508051906020019080838360005b83811015611c70578181015183820152602001611c58565b50505050905090810190601f168015611c9d5780820380516001836020036101000a031916815260200191505b509250505060405180910390fd5b505050900390565b60008282018381101561151a576040805162461bcd60e51b815260206004820152601b60248201527a536166654d6174683a206164646974696f6e206f766572666c6f7760281b604482015290519081900360640190fd5b611d1d846001600160a01b03166128ef565b1561111557836001600160a01b031663bc197c8187878686866040518663ffffffff1660e01b815260040180866001600160a01b03168152602001856001600160a01b03168152602001806020018060200180602001848103845287818151815260200191508051906020019060200280838360005b83811015611dab578181015183820152602001611d93565b50505050905001848103835286818151815260200191508051906020019060200280838360005b83811015611dea578181015183820152602001611dd2565b50505050905001848103825285818151815260200191508051906020019080838360005b83811015611e26578181015183820152602001611e0e565b50505050905090810190601f168015611e535780820380516001836020036101000a031916815260200191505b5098505050505050505050602060405180830381600087803b158015611e7857600080fd5b505af1925050508015611e9d57506040513d6020811015611e9857600080fd5b505160015b611f3257611ea9612f4c565b80611eb45750611efb565b60405162461bcd60e51b8152602060048201818152835160248401528351849391928392604401919085019080838360008315611c70578181015183820152602001611c58565b60405162461bcd60e51b81526004018080602001828103825260348152602001806130116034913960400191505060405180910390fd5b6001600160e01b0319811663bc197c8160e01b14611f815760405162461bcd60e51b81526004018080602001828103825260288152602001806130676028913960400191505060405180910390fd5b50505050505050565b6000828152603360205260409020611fa290826128f5565b1561118057611faf6119c7565b6001600160a01b0316816001600160a01b0316837f2f8788117e7eff1d82e926ec794901d17c78024a50270940304540a733656f0d60405160405180910390a45050565b600082815260336020526040902061200b908261290a565b15611180576120186119c7565b6001600160a01b0316816001600160a01b0316837ff6391f5c32d9c69d2a47ea670b442974b53935d1edc7fd64eb21e047a839171b60405160405180910390a45050565b60fb5460ff166120aa576040805162461bcd60e51b815260206004820152601460248201527314185d5cd8589b194e881b9bdd081c185d5cd95960621b604482015290519081900360640190fd5b60fb805460ff191690557f5db9ee0a495bf2e6ff9c91a7834c1ba4fdd244a5e8aa4e537bd38aeae4b073aa6120dd6119c7565b604080516001600160a01b039092168252519081900360200190a1565b6001600160a01b03831661213f5760405162461bcd60e51b81526004018080602001828103825260238152602001806132686023913960400191505060405180910390fd5b805182511461217f5760405162461bcd60e51b81526004018080602001828103825260288152602001806133f36028913960400191505060405180910390fd5b60006121896119c7565b90506121a981856000868660405180602001604052806000815250611c0e565b60005b83518110156122875761223e8382815181106121c457fe5b602002602001015160405180606001604052806024815260200161313a60249139609760008886815181106121f557fe5b602002602001015181526020019081526020016000206000896001600160a01b03166001600160a01b0316815260200190815260200160002054611c1c9092919063ffffffff16565b6097600086848151811061224e57fe5b602090810291909101810151825281810192909252604090810160009081206001600160a01b038a1682529092529020556001016121ac565b5060006001600160a01b0316846001600160a01b0316826001600160a01b0316600080516020612ff18339815191528686604051808060200180602001838103835285818151815260200191508051906020019060200280838360005b838110156122fc5781810151838201526020016122e4565b50505050905001838103825284818151815260200191508051906020019060200280838360005b8381101561233b578181015183820152602001612323565b5050505090500194505050505060405180910390a450505050565b6001600160a01b03841661239b5760405162461bcd60e51b815260040180806020018281038252602181526020018061341b6021913960400191505060405180910390fd5b60006123a56119c7565b90506123b7816000876117b8886124f2565b60008481526097602090815260408083206001600160a01b03891684529091529020546123e49084611cb3565b60008581526097602090815260408083206001600160a01b03808b16808652918452828520959095558151898152928301889052815190948616926000805160206130be83398151915292908290030190a4611c0781600087878787612536565b60fb5460ff1615612490576040805162461bcd60e51b815260206004820152601060248201526f14185d5cd8589b194e881c185d5cd95960821b604482015290519081900360640190fd5b60fb805460ff191660011790557f62e78cea01bee320cd4e420270b5ea74000d11b0c9f74754ebdbfc544b05a2586120dd6119c7565b600061151a838361291f565b600061151a836001600160a01b038416612983565b6000610cee8261299b565b60408051600180825281830190925260609182919060208083019080368337019050509050828160008151811061252557fe5b602090810291909101015292915050565b612548846001600160a01b03166128ef565b1561111557836001600160a01b031663f23a6e6187878686866040518663ffffffff1660e01b815260040180866001600160a01b03168152602001856001600160a01b0316815260200184815260200183815260200180602001828103825283818151815260200191508051906020019080838360005b838110156125d75781810151838201526020016125bf565b50505050905090810190601f1680156126045780820380516001836020036101000a031916815260200191505b509650505050505050602060405180830381600087803b15801561262757600080fd5b505af192505050801561264c57506040513d602081101561264757600080fd5b505160015b61265857611ea9612f4c565b6001600160e01b0319811663f23a6e6160e01b14611f815760405162461bcd60e51b81526004018080602001828103825260288152602001806130676028913960400191505060405180910390fd5b6001600160a01b0383166126ec5760405162461bcd60e51b81526004018080602001828103825260238152602001806132686023913960400191505060405180910390fd5b60006126f66119c7565b905061272681856000612708876124f2565b612711876124f2565b60405180602001604052806000815250611c0e565b61276d8260405180606001604052806024815260200161313a6024913960008681526097602090815260408083206001600160a01b038b1684529091529020549190611c1c565b60008481526097602090815260408083206001600160a01b03808a16808652918452828520959095558151888152928301879052815193949093908616926000805160206130be83398151915292908290030190a450505050565b303b1590565b600054610100900460ff16806127e757506127e76127c8565b806127f5575060005460ff16155b6128305760405162461bcd60e51b815260040180806020018281038252602e81526020018061323a602e913960400191505060405180910390fd5b600054610100900460ff1615801561285b576000805460ff1961ff0019909116610100171660011790555b61286361299f565b61286b61299f565b612873612a41565b61287c82612ade565b61288461299f565b61288c612b94565b61289461299f565b6119b282612c3f565b6128ab868686868686611115565b6128b36113c1565b156111155760405162461bcd60e51b815260040180806020018281038252602c81526020018061315e602c913960400191505060405180910390fd5b3b151590565b600061151a836001600160a01b038416612d12565b600061151a836001600160a01b038416612d5c565b815460009082106129615760405162461bcd60e51b81526004018080602001828103825260228152602001806130456022913960400191505060405180910390fd5b82600001828154811061297057fe5b9060005260206000200154905092915050565b60009081526001919091016020526040902054151590565b5490565b600054610100900460ff16806129b857506129b86127c8565b806129c6575060005460ff16155b612a015760405162461bcd60e51b815260040180806020018281038252602e81526020018061323a602e913960400191505060405180910390fd5b600054610100900460ff16158015612a2c576000805460ff1961ff0019909116610100171660011790555b8015612a3e576000805461ff00191690555b50565b600054610100900460ff1680612a5a5750612a5a6127c8565b80612a68575060005460ff16155b612aa35760405162461bcd60e51b815260040180806020018281038252602e81526020018061323a602e913960400191505060405180910390fd5b600054610100900460ff16158015612ace576000805460ff1961ff0019909116610100171660011790555b612a2c6301ffc9a760e01b612e22565b600054610100900460ff1680612af75750612af76127c8565b80612b05575060005460ff16155b612b405760405162461bcd60e51b815260040180806020018281038252602e81526020018061323a602e913960400191505060405180910390fd5b600054610100900460ff16158015612b6b576000805460ff1961ff0019909116610100171660011790555b612b7482612ea5565b612b84636cdb3d1360e11b612e22565b6119b26303a24d0760e21b612e22565b600054610100900460ff1680612bad5750612bad6127c8565b80612bbb575060005460ff16155b612bf65760405162461bcd60e51b815260040180806020018281038252602e81526020018061323a602e913960400191505060405180910390fd5b600054610100900460ff16158015612c21576000805460ff1961ff0019909116610100171660011790555b60fb805460ff191690558015612a3e576000805461ff001916905550565b600054610100900460ff1680612c585750612c586127c8565b80612c66575060005460ff16155b612ca15760405162461bcd60e51b815260040180806020018281038252602e81526020018061323a602e913960400191505060405180910390fd5b600054610100900460ff16158015612ccc576000805460ff1961ff0019909116610100171660011790555b612cde6000612cd96119c7565b611176565b612cf860008051602061330d833981519152612cd96119c7565b6119b26000805160206132ed833981519152612cd96119c7565b6000612d1e8383612983565b612d5457508154600181810184556000848152602080822090930184905584548482528286019093526040902091909155610cee565b506000610cee565b60008181526001830160205260408120548015612e185783546000198083019190810190600090879083908110612d8f57fe5b9060005260206000200154905080876000018481548110612dac57fe5b600091825260208083209091019290925582815260018981019092526040902090840190558654879080612ddc57fe5b60019003818190600052602060002001600090559055866001016000878152602001908152602001600020600090556001945050505050610cee565b6000915050610cee565b6001600160e01b03198082161415612e80576040805162461bcd60e51b815260206004820152601c60248201527b115490cc4d8d4e881a5b9d985b1a59081a5b9d195c999858d9481a5960221b604482015290519081900360640190fd5b6001600160e01b0319166000908152606560205260409020805460ff19166001179055565b8051611180906099906020840190828054600181600116156101000203166002900490600052602060002090601f016020900481019282601f10612ef457805160ff1916838001178555612f21565b82800160010185558215612f21579182015b82811115612f21578251825591602001919060010190612f06565b50612f2d929150612f31565b5090565b5b80821115612f2d5760008155600101612f32565b60e01c90565b600060443d1015612f5c576113c8565b600481823e6308c379a0612f708251612f46565b14612f7a576113c8565b6040513d600319016004823e80513d6001600160401b038083116024840183101715612fa957505050506113c8565b82840192508251915080821115612fc357505050506113c8565b503d83016020828401011115612fdb575050506113c8565b601f01601f191681016020016040529150509056fe4a39dc06d4c0dbc64b70af90fd698a233a518aa5d07e595d983b8c0526c8f7fb455243313135353a207472616e7366657220746f206e6f6e2045524331313535526563656976657220696d706c656d656e746572456e756d657261626c655365743a20696e646578206f7574206f6620626f756e6473455243313135353a204552433131353552656365697665722072656a656374656420746f6b656e73416363657373436f6e74726f6c3a2073656e646572206d75737420626520616e2061646d696e20746f206772616e74c3d58168c5ae7397731d063d5bbf3d657854427343f4c083240f7aacaa2d0f62455243313135353a2062616c616e636520717565727920666f7220746865207a65726f2061646472657373455243313135353a2062617463682062616c616e636520717565727920666f7220746865207a65726f2061646472657373455243313135353a206275726e20616d6f756e7420657863656564732062616c616e6365455243313135355061757361626c653a20746f6b656e207472616e73666572207768696c6520706175736564455243313135353a2063616c6c6572206973206e6f74206f776e6572206e6f7220617070726f766564416363657373436f6e74726f6c3a2073656e646572206d75737420626520616e2061646d696e20746f207265766f6b65455243313135353a207472616e7366657220746f20746865207a65726f2061646472657373455243313135353a207472616e736665722063616c6c6572206973206e6f74206f776e6572206e6f7220617070726f766564496e697469616c697a61626c653a20636f6e747261637420697320616c726561647920696e697469616c697a6564455243313135353a206275726e2066726f6d20746865207a65726f2061646472657373455243313135355072657365744d696e7465725061757365723a206d7573742068617665206d696e74657220726f6c6520746f206d696e74455243313135353a20696e73756666696369656e742062616c616e636520666f72207472616e7366657265d7a28e3265b37a6474929f336521b332c1681b933f6cb9f3376673440d862a9f2df0fed2c77648de5860a4cc508cd0818c85b8b8a1ab4ceeef8d981c8956a6455243313135355072657365744d696e7465725061757365723a206d75737420686176652070617573657220726f6c6520746f20756e7061757365455243313135355072657365744d696e7465725061757365723a206d75737420686176652070617573657220726f6c6520746f207061757365455243313135353a2073657474696e6720617070726f76616c2073746174757320666f722073656c66455243313135353a206163636f756e747320616e6420696473206c656e677468206d69736d61746368455243313135353a2069647320616e6420616d6f756e7473206c656e677468206d69736d61746368455243313135353a206d696e7420746f20746865207a65726f2061646472657373416363657373436f6e74726f6c3a2063616e206f6e6c792072656e6f756e636520726f6c657320666f722073656c66a26469706673582212208514946a7a53d88d491bcde9088d7e28bb896cc88700b135f17b340ed43156bf64736f6c634300060c0033",
  "immutableReferences": {},
  "source": "pragma solidity ^0.6.0;\n\n// SPDX-License-Identifier: MIT\n\nimport \"@openzeppelin/contracts-upgradeable/presets/ERC1155PresetMinterPauserUpgradeable.sol\";\n\ncontract SoapPunkCollectiblesV2 is\n    ERC1155PresetMinterPauserUpgradeable\n{\n\n    function initialize(string memory newuri) override initializer public {\n        __ERC1155PresetMinterPauser_init(newuri);\n     }\n\n     /*function setURI(string memory newuri, uint256 id) public {\n         require(hasRole(DEFAULT_ADMIN_ROLE, _msgSender()), \"SoapPunkCollectibles: must have admin role to change uri\");\n\n         emit URI(newuri, id);\n\n         _setURI(newuri);\n     }*/\n\n}\n",
  "sourcePath": "/home/gabriel/Documentos/Trabajo/Eibriel/Proyectos/Decentraland/GoldRush/SPContracts/ethereum/contracts/SoupPunkV2.sol",
  "compiler": {
    "name": "solc",
    "version": "0.6.12+commit.27d51765.Emscripten.clang"
  },
  "schemaVersion": "3.3.2",
  "updatedAt": "2020-11-26T20:41:20.646Z",
  "devdoc": {
    "kind": "dev",
    "methods": {
      "balanceOf(address,uint256)": {
        "details": "See {IERC1155-balanceOf}. Requirements: - `account` cannot be the zero address."
      },
      "balanceOfBatch(address[],uint256[])": {
        "details": "See {IERC1155-balanceOfBatch}. Requirements: - `accounts` and `ids` must have the same length."
      },
      "getRoleAdmin(bytes32)": {
        "details": "Returns the admin role that controls `role`. See {grantRole} and {revokeRole}. To change a role's admin, use {_setRoleAdmin}."
      },
      "getRoleMember(bytes32,uint256)": {
        "details": "Returns one of the accounts that have `role`. `index` must be a value between 0 and {getRoleMemberCount}, non-inclusive. Role bearers are not sorted in any particular way, and their ordering may change at any point. WARNING: When using {getRoleMember} and {getRoleMemberCount}, make sure you perform all queries on the same block. See the following https://forum.openzeppelin.com/t/iterating-over-elements-on-enumerableset-in-openzeppelin-contracts/2296[forum post] for more information."
      },
      "getRoleMemberCount(bytes32)": {
        "details": "Returns the number of accounts that have `role`. Can be used together with {getRoleMember} to enumerate all bearers of a role."
      },
      "grantRole(bytes32,address)": {
        "details": "Grants `role` to `account`. If `account` had not been already granted `role`, emits a {RoleGranted} event. Requirements: - the caller must have ``role``'s admin role."
      },
      "hasRole(bytes32,address)": {
        "details": "Returns `true` if `account` has been granted `role`."
      },
      "isApprovedForAll(address,address)": {
        "details": "See {IERC1155-isApprovedForAll}."
      },
      "mint(address,uint256,uint256,bytes)": {
        "details": "Creates `amount` new tokens for `to`, of token type `id`. See {ERC1155-_mint}. Requirements: - the caller must have the `MINTER_ROLE`."
      },
      "mintBatch(address,uint256[],uint256[],bytes)": {
        "details": "xref:ROOT:erc1155.adoc#batch-operations[Batched] variant of {mint}."
      },
      "pause()": {
        "details": "Pauses all token transfers. See {ERC1155Pausable} and {Pausable-_pause}. Requirements: - the caller must have the `PAUSER_ROLE`."
      },
      "paused()": {
        "details": "Returns true if the contract is paused, and false otherwise."
      },
      "renounceRole(bytes32,address)": {
        "details": "Revokes `role` from the calling account. Roles are often managed via {grantRole} and {revokeRole}: this function's purpose is to provide a mechanism for accounts to lose their privileges if they are compromised (such as when a trusted device is misplaced). If the calling account had been granted `role`, emits a {RoleRevoked} event. Requirements: - the caller must be `account`."
      },
      "revokeRole(bytes32,address)": {
        "details": "Revokes `role` from `account`. If `account` had been granted `role`, emits a {RoleRevoked} event. Requirements: - the caller must have ``role``'s admin role."
      },
      "safeBatchTransferFrom(address,address,uint256[],uint256[],bytes)": {
        "details": "See {IERC1155-safeBatchTransferFrom}."
      },
      "safeTransferFrom(address,address,uint256,uint256,bytes)": {
        "details": "See {IERC1155-safeTransferFrom}."
      },
      "setApprovalForAll(address,bool)": {
        "details": "See {IERC1155-setApprovalForAll}."
      },
      "supportsInterface(bytes4)": {
        "details": "See {IERC165-supportsInterface}. Time complexity O(1), guaranteed to always use less than 30 000 gas."
      },
      "unpause()": {
        "details": "Unpauses all token transfers. See {ERC1155Pausable} and {Pausable-_unpause}. Requirements: - the caller must have the `PAUSER_ROLE`."
      },
      "uri(uint256)": {
        "details": "See {IERC1155MetadataURI-uri}. This implementation returns the same URI for *all* token types. It relies on the token type ID substitution mechanism https://eips.ethereum.org/EIPS/eip-1155#metadata[defined in the EIP]. Clients calling this function must replace the `\\{id\\}` substring with the actual token type ID."
      }
    },
    "version": 1
  },
  "userdoc": {
    "kind": "user",
    "methods": {},
    "version": 1
  }
}