{
  "contractName": "ERC1155PresetMinterPauserUpgradeable",
  "abi": [
    {
      "anonymous": false,
      "inputs": [
        {
          "indexed": true,
          "internalType": "address",
          "name": "account",
          "type": "address"
        },
        {
          "indexed": true,
          "internalType": "address",
          "name": "operator",
          "type": "address"
        },
        {
          "indexed": false,
          "internalType": "bool",
          "name": "approved",
          "type": "bool"
        }
      ],
      "name": "ApprovalForAll",
      "type": "event"
    },
    {
      "anonymous": false,
      "inputs": [
        {
          "indexed": false,
          "internalType": "address",
          "name": "account",
          "type": "address"
        }
      ],
      "name": "Paused",
      "type": "event"
    },
    {
      "anonymous": false,
      "inputs": [
        {
          "indexed": true,
          "internalType": "bytes32",
          "name": "role",
          "type": "bytes32"
        },
        {
          "indexed": true,
          "internalType": "bytes32",
          "name": "previousAdminRole",
          "type": "bytes32"
        },
        {
          "indexed": true,
          "internalType": "bytes32",
          "name": "newAdminRole",
          "type": "bytes32"
        }
      ],
      "name": "RoleAdminChanged",
      "type": "event"
    },
    {
      "anonymous": false,
      "inputs": [
        {
          "indexed": true,
          "internalType": "bytes32",
          "name": "role",
          "type": "bytes32"
        },
        {
          "indexed": true,
          "internalType": "address",
          "name": "account",
          "type": "address"
        },
        {
          "indexed": true,
          "internalType": "address",
          "name": "sender",
          "type": "address"
        }
      ],
      "name": "RoleGranted",
      "type": "event"
    },
    {
      "anonymous": false,
      "inputs": [
        {
          "indexed": true,
          "internalType": "bytes32",
          "name": "role",
          "type": "bytes32"
        },
        {
          "indexed": true,
          "internalType": "address",
          "name": "account",
          "type": "address"
        },
        {
          "indexed": true,
          "internalType": "address",
          "name": "sender",
          "type": "address"
        }
      ],
      "name": "RoleRevoked",
      "type": "event"
    },
    {
      "anonymous": false,
      "inputs": [
        {
          "indexed": true,
          "internalType": "address",
          "name": "operator",
          "type": "address"
        },
        {
          "indexed": true,
          "internalType": "address",
          "name": "from",
          "type": "address"
        },
        {
          "indexed": true,
          "internalType": "address",
          "name": "to",
          "type": "address"
        },
        {
          "indexed": false,
          "internalType": "uint256[]",
          "name": "ids",
          "type": "uint256[]"
        },
        {
          "indexed": false,
          "internalType": "uint256[]",
          "name": "values",
          "type": "uint256[]"
        }
      ],
      "name": "TransferBatch",
      "type": "event"
    },
    {
      "anonymous": false,
      "inputs": [
        {
          "indexed": true,
          "internalType": "address",
          "name": "operator",
          "type": "address"
        },
        {
          "indexed": true,
          "internalType": "address",
          "name": "from",
          "type": "address"
        },
        {
          "indexed": true,
          "internalType": "address",
          "name": "to",
          "type": "address"
        },
        {
          "indexed": false,
          "internalType": "uint256",
          "name": "id",
          "type": "uint256"
        },
        {
          "indexed": false,
          "internalType": "uint256",
          "name": "value",
          "type": "uint256"
        }
      ],
      "name": "TransferSingle",
      "type": "event"
    },
    {
      "anonymous": false,
      "inputs": [
        {
          "indexed": false,
          "internalType": "string",
          "name": "value",
          "type": "string"
        },
        {
          "indexed": true,
          "internalType": "uint256",
          "name": "id",
          "type": "uint256"
        }
      ],
      "name": "URI",
      "type": "event"
    },
    {
      "anonymous": false,
      "inputs": [
        {
          "indexed": false,
          "internalType": "address",
          "name": "account",
          "type": "address"
        }
      ],
      "name": "Unpaused",
      "type": "event"
    },
    {
      "inputs": [],
      "name": "DEFAULT_ADMIN_ROLE",
      "outputs": [
        {
          "internalType": "bytes32",
          "name": "",
          "type": "bytes32"
        }
      ],
      "stateMutability": "view",
      "type": "function"
    },
    {
      "inputs": [],
      "name": "MINTER_ROLE",
      "outputs": [
        {
          "internalType": "bytes32",
          "name": "",
          "type": "bytes32"
        }
      ],
      "stateMutability": "view",
      "type": "function"
    },
    {
      "inputs": [],
      "name": "PAUSER_ROLE",
      "outputs": [
        {
          "internalType": "bytes32",
          "name": "",
          "type": "bytes32"
        }
      ],
      "stateMutability": "view",
      "type": "function"
    },
    {
      "inputs": [
        {
          "internalType": "address",
          "name": "account",
          "type": "address"
        },
        {
          "internalType": "uint256",
          "name": "id",
          "type": "uint256"
        }
      ],
      "name": "balanceOf",
      "outputs": [
        {
          "internalType": "uint256",
          "name": "",
          "type": "uint256"
        }
      ],
      "stateMutability": "view",
      "type": "function"
    },
    {
      "inputs": [
        {
          "internalType": "address[]",
          "name": "accounts",
          "type": "address[]"
        },
        {
          "internalType": "uint256[]",
          "name": "ids",
          "type": "uint256[]"
        }
      ],
      "name": "balanceOfBatch",
      "outputs": [
        {
          "internalType": "uint256[]",
          "name": "",
          "type": "uint256[]"
        }
      ],
      "stateMutability": "view",
      "type": "function"
    },
    {
      "inputs": [
        {
          "internalType": "address",
          "name": "account",
          "type": "address"
        },
        {
          "internalType": "uint256",
          "name": "id",
          "type": "uint256"
        },
        {
          "internalType": "uint256",
          "name": "value",
          "type": "uint256"
        }
      ],
      "name": "burn",
      "outputs": [],
      "stateMutability": "nonpayable",
      "type": "function"
    },
    {
      "inputs": [
        {
          "internalType": "address",
          "name": "account",
          "type": "address"
        },
        {
          "internalType": "uint256[]",
          "name": "ids",
          "type": "uint256[]"
        },
        {
          "internalType": "uint256[]",
          "name": "values",
          "type": "uint256[]"
        }
      ],
      "name": "burnBatch",
      "outputs": [],
      "stateMutability": "nonpayable",
      "type": "function"
    },
    {
      "inputs": [
        {
          "internalType": "bytes32",
          "name": "role",
          "type": "bytes32"
        }
      ],
      "name": "getRoleAdmin",
      "outputs": [
        {
          "internalType": "bytes32",
          "name": "",
          "type": "bytes32"
        }
      ],
      "stateMutability": "view",
      "type": "function"
    },
    {
      "inputs": [
        {
          "internalType": "bytes32",
          "name": "role",
          "type": "bytes32"
        },
        {
          "internalType": "uint256",
          "name": "index",
          "type": "uint256"
        }
      ],
      "name": "getRoleMember",
      "outputs": [
        {
          "internalType": "address",
          "name": "",
          "type": "address"
        }
      ],
      "stateMutability": "view",
      "type": "function"
    },
    {
      "inputs": [
        {
          "internalType": "bytes32",
          "name": "role",
          "type": "bytes32"
        }
      ],
      "name": "getRoleMemberCount",
      "outputs": [
        {
          "internalType": "uint256",
          "name": "",
          "type": "uint256"
        }
      ],
      "stateMutability": "view",
      "type": "function"
    },
    {
      "inputs": [
        {
          "internalType": "bytes32",
          "name": "role",
          "type": "bytes32"
        },
        {
          "internalType": "address",
          "name": "account",
          "type": "address"
        }
      ],
      "name": "grantRole",
      "outputs": [],
      "stateMutability": "nonpayable",
      "type": "function"
    },
    {
      "inputs": [
        {
          "internalType": "bytes32",
          "name": "role",
          "type": "bytes32"
        },
        {
          "internalType": "address",
          "name": "account",
          "type": "address"
        }
      ],
      "name": "hasRole",
      "outputs": [
        {
          "internalType": "bool",
          "name": "",
          "type": "bool"
        }
      ],
      "stateMutability": "view",
      "type": "function"
    },
    {
      "inputs": [
        {
          "internalType": "address",
          "name": "account",
          "type": "address"
        },
        {
          "internalType": "address",
          "name": "operator",
          "type": "address"
        }
      ],
      "name": "isApprovedForAll",
      "outputs": [
        {
          "internalType": "bool",
          "name": "",
          "type": "bool"
        }
      ],
      "stateMutability": "view",
      "type": "function"
    },
    {
      "inputs": [],
      "name": "paused",
      "outputs": [
        {
          "internalType": "bool",
          "name": "",
          "type": "bool"
        }
      ],
      "stateMutability": "view",
      "type": "function"
    },
    {
      "inputs": [
        {
          "internalType": "bytes32",
          "name": "role",
          "type": "bytes32"
        },
        {
          "internalType": "address",
          "name": "account",
          "type": "address"
        }
      ],
      "name": "renounceRole",
      "outputs": [],
      "stateMutability": "nonpayable",
      "type": "function"
    },
    {
      "inputs": [
        {
          "internalType": "bytes32",
          "name": "role",
          "type": "bytes32"
        },
        {
          "internalType": "address",
          "name": "account",
          "type": "address"
        }
      ],
      "name": "revokeRole",
      "outputs": [],
      "stateMutability": "nonpayable",
      "type": "function"
    },
    {
      "inputs": [
        {
          "internalType": "address",
          "name": "from",
          "type": "address"
        },
        {
          "internalType": "address",
          "name": "to",
          "type": "address"
        },
        {
          "internalType": "uint256[]",
          "name": "ids",
          "type": "uint256[]"
        },
        {
          "internalType": "uint256[]",
          "name": "amounts",
          "type": "uint256[]"
        },
        {
          "internalType": "bytes",
          "name": "data",
          "type": "bytes"
        }
      ],
      "name": "safeBatchTransferFrom",
      "outputs": [],
      "stateMutability": "nonpayable",
      "type": "function"
    },
    {
      "inputs": [
        {
          "internalType": "address",
          "name": "from",
          "type": "address"
        },
        {
          "internalType": "address",
          "name": "to",
          "type": "address"
        },
        {
          "internalType": "uint256",
          "name": "id",
          "type": "uint256"
        },
        {
          "internalType": "uint256",
          "name": "amount",
          "type": "uint256"
        },
        {
          "internalType": "bytes",
          "name": "data",
          "type": "bytes"
        }
      ],
      "name": "safeTransferFrom",
      "outputs": [],
      "stateMutability": "nonpayable",
      "type": "function"
    },
    {
      "inputs": [
        {
          "internalType": "address",
          "name": "operator",
          "type": "address"
        },
        {
          "internalType": "bool",
          "name": "approved",
          "type": "bool"
        }
      ],
      "name": "setApprovalForAll",
      "outputs": [],
      "stateMutability": "nonpayable",
      "type": "function"
    },
    {
      "inputs": [
        {
          "internalType": "bytes4",
          "name": "interfaceId",
          "type": "bytes4"
        }
      ],
      "name": "supportsInterface",
      "outputs": [
        {
          "internalType": "bool",
          "name": "",
          "type": "bool"
        }
      ],
      "stateMutability": "view",
      "type": "function"
    },
    {
      "inputs": [
        {
          "internalType": "uint256",
          "name": "",
          "type": "uint256"
        }
      ],
      "name": "uri",
      "outputs": [
        {
          "internalType": "string",
          "name": "",
          "type": "string"
        }
      ],
      "stateMutability": "view",
      "type": "function"
    },
    {
      "inputs": [
        {
          "internalType": "string",
          "name": "uri",
          "type": "string"
        }
      ],
      "name": "initialize",
      "outputs": [],
      "stateMutability": "nonpayable",
      "type": "function"
    },
    {
      "inputs": [
        {
          "internalType": "address",
          "name": "to",
          "type": "address"
        },
        {
          "internalType": "uint256",
          "name": "id",
          "type": "uint256"
        },
        {
          "internalType": "uint256",
          "name": "amount",
          "type": "uint256"
        },
        {
          "internalType": "bytes",
          "name": "data",
          "type": "bytes"
        }
      ],
      "name": "mint",
      "outputs": [],
      "stateMutability": "nonpayable",
      "type": "function"
    },
    {
      "inputs": [
        {
          "internalType": "address",
          "name": "to",
          "type": "address"
        },
        {
          "internalType": "uint256[]",
          "name": "ids",
          "type": "uint256[]"
        },
        {
          "internalType": "uint256[]",
          "name": "amounts",
          "type": "uint256[]"
        },
        {
          "internalType": "bytes",
          "name": "data",
          "type": "bytes"
        }
      ],
      "name": "mintBatch",
      "outputs": [],
      "stateMutability": "nonpayable",
      "type": "function"
    },
    {
      "inputs": [],
      "name": "pause",
      "outputs": [],
      "stateMutability": "nonpayable",
      "type": "function"
    },
    {
      "inputs": [],
      "name": "unpause",
      "outputs": [],
      "stateMutability": "nonpayable",
      "type": "function"
    }
  ],
  "bytecode": "0x608060405234801561001057600080fd5b50613552806100206000396000f3fe608060405234801561001057600080fd5b506004361061013d5760003560e01c8062fdd58e1461014257806301ffc9a7146101805780630e89341c146101bb5780631f7fdffa1461024d578063248a9ca3146104075780632eb2c2d6146104245780632f2ff15d146105e557806336568abe146106115780633f4ba83a1461063d5780634e1273f4146106455780635c975abb146107b85780636b20c454146107c0578063731133e9146108f35780638456cb59146109b35780639010d07c146109bb57806391d14854146109fa578063a217fddf14610a26578063a22cb46514610a2e578063ca15c87314610a5c578063d539139314610a79578063d547741f14610a81578063e63ab1e914610aad578063e985e9c514610ab5578063f242432a14610ae3578063f5298aca14610bac578063f62d188814610bde575b600080fd5b61016e6004803603604081101561015857600080fd5b506001600160a01b038135169060200135610c82565b60408051918252519081900360200190f35b6101a76004803603602081101561019657600080fd5b50356001600160e01b031916610cf4565b604080519115158252519081900360200190f35b6101d8600480360360208110156101d157600080fd5b5035610d13565b6040805160208082528351818301528351919283929083019185019080838360005b838110156102125781810151838201526020016101fa565b50505050905090810190601f16801561023f5780820380516001836020036101000a031916815260200191505b509250505060405180910390f35b6104056004803603608081101561026357600080fd5b6001600160a01b038235169190810190604081016020820135600160201b81111561028d57600080fd5b82018360208201111561029f57600080fd5b803590602001918460208302840111600160201b831117156102c057600080fd5b9190808060200260200160405190810160405280939291908181526020018383602002808284376000920191909152509295949360208101935035915050600160201b81111561030f57600080fd5b82018360208201111561032157600080fd5b803590602001918460208302840111600160201b8311171561034257600080fd5b9190808060200260200160405190810160405280939291908181526020018383602002808284376000920191909152509295949360208101935035915050600160201b81111561039157600080fd5b8201836020820111156103a357600080fd5b803590602001918460018302840111600160201b831117156103c457600080fd5b91908080601f016020809104026020016040519081016040528093929190818152602001838380828437600092019190915250929550610dab945050505050565b005b61016e6004803603602081101561041d57600080fd5b5035610e29565b610405600480360360a081101561043a57600080fd5b6001600160a01b038235811692602081013590911691810190606081016040820135600160201b81111561046d57600080fd5b82018360208201111561047f57600080fd5b803590602001918460208302840111600160201b831117156104a057600080fd5b9190808060200260200160405190810160405280939291908181526020018383602002808284376000920191909152509295949360208101935035915050600160201b8111156104ef57600080fd5b82018360208201111561050157600080fd5b803590602001918460208302840111600160201b8311171561052257600080fd5b9190808060200260200160405190810160405280939291908181526020018383602002808284376000920191909152509295949360208101935035915050600160201b81111561057157600080fd5b82018360208201111561058357600080fd5b803590602001918460018302840111600160201b831117156105a457600080fd5b91908080601f016020809104026020016040519081016040528093929190818152602001838380828437600092019190915250929550610e3e945050505050565b610405600480360360408110156105fb57600080fd5b50803590602001356001600160a01b031661112f565b6104056004803603604081101561062757600080fd5b50803590602001356001600160a01b0316611196565b6104056111f7565b6107686004803603604081101561065b57600080fd5b810190602081018135600160201b81111561067557600080fd5b82018360208201111561068757600080fd5b803590602001918460208302840111600160201b831117156106a857600080fd5b9190808060200260200160405190810160405280939291908181526020018383602002808284376000920191909152509295949360208101935035915050600160201b8111156106f757600080fd5b82018360208201111561070957600080fd5b803590602001918460208302840111600160201b8311171561072a57600080fd5b919080806020026020016040519081016040528093929190818152602001838360200280828437600092019190915250929550611268945050505050565b60408051602080825283518183015283519192839290830191858101910280838360005b838110156107a457818101518382015260200161078c565b505050509050019250505060405180910390f35b6101a76113e5565b610405600480360360608110156107d657600080fd5b6001600160a01b038235169190810190604081016020820135600160201b81111561080057600080fd5b82018360208201111561081257600080fd5b803590602001918460208302840111600160201b8311171561083357600080fd5b9190808060200260200160405190810160405280939291908181526020018383602002808284376000920191909152509295949360208101935035915050600160201b81111561088257600080fd5b82018360208201111561089457600080fd5b803590602001918460208302840111600160201b831117156108b557600080fd5b9190808060200260200160405190810160405280939291908181526020018383602002808284376000920191909152509295506113ef945050505050565b6104056004803603608081101561090957600080fd5b6001600160a01b038235169160208101359160408201359190810190608081016060820135600160201b81111561093f57600080fd5b82018360208201111561095157600080fd5b803590602001918460018302840111600160201b8311171561097257600080fd5b91908080601f016020809104026020016040519081016040528093929190818152602001838380828437600092019190915250929550611468945050505050565b6104056114db565b6109de600480360360408110156109d157600080fd5b508035906020013561154a565b604080516001600160a01b039092168252519081900360200190f35b6101a760048036036040811015610a1057600080fd5b50803590602001356001600160a01b031661156f565b61016e61158d565b61040560048036036040811015610a4457600080fd5b506001600160a01b0381351690602001351515611592565b61016e60048036036020811015610a7257600080fd5b5035611681565b61016e611698565b61040560048036036040811015610a9757600080fd5b50803590602001356001600160a01b03166116bb565b61016e611714565b6101a760048036036040811015610acb57600080fd5b506001600160a01b0381358116916020013516611737565b610405600480360360a0811015610af957600080fd5b6001600160a01b03823581169260208101359091169160408201359160608101359181019060a081016080820135600160201b811115610b3857600080fd5b820183602082011115610b4a57600080fd5b803590602001918460018302840111600160201b83111715610b6b57600080fd5b91908080601f016020809104026020016040519081016040528093929190818152602001838380828437600092019190915250929550611765945050505050565b61040560048036036060811015610bc257600080fd5b506001600160a01b038135169060208101359060400135611924565b61040560048036036020811015610bf457600080fd5b810190602081018135600160201b811115610c0e57600080fd5b820183602082011115610c2057600080fd5b803590602001918460018302840111600160201b83111715610c4157600080fd5b91908080601f016020809104026020016040519081016040528093929190818152602001838380828437600092019190915250929550611998945050505050565b60006001600160a01b038316610cc95760405162461bcd60e51b815260040180806020018281038252602b8152602001806131d0602b913960400191505060405180910390fd5b5060008181526097602090815260408083206001600160a01b03861684529091529020545b92915050565b6001600160e01b03191660009081526065602052604090205460ff1690565b60998054604080516020601f6002600019610100600188161502019095169490940493840181900481028201810190925282815260609390929091830182828015610d9f5780601f10610d7457610100808354040283529160200191610d9f565b820191906000526020600020905b815481529060010190602001808311610d8257829003601f168201915b50505050509050919050565b604080516a4d494e5445525f524f4c4560a81b8152905190819003600b019020610ddc90610dd7611a43565b61156f565b610e175760405162461bcd60e51b815260040180806020018281038252603881526020018061337d6038913960400191505060405180910390fd5b610e2384848484611a47565b50505050565b60009081526033602052604090206002015490565b8151835114610e7e5760405162461bcd60e51b81526004018080602001828103825260288152602001806134a56028913960400191505060405180910390fd5b6001600160a01b038416610ec35760405162461bcd60e51b81526004018080602001828103825260258152602001806132d56025913960400191505060405180910390fd5b610ecb611a43565b6001600160a01b0316856001600160a01b03161480610ef65750610ef685610ef1611a43565b611737565b610f315760405162461bcd60e51b81526004018080602001828103825260328152602001806132fa6032913960400191505060405180910390fd5b6000610f3b611a43565b9050610f4b818787878787611c8a565b60005b8451811015611051576000858281518110610f6557fe5b602002602001015190506000858381518110610f7d57fe5b60200260200101519050610fea816040518060600160405280602a81526020016133b5602a91396097600086815260200190815260200160002060008d6001600160a01b03166001600160a01b0316815260200190815260200160002054611c989092919063ffffffff16565b60008381526097602090815260408083206001600160a01b038e811685529252808320939093558a16815220546110219082611d2f565b60009283526097602090815260408085206001600160a01b038c1686529091529092209190915550600101610f4e565b50846001600160a01b0316866001600160a01b0316826001600160a01b03166000805160206130e38339815191528787604051808060200180602001838103835285818151815260200191508051906020019060200280838360005b838110156110c55781810151838201526020016110ad565b50505050905001838103825284818151815260200191508051906020019060200280838360005b838110156111045781810151838201526020016110ec565b5050505090500194505050505060405180910390a4611127818787878787611d87565b505050505050565b60008281526033602052604090206002015461114d90610dd7611a43565b6111885760405162461bcd60e51b815260040180806020018281038252602f815260200180613181602f913960400191505060405180910390fd5b61119282826120c3565b5050565b61119e611a43565b6001600160a01b0316816001600160a01b0316146111ed5760405162461bcd60e51b815260040180806020018281038252602f8152602001806134ee602f913960400191505060405180910390fd5b6111928282612132565b604080516a5041555345525f524f4c4560a81b8152905190819003600b01902061122390610dd7611a43565b61125e5760405162461bcd60e51b815260040180806020018281038252603b8152602001806133df603b913960400191505060405180910390fd5b6112666121a1565b565b606081518351146112aa5760405162461bcd60e51b815260040180806020018281038252602981526020018061347c6029913960400191505060405180910390fd5b606083516001600160401b03811180156112c357600080fd5b506040519080825280602002602001820160405280156112ed578160200160208202803683370190505b50905060005b84518110156113dd5760006001600160a01b031685828151811061131357fe5b60200260200101516001600160a01b031614156113615760405162461bcd60e51b81526004018080602001828103825260318152602001806131fb6031913960400191505060405180910390fd5b6097600085838151811061137157fe5b60200260200101518152602001908152602001600020600086838151811061139557fe5b60200260200101516001600160a01b03166001600160a01b03168152602001908152602001600020548282815181106113ca57fe5b60209081029190910101526001016112f3565b509392505050565b60fb5460ff165b90565b6113f7611a43565b6001600160a01b0316836001600160a01b0316148061141d575061141d83610ef1611a43565b6114585760405162461bcd60e51b815260040180806020018281038252602981526020018061327c6029913960400191505060405180910390fd5b61146383838361223f565b505050565b604080516a4d494e5445525f524f4c4560a81b8152905190819003600b01902061149490610dd7611a43565b6114cf5760405162461bcd60e51b815260040180806020018281038252603881526020018061337d6038913960400191505060405180910390fd5b610e238484848461249b565b604080516a5041555345525f524f4c4560a81b8152905190819003600b01902061150790610dd7611a43565b6115425760405162461bcd60e51b815260040180806020018281038252603981526020018061341a6039913960400191505060405180910390fd5b611266612590565b6000828152603360205260408120611568908363ffffffff61261116565b9392505050565b6000828152603360205260408120611568908363ffffffff61261d16565b600081565b816001600160a01b03166115a4611a43565b6001600160a01b031614156115ea5760405162461bcd60e51b81526004018080602001828103825260298152602001806134536029913960400191505060405180910390fd5b80609860006115f7611a43565b6001600160a01b03908116825260208083019390935260409182016000908120918716808252919093529120805460ff19169215159290921790915561163b611a43565b60408051841515815290516001600160a01b0392909216917f17307eab39ab6107e8899845ad3d59bd9653f200f220920489ca2b5937696c319181900360200190a35050565b6000818152603360205260408120610cee90612632565b604080516a4d494e5445525f524f4c4560a81b8152905190819003600b01902081565b6000828152603360205260409020600201546116d990610dd7611a43565b6111ed5760405162461bcd60e51b81526004018080602001828103825260308152602001806132a56030913960400191505060405180910390fd5b604080516a5041555345525f524f4c4560a81b8152905190819003600b01902081565b6001600160a01b03918216600090815260986020908152604080832093909416825291909152205460ff1690565b6001600160a01b0384166117aa5760405162461bcd60e51b81526004018080602001828103825260258152602001806132d56025913960400191505060405180910390fd5b6117b2611a43565b6001600160a01b0316856001600160a01b031614806117d857506117d885610ef1611a43565b6118135760405162461bcd60e51b815260040180806020018281038252602981526020018061327c6029913960400191505060405180910390fd5b600061181d611a43565b905061183d81878761182e8861263d565b6118378861263d565b87611c8a565b61188a836040518060600160405280602a81526020016133b5602a913960008781526097602090815260408083206001600160a01b038d168452909152902054919063ffffffff611c9816565b60008581526097602090815260408083206001600160a01b038b811685529252808320939093558716815220546118c19084611d2f565b60008581526097602090815260408083206001600160a01b03808b168086529184529382902094909455805188815291820187905280518a8416938616926000805160206131b083398151915292908290030190a4611127818787878787612681565b61192c611a43565b6001600160a01b0316836001600160a01b03161480611952575061195283610ef1611a43565b61198d5760405162461bcd60e51b815260040180806020018281038252602981526020018061327c6029913960400191505060405180910390fd5b611463838383612814565b600054610100900460ff16806119b157506119b161293b565b806119bf575060005460ff16155b6119fa5760405162461bcd60e51b815260040180806020018281038252602e81526020018061332c602e913960400191505060405180910390fd5b600054610100900460ff16158015611a25576000805460ff1961ff0019909116610100171660011790555b611a2e82612941565b8015611192576000805461ff00191690555050565b3390565b6001600160a01b038416611a8c5760405162461bcd60e51b81526004018080602001828103825260218152602001806134cd6021913960400191505060405180910390fd5b8151835114611acc5760405162461bcd60e51b81526004018080602001828103825260288152602001806134a56028913960400191505060405180910390fd5b6000611ad6611a43565b9050611ae781600087878787611c8a565b60005b8451811015611bab57611b6260976000878481518110611b0657fe5b602002602001015181526020019081526020016000206000886001600160a01b03166001600160a01b0316815260200190815260200160002054858381518110611b4c57fe5b6020026020010151611d2f90919063ffffffff16565b60976000878481518110611b7257fe5b602090810291909101810151825281810192909252604090810160009081206001600160a01b038b168252909252902055600101611aea565b50846001600160a01b031660006001600160a01b0316826001600160a01b03166000805160206130e38339815191528787604051808060200180602001838103835285818151815260200191508051906020019060200280838360005b83811015611c20578181015183820152602001611c08565b50505050905001838103825284818151815260200191508051906020019060200280838360005b83811015611c5f578181015183820152602001611c47565b5050505090500194505050505060405180910390a4611c8381600087878787611d87565b5050505050565b611127868686868686612a10565b60008184841115611d275760405162461bcd60e51b81526004018080602001828103825283818151815260200191508051906020019080838360005b83811015611cec578181015183820152602001611cd4565b50505050905090810190601f168015611d195780820380516001836020036101000a031916815260200191505b509250505060405180910390fd5b505050900390565b600082820183811015611568576040805162461bcd60e51b815260206004820152601b60248201527a536166654d6174683a206164646974696f6e206f766572666c6f7760281b604482015290519081900360640190fd5b611d99846001600160a01b0316612a62565b1561112757836001600160a01b031663bc197c8187878686866040518663ffffffff1660e01b815260040180866001600160a01b03166001600160a01b03168152602001856001600160a01b03166001600160a01b03168152602001806020018060200180602001848103845287818151815260200191508051906020019060200280838360005b83811015611e39578181015183820152602001611e21565b50505050905001848103835286818151815260200191508051906020019060200280838360005b83811015611e78578181015183820152602001611e60565b50505050905001848103825285818151815260200191508051906020019080838360005b83811015611eb4578181015183820152602001611e9c565b50505050905090810190601f168015611ee15780820380516001836020036101000a031916815260200191505b5098505050505050505050602060405180830381600087803b158015611f0657600080fd5b505af1925050508015611f2b57506040513d6020811015611f2657600080fd5b505160015b61206b576040516000815260443d1015611f4757506000611fe2565b60046000803e60005160e01c6308c379a08114611f68576000915050611fe2565b60043d036004833e81513d60248201116001600160401b0382111715611f9357600092505050611fe2565b80830180516001600160401b03811115611fb4576000945050505050611fe2565b8060208301013d8601811115611fd257600095505050505050611fe2565b601f01601f191660405250925050505b80611fed5750612034565b60405162461bcd60e51b8152602060048201818152835160248401528351849391928392604401919085019080838360008315611cec578181015183820152602001611cd4565b60405162461bcd60e51b81526004018080602001828103825260348152602001806131036034913960400191505060405180910390fd5b6001600160e01b0319811663bc197c8160e01b146120ba5760405162461bcd60e51b81526004018080602001828103825260288152602001806131596028913960400191505060405180910390fd5b50505050505050565b60008281526033602052604090206120e1908263ffffffff612a6816565b15611192576120ee611a43565b6001600160a01b0316816001600160a01b0316837f2f8788117e7eff1d82e926ec794901d17c78024a50270940304540a733656f0d60405160405180910390a45050565b6000828152603360205260409020612150908263ffffffff612a7d16565b156111925761215d611a43565b6001600160a01b0316816001600160a01b0316837ff6391f5c32d9c69d2a47ea670b442974b53935d1edc7fd64eb21e047a839171b60405160405180910390a45050565b60fb5460ff166121ef576040805162461bcd60e51b815260206004820152601460248201527314185d5cd8589b194e881b9bdd081c185d5cd95960621b604482015290519081900360640190fd5b60fb805460ff191690557f5db9ee0a495bf2e6ff9c91a7834c1ba4fdd244a5e8aa4e537bd38aeae4b073aa612222611a43565b604080516001600160a01b039092168252519081900360200190a1565b6001600160a01b0383166122845760405162461bcd60e51b815260040180806020018281038252602381526020018061335a6023913960400191505060405180910390fd5b80518251146122c45760405162461bcd60e51b81526004018080602001828103825260288152602001806134a56028913960400191505060405180910390fd5b60006122ce611a43565b90506122ee81856000868660405180602001604052806000815250611c8a565b60005b83518110156123cc5761238383828151811061230957fe5b602002602001015160405180606001604052806024815260200161322c602491396097600088868151811061233a57fe5b602002602001015181526020019081526020016000206000896001600160a01b03166001600160a01b0316815260200190815260200160002054611c989092919063ffffffff16565b6097600086848151811061239357fe5b602090810291909101810151825281810192909252604090810160009081206001600160a01b038a1682529092529020556001016122f1565b5060006001600160a01b0316846001600160a01b0316826001600160a01b03166000805160206130e38339815191528686604051808060200180602001838103835285818151815260200191508051906020019060200280838360005b83811015612441578181015183820152602001612429565b50505050905001838103825284818151815260200191508051906020019060200280838360005b83811015612480578181015183820152602001612468565b5050505090500194505050505060405180910390a450505050565b6001600160a01b0384166124e05760405162461bcd60e51b81526004018080602001828103825260218152602001806134cd6021913960400191505060405180910390fd5b60006124ea611a43565b90506124fc8160008761182e8861263d565b60008481526097602090815260408083206001600160a01b038916845290915290205461252f908463ffffffff611d2f16565b60008581526097602090815260408083206001600160a01b03808b16808652918452828520959095558151898152928301889052815190948616926000805160206131b083398151915292908290030190a4611c8381600087878787612681565b60fb5460ff16156125db576040805162461bcd60e51b815260206004820152601060248201526f14185d5cd8589b194e881c185d5cd95960821b604482015290519081900360640190fd5b60fb805460ff191660011790557f62e78cea01bee320cd4e420270b5ea74000d11b0c9f74754ebdbfc544b05a258612222611a43565b60006115688383612a92565b6000611568836001600160a01b038416612af6565b6000610cee82612b0e565b60408051600180825281830190925260609182919060208083019080368337019050509050828160008151811061267057fe5b602090810291909101015292915050565b612693846001600160a01b0316612a62565b1561112757836001600160a01b031663f23a6e6187878686866040518663ffffffff1660e01b815260040180866001600160a01b03166001600160a01b03168152602001856001600160a01b03166001600160a01b0316815260200184815260200183815260200180602001828103825283818151815260200191508051906020019080838360005b8381101561273457818101518382015260200161271c565b50505050905090810190601f1680156127615780820380516001836020036101000a031916815260200191505b509650505050505050602060405180830381600087803b15801561278457600080fd5b505af19250505080156127a957506040513d60208110156127a457600080fd5b505160015b6127c5576040516000815260443d1015611f4757506000611fe2565b6001600160e01b0319811663f23a6e6160e01b146120ba5760405162461bcd60e51b81526004018080602001828103825260288152602001806131596028913960400191505060405180910390fd5b6001600160a01b0383166128595760405162461bcd60e51b815260040180806020018281038252602381526020018061335a6023913960400191505060405180910390fd5b6000612863611a43565b9050612893818560006128758761263d565b61287e8761263d565b60405180602001604052806000815250611c8a565b6128e08260405180606001604052806024815260200161322c6024913960008681526097602090815260408083206001600160a01b038b168452909152902054919063ffffffff611c9816565b60008481526097602090815260408083206001600160a01b03808a16808652918452828520959095558151888152928301879052815193949093908616926000805160206131b083398151915292908290030190a450505050565b303b1590565b600054610100900460ff168061295a575061295a61293b565b80612968575060005460ff16155b6129a35760405162461bcd60e51b815260040180806020018281038252602e81526020018061332c602e913960400191505060405180910390fd5b600054610100900460ff161580156129ce576000805460ff1961ff0019909116610100171660011790555b6129d6612b12565b6129de612b12565b6129e6612bb4565b6129ef82612c51565b6129f7612b12565b6129ff612d07565b612a07612b12565b611a2e82612db2565b612a1e868686868686611127565b612a266113e5565b156111275760405162461bcd60e51b815260040180806020018281038252602c815260200180613250602c913960400191505060405180910390fd5b3b151590565b6000611568836001600160a01b038416612ea9565b6000611568836001600160a01b038416612ef3565b81546000908210612ad45760405162461bcd60e51b81526004018080602001828103825260228152602001806131376022913960400191505060405180910390fd5b826000018281548110612ae357fe5b9060005260206000200154905092915050565b60009081526001919091016020526040902054151590565b5490565b600054610100900460ff1680612b2b5750612b2b61293b565b80612b39575060005460ff16155b612b745760405162461bcd60e51b815260040180806020018281038252602e81526020018061332c602e913960400191505060405180910390fd5b600054610100900460ff16158015612b9f576000805460ff1961ff0019909116610100171660011790555b8015612bb1576000805461ff00191690555b50565b600054610100900460ff1680612bcd5750612bcd61293b565b80612bdb575060005460ff16155b612c165760405162461bcd60e51b815260040180806020018281038252602e81526020018061332c602e913960400191505060405180910390fd5b600054610100900460ff16158015612c41576000805460ff1961ff0019909116610100171660011790555b612b9f6301ffc9a760e01b612fb9565b600054610100900460ff1680612c6a5750612c6a61293b565b80612c78575060005460ff16155b612cb35760405162461bcd60e51b815260040180806020018281038252602e81526020018061332c602e913960400191505060405180910390fd5b600054610100900460ff16158015612cde576000805460ff1961ff0019909116610100171660011790555b612ce78261303c565b612cf7636cdb3d1360e11b612fb9565b611a2e6303a24d0760e21b612fb9565b600054610100900460ff1680612d205750612d2061293b565b80612d2e575060005460ff16155b612d695760405162461bcd60e51b815260040180806020018281038252602e81526020018061332c602e913960400191505060405180910390fd5b600054610100900460ff16158015612d94576000805460ff1961ff0019909116610100171660011790555b60fb805460ff191690558015612bb1576000805461ff001916905550565b600054610100900460ff1680612dcb5750612dcb61293b565b80612dd9575060005460ff16155b612e145760405162461bcd60e51b815260040180806020018281038252602e81526020018061332c602e913960400191505060405180910390fd5b600054610100900460ff16158015612e3f576000805460ff1961ff0019909116610100171660011790555b612e516000612e4c611a43565b611188565b604080516a4d494e5445525f524f4c4560a81b8152905190819003600b019020612e7d90612e4c611a43565b604080516a5041555345525f524f4c4560a81b8152905190819003600b019020611a2e90612e4c611a43565b6000612eb58383612af6565b612eeb57508154600181810184556000848152602080822090930184905584548482528286019093526040902091909155610cee565b506000610cee565b60008181526001830160205260408120548015612faf5783546000198083019190810190600090879083908110612f2657fe5b9060005260206000200154905080876000018481548110612f4357fe5b600091825260208083209091019290925582815260018981019092526040902090840190558654879080612f7357fe5b60019003818190600052602060002001600090559055866001016000878152602001908152602001600020600090556001945050505050610cee565b6000915050610cee565b6001600160e01b03198082161415613017576040805162461bcd60e51b815260206004820152601c60248201527b115490cc4d8d4e881a5b9d985b1a59081a5b9d195c999858d9481a5960221b604482015290519081900360640190fd5b6001600160e01b0319166000908152606560205260409020805460ff19166001179055565b8051611192906099906020840190828054600181600116156101000203166002900490600052602060002090601f016020900481019282601f1061308b57805160ff19168380011785556130b8565b828001600101855582156130b8579182015b828111156130b857825182559160200191906001019061309d565b506130c49291506130c8565b5090565b6113ec91905b808211156130c457600081556001016130ce56fe4a39dc06d4c0dbc64b70af90fd698a233a518aa5d07e595d983b8c0526c8f7fb455243313135353a207472616e7366657220746f206e6f6e2045524331313535526563656976657220696d706c656d656e746572456e756d657261626c655365743a20696e646578206f7574206f6620626f756e6473455243313135353a204552433131353552656365697665722072656a656374656420746f6b656e73416363657373436f6e74726f6c3a2073656e646572206d75737420626520616e2061646d696e20746f206772616e74c3d58168c5ae7397731d063d5bbf3d657854427343f4c083240f7aacaa2d0f62455243313135353a2062616c616e636520717565727920666f7220746865207a65726f2061646472657373455243313135353a2062617463682062616c616e636520717565727920666f7220746865207a65726f2061646472657373455243313135353a206275726e20616d6f756e7420657863656564732062616c616e6365455243313135355061757361626c653a20746f6b656e207472616e73666572207768696c6520706175736564455243313135353a2063616c6c6572206973206e6f74206f776e6572206e6f7220617070726f766564416363657373436f6e74726f6c3a2073656e646572206d75737420626520616e2061646d696e20746f207265766f6b65455243313135353a207472616e7366657220746f20746865207a65726f2061646472657373455243313135353a207472616e736665722063616c6c6572206973206e6f74206f776e6572206e6f7220617070726f766564496e697469616c697a61626c653a20636f6e747261637420697320616c726561647920696e697469616c697a6564455243313135353a206275726e2066726f6d20746865207a65726f2061646472657373455243313135355072657365744d696e7465725061757365723a206d7573742068617665206d696e74657220726f6c6520746f206d696e74455243313135353a20696e73756666696369656e742062616c616e636520666f72207472616e73666572455243313135355072657365744d696e7465725061757365723a206d75737420686176652070617573657220726f6c6520746f20756e7061757365455243313135355072657365744d696e7465725061757365723a206d75737420686176652070617573657220726f6c6520746f207061757365455243313135353a2073657474696e6720617070726f76616c2073746174757320666f722073656c66455243313135353a206163636f756e747320616e6420696473206c656e677468206d69736d61746368455243313135353a2069647320616e6420616d6f756e7473206c656e677468206d69736d61746368455243313135353a206d696e7420746f20746865207a65726f2061646472657373416363657373436f6e74726f6c3a2063616e206f6e6c792072656e6f756e636520726f6c657320666f722073656c66a26469706673582212206ab2b785778e04607c027b755b0805199a11c6e70ffc55162826481e098636fb64736f6c63430006060033",
  "immutableReferences": {},
  "source": "// SPDX-License-Identifier: MIT\n\npragma solidity ^0.6.0;\n\nimport \"../access/AccessControlUpgradeable.sol\";\nimport \"../GSN/ContextUpgradeable.sol\";\nimport \"../token/ERC1155/ERC1155Upgradeable.sol\";\nimport \"../token/ERC1155/ERC1155BurnableUpgradeable.sol\";\nimport \"../token/ERC1155/ERC1155PausableUpgradeable.sol\";\nimport \"../proxy/Initializable.sol\";\n\n/**\n * @dev {ERC1155} token, including:\n *\n *  - ability for holders to burn (destroy) their tokens\n *  - a minter role that allows for token minting (creation)\n *  - a pauser role that allows to stop all token transfers\n *\n * This contract uses {AccessControl} to lock permissioned functions using the\n * different roles - head to its documentation for details.\n *\n * The account that deploys the contract will be granted the minter and pauser\n * roles, as well as the default admin role, which will let it grant both minter\n * and pauser roles to other accounts.\n */\ncontract ERC1155PresetMinterPauserUpgradeable is Initializable, ContextUpgradeable, AccessControlUpgradeable, ERC1155BurnableUpgradeable, ERC1155PausableUpgradeable {\n    function initialize(string memory uri) public virtual initializer {\n        __ERC1155PresetMinterPauser_init(uri);\n    }\n    bytes32 public constant MINTER_ROLE = keccak256(\"MINTER_ROLE\");\n    bytes32 public constant PAUSER_ROLE = keccak256(\"PAUSER_ROLE\");\n\n    /**\n     * @dev Grants `DEFAULT_ADMIN_ROLE`, `MINTER_ROLE`, and `PAUSER_ROLE` to the account that\n     * deploys the contract.\n     */\n    function __ERC1155PresetMinterPauser_init(string memory uri) internal initializer {\n        __Context_init_unchained();\n        __AccessControl_init_unchained();\n        __ERC165_init_unchained();\n        __ERC1155_init_unchained(uri);\n        __ERC1155Burnable_init_unchained();\n        __Pausable_init_unchained();\n        __ERC1155Pausable_init_unchained();\n        __ERC1155PresetMinterPauser_init_unchained(uri);\n    }\n\n    function __ERC1155PresetMinterPauser_init_unchained(string memory uri) internal initializer {\n        _setupRole(DEFAULT_ADMIN_ROLE, _msgSender());\n\n        _setupRole(MINTER_ROLE, _msgSender());\n        _setupRole(PAUSER_ROLE, _msgSender());\n    }\n\n    /**\n     * @dev Creates `amount` new tokens for `to`, of token type `id`.\n     *\n     * See {ERC1155-_mint}.\n     *\n     * Requirements:\n     *\n     * - the caller must have the `MINTER_ROLE`.\n     */\n    function mint(address to, uint256 id, uint256 amount, bytes memory data) public virtual {\n        require(hasRole(MINTER_ROLE, _msgSender()), \"ERC1155PresetMinterPauser: must have minter role to mint\");\n\n        _mint(to, id, amount, data);\n    }\n\n    /**\n     * @dev xref:ROOT:erc1155.adoc#batch-operations[Batched] variant of {mint}.\n     */\n    function mintBatch(address to, uint256[] memory ids, uint256[] memory amounts, bytes memory data) public virtual {\n        require(hasRole(MINTER_ROLE, _msgSender()), \"ERC1155PresetMinterPauser: must have minter role to mint\");\n\n        _mintBatch(to, ids, amounts, data);\n    }\n\n    /**\n     * @dev Pauses all token transfers.\n     *\n     * See {ERC1155Pausable} and {Pausable-_pause}.\n     *\n     * Requirements:\n     *\n     * - the caller must have the `PAUSER_ROLE`.\n     */\n    function pause() public virtual {\n        require(hasRole(PAUSER_ROLE, _msgSender()), \"ERC1155PresetMinterPauser: must have pauser role to pause\");\n        _pause();\n    }\n\n    /**\n     * @dev Unpauses all token transfers.\n     *\n     * See {ERC1155Pausable} and {Pausable-_unpause}.\n     *\n     * Requirements:\n     *\n     * - the caller must have the `PAUSER_ROLE`.\n     */\n    function unpause() public virtual {\n        require(hasRole(PAUSER_ROLE, _msgSender()), \"ERC1155PresetMinterPauser: must have pauser role to unpause\");\n        _unpause();\n    }\n\n    function _beforeTokenTransfer(\n        address operator,\n        address from,\n        address to,\n        uint256[] memory ids,\n        uint256[] memory amounts,\n        bytes memory data\n    )\n        internal virtual override(ERC1155Upgradeable, ERC1155PausableUpgradeable)\n    {\n        super._beforeTokenTransfer(operator, from, to, ids, amounts, data);\n    }\n    uint256[50] private __gap;\n}\n",
  "sourcePath": "@openzeppelin/contracts-upgradeable/presets/ERC1155PresetMinterPauserUpgradeable.sol",
  "compiler": {
    "name": "solc",
    "version": "0.6.6+commit.6c089d02.Emscripten.clang"
  },
  "schemaVersion": "3.3.2",
  "updatedAt": "2020-11-23T22:57:25.519Z",
  "devdoc": {
    "details": "{ERC1155} token, including: *  - ability for holders to burn (destroy) their tokens - a minter role that allows for token minting (creation) - a pauser role that allows to stop all token transfers * This contract uses {AccessControl} to lock permissioned functions using the different roles - head to its documentation for details. * The account that deploys the contract will be granted the minter and pauser roles, as well as the default admin role, which will let it grant both minter and pauser roles to other accounts.",
    "methods": {
      "balanceOf(address,uint256)": {
        "details": "See {IERC1155-balanceOf}.     * Requirements:     * - `account` cannot be the zero address."
      },
      "balanceOfBatch(address[],uint256[])": {
        "details": "See {IERC1155-balanceOfBatch}.     * Requirements:     * - `accounts` and `ids` must have the same length."
      },
      "getRoleAdmin(bytes32)": {
        "details": "Returns the admin role that controls `role`. See {grantRole} and {revokeRole}.     * To change a role's admin, use {_setRoleAdmin}."
      },
      "getRoleMember(bytes32,uint256)": {
        "details": "Returns one of the accounts that have `role`. `index` must be a value between 0 and {getRoleMemberCount}, non-inclusive.     * Role bearers are not sorted in any particular way, and their ordering may change at any point.     * WARNING: When using {getRoleMember} and {getRoleMemberCount}, make sure you perform all queries on the same block. See the following https://forum.openzeppelin.com/t/iterating-over-elements-on-enumerableset-in-openzeppelin-contracts/2296[forum post] for more information."
      },
      "getRoleMemberCount(bytes32)": {
        "details": "Returns the number of accounts that have `role`. Can be used together with {getRoleMember} to enumerate all bearers of a role."
      },
      "grantRole(bytes32,address)": {
        "details": "Grants `role` to `account`.     * If `account` had not been already granted `role`, emits a {RoleGranted} event.     * Requirements:     * - the caller must have ``role``'s admin role."
      },
      "hasRole(bytes32,address)": {
        "details": "Returns `true` if `account` has been granted `role`."
      },
      "isApprovedForAll(address,address)": {
        "details": "See {IERC1155-isApprovedForAll}."
      },
      "mint(address,uint256,uint256,bytes)": {
        "details": "Creates `amount` new tokens for `to`, of token type `id`.     * See {ERC1155-_mint}.     * Requirements:     * - the caller must have the `MINTER_ROLE`."
      },
      "mintBatch(address,uint256[],uint256[],bytes)": {
        "details": "xref:ROOT:erc1155.adoc#batch-operations[Batched] variant of {mint}."
      },
      "pause()": {
        "details": "Pauses all token transfers.     * See {ERC1155Pausable} and {Pausable-_pause}.     * Requirements:     * - the caller must have the `PAUSER_ROLE`."
      },
      "paused()": {
        "details": "Returns true if the contract is paused, and false otherwise."
      },
      "renounceRole(bytes32,address)": {
        "details": "Revokes `role` from the calling account.     * Roles are often managed via {grantRole} and {revokeRole}: this function's purpose is to provide a mechanism for accounts to lose their privileges if they are compromised (such as when a trusted device is misplaced).     * If the calling account had been granted `role`, emits a {RoleRevoked} event.     * Requirements:     * - the caller must be `account`."
      },
      "revokeRole(bytes32,address)": {
        "details": "Revokes `role` from `account`.     * If `account` had been granted `role`, emits a {RoleRevoked} event.     * Requirements:     * - the caller must have ``role``'s admin role."
      },
      "safeBatchTransferFrom(address,address,uint256[],uint256[],bytes)": {
        "details": "See {IERC1155-safeBatchTransferFrom}."
      },
      "safeTransferFrom(address,address,uint256,uint256,bytes)": {
        "details": "See {IERC1155-safeTransferFrom}."
      },
      "setApprovalForAll(address,bool)": {
        "details": "See {IERC1155-setApprovalForAll}."
      },
      "supportsInterface(bytes4)": {
        "details": "See {IERC165-supportsInterface}.     * Time complexity O(1), guaranteed to always use less than 30 000 gas."
      },
      "unpause()": {
        "details": "Unpauses all token transfers.     * See {ERC1155Pausable} and {Pausable-_unpause}.     * Requirements:     * - the caller must have the `PAUSER_ROLE`."
      },
      "uri(uint256)": {
        "details": "See {IERC1155MetadataURI-uri}.     * This implementation returns the same URI for *all* token types. It relies on the token type ID substitution mechanism https://eips.ethereum.org/EIPS/eip-1155#metadata[defined in the EIP].     * Clients calling this function must replace the `\\{id\\}` substring with the actual token type ID."
      }
    }
  },
  "userdoc": {
    "methods": {}
  }
}