{
  "contractName": "ERC721PresetMinterPauserAutoIdUpgradeable",
  "abi": [
    {
      "anonymous": false,
      "inputs": [
        {
          "indexed": true,
          "internalType": "address",
          "name": "owner",
          "type": "address"
        },
        {
          "indexed": true,
          "internalType": "address",
          "name": "approved",
          "type": "address"
        },
        {
          "indexed": true,
          "internalType": "uint256",
          "name": "tokenId",
          "type": "uint256"
        }
      ],
      "name": "Approval",
      "type": "event"
    },
    {
      "anonymous": false,
      "inputs": [
        {
          "indexed": true,
          "internalType": "address",
          "name": "owner",
          "type": "address"
        },
        {
          "indexed": true,
          "internalType": "address",
          "name": "operator",
          "type": "address"
        },
        {
          "indexed": false,
          "internalType": "bool",
          "name": "approved",
          "type": "bool"
        }
      ],
      "name": "ApprovalForAll",
      "type": "event"
    },
    {
      "anonymous": false,
      "inputs": [
        {
          "indexed": false,
          "internalType": "address",
          "name": "account",
          "type": "address"
        }
      ],
      "name": "Paused",
      "type": "event"
    },
    {
      "anonymous": false,
      "inputs": [
        {
          "indexed": true,
          "internalType": "bytes32",
          "name": "role",
          "type": "bytes32"
        },
        {
          "indexed": true,
          "internalType": "bytes32",
          "name": "previousAdminRole",
          "type": "bytes32"
        },
        {
          "indexed": true,
          "internalType": "bytes32",
          "name": "newAdminRole",
          "type": "bytes32"
        }
      ],
      "name": "RoleAdminChanged",
      "type": "event"
    },
    {
      "anonymous": false,
      "inputs": [
        {
          "indexed": true,
          "internalType": "bytes32",
          "name": "role",
          "type": "bytes32"
        },
        {
          "indexed": true,
          "internalType": "address",
          "name": "account",
          "type": "address"
        },
        {
          "indexed": true,
          "internalType": "address",
          "name": "sender",
          "type": "address"
        }
      ],
      "name": "RoleGranted",
      "type": "event"
    },
    {
      "anonymous": false,
      "inputs": [
        {
          "indexed": true,
          "internalType": "bytes32",
          "name": "role",
          "type": "bytes32"
        },
        {
          "indexed": true,
          "internalType": "address",
          "name": "account",
          "type": "address"
        },
        {
          "indexed": true,
          "internalType": "address",
          "name": "sender",
          "type": "address"
        }
      ],
      "name": "RoleRevoked",
      "type": "event"
    },
    {
      "anonymous": false,
      "inputs": [
        {
          "indexed": true,
          "internalType": "address",
          "name": "from",
          "type": "address"
        },
        {
          "indexed": true,
          "internalType": "address",
          "name": "to",
          "type": "address"
        },
        {
          "indexed": true,
          "internalType": "uint256",
          "name": "tokenId",
          "type": "uint256"
        }
      ],
      "name": "Transfer",
      "type": "event"
    },
    {
      "anonymous": false,
      "inputs": [
        {
          "indexed": false,
          "internalType": "address",
          "name": "account",
          "type": "address"
        }
      ],
      "name": "Unpaused",
      "type": "event"
    },
    {
      "inputs": [],
      "name": "DEFAULT_ADMIN_ROLE",
      "outputs": [
        {
          "internalType": "bytes32",
          "name": "",
          "type": "bytes32"
        }
      ],
      "stateMutability": "view",
      "type": "function"
    },
    {
      "inputs": [],
      "name": "MINTER_ROLE",
      "outputs": [
        {
          "internalType": "bytes32",
          "name": "",
          "type": "bytes32"
        }
      ],
      "stateMutability": "view",
      "type": "function"
    },
    {
      "inputs": [],
      "name": "PAUSER_ROLE",
      "outputs": [
        {
          "internalType": "bytes32",
          "name": "",
          "type": "bytes32"
        }
      ],
      "stateMutability": "view",
      "type": "function"
    },
    {
      "inputs": [
        {
          "internalType": "address",
          "name": "to",
          "type": "address"
        },
        {
          "internalType": "uint256",
          "name": "tokenId",
          "type": "uint256"
        }
      ],
      "name": "approve",
      "outputs": [],
      "stateMutability": "nonpayable",
      "type": "function"
    },
    {
      "inputs": [
        {
          "internalType": "address",
          "name": "owner",
          "type": "address"
        }
      ],
      "name": "balanceOf",
      "outputs": [
        {
          "internalType": "uint256",
          "name": "",
          "type": "uint256"
        }
      ],
      "stateMutability": "view",
      "type": "function"
    },
    {
      "inputs": [],
      "name": "baseURI",
      "outputs": [
        {
          "internalType": "string",
          "name": "",
          "type": "string"
        }
      ],
      "stateMutability": "view",
      "type": "function"
    },
    {
      "inputs": [
        {
          "internalType": "uint256",
          "name": "tokenId",
          "type": "uint256"
        }
      ],
      "name": "burn",
      "outputs": [],
      "stateMutability": "nonpayable",
      "type": "function"
    },
    {
      "inputs": [
        {
          "internalType": "uint256",
          "name": "tokenId",
          "type": "uint256"
        }
      ],
      "name": "getApproved",
      "outputs": [
        {
          "internalType": "address",
          "name": "",
          "type": "address"
        }
      ],
      "stateMutability": "view",
      "type": "function"
    },
    {
      "inputs": [
        {
          "internalType": "bytes32",
          "name": "role",
          "type": "bytes32"
        }
      ],
      "name": "getRoleAdmin",
      "outputs": [
        {
          "internalType": "bytes32",
          "name": "",
          "type": "bytes32"
        }
      ],
      "stateMutability": "view",
      "type": "function"
    },
    {
      "inputs": [
        {
          "internalType": "bytes32",
          "name": "role",
          "type": "bytes32"
        },
        {
          "internalType": "uint256",
          "name": "index",
          "type": "uint256"
        }
      ],
      "name": "getRoleMember",
      "outputs": [
        {
          "internalType": "address",
          "name": "",
          "type": "address"
        }
      ],
      "stateMutability": "view",
      "type": "function"
    },
    {
      "inputs": [
        {
          "internalType": "bytes32",
          "name": "role",
          "type": "bytes32"
        }
      ],
      "name": "getRoleMemberCount",
      "outputs": [
        {
          "internalType": "uint256",
          "name": "",
          "type": "uint256"
        }
      ],
      "stateMutability": "view",
      "type": "function"
    },
    {
      "inputs": [
        {
          "internalType": "bytes32",
          "name": "role",
          "type": "bytes32"
        },
        {
          "internalType": "address",
          "name": "account",
          "type": "address"
        }
      ],
      "name": "grantRole",
      "outputs": [],
      "stateMutability": "nonpayable",
      "type": "function"
    },
    {
      "inputs": [
        {
          "internalType": "bytes32",
          "name": "role",
          "type": "bytes32"
        },
        {
          "internalType": "address",
          "name": "account",
          "type": "address"
        }
      ],
      "name": "hasRole",
      "outputs": [
        {
          "internalType": "bool",
          "name": "",
          "type": "bool"
        }
      ],
      "stateMutability": "view",
      "type": "function"
    },
    {
      "inputs": [
        {
          "internalType": "address",
          "name": "owner",
          "type": "address"
        },
        {
          "internalType": "address",
          "name": "operator",
          "type": "address"
        }
      ],
      "name": "isApprovedForAll",
      "outputs": [
        {
          "internalType": "bool",
          "name": "",
          "type": "bool"
        }
      ],
      "stateMutability": "view",
      "type": "function"
    },
    {
      "inputs": [],
      "name": "name",
      "outputs": [
        {
          "internalType": "string",
          "name": "",
          "type": "string"
        }
      ],
      "stateMutability": "view",
      "type": "function"
    },
    {
      "inputs": [
        {
          "internalType": "uint256",
          "name": "tokenId",
          "type": "uint256"
        }
      ],
      "name": "ownerOf",
      "outputs": [
        {
          "internalType": "address",
          "name": "",
          "type": "address"
        }
      ],
      "stateMutability": "view",
      "type": "function"
    },
    {
      "inputs": [],
      "name": "paused",
      "outputs": [
        {
          "internalType": "bool",
          "name": "",
          "type": "bool"
        }
      ],
      "stateMutability": "view",
      "type": "function"
    },
    {
      "inputs": [
        {
          "internalType": "bytes32",
          "name": "role",
          "type": "bytes32"
        },
        {
          "internalType": "address",
          "name": "account",
          "type": "address"
        }
      ],
      "name": "renounceRole",
      "outputs": [],
      "stateMutability": "nonpayable",
      "type": "function"
    },
    {
      "inputs": [
        {
          "internalType": "bytes32",
          "name": "role",
          "type": "bytes32"
        },
        {
          "internalType": "address",
          "name": "account",
          "type": "address"
        }
      ],
      "name": "revokeRole",
      "outputs": [],
      "stateMutability": "nonpayable",
      "type": "function"
    },
    {
      "inputs": [
        {
          "internalType": "address",
          "name": "from",
          "type": "address"
        },
        {
          "internalType": "address",
          "name": "to",
          "type": "address"
        },
        {
          "internalType": "uint256",
          "name": "tokenId",
          "type": "uint256"
        }
      ],
      "name": "safeTransferFrom",
      "outputs": [],
      "stateMutability": "nonpayable",
      "type": "function"
    },
    {
      "inputs": [
        {
          "internalType": "address",
          "name": "from",
          "type": "address"
        },
        {
          "internalType": "address",
          "name": "to",
          "type": "address"
        },
        {
          "internalType": "uint256",
          "name": "tokenId",
          "type": "uint256"
        },
        {
          "internalType": "bytes",
          "name": "_data",
          "type": "bytes"
        }
      ],
      "name": "safeTransferFrom",
      "outputs": [],
      "stateMutability": "nonpayable",
      "type": "function"
    },
    {
      "inputs": [
        {
          "internalType": "address",
          "name": "operator",
          "type": "address"
        },
        {
          "internalType": "bool",
          "name": "approved",
          "type": "bool"
        }
      ],
      "name": "setApprovalForAll",
      "outputs": [],
      "stateMutability": "nonpayable",
      "type": "function"
    },
    {
      "inputs": [
        {
          "internalType": "bytes4",
          "name": "interfaceId",
          "type": "bytes4"
        }
      ],
      "name": "supportsInterface",
      "outputs": [
        {
          "internalType": "bool",
          "name": "",
          "type": "bool"
        }
      ],
      "stateMutability": "view",
      "type": "function"
    },
    {
      "inputs": [],
      "name": "symbol",
      "outputs": [
        {
          "internalType": "string",
          "name": "",
          "type": "string"
        }
      ],
      "stateMutability": "view",
      "type": "function"
    },
    {
      "inputs": [
        {
          "internalType": "uint256",
          "name": "index",
          "type": "uint256"
        }
      ],
      "name": "tokenByIndex",
      "outputs": [
        {
          "internalType": "uint256",
          "name": "",
          "type": "uint256"
        }
      ],
      "stateMutability": "view",
      "type": "function"
    },
    {
      "inputs": [
        {
          "internalType": "address",
          "name": "owner",
          "type": "address"
        },
        {
          "internalType": "uint256",
          "name": "index",
          "type": "uint256"
        }
      ],
      "name": "tokenOfOwnerByIndex",
      "outputs": [
        {
          "internalType": "uint256",
          "name": "",
          "type": "uint256"
        }
      ],
      "stateMutability": "view",
      "type": "function"
    },
    {
      "inputs": [
        {
          "internalType": "uint256",
          "name": "tokenId",
          "type": "uint256"
        }
      ],
      "name": "tokenURI",
      "outputs": [
        {
          "internalType": "string",
          "name": "",
          "type": "string"
        }
      ],
      "stateMutability": "view",
      "type": "function"
    },
    {
      "inputs": [],
      "name": "totalSupply",
      "outputs": [
        {
          "internalType": "uint256",
          "name": "",
          "type": "uint256"
        }
      ],
      "stateMutability": "view",
      "type": "function"
    },
    {
      "inputs": [
        {
          "internalType": "address",
          "name": "from",
          "type": "address"
        },
        {
          "internalType": "address",
          "name": "to",
          "type": "address"
        },
        {
          "internalType": "uint256",
          "name": "tokenId",
          "type": "uint256"
        }
      ],
      "name": "transferFrom",
      "outputs": [],
      "stateMutability": "nonpayable",
      "type": "function"
    },
    {
      "inputs": [
        {
          "internalType": "string",
          "name": "name",
          "type": "string"
        },
        {
          "internalType": "string",
          "name": "symbol",
          "type": "string"
        },
        {
          "internalType": "string",
          "name": "baseURI",
          "type": "string"
        }
      ],
      "name": "initialize",
      "outputs": [],
      "stateMutability": "nonpayable",
      "type": "function"
    },
    {
      "inputs": [
        {
          "internalType": "address",
          "name": "to",
          "type": "address"
        }
      ],
      "name": "mint",
      "outputs": [],
      "stateMutability": "nonpayable",
      "type": "function"
    },
    {
      "inputs": [],
      "name": "pause",
      "outputs": [],
      "stateMutability": "nonpayable",
      "type": "function"
    },
    {
      "inputs": [],
      "name": "unpause",
      "outputs": [],
      "stateMutability": "nonpayable",
      "type": "function"
    }
  ],
  "bytecode": "0x608060405234801561001057600080fd5b50612e97806100206000396000f3fe608060405234801561001057600080fd5b506004361061018b5760003560e01c806301ffc9a71461019057806306fdde03146101cb578063081812fc14610248578063095ea7b31461028157806318160ddd146102af57806323b872dd146102c9578063248a9ca3146102ff5780632f2ff15d1461031c5780632f745c591461034857806336568abe146103745780633f4ba83a146103a057806342842e0e146103a857806342966c68146103de5780634f6ccce7146103fb5780635c975abb146104185780636352211e146104205780636a6278421461043d5780636c0360eb1461046357806370a082311461046b5780638456cb59146104915780639010d07c1461049957806391d14854146104bc57806395d89b41146104e8578063a217fddf146104f0578063a22cb465146104f8578063a6487c5314610526578063b88d4fde146106d4578063c87b56dd14610798578063ca15c873146107b5578063d5391393146107d2578063d547741f146107da578063e63ab1e914610806578063e985e9c51461080e575b600080fd5b6101b7600480360360208110156101a657600080fd5b50356001600160e01b03191661083c565b604080519115158252519081900360200190f35b6101d361085f565b6040805160208082528351818301528351919283929083019185019080838360005b8381101561020d5781810151838201526020016101f5565b50505050905090810190601f16801561023a5780820380516001836020036101000a031916815260200191505b509250505060405180910390f35b6102656004803603602081101561025e57600080fd5b50356108f5565b604080516001600160a01b039092168252519081900360200190f35b6102ad6004803603604081101561029757600080fd5b506001600160a01b038135169060200135610957565b005b6102b7610a32565b60408051918252519081900360200190f35b6102ad600480360360608110156102df57600080fd5b506001600160a01b03813581169160208101359091169060400135610a43565b6102b76004803603602081101561031557600080fd5b5035610a9a565b6102ad6004803603604081101561033257600080fd5b50803590602001356001600160a01b0316610aaf565b6102b76004803603604081101561035e57600080fd5b506001600160a01b038135169060200135610b1b565b6102ad6004803603604081101561038a57600080fd5b50803590602001356001600160a01b0316610b46565b6102ad610ba7565b6102ad600480360360608110156103be57600080fd5b506001600160a01b03813581169160208101359091169060400135610c06565b6102ad600480360360208110156103f457600080fd5b5035610c21565b6102b76004803603602081101561041157600080fd5b5035610c73565b6101b7610c89565b6102656004803603602081101561043657600080fd5b5035610c92565b6102ad6004803603602081101561045357600080fd5b50356001600160a01b0316610cba565b6101d3610d2e565b6102b76004803603602081101561048157600080fd5b50356001600160a01b0316610d8f565b6102ad610df7565b610265600480360360408110156104af57600080fd5b5080359060200135610e54565b6101b7600480360360408110156104d257600080fd5b50803590602001356001600160a01b0316610e6c565b6101d3610e84565b6102b7610ee5565b6102ad6004803603604081101561050e57600080fd5b506001600160a01b0381351690602001351515610eea565b6102ad6004803603606081101561053c57600080fd5b810190602081018135600160201b81111561055657600080fd5b82018360208201111561056857600080fd5b803590602001918460018302840111600160201b8311171561058957600080fd5b91908080601f0160208091040260200160405190810160405280939291908181526020018383808284376000920191909152509295949360208101935035915050600160201b8111156105db57600080fd5b8201836020820111156105ed57600080fd5b803590602001918460018302840111600160201b8311171561060e57600080fd5b91908080601f0160208091040260200160405190810160405280939291908181526020018383808284376000920191909152509295949360208101935035915050600160201b81111561066057600080fd5b82018360208201111561067257600080fd5b803590602001918460018302840111600160201b8311171561069357600080fd5b91908080601f016020809104026020016040519081016040528093929190818152602001838380828437600092019190915250929550610feb945050505050565b6102ad600480360360808110156106ea57600080fd5b6001600160a01b03823581169260208101359091169160408201359190810190608081016060820135600160201b81111561072457600080fd5b82018360208201111561073657600080fd5b803590602001918460018302840111600160201b8311171561075757600080fd5b91908080601f01602080910402602001604051908101604052809392919081815260200183838082843760009201919091525092955061109b945050505050565b6101d3600480360360208110156107ae57600080fd5b50356110f3565b6102b7600480360360208110156107cb57600080fd5b503561139a565b6102b76113b1565b6102ad600480360360408110156107f057600080fd5b50803590602001356001600160a01b03166113c3565b6102b761141c565b6101b76004803603604081101561082457600080fd5b506001600160a01b038135811691602001351661142e565b6001600160e01b0319811660009081526065602052604090205460ff165b919050565b609c8054604080516020601f60026000196101006001881615020190951694909404938401819004810282018101909252828152606093909290918301828280156108eb5780601f106108c0576101008083540402835291602001916108eb565b820191906000526020600020905b8154815290600101906020018083116108ce57829003601f168201915b5050505050905090565b60006109008261145c565b61093b5760405162461bcd60e51b815260040180806020018281038252602c815260200180612c50602c913960400191505060405180910390fd5b506000908152609a60205260409020546001600160a01b031690565b600061096282610c92565b9050806001600160a01b0316836001600160a01b031614156109b55760405162461bcd60e51b8152600401808060200182810382526021815260200180612d346021913960400191505060405180910390fd5b806001600160a01b03166109c7611469565b6001600160a01b031614806109e857506109e8816109e3611469565b61142e565b610a235760405162461bcd60e51b8152600401808060200182810382526038815260200180612b756038913960400191505060405180910390fd5b610a2d838361146d565b505050565b6000610a3e60986114db565b905090565b610a54610a4e611469565b826114e6565b610a8f5760405162461bcd60e51b8152600401808060200182810382526031815260200180612d556031913960400191505060405180910390fd5b610a2d83838361158a565b60009081526033602052604090206002015490565b600082815260336020526040902060020154610ad290610acd611469565b610e6c565b610b0d5760405162461bcd60e51b815260040180806020018281038252602f815260200180612a56602f913960400191505060405180910390fd5b610b1782826116c4565b5050565b6001600160a01b0382166000908152609760205260408120610b3d908361172d565b90505b92915050565b610b4e611469565b6001600160a01b0316816001600160a01b031614610b9d5760405162461bcd60e51b815260040180806020018281038252602f815260200180612e33602f913960400191505060405180910390fd5b610b178282611739565b610bc1600080516020612c7c833981519152610acd611469565b610bfc5760405162461bcd60e51b8152600401808060200182810382526040815260200180612df36040913960400191505060405180910390fd5b610c046117a2565b565b610a2d8383836040518060200160405280600081525061109b565b610c2c610a4e611469565b610c675760405162461bcd60e51b8152600401808060200182810382526030815260200180612dc36030913960400191505060405180910390fd5b610c7081611840565b50565b600080610c816098846118fb565b509392505050565b60fb5460ff1690565b6000610b4082604051806060016040528060298152602001612bd76029913960989190611917565b610cd4600080516020612cf4833981519152610acd611469565b610d0f5760405162461bcd60e51b815260040180806020018281038252603d815260200180612d86603d913960400191505060405180910390fd5b610d2381610d1e61015f61192e565b611932565b610c7061015f611a4d565b609f8054604080516020601f60026000196101006001881615020190951694909404938401819004810282018101909252828152606093909290918301828280156108eb5780601f106108c0576101008083540402835291602001916108eb565b60006001600160a01b038216610dd65760405162461bcd60e51b815260040180806020018281038252602a815260200180612bad602a913960400191505060405180910390fd5b6001600160a01b0382166000908152609760205260409020610b40906114db565b610e11600080516020612c7c833981519152610acd611469565b610e4c5760405162461bcd60e51b815260040180806020018281038252603e815260200180612ab7603e913960400191505060405180910390fd5b610c04611a56565b6000828152603360205260408120610b3d908361172d565b6000828152603360205260408120610b3d9083611ad7565b609d8054604080516020601f60026000196101006001881615020190951694909404938401819004810282018101909252828152606093909290918301828280156108eb5780601f106108c0576101008083540402835291602001916108eb565b600081565b610ef2611469565b6001600160a01b0316826001600160a01b03161415610f54576040805162461bcd60e51b815260206004820152601960248201527822a9219b99189d1030b8383937bb32903a379031b0b63632b960391b604482015290519081900360640190fd5b80609b6000610f61611469565b6001600160a01b03908116825260208083019390935260409182016000908120918716808252919093529120805460ff191692151592909217909155610fa5611469565b6001600160a01b03167f17307eab39ab6107e8899845ad3d59bd9653f200f220920489ca2b5937696c318360405180821515815260200191505060405180910390a35050565b600054610100900460ff16806110045750611004611aec565b80611012575060005460ff16155b61104d5760405162461bcd60e51b815260040180806020018281038252602e815260200180612c00602e913960400191505060405180910390fd5b600054610100900460ff16158015611078576000805460ff1961ff0019909116610100171660011790555b611083848484611af2565b8015611095576000805461ff00191690555b50505050565b6110ac6110a6611469565b836114e6565b6110e75760405162461bcd60e51b8152600401808060200182810382526031815260200180612d556031913960400191505060405180910390fd5b61109584848484611bc4565b60606110fe8261145c565b6111395760405162461bcd60e51b815260040180806020018281038252602f815260200180612cc5602f913960400191505060405180910390fd5b6000828152609e602090815260409182902080548351601f60026000196101006001861615020190931692909204918201849004840281018401909452808452606093928301828280156111ce5780601f106111a3576101008083540402835291602001916111ce565b820191906000526020600020905b8154815290600101906020018083116111b157829003601f168201915b5050609f54939450505050600260001961010060018416150201909116046111f757905061085a565b8051156112c857609f81604051602001808380546001816001161561010002031660029004801561125f5780601f1061123d57610100808354040283529182019161125f565b820191906000526020600020905b81548152906001019060200180831161124b575b5050825160208401908083835b6020831061128b5780518252601f19909201916020918201910161126c565b6001836020036101000a0380198251168184511680821785525050505050509050019250505060405160208183030381529060405291505061085a565b609f6112d384611c16565b60405160200180838054600181600116156101000203166002900480156113315780601f1061130f576101008083540402835291820191611331565b820191906000526020600020905b81548152906001019060200180831161131d575b5050825160208401908083835b6020831061135d5780518252601f19909201916020918201910161133e565b6001836020036101000a03801982511681845116808217855250505050505090500192505050604051602081830303815290604052915050919050565b6000818152603360205260408120610b40906114db565b600080516020612cf483398151915281565b6000828152603360205260409020600201546113e190610acd611469565b610b9d5760405162461bcd60e51b8152600401808060200182810382526030815260200180612b456030913960400191505060405180910390fd5b600080516020612c7c83398151915281565b6001600160a01b039182166000908152609b6020908152604080832093909416825291909152205460ff1690565b6000610b40609883611cf0565b3390565b6000818152609a6020526040902080546001600160a01b0319166001600160a01b03841690811790915581906114a282610c92565b6001600160a01b03167f8c5be1e5ebec7d5bd14f71427d1e84f3dd0314c0f7b2291e5b200ac8c7c3b92560405160405180910390a45050565b6000610b408261192e565b60006114f18261145c565b61152c5760405162461bcd60e51b815260040180806020018281038252602c815260200180612b19602c913960400191505060405180910390fd5b600061153783610c92565b9050806001600160a01b0316846001600160a01b031614806115725750836001600160a01b0316611567846108f5565b6001600160a01b0316145b806115825750611582818561142e565b949350505050565b826001600160a01b031661159d82610c92565b6001600160a01b0316146115e25760405162461bcd60e51b8152600401808060200182810382526029815260200180612c9c6029913960400191505060405180910390fd5b6001600160a01b0382166116275760405162461bcd60e51b8152600401808060200182810382526024815260200180612af56024913960400191505060405180910390fd5b611632838383611cfc565b61163d60008261146d565b6001600160a01b038316600090815260976020526040902061165f9082611d07565b506001600160a01b03821660009081526097602052604090206116829082611d13565b5061168f60988284611d1f565b5080826001600160a01b0316846001600160a01b0316600080516020612d1483398151915260405160405180910390a4505050565b60008281526033602052604090206116dc9082611d35565b15610b17576116e9611469565b6001600160a01b0316816001600160a01b0316837f2f8788117e7eff1d82e926ec794901d17c78024a50270940304540a733656f0d60405160405180910390a45050565b6000610b3d8383611d4a565b60008281526033602052604090206117519082611dae565b15610b175761175e611469565b6001600160a01b0316816001600160a01b0316837ff6391f5c32d9c69d2a47ea670b442974b53935d1edc7fd64eb21e047a839171b60405160405180910390a45050565b60fb5460ff166117f0576040805162461bcd60e51b815260206004820152601460248201527314185d5cd8589b194e881b9bdd081c185d5cd95960621b604482015290519081900360640190fd5b60fb805460ff191690557f5db9ee0a495bf2e6ff9c91a7834c1ba4fdd244a5e8aa4e537bd38aeae4b073aa611823611469565b604080516001600160a01b039092168252519081900360200190a1565b600061184b82610c92565b905061185981600084611cfc565b61186460008361146d565b6000828152609e602052604090205460026000196101006001841615020190911604156118a2576000828152609e602052604081206118a291612931565b6001600160a01b03811660009081526097602052604090206118c49083611d07565b506118d0609883611dc3565b5060405182906000906001600160a01b03841690600080516020612d14833981519152908390a45050565b600080808061190a8686611dcf565b9097909650945050505050565b6000611924848484611e4a565b90505b9392505050565b5490565b6001600160a01b03821661198d576040805162461bcd60e51b815260206004820181905260248201527f4552433732313a206d696e7420746f20746865207a65726f2061646472657373604482015290519081900360640190fd5b6119968161145c565b156119e7576040805162461bcd60e51b815260206004820152601c60248201527b115490cdcc8c4e881d1bdad95b88185b1c9958591e481b5a5b9d195960221b604482015290519081900360640190fd5b6119f360008383611cfc565b6001600160a01b0382166000908152609760205260409020611a159082611d13565b50611a2260988284611d1f565b5060405181906001600160a01b03841690600090600080516020612d14833981519152908290a45050565b80546001019055565b60fb5460ff1615611aa1576040805162461bcd60e51b815260206004820152601060248201526f14185d5cd8589b194e881c185d5cd95960821b604482015290519081900360640190fd5b60fb805460ff191660011790557f62e78cea01bee320cd4e420270b5ea74000d11b0c9f74754ebdbfc544b05a258611823611469565b6000610b3d836001600160a01b038416611f14565b303b1590565b600054610100900460ff1680611b0b5750611b0b611aec565b80611b19575060005460ff16155b611b545760405162461bcd60e51b815260040180806020018281038252602e815260200180612c00602e913960400191505060405180910390fd5b600054610100900460ff16158015611b7f576000805460ff1961ff0019909116610100171660011790555b611b87611f2c565b611b8f611f2c565b611b97611fcd565b611ba1848461206a565b611ba9611f2c565b611bb1612165565b611bb9611f2c565b611083848484612210565b611bcf84848461158a565b611bdb848484846122ec565b6110955760405162461bcd60e51b8152600401808060200182810382526032815260200180612a856032913960400191505060405180910390fd5b606081611c3b57506040805180820190915260018152600360fc1b602082015261085a565b8160005b8115611c5357600101600a82049150611c3f565b6060816001600160401b0381118015611c6b57600080fd5b506040519080825280601f01601f191660200182016040528015611c96576020820181803683370190505b50859350905060001982015b8315611ce757600a840660300160f81b82828060019003935081518110611cc557fe5b60200101906001600160f81b031916908160001a905350600a84049350611ca2565b50949350505050565b6000610b3d8383611f14565b610a2d838383612454565b6000610b3d83836124a3565b6000610b3d8383612569565b600061192484846001600160a01b0385166125b3565b6000610b3d836001600160a01b038416612569565b81546000908210611d8c5760405162461bcd60e51b8152600401808060200182810382526022815260200180612a096022913960400191505060405180910390fd5b826000018281548110611d9b57fe5b9060005260206000200154905092915050565b6000610b3d836001600160a01b0384166124a3565b6000610b3d838361264a565b815460009081908310611e135760405162461bcd60e51b8152600401808060200182810382526022815260200180612c2e6022913960400191505060405180910390fd5b6000846000018481548110611e2457fe5b906000526020600020906002020190508060000154816001015492509250509250929050565b60008281526001840160205260408120548281611ee55760405162461bcd60e51b81526004018080602001828103825283818151815260200191508051906020019080838360005b83811015611eaa578181015183820152602001611e92565b50505050905090810190601f168015611ed75780820380516001836020036101000a031916815260200191505b509250505060405180910390fd5b50846000016001820381548110611ef857fe5b9060005260206000209060020201600101549150509392505050565b60009081526001919091016020526040902054151590565b600054610100900460ff1680611f455750611f45611aec565b80611f53575060005460ff16155b611f8e5760405162461bcd60e51b815260040180806020018281038252602e815260200180612c00602e913960400191505060405180910390fd5b600054610100900460ff16158015611fb9576000805460ff1961ff0019909116610100171660011790555b8015610c70576000805461ff001916905550565b600054610100900460ff1680611fe65750611fe6611aec565b80611ff4575060005460ff16155b61202f5760405162461bcd60e51b815260040180806020018281038252602e815260200180612c00602e913960400191505060405180910390fd5b600054610100900460ff1615801561205a576000805460ff1961ff0019909116610100171660011790555b611fb96301ffc9a760e01b61271e565b600054610100900460ff16806120835750612083611aec565b80612091575060005460ff16155b6120cc5760405162461bcd60e51b815260040180806020018281038252602e815260200180612c00602e913960400191505060405180910390fd5b600054610100900460ff161580156120f7576000805460ff1961ff0019909116610100171660011790555b825161210a90609c906020860190612975565b50815161211e90609d906020850190612975565b5061212f6380ac58cd60e01b61271e565b61213f635b5e139f60e01b61271e565b61214f63780e9d6360e01b61271e565b8015610a2d576000805461ff0019169055505050565b600054610100900460ff168061217e575061217e611aec565b8061218c575060005460ff16155b6121c75760405162461bcd60e51b815260040180806020018281038252602e815260200180612c00602e913960400191505060405180910390fd5b600054610100900460ff161580156121f2576000805460ff1961ff0019909116610100171660011790555b60fb805460ff191690558015610c70576000805461ff001916905550565b600054610100900460ff16806122295750612229611aec565b80612237575060005460ff16155b6122725760405162461bcd60e51b815260040180806020018281038252602e815260200180612c00602e913960400191505060405180910390fd5b600054610100900460ff1615801561229d576000805460ff1961ff0019909116610100171660011790555b6122af60006122aa611469565b610b0d565b6122c9600080516020612cf48339815191526122aa611469565b6122e3600080516020612c7c8339815191526122aa611469565b611083826127a1565b6000612300846001600160a01b03166127b4565b61230c57506001611582565b606061241a630a85bd0160e11b612321611469565b88878760405160240180856001600160a01b03168152602001846001600160a01b0316815260200183815260200180602001828103825283818151815260200191508051906020019080838360005b83811015612388578181015183820152602001612370565b50505050905090810190601f1680156123b55780820380516001836020036101000a031916815260200191505b5095505050505050604051602081830303815290604052906001600160e01b0319166020820180516001600160e01b038381831617835250505050604051806060016040528060328152602001612a85603291396001600160a01b03881691906127ba565b9050600081806020019051602081101561243357600080fd5b50516001600160e01b031916630a85bd0160e11b1492505050949350505050565b61245f838383610a2d565b612467610c89565b15610a2d5760405162461bcd60e51b815260040180806020018281038252602b815260200180612a2b602b913960400191505060405180910390fd5b6000818152600183016020526040812054801561255f57835460001980830191908101906000908790839081106124d657fe5b90600052602060002001549050808760000184815481106124f357fe5b60009182526020808320909101929092558281526001898101909252604090209084019055865487908061252357fe5b60019003818190600052602060002001600090559055866001016000878152602001908152602001600020600090556001945050505050610b40565b6000915050610b40565b60006125758383611f14565b6125ab57508154600181810184556000848152602080822090930184905584548482528286019093526040902091909155610b40565b506000610b40565b600082815260018401602052604081205480612618575050604080518082018252838152602080820184815286546001818101895560008981528481209551600290930290950191825591519082015586548684528188019092529290912055611927565b8285600001600183038154811061262b57fe5b9060005260206000209060020201600101819055506000915050611927565b6000818152600183016020526040812054801561255f578354600019808301919081019060009087908390811061267d57fe5b906000526020600020906002020190508087600001848154811061269d57fe5b6000918252602080832084546002909302019182556001938401549184019190915583548252898301905260409020908401905586548790806126dc57fe5b6000828152602080822060026000199094019384020182815560019081018390559290935588815289820190925260408220919091559450610b409350505050565b6001600160e01b0319808216141561277c576040805162461bcd60e51b815260206004820152601c60248201527b115490cc4d8d4e881a5b9d985b1a59081a5b9d195c999858d9481a5960221b604482015290519081900360640190fd5b6001600160e01b0319166000908152606560205260409020805460ff19166001179055565b8051610b1790609f906020840190612975565b3b151590565b6060611924848460008560606127cf856127b4565b612820576040805162461bcd60e51b815260206004820152601d60248201527f416464726573733a2063616c6c20746f206e6f6e2d636f6e7472616374000000604482015290519081900360640190fd5b60006060866001600160a01b031685876040518082805190602001908083835b6020831061285f5780518252601f199092019160209182019101612840565b6001836020036101000a03801982511681845116808217855250505050505090500191505060006040518083038185875af1925050503d80600081146128c1576040519150601f19603f3d011682016040523d82523d6000602084013e6128c6565b606091505b509150915081156128da5791506115829050565b8051156128ea5780518082602001fd5b60405162461bcd60e51b8152602060048201818152865160248401528651879391928392604401919085019080838360008315611eaa578181015183820152602001611e92565b50805460018160011615610100020316600290046000825580601f106129575750610c70565b601f016020900490600052602060002090810190610c7091906129f3565b828054600181600116156101000203166002900490600052602060002090601f016020900481019282601f106129b657805160ff19168380011785556129e3565b828001600101855582156129e3579182015b828111156129e35782518255916020019190600101906129c8565b506129ef9291506129f3565b5090565b5b808211156129ef57600081556001016129f456fe456e756d657261626c655365743a20696e646578206f7574206f6620626f756e64734552433732315061757361626c653a20746f6b656e207472616e73666572207768696c6520706175736564416363657373436f6e74726f6c3a2073656e646572206d75737420626520616e2061646d696e20746f206772616e744552433732313a207472616e7366657220746f206e6f6e20455243373231526563656976657220696d706c656d656e7465724552433732315072657365744d696e7465725061757365724175746f49643a206d75737420686176652070617573657220726f6c6520746f2070617573654552433732313a207472616e7366657220746f20746865207a65726f20616464726573734552433732313a206f70657261746f7220717565727920666f72206e6f6e6578697374656e7420746f6b656e416363657373436f6e74726f6c3a2073656e646572206d75737420626520616e2061646d696e20746f207265766f6b654552433732313a20617070726f76652063616c6c6572206973206e6f74206f776e6572206e6f7220617070726f76656420666f7220616c6c4552433732313a2062616c616e636520717565727920666f7220746865207a65726f20616464726573734552433732313a206f776e657220717565727920666f72206e6f6e6578697374656e7420746f6b656e496e697469616c697a61626c653a20636f6e747261637420697320616c726561647920696e697469616c697a6564456e756d657261626c654d61703a20696e646578206f7574206f6620626f756e64734552433732313a20617070726f76656420717565727920666f72206e6f6e6578697374656e7420746f6b656e65d7a28e3265b37a6474929f336521b332c1681b933f6cb9f3376673440d862a4552433732313a207472616e73666572206f6620746f6b656e2074686174206973206e6f74206f776e4552433732314d657461646174613a2055524920717565727920666f72206e6f6e6578697374656e7420746f6b656e9f2df0fed2c77648de5860a4cc508cd0818c85b8b8a1ab4ceeef8d981c8956a6ddf252ad1be2c89b69c2b068fc378daa952ba7f163c4a11628f55a4df523b3ef4552433732313a20617070726f76616c20746f2063757272656e74206f776e65724552433732313a207472616e736665722063616c6c6572206973206e6f74206f776e6572206e6f7220617070726f7665644552433732315072657365744d696e7465725061757365724175746f49643a206d7573742068617665206d696e74657220726f6c6520746f206d696e744552433732314275726e61626c653a2063616c6c6572206973206e6f74206f776e6572206e6f7220617070726f7665644552433732315072657365744d696e7465725061757365724175746f49643a206d75737420686176652070617573657220726f6c6520746f20756e7061757365416363657373436f6e74726f6c3a2063616e206f6e6c792072656e6f756e636520726f6c657320666f722073656c66a26469706673582212201a9ba2bb55ca44312ced0d96b8013dd59b2fdab8dd4c605633df2979affd7ea864736f6c634300060c0033",
  "immutableReferences": {},
  "source": "// SPDX-License-Identifier: MIT\n\npragma solidity ^0.6.0;\n\nimport \"../access/AccessControlUpgradeable.sol\";\nimport \"../GSN/ContextUpgradeable.sol\";\nimport \"../utils/CountersUpgradeable.sol\";\nimport \"../token/ERC721/ERC721Upgradeable.sol\";\nimport \"../token/ERC721/ERC721BurnableUpgradeable.sol\";\nimport \"../token/ERC721/ERC721PausableUpgradeable.sol\";\nimport \"../proxy/Initializable.sol\";\n\n/**\n * @dev {ERC721} token, including:\n *\n *  - ability for holders to burn (destroy) their tokens\n *  - a minter role that allows for token minting (creation)\n *  - a pauser role that allows to stop all token transfers\n *  - token ID and URI autogeneration\n *\n * This contract uses {AccessControl} to lock permissioned functions using the\n * different roles - head to its documentation for details.\n *\n * The account that deploys the contract will be granted the minter and pauser\n * roles, as well as the default admin role, which will let it grant both minter\n * and pauser roles to other accounts.\n */\ncontract ERC721PresetMinterPauserAutoIdUpgradeable is Initializable, ContextUpgradeable, AccessControlUpgradeable, ERC721BurnableUpgradeable, ERC721PausableUpgradeable {\n    function initialize(string memory name, string memory symbol, string memory baseURI) public virtual initializer {\n        __ERC721PresetMinterPauserAutoId_init(name, symbol, baseURI);\n    }\n    using CountersUpgradeable for CountersUpgradeable.Counter;\n\n    bytes32 public constant MINTER_ROLE = keccak256(\"MINTER_ROLE\");\n    bytes32 public constant PAUSER_ROLE = keccak256(\"PAUSER_ROLE\");\n\n    CountersUpgradeable.Counter private _tokenIdTracker;\n\n    /**\n     * @dev Grants `DEFAULT_ADMIN_ROLE`, `MINTER_ROLE` and `PAUSER_ROLE` to the\n     * account that deploys the contract.\n     *\n     * Token URIs will be autogenerated based on `baseURI` and their token IDs.\n     * See {ERC721-tokenURI}.\n     */\n    function __ERC721PresetMinterPauserAutoId_init(string memory name, string memory symbol, string memory baseURI) internal initializer {\n        __Context_init_unchained();\n        __AccessControl_init_unchained();\n        __ERC165_init_unchained();\n        __ERC721_init_unchained(name, symbol);\n        __ERC721Burnable_init_unchained();\n        __Pausable_init_unchained();\n        __ERC721Pausable_init_unchained();\n        __ERC721PresetMinterPauserAutoId_init_unchained(name, symbol, baseURI);\n    }\n\n    function __ERC721PresetMinterPauserAutoId_init_unchained(string memory name, string memory symbol, string memory baseURI) internal initializer {\n        _setupRole(DEFAULT_ADMIN_ROLE, _msgSender());\n\n        _setupRole(MINTER_ROLE, _msgSender());\n        _setupRole(PAUSER_ROLE, _msgSender());\n\n        _setBaseURI(baseURI);\n    }\n\n    /**\n     * @dev Creates a new token for `to`. Its token ID will be automatically\n     * assigned (and available on the emitted {IERC721-Transfer} event), and the token\n     * URI autogenerated based on the base URI passed at construction.\n     *\n     * See {ERC721-_mint}.\n     *\n     * Requirements:\n     *\n     * - the caller must have the `MINTER_ROLE`.\n     */\n    function mint(address to) public virtual {\n        require(hasRole(MINTER_ROLE, _msgSender()), \"ERC721PresetMinterPauserAutoId: must have minter role to mint\");\n\n        // We cannot just use balanceOf to create the new tokenId because tokens\n        // can be burned (destroyed), so we need a separate counter.\n        _mint(to, _tokenIdTracker.current());\n        _tokenIdTracker.increment();\n    }\n\n    /**\n     * @dev Pauses all token transfers.\n     *\n     * See {ERC721Pausable} and {Pausable-_pause}.\n     *\n     * Requirements:\n     *\n     * - the caller must have the `PAUSER_ROLE`.\n     */\n    function pause() public virtual {\n        require(hasRole(PAUSER_ROLE, _msgSender()), \"ERC721PresetMinterPauserAutoId: must have pauser role to pause\");\n        _pause();\n    }\n\n    /**\n     * @dev Unpauses all token transfers.\n     *\n     * See {ERC721Pausable} and {Pausable-_unpause}.\n     *\n     * Requirements:\n     *\n     * - the caller must have the `PAUSER_ROLE`.\n     */\n    function unpause() public virtual {\n        require(hasRole(PAUSER_ROLE, _msgSender()), \"ERC721PresetMinterPauserAutoId: must have pauser role to unpause\");\n        _unpause();\n    }\n\n    function _beforeTokenTransfer(address from, address to, uint256 tokenId) internal virtual override(ERC721Upgradeable, ERC721PausableUpgradeable) {\n        super._beforeTokenTransfer(from, to, tokenId);\n    }\n    uint256[49] private __gap;\n}\n",
  "sourcePath": "@openzeppelin/contracts-upgradeable/presets/ERC721PresetMinterPauserAutoIdUpgradeable.sol",
  "compiler": {
    "name": "solc",
    "version": "0.6.12+commit.27d51765.Emscripten.clang"
  },
  "schemaVersion": "3.3.2",
  "updatedAt": "2021-03-24T02:22:38.370Z",
  "devdoc": {
    "details": "{ERC721} token, including:  - ability for holders to burn (destroy) their tokens  - a minter role that allows for token minting (creation)  - a pauser role that allows to stop all token transfers  - token ID and URI autogeneration This contract uses {AccessControl} to lock permissioned functions using the different roles - head to its documentation for details. The account that deploys the contract will be granted the minter and pauser roles, as well as the default admin role, which will let it grant both minter and pauser roles to other accounts.",
    "kind": "dev",
    "methods": {
      "approve(address,uint256)": {
        "details": "See {IERC721-approve}."
      },
      "balanceOf(address)": {
        "details": "See {IERC721-balanceOf}."
      },
      "baseURI()": {
        "details": "Returns the base URI set via {_setBaseURI}. This will be automatically added as a prefix in {tokenURI} to each token's URI, or to the token ID if no specific URI is set for that token ID."
      },
      "burn(uint256)": {
        "details": "Burns `tokenId`. See {ERC721-_burn}. Requirements: - The caller must own `tokenId` or be an approved operator."
      },
      "getApproved(uint256)": {
        "details": "See {IERC721-getApproved}."
      },
      "getRoleAdmin(bytes32)": {
        "details": "Returns the admin role that controls `role`. See {grantRole} and {revokeRole}. To change a role's admin, use {_setRoleAdmin}."
      },
      "getRoleMember(bytes32,uint256)": {
        "details": "Returns one of the accounts that have `role`. `index` must be a value between 0 and {getRoleMemberCount}, non-inclusive. Role bearers are not sorted in any particular way, and their ordering may change at any point. WARNING: When using {getRoleMember} and {getRoleMemberCount}, make sure you perform all queries on the same block. See the following https://forum.openzeppelin.com/t/iterating-over-elements-on-enumerableset-in-openzeppelin-contracts/2296[forum post] for more information."
      },
      "getRoleMemberCount(bytes32)": {
        "details": "Returns the number of accounts that have `role`. Can be used together with {getRoleMember} to enumerate all bearers of a role."
      },
      "grantRole(bytes32,address)": {
        "details": "Grants `role` to `account`. If `account` had not been already granted `role`, emits a {RoleGranted} event. Requirements: - the caller must have ``role``'s admin role."
      },
      "hasRole(bytes32,address)": {
        "details": "Returns `true` if `account` has been granted `role`."
      },
      "isApprovedForAll(address,address)": {
        "details": "See {IERC721-isApprovedForAll}."
      },
      "mint(address)": {
        "details": "Creates a new token for `to`. Its token ID will be automatically assigned (and available on the emitted {IERC721-Transfer} event), and the token URI autogenerated based on the base URI passed at construction. See {ERC721-_mint}. Requirements: - the caller must have the `MINTER_ROLE`."
      },
      "name()": {
        "details": "See {IERC721Metadata-name}."
      },
      "ownerOf(uint256)": {
        "details": "See {IERC721-ownerOf}."
      },
      "pause()": {
        "details": "Pauses all token transfers. See {ERC721Pausable} and {Pausable-_pause}. Requirements: - the caller must have the `PAUSER_ROLE`."
      },
      "paused()": {
        "details": "Returns true if the contract is paused, and false otherwise."
      },
      "renounceRole(bytes32,address)": {
        "details": "Revokes `role` from the calling account. Roles are often managed via {grantRole} and {revokeRole}: this function's purpose is to provide a mechanism for accounts to lose their privileges if they are compromised (such as when a trusted device is misplaced). If the calling account had been granted `role`, emits a {RoleRevoked} event. Requirements: - the caller must be `account`."
      },
      "revokeRole(bytes32,address)": {
        "details": "Revokes `role` from `account`. If `account` had been granted `role`, emits a {RoleRevoked} event. Requirements: - the caller must have ``role``'s admin role."
      },
      "safeTransferFrom(address,address,uint256)": {
        "details": "See {IERC721-safeTransferFrom}."
      },
      "safeTransferFrom(address,address,uint256,bytes)": {
        "details": "See {IERC721-safeTransferFrom}."
      },
      "setApprovalForAll(address,bool)": {
        "details": "See {IERC721-setApprovalForAll}."
      },
      "supportsInterface(bytes4)": {
        "details": "See {IERC165-supportsInterface}. Time complexity O(1), guaranteed to always use less than 30 000 gas."
      },
      "symbol()": {
        "details": "See {IERC721Metadata-symbol}."
      },
      "tokenByIndex(uint256)": {
        "details": "See {IERC721Enumerable-tokenByIndex}."
      },
      "tokenOfOwnerByIndex(address,uint256)": {
        "details": "See {IERC721Enumerable-tokenOfOwnerByIndex}."
      },
      "tokenURI(uint256)": {
        "details": "See {IERC721Metadata-tokenURI}."
      },
      "totalSupply()": {
        "details": "See {IERC721Enumerable-totalSupply}."
      },
      "transferFrom(address,address,uint256)": {
        "details": "See {IERC721-transferFrom}."
      },
      "unpause()": {
        "details": "Unpauses all token transfers. See {ERC721Pausable} and {Pausable-_unpause}. Requirements: - the caller must have the `PAUSER_ROLE`."
      }
    },
    "version": 1
  },
  "userdoc": {
    "kind": "user",
    "methods": {},
    "version": 1
  }
}