{
  "contractName": "MetaXV3",
  "abi": [
    {
      "anonymous": false,
      "inputs": [
        {
          "indexed": true,
          "internalType": "address",
          "name": "owner",
          "type": "address"
        },
        {
          "indexed": true,
          "internalType": "address",
          "name": "approved",
          "type": "address"
        },
        {
          "indexed": true,
          "internalType": "uint256",
          "name": "tokenId",
          "type": "uint256"
        }
      ],
      "name": "Approval",
      "type": "event"
    },
    {
      "anonymous": false,
      "inputs": [
        {
          "indexed": true,
          "internalType": "address",
          "name": "owner",
          "type": "address"
        },
        {
          "indexed": true,
          "internalType": "address",
          "name": "operator",
          "type": "address"
        },
        {
          "indexed": false,
          "internalType": "bool",
          "name": "approved",
          "type": "bool"
        }
      ],
      "name": "ApprovalForAll",
      "type": "event"
    },
    {
      "anonymous": false,
      "inputs": [
        {
          "indexed": false,
          "internalType": "string",
          "name": "contractURI",
          "type": "string"
        }
      ],
      "name": "ContractURISet",
      "type": "event"
    },
    {
      "anonymous": false,
      "inputs": [
        {
          "indexed": false,
          "internalType": "uint256",
          "name": "endTime",
          "type": "uint256"
        }
      ],
      "name": "EndTimeSet",
      "type": "event"
    },
    {
      "anonymous": false,
      "inputs": [
        {
          "indexed": false,
          "internalType": "address",
          "name": "userAddress",
          "type": "address"
        },
        {
          "indexed": false,
          "internalType": "address payable",
          "name": "relayerAddress",
          "type": "address"
        },
        {
          "indexed": false,
          "internalType": "bytes",
          "name": "functionSignature",
          "type": "bytes"
        }
      ],
      "name": "MetaTransactionExecuted",
      "type": "event"
    },
    {
      "anonymous": false,
      "inputs": [
        {
          "indexed": false,
          "internalType": "address",
          "name": "account",
          "type": "address"
        }
      ],
      "name": "Paused",
      "type": "event"
    },
    {
      "anonymous": false,
      "inputs": [
        {
          "indexed": false,
          "internalType": "uint256",
          "name": "multPrice",
          "type": "uint256"
        }
      ],
      "name": "PriceSet",
      "type": "event"
    },
    {
      "anonymous": false,
      "inputs": [
        {
          "indexed": true,
          "internalType": "bytes32",
          "name": "role",
          "type": "bytes32"
        },
        {
          "indexed": true,
          "internalType": "bytes32",
          "name": "previousAdminRole",
          "type": "bytes32"
        },
        {
          "indexed": true,
          "internalType": "bytes32",
          "name": "newAdminRole",
          "type": "bytes32"
        }
      ],
      "name": "RoleAdminChanged",
      "type": "event"
    },
    {
      "anonymous": false,
      "inputs": [
        {
          "indexed": true,
          "internalType": "bytes32",
          "name": "role",
          "type": "bytes32"
        },
        {
          "indexed": true,
          "internalType": "address",
          "name": "account",
          "type": "address"
        },
        {
          "indexed": true,
          "internalType": "address",
          "name": "sender",
          "type": "address"
        }
      ],
      "name": "RoleGranted",
      "type": "event"
    },
    {
      "anonymous": false,
      "inputs": [
        {
          "indexed": true,
          "internalType": "bytes32",
          "name": "role",
          "type": "bytes32"
        },
        {
          "indexed": true,
          "internalType": "address",
          "name": "account",
          "type": "address"
        },
        {
          "indexed": true,
          "internalType": "address",
          "name": "sender",
          "type": "address"
        }
      ],
      "name": "RoleRevoked",
      "type": "event"
    },
    {
      "anonymous": false,
      "inputs": [
        {
          "indexed": false,
          "internalType": "address",
          "name": "spAddress",
          "type": "address"
        }
      ],
      "name": "SPAddressSet",
      "type": "event"
    },
    {
      "anonymous": false,
      "inputs": [
        {
          "indexed": true,
          "internalType": "address",
          "name": "from",
          "type": "address"
        },
        {
          "indexed": true,
          "internalType": "address",
          "name": "to",
          "type": "address"
        },
        {
          "indexed": true,
          "internalType": "uint256",
          "name": "tokenId",
          "type": "uint256"
        }
      ],
      "name": "Transfer",
      "type": "event"
    },
    {
      "anonymous": false,
      "inputs": [
        {
          "indexed": false,
          "internalType": "address",
          "name": "account",
          "type": "address"
        }
      ],
      "name": "Unpaused",
      "type": "event"
    },
    {
      "anonymous": false,
      "inputs": [
        {
          "indexed": false,
          "internalType": "uint256",
          "name": "id",
          "type": "uint256"
        },
        {
          "indexed": false,
          "internalType": "address",
          "name": "account",
          "type": "address"
        }
      ],
      "name": "Vote",
      "type": "event"
    },
    {
      "anonymous": false,
      "inputs": [
        {
          "indexed": false,
          "internalType": "uint256",
          "name": "balance",
          "type": "uint256"
        }
      ],
      "name": "Withdraw",
      "type": "event"
    },
    {
      "inputs": [],
      "name": "DEFAULT_ADMIN_ROLE",
      "outputs": [
        {
          "internalType": "bytes32",
          "name": "",
          "type": "bytes32"
        }
      ],
      "stateMutability": "view",
      "type": "function",
      "constant": true
    },
    {
      "inputs": [],
      "name": "ERC712_VERSION",
      "outputs": [
        {
          "internalType": "string",
          "name": "",
          "type": "string"
        }
      ],
      "stateMutability": "view",
      "type": "function",
      "constant": true
    },
    {
      "inputs": [],
      "name": "MINTER_ROLE",
      "outputs": [
        {
          "internalType": "bytes32",
          "name": "",
          "type": "bytes32"
        }
      ],
      "stateMutability": "view",
      "type": "function",
      "constant": true
    },
    {
      "inputs": [],
      "name": "PAUSER_ROLE",
      "outputs": [
        {
          "internalType": "bytes32",
          "name": "",
          "type": "bytes32"
        }
      ],
      "stateMutability": "view",
      "type": "function",
      "constant": true
    },
    {
      "inputs": [
        {
          "internalType": "address",
          "name": "to",
          "type": "address"
        },
        {
          "internalType": "uint256",
          "name": "tokenId",
          "type": "uint256"
        }
      ],
      "name": "approve",
      "outputs": [],
      "stateMutability": "nonpayable",
      "type": "function"
    },
    {
      "inputs": [
        {
          "internalType": "address",
          "name": "owner",
          "type": "address"
        }
      ],
      "name": "balanceOf",
      "outputs": [
        {
          "internalType": "uint256",
          "name": "",
          "type": "uint256"
        }
      ],
      "stateMutability": "view",
      "type": "function",
      "constant": true
    },
    {
      "inputs": [],
      "name": "baseURI",
      "outputs": [
        {
          "internalType": "string",
          "name": "",
          "type": "string"
        }
      ],
      "stateMutability": "view",
      "type": "function",
      "constant": true
    },
    {
      "inputs": [
        {
          "internalType": "uint256",
          "name": "tokenId",
          "type": "uint256"
        }
      ],
      "name": "burn",
      "outputs": [],
      "stateMutability": "nonpayable",
      "type": "function"
    },
    {
      "inputs": [
        {
          "internalType": "address",
          "name": "userAddress",
          "type": "address"
        },
        {
          "internalType": "bytes",
          "name": "functionSignature",
          "type": "bytes"
        },
        {
          "internalType": "bytes32",
          "name": "sigR",
          "type": "bytes32"
        },
        {
          "internalType": "bytes32",
          "name": "sigS",
          "type": "bytes32"
        },
        {
          "internalType": "uint8",
          "name": "sigV",
          "type": "uint8"
        }
      ],
      "name": "executeMetaTransaction",
      "outputs": [
        {
          "internalType": "bytes",
          "name": "",
          "type": "bytes"
        }
      ],
      "stateMutability": "payable",
      "type": "function",
      "payable": true
    },
    {
      "inputs": [
        {
          "internalType": "uint256",
          "name": "tokenId",
          "type": "uint256"
        }
      ],
      "name": "getApproved",
      "outputs": [
        {
          "internalType": "address",
          "name": "",
          "type": "address"
        }
      ],
      "stateMutability": "view",
      "type": "function",
      "constant": true
    },
    {
      "inputs": [],
      "name": "getChainId",
      "outputs": [
        {
          "internalType": "uint256",
          "name": "",
          "type": "uint256"
        }
      ],
      "stateMutability": "pure",
      "type": "function",
      "constant": true
    },
    {
      "inputs": [],
      "name": "getDomainSeperator",
      "outputs": [
        {
          "internalType": "bytes32",
          "name": "",
          "type": "bytes32"
        }
      ],
      "stateMutability": "view",
      "type": "function",
      "constant": true
    },
    {
      "inputs": [
        {
          "internalType": "address",
          "name": "user",
          "type": "address"
        }
      ],
      "name": "getNonce",
      "outputs": [
        {
          "internalType": "uint256",
          "name": "nonce",
          "type": "uint256"
        }
      ],
      "stateMutability": "view",
      "type": "function",
      "constant": true
    },
    {
      "inputs": [
        {
          "internalType": "bytes32",
          "name": "role",
          "type": "bytes32"
        }
      ],
      "name": "getRoleAdmin",
      "outputs": [
        {
          "internalType": "bytes32",
          "name": "",
          "type": "bytes32"
        }
      ],
      "stateMutability": "view",
      "type": "function",
      "constant": true
    },
    {
      "inputs": [
        {
          "internalType": "bytes32",
          "name": "role",
          "type": "bytes32"
        },
        {
          "internalType": "uint256",
          "name": "index",
          "type": "uint256"
        }
      ],
      "name": "getRoleMember",
      "outputs": [
        {
          "internalType": "address",
          "name": "",
          "type": "address"
        }
      ],
      "stateMutability": "view",
      "type": "function",
      "constant": true
    },
    {
      "inputs": [
        {
          "internalType": "bytes32",
          "name": "role",
          "type": "bytes32"
        }
      ],
      "name": "getRoleMemberCount",
      "outputs": [
        {
          "internalType": "uint256",
          "name": "",
          "type": "uint256"
        }
      ],
      "stateMutability": "view",
      "type": "function",
      "constant": true
    },
    {
      "inputs": [
        {
          "internalType": "bytes32",
          "name": "role",
          "type": "bytes32"
        },
        {
          "internalType": "address",
          "name": "account",
          "type": "address"
        }
      ],
      "name": "grantRole",
      "outputs": [],
      "stateMutability": "nonpayable",
      "type": "function"
    },
    {
      "inputs": [
        {
          "internalType": "bytes32",
          "name": "role",
          "type": "bytes32"
        },
        {
          "internalType": "address",
          "name": "account",
          "type": "address"
        }
      ],
      "name": "hasRole",
      "outputs": [
        {
          "internalType": "bool",
          "name": "",
          "type": "bool"
        }
      ],
      "stateMutability": "view",
      "type": "function",
      "constant": true
    },
    {
      "inputs": [
        {
          "internalType": "address",
          "name": "owner",
          "type": "address"
        },
        {
          "internalType": "address",
          "name": "operator",
          "type": "address"
        }
      ],
      "name": "isApprovedForAll",
      "outputs": [
        {
          "internalType": "bool",
          "name": "",
          "type": "bool"
        }
      ],
      "stateMutability": "view",
      "type": "function",
      "constant": true
    },
    {
      "inputs": [],
      "name": "name",
      "outputs": [
        {
          "internalType": "string",
          "name": "",
          "type": "string"
        }
      ],
      "stateMutability": "view",
      "type": "function",
      "constant": true
    },
    {
      "inputs": [
        {
          "internalType": "uint256",
          "name": "tokenId",
          "type": "uint256"
        }
      ],
      "name": "ownerOf",
      "outputs": [
        {
          "internalType": "address",
          "name": "",
          "type": "address"
        }
      ],
      "stateMutability": "view",
      "type": "function",
      "constant": true
    },
    {
      "inputs": [],
      "name": "pause",
      "outputs": [],
      "stateMutability": "nonpayable",
      "type": "function"
    },
    {
      "inputs": [],
      "name": "paused",
      "outputs": [
        {
          "internalType": "bool",
          "name": "",
          "type": "bool"
        }
      ],
      "stateMutability": "view",
      "type": "function",
      "constant": true
    },
    {
      "inputs": [
        {
          "internalType": "bytes32",
          "name": "role",
          "type": "bytes32"
        },
        {
          "internalType": "address",
          "name": "account",
          "type": "address"
        }
      ],
      "name": "renounceRole",
      "outputs": [],
      "stateMutability": "nonpayable",
      "type": "function"
    },
    {
      "inputs": [
        {
          "internalType": "bytes32",
          "name": "role",
          "type": "bytes32"
        },
        {
          "internalType": "address",
          "name": "account",
          "type": "address"
        }
      ],
      "name": "revokeRole",
      "outputs": [],
      "stateMutability": "nonpayable",
      "type": "function"
    },
    {
      "inputs": [
        {
          "internalType": "address",
          "name": "from",
          "type": "address"
        },
        {
          "internalType": "address",
          "name": "to",
          "type": "address"
        },
        {
          "internalType": "uint256",
          "name": "tokenId",
          "type": "uint256"
        }
      ],
      "name": "safeTransferFrom",
      "outputs": [],
      "stateMutability": "nonpayable",
      "type": "function"
    },
    {
      "inputs": [
        {
          "internalType": "address",
          "name": "from",
          "type": "address"
        },
        {
          "internalType": "address",
          "name": "to",
          "type": "address"
        },
        {
          "internalType": "uint256",
          "name": "tokenId",
          "type": "uint256"
        },
        {
          "internalType": "bytes",
          "name": "_data",
          "type": "bytes"
        }
      ],
      "name": "safeTransferFrom",
      "outputs": [],
      "stateMutability": "nonpayable",
      "type": "function"
    },
    {
      "inputs": [
        {
          "internalType": "address",
          "name": "operator",
          "type": "address"
        },
        {
          "internalType": "bool",
          "name": "approved",
          "type": "bool"
        }
      ],
      "name": "setApprovalForAll",
      "outputs": [],
      "stateMutability": "nonpayable",
      "type": "function"
    },
    {
      "inputs": [
        {
          "internalType": "bytes4",
          "name": "interfaceId",
          "type": "bytes4"
        }
      ],
      "name": "supportsInterface",
      "outputs": [
        {
          "internalType": "bool",
          "name": "",
          "type": "bool"
        }
      ],
      "stateMutability": "view",
      "type": "function",
      "constant": true
    },
    {
      "inputs": [],
      "name": "symbol",
      "outputs": [
        {
          "internalType": "string",
          "name": "",
          "type": "string"
        }
      ],
      "stateMutability": "view",
      "type": "function",
      "constant": true
    },
    {
      "inputs": [
        {
          "internalType": "uint256",
          "name": "index",
          "type": "uint256"
        }
      ],
      "name": "tokenByIndex",
      "outputs": [
        {
          "internalType": "uint256",
          "name": "",
          "type": "uint256"
        }
      ],
      "stateMutability": "view",
      "type": "function",
      "constant": true
    },
    {
      "inputs": [
        {
          "internalType": "address",
          "name": "owner",
          "type": "address"
        },
        {
          "internalType": "uint256",
          "name": "index",
          "type": "uint256"
        }
      ],
      "name": "tokenOfOwnerByIndex",
      "outputs": [
        {
          "internalType": "uint256",
          "name": "",
          "type": "uint256"
        }
      ],
      "stateMutability": "view",
      "type": "function",
      "constant": true
    },
    {
      "inputs": [
        {
          "internalType": "uint256",
          "name": "tokenId",
          "type": "uint256"
        }
      ],
      "name": "tokenURI",
      "outputs": [
        {
          "internalType": "string",
          "name": "",
          "type": "string"
        }
      ],
      "stateMutability": "view",
      "type": "function",
      "constant": true
    },
    {
      "inputs": [],
      "name": "totalSupply",
      "outputs": [
        {
          "internalType": "uint256",
          "name": "",
          "type": "uint256"
        }
      ],
      "stateMutability": "view",
      "type": "function",
      "constant": true
    },
    {
      "inputs": [
        {
          "internalType": "address",
          "name": "from",
          "type": "address"
        },
        {
          "internalType": "address",
          "name": "to",
          "type": "address"
        },
        {
          "internalType": "uint256",
          "name": "tokenId",
          "type": "uint256"
        }
      ],
      "name": "transferFrom",
      "outputs": [],
      "stateMutability": "nonpayable",
      "type": "function"
    },
    {
      "inputs": [],
      "name": "unpause",
      "outputs": [],
      "stateMutability": "nonpayable",
      "type": "function"
    },
    {
      "inputs": [
        {
          "internalType": "string",
          "name": "name",
          "type": "string"
        },
        {
          "internalType": "string",
          "name": "symbol",
          "type": "string"
        },
        {
          "internalType": "string",
          "name": "baseURI",
          "type": "string"
        },
        {
          "internalType": "string",
          "name": "domainSeparator",
          "type": "string"
        }
      ],
      "name": "initialize",
      "outputs": [],
      "stateMutability": "nonpayable",
      "type": "function"
    },
    {
      "inputs": [
        {
          "internalType": "string",
          "name": "name",
          "type": "string"
        },
        {
          "internalType": "string",
          "name": "symbol",
          "type": "string"
        },
        {
          "internalType": "string",
          "name": "baseURI",
          "type": "string"
        }
      ],
      "name": "initialize",
      "outputs": [],
      "stateMutability": "nonpayable",
      "type": "function"
    },
    {
      "inputs": [],
      "name": "contractURI",
      "outputs": [
        {
          "internalType": "string",
          "name": "",
          "type": "string"
        }
      ],
      "stateMutability": "view",
      "type": "function",
      "constant": true
    },
    {
      "inputs": [],
      "name": "owner",
      "outputs": [
        {
          "internalType": "address",
          "name": "",
          "type": "address"
        }
      ],
      "stateMutability": "view",
      "type": "function",
      "constant": true
    },
    {
      "inputs": [
        {
          "internalType": "contract IERC20",
          "name": "token",
          "type": "address"
        }
      ],
      "name": "setERC20",
      "outputs": [],
      "stateMutability": "nonpayable",
      "type": "function"
    },
    {
      "inputs": [
        {
          "internalType": "string",
          "name": "baseURI",
          "type": "string"
        },
        {
          "internalType": "uint256",
          "name": "id",
          "type": "uint256"
        }
      ],
      "name": "setBaseURI",
      "outputs": [],
      "stateMutability": "nonpayable",
      "type": "function"
    },
    {
      "inputs": [
        {
          "internalType": "string",
          "name": "__contractURI",
          "type": "string"
        }
      ],
      "name": "setContractURI",
      "outputs": [],
      "stateMutability": "nonpayable",
      "type": "function"
    },
    {
      "inputs": [
        {
          "internalType": "uint256",
          "name": "multPrice",
          "type": "uint256"
        }
      ],
      "name": "setPrice",
      "outputs": [],
      "stateMutability": "nonpayable",
      "type": "function"
    },
    {
      "inputs": [
        {
          "internalType": "uint256",
          "name": "endTime",
          "type": "uint256"
        }
      ],
      "name": "setEndTime",
      "outputs": [],
      "stateMutability": "nonpayable",
      "type": "function"
    },
    {
      "inputs": [
        {
          "internalType": "uint256",
          "name": "id",
          "type": "uint256"
        }
      ],
      "name": "getMetaverse",
      "outputs": [
        {
          "internalType": "string",
          "name": "",
          "type": "string"
        }
      ],
      "stateMutability": "view",
      "type": "function",
      "constant": true
    },
    {
      "inputs": [
        {
          "internalType": "address",
          "name": "to",
          "type": "address"
        }
      ],
      "name": "mint",
      "outputs": [],
      "stateMutability": "nonpayable",
      "type": "function"
    },
    {
      "inputs": [
        {
          "internalType": "address",
          "name": "spAddress",
          "type": "address"
        }
      ],
      "name": "setSPContract",
      "outputs": [],
      "stateMutability": "nonpayable",
      "type": "function"
    },
    {
      "inputs": [
        {
          "internalType": "address",
          "name": "for_account",
          "type": "address"
        }
      ],
      "name": "getPrice",
      "outputs": [
        {
          "internalType": "uint256",
          "name": "price",
          "type": "uint256"
        },
        {
          "internalType": "bool",
          "name": "use_refund",
          "type": "bool"
        }
      ],
      "stateMutability": "view",
      "type": "function",
      "constant": true
    },
    {
      "inputs": [
        {
          "internalType": "uint256",
          "name": "id",
          "type": "uint256"
        }
      ],
      "name": "vote",
      "outputs": [],
      "stateMutability": "nonpayable",
      "type": "function"
    },
    {
      "inputs": [
        {
          "internalType": "uint256",
          "name": "id",
          "type": "uint256"
        }
      ],
      "name": "mintArtwork",
      "outputs": [
        {
          "internalType": "uint256",
          "name": "index",
          "type": "uint256"
        }
      ],
      "stateMutability": "nonpayable",
      "type": "function"
    },
    {
      "inputs": [],
      "name": "withdrawBalance",
      "outputs": [],
      "stateMutability": "nonpayable",
      "type": "function"
    }
  ],
  "bytecode": "0x608060405234801561001057600080fd5b506153e5806100206000396000f3fe60806040526004361061024e5760003560e01c80629f25ff146102535780630121b93f1461030857806301ffc9a71461033257806306fdde031461037a578063081812fc14610404578063095ea7b31461044a5780630c53c51c146104835780630f7e597014610545578063179b45ae1461055a57806318160ddd1461058d57806320379ee5146105b457806323b872dd146105c9578063248a9ca31461060c5780632d0335ab146106365780632f2ff15d146106695780632f745c59146106a25780633408e470146106db57806336568abe146106f05780633f4ba83a1461072957806341976e091461073e57806342842e0e1461078a57806342966c68146107cd5780634f6ccce7146107f75780635c975abb146108215780635fd8c710146108365780636352211e1461084b5780636a627842146108755780636c0360eb146108a857806370a08231146108bd5780638456cb59146108f05780638da5cb5b146109055780639010d07c1461091a57806391b7f5ed1461094a57806391d1485414610974578063938e3d7b146109ad57806395d89b4114610a5e578063a217fddf14610a73578063a22cb46514610a88578063a523d35e14610ac3578063a6487c5314610d03578063b88d4fde14610ebe578063bfb7c1bd14610f8f578063c29a6fda14610fb9578063c87b56dd14610fec578063ca15c87314611016578063ccb98ffc14611040578063d53913931461106a578063d547741f1461107f578063e63ab1e9146110b8578063e82f4062146110cd578063e8a3d485146110f7578063e985e9c51461110c575b600080fd5b34801561025f57600080fd5b506103066004803603604081101561027657600080fd5b810190602081018135600160201b81111561029057600080fd5b8201836020820111156102a257600080fd5b803590602001918460018302840111600160201b831117156102c357600080fd5b91908080601f0160208091040260200160405190810160405280939291908181526020018383808284376000920191909152509295505091359250611147915050565b005b34801561031457600080fd5b506103066004803603602081101561032b57600080fd5b50356111a1565b34801561033e57600080fd5b506103666004803603602081101561035557600080fd5b50356001600160e01b031916611466565b604080519115158252519081900360200190f35b34801561038657600080fd5b5061038f611489565b6040805160208082528351818301528351919283929083019185019080838360005b838110156103c95781810151838201526020016103b1565b50505050905090810190601f1680156103f65780820380516001836020036101000a031916815260200191505b509250505060405180910390f35b34801561041057600080fd5b5061042e6004803603602081101561042757600080fd5b5035611520565b604080516001600160a01b039092168252519081900360200190f35b34801561045657600080fd5b506103066004803603604081101561046d57600080fd5b506001600160a01b038135169060200135611582565b61038f600480360360a081101561049957600080fd5b6001600160a01b038235169190810190604081016020820135600160201b8111156104c357600080fd5b8201836020820111156104d557600080fd5b803590602001918460018302840111600160201b831117156104f657600080fd5b91908080601f016020809104026020016040519081016040528093929190818152602001838380828437600092019190915250929550508235935050506020810135906040013560ff1661165d565b34801561055157600080fd5b5061038f61196c565b34801561056657600080fd5b506103066004803603602081101561057d57600080fd5b50356001600160a01b0316611989565b34801561059957600080fd5b506105a2611a26565b60408051918252519081900360200190f35b3480156105c057600080fd5b506105a2611a37565b3480156105d557600080fd5b50610306600480360360608110156105ec57600080fd5b506001600160a01b03813581169160208101359091169060400135611a3e565b34801561061857600080fd5b506105a26004803603602081101561062f57600080fd5b5035611a95565b34801561064257600080fd5b506105a26004803603602081101561065957600080fd5b50356001600160a01b0316611aaa565b34801561067557600080fd5b506103066004803603604081101561068c57600080fd5b50803590602001356001600160a01b0316611ac6565b3480156106ae57600080fd5b506105a2600480360360408110156106c557600080fd5b506001600160a01b038135169060200135611b29565b3480156106e757600080fd5b506105a2611b54565b3480156106fc57600080fd5b506103066004803603604081101561071357600080fd5b50803590602001356001600160a01b0316611b58565b34801561073557600080fd5b50610306611bb9565b34801561074a57600080fd5b506107716004803603602081101561076157600080fd5b50356001600160a01b0316611c18565b6040805192835290151560208301528051918290030190f35b34801561079657600080fd5b50610306600480360360608110156107ad57600080fd5b506001600160a01b03813581169160208101359091169060400135611e61565b3480156107d957600080fd5b50610306600480360360208110156107f057600080fd5b5035611e7c565b34801561080357600080fd5b506105a26004803603602081101561081a57600080fd5b5035611ece565b34801561082d57600080fd5b50610366611ee4565b34801561084257600080fd5b50610306611eed565b34801561085757600080fd5b5061042e6004803603602081101561086e57600080fd5b5035612073565b34801561088157600080fd5b506103066004803603602081101561089857600080fd5b50356001600160a01b031661209b565b3480156108b457600080fd5b5061038f6120e5565b3480156108c957600080fd5b506105a2600480360360208110156108e057600080fd5b50356001600160a01b0316612146565b3480156108fc57600080fd5b506103066121ae565b34801561091157600080fd5b5061042e61220b565b34801561092657600080fd5b5061042e6004803603604081101561093d57600080fd5b5080359060200135612213565b34801561095657600080fd5b506103066004803603602081101561096d57600080fd5b503561222b565b34801561098057600080fd5b506103666004803603604081101561099757600080fd5b50803590602001356001600160a01b03166122af565b3480156109b957600080fd5b50610306600480360360208110156109d057600080fd5b810190602081018135600160201b8111156109ea57600080fd5b8201836020820111156109fc57600080fd5b803590602001918460018302840111600160201b83111715610a1d57600080fd5b91908080601f0160208091040260200160405190810160405280939291908181526020018383808284376000920191909152509295506122c7945050505050565b348015610a6a57600080fd5b5061038f6123c0565b348015610a7f57600080fd5b506105a2612421565b348015610a9457600080fd5b5061030660048036036040811015610aab57600080fd5b506001600160a01b0381351690602001351515612426565b348015610acf57600080fd5b5061030660048036036080811015610ae657600080fd5b810190602081018135600160201b811115610b0057600080fd5b820183602082011115610b1257600080fd5b803590602001918460018302840111600160201b83111715610b3357600080fd5b91908080601f0160208091040260200160405190810160405280939291908181526020018383808284376000920191909152509295949360208101935035915050600160201b811115610b8557600080fd5b820183602082011115610b9757600080fd5b803590602001918460018302840111600160201b83111715610bb857600080fd5b91908080601f0160208091040260200160405190810160405280939291908181526020018383808284376000920191909152509295949360208101935035915050600160201b811115610c0a57600080fd5b820183602082011115610c1c57600080fd5b803590602001918460018302840111600160201b83111715610c3d57600080fd5b91908080601f0160208091040260200160405190810160405280939291908181526020018383808284376000920191909152509295949360208101935035915050600160201b811115610c8f57600080fd5b820183602082011115610ca157600080fd5b803590602001918460018302840111600160201b83111715610cc257600080fd5b91908080601f016020809104026020016040519081016040528093929190818152602001838380828437600092019190915250929550612527945050505050565b348015610d0f57600080fd5b5061030660048036036060811015610d2657600080fd5b810190602081018135600160201b811115610d4057600080fd5b820183602082011115610d5257600080fd5b803590602001918460018302840111600160201b83111715610d7357600080fd5b91908080601f0160208091040260200160405190810160405280939291908181526020018383808284376000920191909152509295949360208101935035915050600160201b811115610dc557600080fd5b820183602082011115610dd757600080fd5b803590602001918460018302840111600160201b83111715610df857600080fd5b91908080601f0160208091040260200160405190810160405280939291908181526020018383808284376000920191909152509295949360208101935035915050600160201b811115610e4a57600080fd5b820183602082011115610e5c57600080fd5b803590602001918460018302840111600160201b83111715610e7d57600080fd5b91908080601f016020809104026020016040519081016040528093929190818152602001838380828437600092019190915250929550612680945050505050565b348015610eca57600080fd5b5061030660048036036080811015610ee157600080fd5b6001600160a01b03823581169260208101359091169160408201359190810190608081016060820135600160201b811115610f1b57600080fd5b820183602082011115610f2d57600080fd5b803590602001918460018302840111600160201b83111715610f4e57600080fd5b91908080601f016020809104026020016040519081016040528093929190818152602001838380828437600092019190915250929550612730945050505050565b348015610f9b57600080fd5b5061038f60048036036020811015610fb257600080fd5b5035612788565b348015610fc557600080fd5b5061030660048036036020811015610fdc57600080fd5b50356001600160a01b031661289d565b348015610ff857600080fd5b5061038f6004803603602081101561100f57600080fd5b5035612908565b34801561102257600080fd5b506105a26004803603602081101561103957600080fd5b5035612baf565b34801561104c57600080fd5b506103066004803603602081101561106357600080fd5b5035612bc6565b34801561107657600080fd5b506105a2612c4a565b34801561108b57600080fd5b50610306600480360360408110156110a257600080fd5b50803590602001356001600160a01b0316612c5c565b3480156110c457600080fd5b506105a2612cb5565b3480156110d957600080fd5b506105a2600480360360208110156110f057600080fd5b5035612cc7565b34801561110357600080fd5b5061038f6131f1565b34801561111857600080fd5b506103666004803603604081101561112f57600080fd5b506001600160a01b0381358116916020013516613253565b6111596000611154613281565b6122af565b6111945760405162461bcd60e51b815260040180806020018281038252602981526020018061505c6029913960400191505060405180910390fd5b61119d8261328b565b5050565b6111a9611ee4565b156111f6576040805162461bcd60e51b815260206004820152601860248201527713595d18560e881d9bdd19481dda1a5b19481c185d5cd95960421b604482015290519081900360640190fd5b600081815261019d602052604090205460ff161561125b576040805162461bcd60e51b815260206004820152601d60248201527f4d657461583a20617274776f726b20616c7265616479206d696e746564000000604482015290519081900360640190fd5b6101975461019354600160201b90910463ffffffff16116112ad5760405162461bcd60e51b81526004018080602001828103825260228152602001806150856022913960400191505060405180910390fd5b6101975460ff1661019a60006112c1613281565b6001600160a01b0316815260208101919091526040016000205460ff161061132b576040805162461bcd60e51b815260206004820152601860248201527713595d18560e881b585e081d9bdd195cc81c995858da195960421b604482015290519081900360640190fd5b6101975462010000900461ffff1681106113765760405162461bcd60e51b81526004018080602001828103825260238152602001806151f76023913960400191505060405180910390fd5b8061019e6000611384613281565b6001600160a01b03166001600160a01b0316815260200190815260200160002061019a60006113b1613281565b6001600160a01b0316815260208101919091526040016000205460ff16600a81106113d857fe5b0155600161019a60006113e9613281565b6001600160a01b031681526020810191909152604001600020805460ff19811660ff91821693909301169190911790557f10a412bf229fbac2408912cb271b8ff9eb39eb72da91dd0c8accab0fb101113581611443613281565b604080519283526001600160a01b0390911660208301528051918290030190a150565b6001600160e01b0319811660009081526065602052604090205460ff165b919050565b609c8054604080516020601f60026000196101006001881615020190951694909404938401819004810282018101909252828152606093909290918301828280156115155780601f106114ea57610100808354040283529160200191611515565b820191906000526020600020905b8154815290600101906020018083116114f857829003601f168201915b505050505090505b90565b600061152b8261329e565b6115665760405162461bcd60e51b815260040180806020018281038252602c8152602001806150ea602c913960400191505060405180910390fd5b506000908152609a60205260409020546001600160a01b031690565b600061158d82612073565b9050806001600160a01b0316836001600160a01b031614156115e05760405162461bcd60e51b815260040180806020018281038252602181526020018061523a6021913960400191505060405180910390fd5b806001600160a01b03166115f2613281565b6001600160a01b0316148061161357506116138161160e613281565b613253565b61164e5760405162461bcd60e51b8152600401808060200182810382526038815260200180614f6d6038913960400191505060405180910390fd5b61165883836132ab565b505050565b6060611667614bd5565b50604080516060810182526001600160a01b03881660008181526101926020908152908490205483528201529081018690526116a68782878787613319565b6116e15760405162461bcd60e51b81526004018080602001828103825260218152602001806151876021913960400191505060405180910390fd5b6001600160a01b038716600090815261019260205260409020546117069060016133f3565b6101926000896001600160a01b03166001600160a01b03168152602001908152602001600020819055507f5845892132946850460bff5a0083f71031bc5bf9aadcd40f1de79423eac9b10b87338860405180846001600160a01b03168152602001836001600160a01b0316815260200180602001828103825283818151815260200191508051906020019080838360005b838110156117af578181015183820152602001611797565b50505050905090810190601f1680156117dc5780820380516001836020036101000a031916815260200191505b5094505050505060405180910390a160006060306001600160a01b0316888a6040516020018083805190602001908083835b6020831061182d5780518252601f19909201916020918201910161180e565b6001836020036101000a038019825116818451168082178552505050505050905001826001600160a01b031660601b8152601401925050506040516020818303038152906040526040518082805190602001908083835b602083106118a35780518252601f199092019160209182019101611884565b6001836020036101000a0380198251168184511680821785525050505050509050019150506000604051808303816000865af19150503d8060008114611905576040519150601f19603f3d011682016040523d82523d6000602084013e61190a565b606091505b509150915081611960576040805162461bcd60e51b815260206004820152601c60248201527b119d5b98dd1a5bdb8818d85b1b081b9bdd081cdd58d8d95cdcd99d5b60221b604482015290519081900360640190fd5b98975050505050505050565b604051806040016040528060018152602001603160f81b81525081565b6119966000611154613281565b6119d15760405162461bcd60e51b8152600401808060200182810382526036815260200180614fcf6036913960400191505060405180910390fd5b61019980546001600160a01b0383166001600160a01b0319909116811790915560408051918252517fbd008fb0ebbf5fb324683b337c917c9f3a2ec86d3192e0def0a7fa2d8d019f199181900360200190a150565b6000611a32609861344b565b905090565b6101915490565b611a4f611a49613281565b82613456565b611a8a5760405162461bcd60e51b815260040180806020018281038252603181526020018061525b6031913960400191505060405180910390fd5b6116588383836134fa565b60009081526033602052604090206002015490565b6001600160a01b03166000908152610192602052604090205490565b600082815260336020526040902060020154611ae490611154613281565b611b1f5760405162461bcd60e51b815260040180806020018281038252602f815260200180614d20602f913960400191505060405180910390fd5b61119d8282613634565b6001600160a01b0382166000908152609760205260408120611b4b908361369d565b90505b92915050565b4690565b611b60613281565b6001600160a01b0316816001600160a01b031614611baf5760405162461bcd60e51b815260040180806020018281038252602f815260200180615381602f913960400191505060405180910390fd5b61119d82826136a9565b611bd3600080516020615116833981519152611154613281565b611c0e5760405162461bcd60e51b81526004018080602001828103825260408152602001806152ee6040913960400191505060405180910390fd5b611c16613712565b565b6001600160a01b038116600090815261019f60205260408120548190819060ff16611d9a576101995460408051627eeac760e11b81526001600160a01b03878116600483015260006024830181905292519293169162fdd58e91604480820192602092909190829003018186803b158015611c9257600080fd5b505afa158015611ca6573d6000803e3d6000fd5b505050506040513d6020811015611cbc57600080fd5b50511115611ccc57506001611d9a565b60005b6001600160a01b038516600090815261019a602052604090205460ff16811015611d98576001600160a01b038516600081815261019e6020526040812061019c919084600a8110611d1c57fe5b015481526020810191909152604001600020546001600160a01b03161415611d4357611d90565b6001600160a01b038516600090815261019e6020526040812061019d919083600a8110611d6c57fe5b0154815260208101919091526040016000205460ff1615611d905760019150611d98565b600101611ccf565b505b61019554600090611dad906113886137b0565b9050610190610193541015611dd25761019554611dcb90600a6137b0565b9050611e45565b610320610193541015611dee5761019554611dcb9060196137b0565b6103b6610193541015611e0a5761019554611dcb90602d6137b0565b6103de610193541015611e265761019554611dcb9060556137b0565b610400610193541015611e455761019554611e429060966137b0565b90505b81611e5857611e558160026137b0565b90505b92509050915091565b61165883838360405180602001604052806000815250612730565b611e87611a49613281565b611ec25760405162461bcd60e51b81526004018080602001828103825260308152602001806152be6030913960400191505060405180910390fd5b611ecb81613809565b50565b600080611edc6098846138c4565b509392505050565b60fb5460ff1690565b611efa6000611154613281565b611f355760405162461bcd60e51b8152600401808060200182810382526027815260200180614ef16027913960400191505060405180910390fd5b6101a054604080516370a0823160e01b815230600482015290516000926001600160a01b0316916370a08231916024808301926020929190829003018186803b158015611f8157600080fd5b505afa158015611f95573d6000803e3d6000fd5b505050506040513d6020811015611fab57600080fd5b50516101a0549091506001600160a01b031663a9059cbb611fca613281565b836040518363ffffffff1660e01b815260040180836001600160a01b0316815260200182815260200192505050602060405180830381600087803b15801561201157600080fd5b505af1158015612025573d6000803e3d6000fd5b505050506040513d602081101561203b57600080fd5b50506040805182815290517f5b6b431d4476a211bb7d41c20d1aab9ae2321deee0d20be3d9fc9b1093fa6e3d9181900360200190a150565b6000611b4e8260405180606001604052806029815260200161500560299139609891906138e0565b6040805162461bcd60e51b815260206004820152601a60248201527913595d18560e881b5a5b9d081a5cc81b9bdd08185b1b1bddd95960321b604482015290519081900360640190fd5b609f8054604080516020601f60026000196101006001881615020190951694909404938401819004810282018101909252828152606093909290918301828280156115155780601f106114ea57610100808354040283529160200191611515565b60006001600160a01b03821661218d5760405162461bcd60e51b815260040180806020018281038252602a815260200180614fa5602a913960400191505060405180910390fd5b6001600160a01b0382166000908152609760205260409020611b4e9061344b565b6121c8600080516020615116833981519152611154613281565b6122035760405162461bcd60e51b815260040180806020018281038252603e815260200180614e63603e913960400191505060405180910390fd5b611c166138f7565b6000611a3281805b6000828152603360205260408120611b4b908361369d565b6122386000611154613281565b6122735760405162461bcd60e51b815260040180806020018281038252602881526020018061515f6028913960400191505060405180910390fd5b6101958190556040805182815290517f6bfd5e75539a9d2626425a2e2922675256b219fe546d63dad56011759b9a2f669181900360200190a150565b6000828152603360205260408120611b4b9083613978565b6122d46000611154613281565b61230f5760405162461bcd60e51b815260040180806020018281038252603281526020018061528c6032913960400191505060405180910390fd5b805161232390610198906020840190614bff565b507faf497693a87db12ca89131a31edbb3db4bb5702dfb284e8ae7427d185f09112d816040518080602001828103825283818151815260200191508051906020019080838360005b8381101561238357818101518382015260200161236b565b50505050905090810190601f1680156123b05780820380516001836020036101000a031916815260200191505b509250505060405180910390a150565b609d8054604080516020601f60026000196101006001881615020190951694909404938401819004810282018101909252828152606093909290918301828280156115155780601f106114ea57610100808354040283529160200191611515565b600081565b61242e613281565b6001600160a01b0316826001600160a01b03161415612490576040805162461bcd60e51b815260206004820152601960248201527822a9219b99189d1030b8383937bb32903a379031b0b63632b960391b604482015290519081900360640190fd5b80609b600061249d613281565b6001600160a01b03908116825260208083019390935260409182016000908120918716808252919093529120805460ff1916921515929092179091556124e1613281565b6001600160a01b03167f17307eab39ab6107e8899845ad3d59bd9653f200f220920489ca2b5937696c318360405180821515815260200191505060405180910390a35050565b600054610100900460ff1680612540575061254061398d565b8061254e575060005460ff16155b6125895760405162461bcd60e51b815260040180806020018281038252602e81526020018061502e602e913960400191505060405180910390fd5b600054610100900460ff161580156125b4576000805460ff1961ff0019909116610100171660011790555b6125bf858585613993565b6125c882613a65565b600061019355426125e46125df8262278d006133f3565b612bc6565b6125f5674563918244f4000061222b565b6101978054611000600a60ff199092169190911763ffff0000191663100000001763ffffffff60201b19166001602a1b1761ff001916179055604080518082019091526018815277697066733a2f2f636f6e74726163742d6d6574616461746160401b6020820152612666906122c7565b508015612679576000805461ff00191690555b5050505050565b600054610100900460ff1680612699575061269961398d565b806126a7575060005460ff16155b6126e25760405162461bcd60e51b815260040180806020018281038252602e81526020018061502e602e913960400191505060405180910390fd5b600054610100900460ff1615801561270d576000805460ff1961ff0019909116610100171660011790555b612718848484613993565b801561272a576000805461ff00191690555b50505050565b61274161273b613281565b83613456565b61277c5760405162461bcd60e51b815260040180806020018281038252603181526020018061525b6031913960400191505060405180910390fd5b61272a84848484613b10565b60606101975461ffff620100009091041682106127d65760405162461bcd60e51b81526004018080602001828103825260238152602001806151f76023913960400191505060405180910390fd5b6127de6120e5565b6127e783613b62565b6040516020018083805190602001908083835b602083106128195780518252601f1990920191602091820191016127fa565b51815160209384036101000a600019018019909216911617905285519190930192850191508083835b602083106128615780518252601f199092019160209182019101612842565b6001836020036101000a038019825116818451168082178552505050505050905001925050506040516020818303038152906040529050919050565b6128aa6000611154613281565b6128e55760405162461bcd60e51b8152600401808060200182810382526028815260200180614dec6028913960400191505060405180910390fd5b6101a080546001600160a01b0319166001600160a01b0392909216919091179055565b60606129138261329e565b61294e5760405162461bcd60e51b815260040180806020018281038252602f8152602001806151a8602f913960400191505060405180910390fd5b6000828152609e602090815260409182902080548351601f60026000196101006001861615020190931692909204918201849004840281018401909452808452606093928301828280156129e35780601f106129b8576101008083540402835291602001916129e3565b820191906000526020600020905b8154815290600101906020018083116129c657829003601f168201915b5050609f5493945050505060026000196101006001841615020190911604612a0c579050611484565b805115612add57609f816040516020018083805460018160011615610100020316600290048015612a745780601f10612a52576101008083540402835291820191612a74565b820191906000526020600020905b815481529060010190602001808311612a60575b5050825160208401908083835b60208310612aa05780518252601f199092019160209182019101612a81565b6001836020036101000a03801982511681845116808217855250505050505090500192505050604051602081830303815290604052915050611484565b609f612ae884613b62565b6040516020018083805460018160011615610100020316600290048015612b465780601f10612b24576101008083540402835291820191612b46565b820191906000526020600020905b815481529060010190602001808311612b32575b5050825160208401908083835b60208310612b725780518252601f199092019160209182019101612b53565b6001836020036101000a03801982511681845116808217855250505050505090500192505050604051602081830303815290604052915050919050565b6000818152603360205260408120611b4e9061344b565b612bd36000611154613281565b612c0e5760405162461bcd60e51b815260040180806020018281038252602e815260200180615353602e913960400191505060405180910390fd5b6101948190556040805182815290517ff6cbe4843a1228f3f8095dc5d4e39525672af82ed99e5420176aea34e04fe1d99181900360200190a150565b6000805160206151d783398151915281565b600082815260336020526040902060020154612c7a90611154613281565b611baf5760405162461bcd60e51b8152600401808060200182810382526030815260200180614f186030913960400191505060405180910390fd5b60008051602061511683398151915281565b6000612cd1613c3c565b6101a05481906001600160a01b03166370a08231612ced613281565b6040518263ffffffff1660e01b815260040180826001600160a01b0316815260200191505060206040518083038186803b158015612d2a57600080fd5b505afa158015612d3e573d6000803e3d6000fd5b505050506040513d6020811015612d5457600080fd5b50511015612da9576040805162461bcd60e51b815260206004820152601f60248201527f4d657461583a204e6f7420656e6f75676820455243323020746f6b656e732e00604482015290519081900360640190fd5b6101a05481906001600160a01b031663dd62ed3e612dc5613281565b306040518363ffffffff1660e01b815260040180836001600160a01b03168152602001826001600160a01b031681526020019250505060206040518083038186803b158015612e1357600080fd5b505afa158015612e27573d6000803e3d6000fd5b505050506040513d6020811015612e3d57600080fd5b50511015612e7c5760405162461bcd60e51b8152600401808060200182810382526028815260200180614d4f6028913960400191505060405180910390fd5b612e84611ee4565b15612ed6576040805162461bcd60e51b815260206004820152601e60248201527f4d657461583a20746f6b656e206d696e74207768696c65207061757365640000604482015290519081900360640190fd5b610194544210612f2a576040805162461bcd60e51b815260206004820152601a60248201527913595d18560e881b5a5b9d1a5b99c8195d995b9d08195b99195960321b604482015290519081900360640190fd5b600083815261019d602052604090205460ff1615612f795760405162461bcd60e51b815260040180806020018281038252602581526020018061532e6025913960400191505060405180910390fd5b6101975461019354600160201b90910463ffffffff1611612fcb5760405162461bcd60e51b81526004018080602001828103825260228152602001806150856022913960400191505060405180910390fd5b6101975462010000900461ffff1683106130165760405162461bcd60e51b81526004018080602001828103825260238152602001806151f76023913960400191505060405180910390fd5b61019754610100900460ff1661019b600061302f613281565b6001600160a01b0316815260208101919091526040016000205460ff1610613099576040805162461bcd60e51b815260206004820152601860248201527713595d18560e881b585e081b5a5b9d1cc81c995858da195960421b604482015290519081900360640190fd5b610193546130a89060016133f3565b610193556130b4613281565b600084815261019c6020908152604080832080546001600160a01b0319166001600160a01b03959095169490941790935561019d9052908120805460ff191660019081179091559061019b90613108613281565b6001600160a01b031681526020810191909152604001600020805460ff19811660ff9182169390930116919091179055613149613143613281565b84613c99565b8291506101a0546001600160a01b03166323b872dd613166613281565b30846040518463ffffffff1660e01b815260040180846001600160a01b03168152602001836001600160a01b031681526020018281526020019350505050602060405180830381600087803b1580156131be57600080fd5b505af11580156131d2573d6000803e3d6000fd5b505050506040513d60208110156131e857600080fd5b50919392505050565b6101988054604080516020601f60026000196101006001881615020190951694909404938401819004810282018101909252828152606093909290918301828280156115155780601f106114ea57610100808354040283529160200191611515565b6001600160a01b039182166000908152609b6020908152604080832093909416825291909152205460ff1690565b6000611a32613db4565b805161119d90609f906020840190614bff565b6000611b4e609883613e11565b6000818152609a6020526040902080546001600160a01b0319166001600160a01b03841690811790915581906132e082612073565b6001600160a01b03167f8c5be1e5ebec7d5bd14f71427d1e84f3dd0314c0f7b2291e5b200ac8c7c3b92560405160405180910390a45050565b60006001600160a01b0386166133605760405162461bcd60e51b8152600401808060200182810382526025815260200180614f486025913960400191505060405180910390fd5b600161337361336e87613e1d565b613ea0565b83868660405160008152602001604052604051808581526020018460ff1681526020018381526020018281526020019450505050506020604051602081039080840390855afa1580156133ca573d6000803e3d6000fd5b505050602060405103516001600160a01b0316866001600160a01b031614905095945050505050565b600082820183811015611b4b576040805162461bcd60e51b815260206004820152601b60248201527a536166654d6174683a206164646974696f6e206f766572666c6f7760281b604482015290519081900360640190fd5b6000611b4e82613eec565b60006134618261329e565b61349c5760405162461bcd60e51b815260040180806020018281038252602c815260200180614ec5602c913960400191505060405180910390fd5b60006134a783612073565b9050806001600160a01b0316846001600160a01b031614806134e25750836001600160a01b03166134d784611520565b6001600160a01b0316145b806134f257506134f28185613253565b949350505050565b826001600160a01b031661350d82612073565b6001600160a01b0316146135525760405162461bcd60e51b81526004018080602001828103825260298152602001806151366029913960400191505060405180910390fd5b6001600160a01b0382166135975760405162461bcd60e51b8152600401808060200182810382526024815260200180614ea16024913960400191505060405180910390fd5b6135a2838383613ef0565b6135ad6000826132ab565b6001600160a01b03831660009081526097602052604090206135cf9082613efb565b506001600160a01b03821660009081526097602052604090206135f29082613f07565b506135ff60988284613f13565b5080826001600160a01b0316846001600160a01b031660008051602061521a83398151915260405160405180910390a4505050565b600082815260336020526040902061364c9082613f29565b1561119d57613659613281565b6001600160a01b0316816001600160a01b0316837f2f8788117e7eff1d82e926ec794901d17c78024a50270940304540a733656f0d60405160405180910390a45050565b6000611b4b8383613f3e565b60008281526033602052604090206136c19082613fa2565b1561119d576136ce613281565b6001600160a01b0316816001600160a01b0316837ff6391f5c32d9c69d2a47ea670b442974b53935d1edc7fd64eb21e047a839171b60405160405180910390a45050565b60fb5460ff16613760576040805162461bcd60e51b815260206004820152601460248201527314185d5cd8589b194e881b9bdd081c185d5cd95960621b604482015290519081900360640190fd5b60fb805460ff191690557f5db9ee0a495bf2e6ff9c91a7834c1ba4fdd244a5e8aa4e537bd38aeae4b073aa613793613281565b604080516001600160a01b039092168252519081900360200190a1565b6000826137bf57506000611b4e565b828202828482816137cc57fe5b0414611b4b5760405162461bcd60e51b81526004018080602001828103825260218152602001806150c96021913960400191505060405180910390fd5b600061381482612073565b905061382281600084613ef0565b61382d6000836132ab565b6000828152609e6020526040902054600260001961010060018416150201909116041561386b576000828152609e6020526040812061386b91614c7d565b6001600160a01b038116600090815260976020526040902061388d9083613efb565b50613899609883613fb7565b5060405182906000906001600160a01b0384169060008051602061521a833981519152908390a45050565b60008080806138d38686613fc3565b9097909650945050505050565b60006138ed84848461403e565b90505b9392505050565b60fb5460ff1615613942576040805162461bcd60e51b815260206004820152601060248201526f14185d5cd8589b194e881c185d5cd95960821b604482015290519081900360640190fd5b60fb805460ff191660011790557f62e78cea01bee320cd4e420270b5ea74000d11b0c9f74754ebdbfc544b05a258613793613281565b6000611b4b836001600160a01b038416614108565b303b1590565b600054610100900460ff16806139ac57506139ac61398d565b806139ba575060005460ff16155b6139f55760405162461bcd60e51b815260040180806020018281038252602e81526020018061502e602e913960400191505060405180910390fd5b600054610100900460ff16158015613a20576000805460ff1961ff0019909116610100171660011790555b613a28614120565b613a30614120565b613a386141c1565b613a42848461425e565b613a4a614120565b613a52614359565b613a5a614120565b612718848484614404565b600054610100900460ff1680613a7e5750613a7e61398d565b80613a8c575060005460ff16155b613ac75760405162461bcd60e51b815260040180806020018281038252602e81526020018061502e602e913960400191505060405180910390fd5b600054610100900460ff16158015613af2576000805460ff1961ff0019909116610100171660011790555b613afb826144e0565b801561119d576000805461ff00191690555050565b613b1b8484846134fa565b613b27848484846145a3565b61272a5760405162461bcd60e51b8152600401808060200182810382526032815260200180614d776032913960400191505060405180910390fd5b606081613b8757506040805180820190915260018152600360fc1b6020820152611484565b8160005b8115613b9f57600101600a82049150613b8b565b6060816001600160401b0381118015613bb757600080fd5b506040519080825280601f01601f191660200182016040528015613be2576020820181803683370190505b50859350905060001982015b8315613c3357600a840660300160f81b82828060019003935081518110613c1157fe5b60200101906001600160f81b031916908160001a905350600a84049350613bee565b50949350505050565b6000806000613c51613c4c613281565b611c18565b915091508015613c9357600161019f6000613c6a613281565b6001600160a01b031681526020810191909152604001600020805460ff19169115159190911790555b50905090565b6001600160a01b038216613cf4576040805162461bcd60e51b815260206004820181905260248201527f4552433732313a206d696e7420746f20746865207a65726f2061646472657373604482015290519081900360640190fd5b613cfd8161329e565b15613d4e576040805162461bcd60e51b815260206004820152601c60248201527b115490cdcc8c4e881d1bdad95b88185b1c9958591e481b5a5b9d195960221b604482015290519081900360640190fd5b613d5a60008383613ef0565b6001600160a01b0382166000908152609760205260409020613d7c9082613f07565b50613d8960988284613f13565b5060405181906001600160a01b0384169060009060008051602061521a833981519152908290a45050565b600033301415613e0c5760606000368080601f0160208091040260200160405190810160405280939291908181526020018383808284376000920191909152505050503601516001600160a01b0316915061151d9050565b503390565b6000611b4b8383614108565b6000604051806080016040528060438152602001614da960439139805190602001208260000151836020015184604001518051906020012060405160200180858152602001848152602001836001600160a01b03168152602001828152602001945050505050604051602081830303815290604052805190602001209050919050565b6000613eaa611a37565b82604051602001808061190160f01b81525060020183815260200182815260200192505050604051602081830303815290604052805190602001209050919050565b5490565b61165883838361470b565b6000611b4b838361475a565b6000611b4b8383614820565b60006138ed84846001600160a01b03851661486a565b6000611b4b836001600160a01b038416614820565b81546000908210613f805760405162461bcd60e51b8152600401808060200182810382526022815260200180614cd36022913960400191505060405180910390fd5b826000018281548110613f8f57fe5b9060005260206000200154905092915050565b6000611b4b836001600160a01b03841661475a565b6000611b4b8383614901565b8154600090819083106140075760405162461bcd60e51b81526004018080602001828103825260228152602001806150a76022913960400191505060405180910390fd5b600084600001848154811061401857fe5b906000526020600020906002020190508060000154816001015492509250509250929050565b600082815260018401602052604081205482816140d95760405162461bcd60e51b81526004018080602001828103825283818151815260200191508051906020019080838360005b8381101561409e578181015183820152602001614086565b50505050905090810190601f1680156140cb5780820380516001836020036101000a031916815260200191505b509250505060405180910390fd5b508460000160018203815481106140ec57fe5b9060005260206000209060020201600101549150509392505050565b60009081526001919091016020526040902054151590565b600054610100900460ff1680614139575061413961398d565b80614147575060005460ff16155b6141825760405162461bcd60e51b815260040180806020018281038252602e81526020018061502e602e913960400191505060405180910390fd5b600054610100900460ff161580156141ad576000805460ff1961ff0019909116610100171660011790555b8015611ecb576000805461ff001916905550565b600054610100900460ff16806141da57506141da61398d565b806141e8575060005460ff16155b6142235760405162461bcd60e51b815260040180806020018281038252602e81526020018061502e602e913960400191505060405180910390fd5b600054610100900460ff1615801561424e576000805460ff1961ff0019909116610100171660011790555b6141ad6301ffc9a760e01b6149d5565b600054610100900460ff1680614277575061427761398d565b80614285575060005460ff16155b6142c05760405162461bcd60e51b815260040180806020018281038252602e81526020018061502e602e913960400191505060405180910390fd5b600054610100900460ff161580156142eb576000805460ff1961ff0019909116610100171660011790555b82516142fe90609c906020860190614bff565b50815161431290609d906020850190614bff565b506143236380ac58cd60e01b6149d5565b614333635b5e139f60e01b6149d5565b61434363780e9d6360e01b6149d5565b8015611658576000805461ff0019169055505050565b600054610100900460ff1680614372575061437261398d565b80614380575060005460ff16155b6143bb5760405162461bcd60e51b815260040180806020018281038252602e81526020018061502e602e913960400191505060405180910390fd5b600054610100900460ff161580156143e6576000805460ff1961ff0019909116610100171660011790555b60fb805460ff191690558015611ecb576000805461ff001916905550565b600054610100900460ff168061441d575061441d61398d565b8061442b575060005460ff16155b6144665760405162461bcd60e51b815260040180806020018281038252602e81526020018061502e602e913960400191505060405180910390fd5b600054610100900460ff16158015614491576000805460ff1961ff0019909116610100171660011790555b6144a3600061449e613281565b611b1f565b6144bd6000805160206151d783398151915261449e613281565b6144d760008051602061511683398151915261449e613281565b6127188261328b565b6040518060800160405280604f8152602001614e14604f913980516020918201208251838301206040805180820190915260018152603160f81b930192909252907fc89efdaa54c0f20c7adf612882df0950f5a951637e0307cdcb4c672f298b8bc63061454b611b54565b60001b60405160200180868152602001858152602001848152602001836001600160a01b0316815260200182815260200195505050505050604051602081830303815290604052805190602001206101918190555050565b60006145b7846001600160a01b0316614a58565b6145c3575060016134f2565b60606146d1630a85bd0160e11b6145d8613281565b88878760405160240180856001600160a01b03168152602001846001600160a01b0316815260200183815260200180602001828103825283818151815260200191508051906020019080838360005b8381101561463f578181015183820152602001614627565b50505050905090810190601f16801561466c5780820380516001836020036101000a031916815260200191505b5095505050505050604051602081830303815290604052906001600160e01b0319166020820180516001600160e01b038381831617835250505050604051806060016040528060328152602001614d77603291396001600160a01b0388169190614a5e565b905060008180602001905160208110156146ea57600080fd5b50516001600160e01b031916630a85bd0160e11b1492505050949350505050565b614716838383611658565b61471e611ee4565b156116585760405162461bcd60e51b815260040180806020018281038252602b815260200180614cf5602b913960400191505060405180910390fd5b60008181526001830160205260408120548015614816578354600019808301919081019060009087908390811061478d57fe5b90600052602060002001549050808760000184815481106147aa57fe5b6000918252602080832090910192909255828152600189810190925260409020908401905586548790806147da57fe5b60019003818190600052602060002001600090559055866001016000878152602001908152602001600020600090556001945050505050611b4e565b6000915050611b4e565b600061482c8383614108565b61486257508154600181810184556000848152602080822090930184905584548482528286019093526040902091909155611b4e565b506000611b4e565b6000828152600184016020526040812054806148cf5750506040805180820182528381526020808201848152865460018181018955600089815284812095516002909302909501918255915190820155865486845281880190925292909120556138f0565b828560000160018303815481106148e257fe5b90600052602060002090600202016001018190555060009150506138f0565b60008181526001830160205260408120548015614816578354600019808301919081019060009087908390811061493457fe5b906000526020600020906002020190508087600001848154811061495457fe5b60009182526020808320845460029093020191825560019384015491840191909155835482528983019052604090209084019055865487908061499357fe5b6000828152602080822060026000199094019384020182815560019081018390559290935588815289820190925260408220919091559450611b4e9350505050565b6001600160e01b03198082161415614a33576040805162461bcd60e51b815260206004820152601c60248201527b115490cc4d8d4e881a5b9d985b1a59081a5b9d195c999858d9481a5960221b604482015290519081900360640190fd5b6001600160e01b0319166000908152606560205260409020805460ff19166001179055565b3b151590565b60606138ed84846000856060614a7385614a58565b614ac4576040805162461bcd60e51b815260206004820152601d60248201527f416464726573733a2063616c6c20746f206e6f6e2d636f6e7472616374000000604482015290519081900360640190fd5b60006060866001600160a01b031685876040518082805190602001908083835b60208310614b035780518252601f199092019160209182019101614ae4565b6001836020036101000a03801982511681845116808217855250505050505090500191505060006040518083038185875af1925050503d8060008114614b65576040519150601f19603f3d011682016040523d82523d6000602084013e614b6a565b606091505b50915091508115614b7e5791506134f29050565b805115614b8e5780518082602001fd5b60405162461bcd60e51b815260206004820181815286516024840152865187939192839260440191908501908083836000831561409e578181015183820152602001614086565b60405180606001604052806000815260200160006001600160a01b03168152602001606081525090565b828054600181600116156101000203166002900490600052602060002090601f016020900481019282601f10614c4057805160ff1916838001178555614c6d565b82800160010185558215614c6d579182015b82811115614c6d578251825591602001919060010190614c52565b50614c79929150614cbd565b5090565b50805460018160011615610100020316600290046000825580601f10614ca35750611ecb565b601f016020900490600052602060002090810190611ecb91905b5b80821115614c795760008155600101614cbe56fe456e756d657261626c655365743a20696e646578206f7574206f6620626f756e64734552433732315061757361626c653a20746f6b656e207472616e73666572207768696c6520706175736564416363657373436f6e74726f6c3a2073656e646572206d75737420626520616e2061646d696e20746f206772616e744d657461583a204e6f7420656e6f75676820455243323020746f6b656e20616c6c6f77616e63652e4552433732313a207472616e7366657220746f206e6f6e20455243373231526563656976657220696d706c656d656e7465724d6574615472616e73616374696f6e2875696e74323536206e6f6e63652c616464726573732066726f6d2c62797465732066756e6374696f6e5369676e6174757265294d657461583a206d75737420686176652061646d696e20726f6c6520746f2073657420746f6b656e454950373132446f6d61696e28737472696e67206e616d652c737472696e672076657273696f6e2c6164647265737320766572696679696e67436f6e74726163742c627974657333322073616c74294552433732315072657365744d696e7465725061757365724175746f49643a206d75737420686176652070617573657220726f6c6520746f2070617573654552433732313a207472616e7366657220746f20746865207a65726f20616464726573734552433732313a206f70657261746f7220717565727920666f72206e6f6e6578697374656e7420746f6b656e4d657461583a206d75737420686176652061646d696e20726f6c6520746f207769746864726177416363657373436f6e74726f6c3a2073656e646572206d75737420626520616e2061646d696e20746f207265766f6b654e61746976654d6574615472616e73616374696f6e3a20494e56414c49445f5349474e45524552433732313a20617070726f76652063616c6c6572206973206e6f74206f776e6572206e6f7220617070726f76656420666f7220616c6c4552433732313a2062616c616e636520717565727920666f7220746865207a65726f20616464726573734d657461583a206d75737420686176652061646d696e20726f6c6520746f2073657420535020636f6e747261637420616464726573734552433732313a206f776e657220717565727920666f72206e6f6e6578697374656e7420746f6b656e496e697469616c697a61626c653a20636f6e747261637420697320616c726561647920696e697469616c697a65644d657461583a206d75737420686176652061646d696e20726f6c6520746f206368616e6765207572694d657461583a20636f6e7472616374206d696e74206c696d69742072656163686564456e756d657261626c654d61703a20696e646578206f7574206f6620626f756e6473536166654d6174683a206d756c7469706c69636174696f6e206f766572666c6f774552433732313a20617070726f76656420717565727920666f72206e6f6e6578697374656e7420746f6b656e65d7a28e3265b37a6474929f336521b332c1681b933f6cb9f3376673440d862a4552433732313a207472616e73666572206f6620746f6b656e2074686174206973206e6f74206f776e4d657461583a206d75737420686176652061646d696e20726f6c6520746f207365742070726963655369676e657220616e64207369676e617475726520646f206e6f74206d617463684552433732314d657461646174613a2055524920717565727920666f72206e6f6e6578697374656e7420746f6b656e9f2df0fed2c77648de5860a4cc508cd0818c85b8b8a1ab4ceeef8d981c8956a64d657461583a206d657461766572736520696420646f6573206e6f7420657869737473ddf252ad1be2c89b69c2b068fc378daa952ba7f163c4a11628f55a4df523b3ef4552433732313a20617070726f76616c20746f2063757272656e74206f776e65724552433732313a207472616e736665722063616c6c6572206973206e6f74206f776e6572206e6f7220617070726f7665644d657461583a206d75737420686176652061646d696e20726f6c6520746f206368616e676520636f6e7472616374207572694552433732314275726e61626c653a2063616c6c6572206973206e6f74206f776e6572206e6f7220617070726f7665644552433732315072657365744d696e7465725061757365724175746f49643a206d75737420686176652070617573657220726f6c6520746f20756e70617573654d657461583a206d657461766572736520696420697320616c7265616479206d696e7465644d657461583a206d75737420686176652061646d696e20726f6c6520746f206368616e676520656e642074696d65416363657373436f6e74726f6c3a2063616e206f6e6c792072656e6f756e636520726f6c657320666f722073656c66a2646970667358221220a138a86cadf02354245d6672e232092457743fbb8b4b4ac723d8636e40a5b30d64736f6c634300060c0033",
  "immutableReferences": {},
  "source": "// SPDX-License-Identifier: MIT\npragma solidity ^0.6.0;\n\nimport \"@openzeppelin/contracts-upgradeable/presets/ERC721PresetMinterPauserAutoIdUpgradeable.sol\";\nimport \"@openzeppelin/contracts-upgradeable/math/SafeMathUpgradeable.sol\";\n\nimport \"@openzeppelin/contracts/token/ERC20/IERC20.sol\";\n\nimport {NativeMetaTransaction} from \"../../common/NativeMetaTransaction.sol\";\nimport {ContextMixin} from \"../../common/ContextMixin.sol\";\n\nimport { SoapPunkCollectiblesChild } from \"./SoupPunk_child.sol\";\n\ncontract MetaXV3 is\n    ERC721PresetMinterPauserAutoIdUpgradeable,\n    NativeMetaTransaction,\n    ContextMixin\n{\n    using SafeMathUpgradeable for uint256;\n\n    uint256 private _tokenCount;\n    uint256 private _endTime;\n    //\n    uint256 private _multPrice;\n    uint256 private _refundByCatch;\n    //\n    uint8 private _maxVotes;\n    uint8 private _maxMintByAccount;\n    //\n    uint16 private _totalArtworkAmount;\n    uint32 private _totalTokenAmount;\n    //\n    string private _contractURI;\n\n    SoapPunkCollectiblesChild private _spContract;\n\n    // Mapping from address to vote count\n    mapping (address => uint8) private _accountVoteCount;\n\n    // Mapping from address to amount of mints\n    mapping (address => uint8) private _accountMintCount;\n\n    // Mapping from token id to minter\n    mapping (uint256 => address) private _artworkMinterAccount;\n\n    // Mapping from token id to boolean -> true if arwork is minted\n    mapping (uint256 => bool) private _artworkMinted;\n\n    // Mapping from address to votes array\n    mapping (address => uint256[10]) private _accountVoteArtwork;\n\n    // Mapping from address to boolean -> true if refund was used\n    mapping (address => bool) private _accountRefundUsed;\n\n    IERC20 private _tokenERC20;\n\n\n    function initialize(string memory name, string memory symbol, string memory baseURI, string memory domainSeparator) initializer public {\n        __ERC721PresetMinterPauserAutoId_init(name, symbol, baseURI);\n\n        _initializeEIP712(domainSeparator);\n        _tokenCount = 0;\n\n        uint256 _startTime = block.timestamp;\n        setEndTime(_startTime.add(2592000));\n        setPrice(5000000000000000000); // 5 Matic\n\n        _maxVotes = 10;\n\n        _totalArtworkAmount = 4096;\n        _totalTokenAmount = 1024;\n\n        _maxMintByAccount = 16;\n\n        setContractURI(\"ipfs://contract-metadata\");\n    }\n\n\n    /**\n    * @dev the URL to a JSON file with contract metadata for OpenSea.\n    */\n    function contractURI() public view returns (string memory) {\n        return _contractURI;\n    }\n\n    /**\n    * @dev Returns the address of the current owner, OpenSea uses this information.\n    */\n    function owner() public view returns (address) {\n        return getRoleMember(DEFAULT_ADMIN_ROLE, 0);\n    }\n\n    function setERC20(IERC20 token) external {\n        require(hasRole(DEFAULT_ADMIN_ROLE, _msgSender()), \"MetaX: must have admin role to set token\");\n\n        _tokenERC20 = token;\n    }\n\n    function setBaseURI(string memory baseURI, uint256 id) external {\n        require(hasRole(DEFAULT_ADMIN_ROLE, _msgSender()), \"MetaX: must have admin role to change uri\");\n\n        _setBaseURI(baseURI);\n    }\n\n    function setContractURI(string memory __contractURI) public {\n        require(hasRole(DEFAULT_ADMIN_ROLE, _msgSender()), \"MetaX: must have admin role to change contract uri\");\n\n        _contractURI = __contractURI;\n\n        ContractURISet(__contractURI);\n    }\n\n    function setPrice(uint256 multPrice) public {\n        require(hasRole(DEFAULT_ADMIN_ROLE, _msgSender()), \"MetaX: must have admin role to set price\");\n\n        _multPrice = multPrice;\n\n        emit PriceSet(multPrice);\n    }\n\n    function setEndTime(uint256 endTime) public {\n        require(hasRole(DEFAULT_ADMIN_ROLE, _msgSender()), \"MetaX: must have admin role to change end time\");\n\n        _endTime = endTime;\n\n        emit EndTimeSet(endTime);\n    }\n\n    function getMetaverse(uint256 id) public view returns(string memory) {\n        require(id >= 0 && id < _totalArtworkAmount, \"MetaX: metaverse id does not exists\");\n\n        return string(abi.encodePacked(baseURI(), id.toString()));\n    }\n\n    /*function tokenURI(uint256 id) public view override {\n        return string(abi.encodePacked(baseURI(), id.toString(), \".json\"));\n    }*/\n\n    function mint(address to) public override {\n        require(false, \"MetaX: mint is not allowed\");\n        // Nobody can call mint()\n    }\n\n    function setSPContract(address spAddress) external {\n        require(hasRole(DEFAULT_ADMIN_ROLE, _msgSender()), \"MetaX: must have admin role to set SP contract address\");\n\n        _spContract = SoapPunkCollectiblesChild(spAddress);\n\n        SPAddressSet(spAddress);\n    }\n\n    function getPrice(address for_account) public view returns(uint256 price, bool use_refund) {\n        //\n        bool willUseRefund = false;\n        // If user didn't used the refund\n        if (!_accountRefundUsed[for_account]) {\n            // Check if owns Soaps\n            if (_spContract.balanceOf(for_account, 0)>0) {\n                willUseRefund = true;\n            } else {\n                // Iterate over votes\n                for (uint i=0; i<_accountVoteCount[for_account]; i++) {\n                    if (_artworkMinterAccount[_accountVoteArtwork[for_account][i]] == for_account) {\n                        continue;\n                    }\n                    // If the voted artwork was minted\n                    if (_artworkMinted[_accountVoteArtwork[for_account][i]]) {\n                        willUseRefund = true;\n                        break;\n                    }\n                }\n            }\n        }\n        //\n        uint256 tmpPrice = _multPrice.mul(5000);\n        if (_tokenCount < 400) {\n            tmpPrice = _multPrice.mul(10);\n        } else if (_tokenCount < 800) {\n            tmpPrice = _multPrice.mul(25);\n        } else if (_tokenCount < 950) {\n            tmpPrice = _multPrice.mul(45);\n        } else if (_tokenCount < 990) {\n            tmpPrice = _multPrice.mul(85);\n        } else if (_tokenCount < 1024) {\n            tmpPrice = _multPrice.mul(150);\n        }\n        if (!willUseRefund) {\n            // Price not cut in half\n            tmpPrice = tmpPrice.mul(2);\n        }\n        //\n        return (tmpPrice, willUseRefund);\n    }\n\n\n    /**\n    * @dev Get price, setting the refund as used.\n    */\n    function _getPrice() private returns(uint256 price) {\n        (uint256 tmpPrice, bool willUseRefund) = getPrice(_msgSender());\n\n        // Mark refund as used\n        if (willUseRefund) {\n            _accountRefundUsed[_msgSender()] = true;\n        }\n\n        return tmpPrice;\n    }\n\n    /**\n    * @dev Casts a vote on an artwork.\n    * @param id ID of the artwork\n    */\n    function vote(uint256 id) external {\n        // To keep gas low it will not check duplicated votes\n        require(!paused(), \"MetaX: vote while paused\");\n        require(!_artworkMinted[id], \"MetaX: artwork already minted\");\n        require(_tokenCount < _totalTokenAmount, \"MetaX: contract mint limit reached\");\n        require(_accountVoteCount[_msgSender()] < _maxVotes, \"MetaX: max votes reached\");\n        require(id >= 0 && id < _totalArtworkAmount, \"MetaX: metaverse id does not exists\");\n\n        _accountVoteArtwork[ _msgSender() ][ _accountVoteCount[_msgSender()] ] = id;\n        _accountVoteCount[_msgSender()] += 1;\n\n        emit Vote(id, _msgSender());\n    }\n\n\n    /**\n    * @dev Mints a new artwork from an id.\n    * @param id ID of the artwork\n    */\n    function mintArtwork(uint256 id)\n        external\n        //payable\n        price(_getPrice())\n        returns(uint256 index)\n    {\n        require(!paused(), \"MetaX: token mint while paused\");\n        require(block.timestamp < _endTime, \"MetaX: minting event ended\");\n        require(!_artworkMinted[id], \"MetaX: metaverse id is already minted\");\n        require(_tokenCount < _totalTokenAmount, \"MetaX: contract mint limit reached\");\n        require(id >= 0 && id < _totalArtworkAmount, \"MetaX: metaverse id does not exists\");\n        require(_accountMintCount[_msgSender()] < _maxMintByAccount, \"MetaX: max mints reached\");\n\n        _tokenCount = _tokenCount.add(1);\n\n        _artworkMinterAccount[id] = _msgSender();\n\n        _artworkMinted[id] = true;\n\n        _accountMintCount[_msgSender()] += 1;\n\n        _mint(_msgSender(), id);\n\n        return id;\n    }\n\n\n    /*\n    * @dev Remove all Ether from the contract, and transfer it to account of owner\n    */\n    function withdrawBalance() external {\n        require(hasRole(DEFAULT_ADMIN_ROLE, _msgSender()), \"MetaX: must have admin role to withdraw\");\n        uint256 balance = _tokenERC20.balanceOf(address(this));\n        _tokenERC20.transfer(_msgSender(), balance);\n\n        emit Withdraw(balance);\n    }\n\n\n    // Modifiers\n\n\n    /**\n    * @dev modifier Associete fee with a function call. If the caller sent too much, then is refunded, but only after the function body.\n    * This was dangerous before Solidity version 0.4.0, where it was possible to skip the part after `_;`.\n    * @param _amount - ether needed to call the function\n    */\n    modifier price(uint256 _amount) {\n        require(_tokenERC20.balanceOf(_msgSender()) >= _amount, \"MetaX: Not enough ERC20 tokens.\");\n        require(_tokenERC20.allowance(_msgSender(), address(this)) >= _amount, \"MetaX: Not enough ERC20 token allowance.\");\n\n        _;\n\n        _tokenERC20.transferFrom(_msgSender(), address(this), _amount);\n    }\n\n\n    // Events\n\n\n    /**\n    * @dev Emits when owner take ETH out of contract\n    * @param balance - amount of ETh sent out from contract\n    */\n    event Withdraw(uint256 balance);\n\n    /**\n    * @dev Emits when a new price is set\n    * @param multPrice - a multiplier for the price\n    */\n    event PriceSet(uint256 multPrice);\n\n    /**\n    * @dev Emits when an artwork is voted\n    * @param id - an artwork id\n    * @param account - an account address\n    */\n    event Vote(uint256 id, address account);\n\n    /**\n    * @dev Emits when the SoapPunk contract address is set\n    * @param spAddress - an address\n    */\n    event SPAddressSet(address spAddress);\n\n    /**\n    * @dev Emits when the contract URI is set\n    * @param contractURI - an URL to the metadata\n    */\n    event ContractURISet(string contractURI);\n\n    /**\n    * @dev Emits when the end time is set\n    * @param endTime - the event end time\n    */\n    event EndTimeSet(uint256 endTime);\n\n\n    // This is to support Native meta transactions\n    // never use msg.sender directly, use _msgSender() instead\n    function _msgSender()\n        internal\n        override\n        view\n        returns (address payable sender)\n        {\n            return ContextMixin.msgSender();\n    }\n}\n",
  "sourcePath": "/home/gabriel/Documentos/Trabajo/Eibriel/Proyectos/Decentraland/GoldRush/SPContracts/matic/contracts/MetaXV3.sol",
  "compiler": {
    "name": "solc",
    "version": "0.6.12+commit.27d51765.Emscripten.clang"
  },
  "schemaVersion": "3.3.2",
  "updatedAt": "2021-03-30T05:56:46.614Z",
  "networkType": "ethereum",
  "devdoc": {
    "events": {
      "ContractURISet(string)": {
        "details": "Emits when the contract URI is set",
        "params": {
          "contractURI": "- an URL to the metadata"
        }
      },
      "EndTimeSet(uint256)": {
        "details": "Emits when the end time is set",
        "params": {
          "endTime": "- the event end time"
        }
      },
      "PriceSet(uint256)": {
        "details": "Emits when a new price is set",
        "params": {
          "multPrice": "- a multiplier for the price"
        }
      },
      "SPAddressSet(address)": {
        "details": "Emits when the SoapPunk contract address is set",
        "params": {
          "spAddress": "- an address"
        }
      },
      "Vote(uint256,address)": {
        "details": "Emits when an artwork is voted",
        "params": {
          "account": "- an account address",
          "id": "- an artwork id"
        }
      },
      "Withdraw(uint256)": {
        "details": "Emits when owner take ETH out of contract",
        "params": {
          "balance": "- amount of ETh sent out from contract"
        }
      }
    },
    "kind": "dev",
    "methods": {
      "approve(address,uint256)": {
        "details": "See {IERC721-approve}."
      },
      "balanceOf(address)": {
        "details": "See {IERC721-balanceOf}."
      },
      "baseURI()": {
        "details": "Returns the base URI set via {_setBaseURI}. This will be automatically added as a prefix in {tokenURI} to each token's URI, or to the token ID if no specific URI is set for that token ID."
      },
      "burn(uint256)": {
        "details": "Burns `tokenId`. See {ERC721-_burn}. Requirements: - The caller must own `tokenId` or be an approved operator."
      },
      "contractURI()": {
        "details": "the URL to a JSON file with contract metadata for OpenSea."
      },
      "getApproved(uint256)": {
        "details": "See {IERC721-getApproved}."
      },
      "getRoleAdmin(bytes32)": {
        "details": "Returns the admin role that controls `role`. See {grantRole} and {revokeRole}. To change a role's admin, use {_setRoleAdmin}."
      },
      "getRoleMember(bytes32,uint256)": {
        "details": "Returns one of the accounts that have `role`. `index` must be a value between 0 and {getRoleMemberCount}, non-inclusive. Role bearers are not sorted in any particular way, and their ordering may change at any point. WARNING: When using {getRoleMember} and {getRoleMemberCount}, make sure you perform all queries on the same block. See the following https://forum.openzeppelin.com/t/iterating-over-elements-on-enumerableset-in-openzeppelin-contracts/2296[forum post] for more information."
      },
      "getRoleMemberCount(bytes32)": {
        "details": "Returns the number of accounts that have `role`. Can be used together with {getRoleMember} to enumerate all bearers of a role."
      },
      "grantRole(bytes32,address)": {
        "details": "Grants `role` to `account`. If `account` had not been already granted `role`, emits a {RoleGranted} event. Requirements: - the caller must have ``role``'s admin role."
      },
      "hasRole(bytes32,address)": {
        "details": "Returns `true` if `account` has been granted `role`."
      },
      "isApprovedForAll(address,address)": {
        "details": "See {IERC721-isApprovedForAll}."
      },
      "mint(address)": {
        "details": "Creates a new token for `to`. Its token ID will be automatically assigned (and available on the emitted {IERC721-Transfer} event), and the token URI autogenerated based on the base URI passed at construction. See {ERC721-_mint}. Requirements: - the caller must have the `MINTER_ROLE`."
      },
      "mintArtwork(uint256)": {
        "details": "Mints a new artwork from an id.",
        "params": {
          "id": "ID of the artwork"
        }
      },
      "name()": {
        "details": "See {IERC721Metadata-name}."
      },
      "owner()": {
        "details": "Returns the address of the current owner, OpenSea uses this information."
      },
      "ownerOf(uint256)": {
        "details": "See {IERC721-ownerOf}."
      },
      "pause()": {
        "details": "Pauses all token transfers. See {ERC721Pausable} and {Pausable-_pause}. Requirements: - the caller must have the `PAUSER_ROLE`."
      },
      "paused()": {
        "details": "Returns true if the contract is paused, and false otherwise."
      },
      "renounceRole(bytes32,address)": {
        "details": "Revokes `role` from the calling account. Roles are often managed via {grantRole} and {revokeRole}: this function's purpose is to provide a mechanism for accounts to lose their privileges if they are compromised (such as when a trusted device is misplaced). If the calling account had been granted `role`, emits a {RoleRevoked} event. Requirements: - the caller must be `account`."
      },
      "revokeRole(bytes32,address)": {
        "details": "Revokes `role` from `account`. If `account` had been granted `role`, emits a {RoleRevoked} event. Requirements: - the caller must have ``role``'s admin role."
      },
      "safeTransferFrom(address,address,uint256)": {
        "details": "See {IERC721-safeTransferFrom}."
      },
      "safeTransferFrom(address,address,uint256,bytes)": {
        "details": "See {IERC721-safeTransferFrom}."
      },
      "setApprovalForAll(address,bool)": {
        "details": "See {IERC721-setApprovalForAll}."
      },
      "supportsInterface(bytes4)": {
        "details": "See {IERC165-supportsInterface}. Time complexity O(1), guaranteed to always use less than 30 000 gas."
      },
      "symbol()": {
        "details": "See {IERC721Metadata-symbol}."
      },
      "tokenByIndex(uint256)": {
        "details": "See {IERC721Enumerable-tokenByIndex}."
      },
      "tokenOfOwnerByIndex(address,uint256)": {
        "details": "See {IERC721Enumerable-tokenOfOwnerByIndex}."
      },
      "tokenURI(uint256)": {
        "details": "See {IERC721Metadata-tokenURI}."
      },
      "totalSupply()": {
        "details": "See {IERC721Enumerable-totalSupply}."
      },
      "transferFrom(address,address,uint256)": {
        "details": "See {IERC721-transferFrom}."
      },
      "unpause()": {
        "details": "Unpauses all token transfers. See {ERC721Pausable} and {Pausable-_unpause}. Requirements: - the caller must have the `PAUSER_ROLE`."
      },
      "vote(uint256)": {
        "details": "Casts a vote on an artwork.",
        "params": {
          "id": "ID of the artwork"
        }
      }
    },
    "version": 1
  },
  "userdoc": {
    "kind": "user",
    "methods": {},
    "version": 1
  }
}