{
  "contractName": "MetaX",
  "abi": [
    {
      "anonymous": false,
      "inputs": [
        {
          "indexed": true,
          "internalType": "address",
          "name": "owner",
          "type": "address"
        },
        {
          "indexed": true,
          "internalType": "address",
          "name": "approved",
          "type": "address"
        },
        {
          "indexed": true,
          "internalType": "uint256",
          "name": "tokenId",
          "type": "uint256"
        }
      ],
      "name": "Approval",
      "type": "event"
    },
    {
      "anonymous": false,
      "inputs": [
        {
          "indexed": true,
          "internalType": "address",
          "name": "owner",
          "type": "address"
        },
        {
          "indexed": true,
          "internalType": "address",
          "name": "operator",
          "type": "address"
        },
        {
          "indexed": false,
          "internalType": "bool",
          "name": "approved",
          "type": "bool"
        }
      ],
      "name": "ApprovalForAll",
      "type": "event"
    },
    {
      "anonymous": false,
      "inputs": [
        {
          "indexed": false,
          "internalType": "string",
          "name": "contractURI",
          "type": "string"
        }
      ],
      "name": "ContractURISet",
      "type": "event"
    },
    {
      "anonymous": false,
      "inputs": [
        {
          "indexed": false,
          "internalType": "uint256",
          "name": "endTime",
          "type": "uint256"
        }
      ],
      "name": "EndTimeSet",
      "type": "event"
    },
    {
      "anonymous": false,
      "inputs": [
        {
          "indexed": false,
          "internalType": "address",
          "name": "userAddress",
          "type": "address"
        },
        {
          "indexed": false,
          "internalType": "address payable",
          "name": "relayerAddress",
          "type": "address"
        },
        {
          "indexed": false,
          "internalType": "bytes",
          "name": "functionSignature",
          "type": "bytes"
        }
      ],
      "name": "MetaTransactionExecuted",
      "type": "event"
    },
    {
      "anonymous": false,
      "inputs": [
        {
          "indexed": false,
          "internalType": "address",
          "name": "account",
          "type": "address"
        }
      ],
      "name": "Paused",
      "type": "event"
    },
    {
      "anonymous": false,
      "inputs": [
        {
          "indexed": false,
          "internalType": "uint256",
          "name": "multPrice",
          "type": "uint256"
        }
      ],
      "name": "PriceSet",
      "type": "event"
    },
    {
      "anonymous": false,
      "inputs": [
        {
          "indexed": true,
          "internalType": "bytes32",
          "name": "role",
          "type": "bytes32"
        },
        {
          "indexed": true,
          "internalType": "bytes32",
          "name": "previousAdminRole",
          "type": "bytes32"
        },
        {
          "indexed": true,
          "internalType": "bytes32",
          "name": "newAdminRole",
          "type": "bytes32"
        }
      ],
      "name": "RoleAdminChanged",
      "type": "event"
    },
    {
      "anonymous": false,
      "inputs": [
        {
          "indexed": true,
          "internalType": "bytes32",
          "name": "role",
          "type": "bytes32"
        },
        {
          "indexed": true,
          "internalType": "address",
          "name": "account",
          "type": "address"
        },
        {
          "indexed": true,
          "internalType": "address",
          "name": "sender",
          "type": "address"
        }
      ],
      "name": "RoleGranted",
      "type": "event"
    },
    {
      "anonymous": false,
      "inputs": [
        {
          "indexed": true,
          "internalType": "bytes32",
          "name": "role",
          "type": "bytes32"
        },
        {
          "indexed": true,
          "internalType": "address",
          "name": "account",
          "type": "address"
        },
        {
          "indexed": true,
          "internalType": "address",
          "name": "sender",
          "type": "address"
        }
      ],
      "name": "RoleRevoked",
      "type": "event"
    },
    {
      "anonymous": false,
      "inputs": [
        {
          "indexed": false,
          "internalType": "address",
          "name": "spAddress",
          "type": "address"
        }
      ],
      "name": "SPAddressSet",
      "type": "event"
    },
    {
      "anonymous": false,
      "inputs": [
        {
          "indexed": true,
          "internalType": "address",
          "name": "from",
          "type": "address"
        },
        {
          "indexed": true,
          "internalType": "address",
          "name": "to",
          "type": "address"
        },
        {
          "indexed": true,
          "internalType": "uint256",
          "name": "tokenId",
          "type": "uint256"
        }
      ],
      "name": "Transfer",
      "type": "event"
    },
    {
      "anonymous": false,
      "inputs": [
        {
          "indexed": false,
          "internalType": "address",
          "name": "account",
          "type": "address"
        }
      ],
      "name": "Unpaused",
      "type": "event"
    },
    {
      "anonymous": false,
      "inputs": [
        {
          "indexed": false,
          "internalType": "uint256",
          "name": "id",
          "type": "uint256"
        },
        {
          "indexed": false,
          "internalType": "address",
          "name": "account",
          "type": "address"
        }
      ],
      "name": "Vote",
      "type": "event"
    },
    {
      "anonymous": false,
      "inputs": [
        {
          "indexed": false,
          "internalType": "uint256",
          "name": "balance",
          "type": "uint256"
        }
      ],
      "name": "Withdraw",
      "type": "event"
    },
    {
      "inputs": [],
      "name": "DEFAULT_ADMIN_ROLE",
      "outputs": [
        {
          "internalType": "bytes32",
          "name": "",
          "type": "bytes32"
        }
      ],
      "stateMutability": "view",
      "type": "function",
      "constant": true
    },
    {
      "inputs": [],
      "name": "ERC712_VERSION",
      "outputs": [
        {
          "internalType": "string",
          "name": "",
          "type": "string"
        }
      ],
      "stateMutability": "view",
      "type": "function",
      "constant": true
    },
    {
      "inputs": [],
      "name": "MINTER_ROLE",
      "outputs": [
        {
          "internalType": "bytes32",
          "name": "",
          "type": "bytes32"
        }
      ],
      "stateMutability": "view",
      "type": "function",
      "constant": true
    },
    {
      "inputs": [],
      "name": "PAUSER_ROLE",
      "outputs": [
        {
          "internalType": "bytes32",
          "name": "",
          "type": "bytes32"
        }
      ],
      "stateMutability": "view",
      "type": "function",
      "constant": true
    },
    {
      "inputs": [
        {
          "internalType": "address",
          "name": "to",
          "type": "address"
        },
        {
          "internalType": "uint256",
          "name": "tokenId",
          "type": "uint256"
        }
      ],
      "name": "approve",
      "outputs": [],
      "stateMutability": "nonpayable",
      "type": "function"
    },
    {
      "inputs": [
        {
          "internalType": "address",
          "name": "owner",
          "type": "address"
        }
      ],
      "name": "balanceOf",
      "outputs": [
        {
          "internalType": "uint256",
          "name": "",
          "type": "uint256"
        }
      ],
      "stateMutability": "view",
      "type": "function",
      "constant": true
    },
    {
      "inputs": [],
      "name": "baseURI",
      "outputs": [
        {
          "internalType": "string",
          "name": "",
          "type": "string"
        }
      ],
      "stateMutability": "view",
      "type": "function",
      "constant": true
    },
    {
      "inputs": [
        {
          "internalType": "uint256",
          "name": "tokenId",
          "type": "uint256"
        }
      ],
      "name": "burn",
      "outputs": [],
      "stateMutability": "nonpayable",
      "type": "function"
    },
    {
      "inputs": [
        {
          "internalType": "address",
          "name": "userAddress",
          "type": "address"
        },
        {
          "internalType": "bytes",
          "name": "functionSignature",
          "type": "bytes"
        },
        {
          "internalType": "bytes32",
          "name": "sigR",
          "type": "bytes32"
        },
        {
          "internalType": "bytes32",
          "name": "sigS",
          "type": "bytes32"
        },
        {
          "internalType": "uint8",
          "name": "sigV",
          "type": "uint8"
        }
      ],
      "name": "executeMetaTransaction",
      "outputs": [
        {
          "internalType": "bytes",
          "name": "",
          "type": "bytes"
        }
      ],
      "stateMutability": "payable",
      "type": "function",
      "payable": true
    },
    {
      "inputs": [
        {
          "internalType": "uint256",
          "name": "tokenId",
          "type": "uint256"
        }
      ],
      "name": "getApproved",
      "outputs": [
        {
          "internalType": "address",
          "name": "",
          "type": "address"
        }
      ],
      "stateMutability": "view",
      "type": "function",
      "constant": true
    },
    {
      "inputs": [],
      "name": "getChainId",
      "outputs": [
        {
          "internalType": "uint256",
          "name": "",
          "type": "uint256"
        }
      ],
      "stateMutability": "pure",
      "type": "function",
      "constant": true
    },
    {
      "inputs": [],
      "name": "getDomainSeperator",
      "outputs": [
        {
          "internalType": "bytes32",
          "name": "",
          "type": "bytes32"
        }
      ],
      "stateMutability": "view",
      "type": "function",
      "constant": true
    },
    {
      "inputs": [
        {
          "internalType": "address",
          "name": "user",
          "type": "address"
        }
      ],
      "name": "getNonce",
      "outputs": [
        {
          "internalType": "uint256",
          "name": "nonce",
          "type": "uint256"
        }
      ],
      "stateMutability": "view",
      "type": "function",
      "constant": true
    },
    {
      "inputs": [
        {
          "internalType": "bytes32",
          "name": "role",
          "type": "bytes32"
        }
      ],
      "name": "getRoleAdmin",
      "outputs": [
        {
          "internalType": "bytes32",
          "name": "",
          "type": "bytes32"
        }
      ],
      "stateMutability": "view",
      "type": "function",
      "constant": true
    },
    {
      "inputs": [
        {
          "internalType": "bytes32",
          "name": "role",
          "type": "bytes32"
        },
        {
          "internalType": "uint256",
          "name": "index",
          "type": "uint256"
        }
      ],
      "name": "getRoleMember",
      "outputs": [
        {
          "internalType": "address",
          "name": "",
          "type": "address"
        }
      ],
      "stateMutability": "view",
      "type": "function",
      "constant": true
    },
    {
      "inputs": [
        {
          "internalType": "bytes32",
          "name": "role",
          "type": "bytes32"
        }
      ],
      "name": "getRoleMemberCount",
      "outputs": [
        {
          "internalType": "uint256",
          "name": "",
          "type": "uint256"
        }
      ],
      "stateMutability": "view",
      "type": "function",
      "constant": true
    },
    {
      "inputs": [
        {
          "internalType": "bytes32",
          "name": "role",
          "type": "bytes32"
        },
        {
          "internalType": "address",
          "name": "account",
          "type": "address"
        }
      ],
      "name": "grantRole",
      "outputs": [],
      "stateMutability": "nonpayable",
      "type": "function"
    },
    {
      "inputs": [
        {
          "internalType": "bytes32",
          "name": "role",
          "type": "bytes32"
        },
        {
          "internalType": "address",
          "name": "account",
          "type": "address"
        }
      ],
      "name": "hasRole",
      "outputs": [
        {
          "internalType": "bool",
          "name": "",
          "type": "bool"
        }
      ],
      "stateMutability": "view",
      "type": "function",
      "constant": true
    },
    {
      "inputs": [
        {
          "internalType": "address",
          "name": "owner",
          "type": "address"
        },
        {
          "internalType": "address",
          "name": "operator",
          "type": "address"
        }
      ],
      "name": "isApprovedForAll",
      "outputs": [
        {
          "internalType": "bool",
          "name": "",
          "type": "bool"
        }
      ],
      "stateMutability": "view",
      "type": "function",
      "constant": true
    },
    {
      "inputs": [],
      "name": "name",
      "outputs": [
        {
          "internalType": "string",
          "name": "",
          "type": "string"
        }
      ],
      "stateMutability": "view",
      "type": "function",
      "constant": true
    },
    {
      "inputs": [
        {
          "internalType": "uint256",
          "name": "tokenId",
          "type": "uint256"
        }
      ],
      "name": "ownerOf",
      "outputs": [
        {
          "internalType": "address",
          "name": "",
          "type": "address"
        }
      ],
      "stateMutability": "view",
      "type": "function",
      "constant": true
    },
    {
      "inputs": [],
      "name": "pause",
      "outputs": [],
      "stateMutability": "nonpayable",
      "type": "function"
    },
    {
      "inputs": [],
      "name": "paused",
      "outputs": [
        {
          "internalType": "bool",
          "name": "",
          "type": "bool"
        }
      ],
      "stateMutability": "view",
      "type": "function",
      "constant": true
    },
    {
      "inputs": [
        {
          "internalType": "bytes32",
          "name": "role",
          "type": "bytes32"
        },
        {
          "internalType": "address",
          "name": "account",
          "type": "address"
        }
      ],
      "name": "renounceRole",
      "outputs": [],
      "stateMutability": "nonpayable",
      "type": "function"
    },
    {
      "inputs": [
        {
          "internalType": "bytes32",
          "name": "role",
          "type": "bytes32"
        },
        {
          "internalType": "address",
          "name": "account",
          "type": "address"
        }
      ],
      "name": "revokeRole",
      "outputs": [],
      "stateMutability": "nonpayable",
      "type": "function"
    },
    {
      "inputs": [
        {
          "internalType": "address",
          "name": "from",
          "type": "address"
        },
        {
          "internalType": "address",
          "name": "to",
          "type": "address"
        },
        {
          "internalType": "uint256",
          "name": "tokenId",
          "type": "uint256"
        }
      ],
      "name": "safeTransferFrom",
      "outputs": [],
      "stateMutability": "nonpayable",
      "type": "function"
    },
    {
      "inputs": [
        {
          "internalType": "address",
          "name": "from",
          "type": "address"
        },
        {
          "internalType": "address",
          "name": "to",
          "type": "address"
        },
        {
          "internalType": "uint256",
          "name": "tokenId",
          "type": "uint256"
        },
        {
          "internalType": "bytes",
          "name": "_data",
          "type": "bytes"
        }
      ],
      "name": "safeTransferFrom",
      "outputs": [],
      "stateMutability": "nonpayable",
      "type": "function"
    },
    {
      "inputs": [
        {
          "internalType": "address",
          "name": "operator",
          "type": "address"
        },
        {
          "internalType": "bool",
          "name": "approved",
          "type": "bool"
        }
      ],
      "name": "setApprovalForAll",
      "outputs": [],
      "stateMutability": "nonpayable",
      "type": "function"
    },
    {
      "inputs": [
        {
          "internalType": "bytes4",
          "name": "interfaceId",
          "type": "bytes4"
        }
      ],
      "name": "supportsInterface",
      "outputs": [
        {
          "internalType": "bool",
          "name": "",
          "type": "bool"
        }
      ],
      "stateMutability": "view",
      "type": "function",
      "constant": true
    },
    {
      "inputs": [],
      "name": "symbol",
      "outputs": [
        {
          "internalType": "string",
          "name": "",
          "type": "string"
        }
      ],
      "stateMutability": "view",
      "type": "function",
      "constant": true
    },
    {
      "inputs": [
        {
          "internalType": "uint256",
          "name": "index",
          "type": "uint256"
        }
      ],
      "name": "tokenByIndex",
      "outputs": [
        {
          "internalType": "uint256",
          "name": "",
          "type": "uint256"
        }
      ],
      "stateMutability": "view",
      "type": "function",
      "constant": true
    },
    {
      "inputs": [
        {
          "internalType": "address",
          "name": "owner",
          "type": "address"
        },
        {
          "internalType": "uint256",
          "name": "index",
          "type": "uint256"
        }
      ],
      "name": "tokenOfOwnerByIndex",
      "outputs": [
        {
          "internalType": "uint256",
          "name": "",
          "type": "uint256"
        }
      ],
      "stateMutability": "view",
      "type": "function",
      "constant": true
    },
    {
      "inputs": [
        {
          "internalType": "uint256",
          "name": "tokenId",
          "type": "uint256"
        }
      ],
      "name": "tokenURI",
      "outputs": [
        {
          "internalType": "string",
          "name": "",
          "type": "string"
        }
      ],
      "stateMutability": "view",
      "type": "function",
      "constant": true
    },
    {
      "inputs": [],
      "name": "totalSupply",
      "outputs": [
        {
          "internalType": "uint256",
          "name": "",
          "type": "uint256"
        }
      ],
      "stateMutability": "view",
      "type": "function",
      "constant": true
    },
    {
      "inputs": [
        {
          "internalType": "address",
          "name": "from",
          "type": "address"
        },
        {
          "internalType": "address",
          "name": "to",
          "type": "address"
        },
        {
          "internalType": "uint256",
          "name": "tokenId",
          "type": "uint256"
        }
      ],
      "name": "transferFrom",
      "outputs": [],
      "stateMutability": "nonpayable",
      "type": "function"
    },
    {
      "inputs": [],
      "name": "unpause",
      "outputs": [],
      "stateMutability": "nonpayable",
      "type": "function"
    },
    {
      "inputs": [
        {
          "internalType": "string",
          "name": "name",
          "type": "string"
        },
        {
          "internalType": "string",
          "name": "symbol",
          "type": "string"
        },
        {
          "internalType": "string",
          "name": "baseURI",
          "type": "string"
        }
      ],
      "name": "initialize",
      "outputs": [],
      "stateMutability": "nonpayable",
      "type": "function"
    },
    {
      "inputs": [
        {
          "internalType": "string",
          "name": "name",
          "type": "string"
        },
        {
          "internalType": "string",
          "name": "symbol",
          "type": "string"
        },
        {
          "internalType": "string",
          "name": "baseURI",
          "type": "string"
        },
        {
          "internalType": "string",
          "name": "domainSeparator",
          "type": "string"
        }
      ],
      "name": "initialize",
      "outputs": [],
      "stateMutability": "nonpayable",
      "type": "function"
    },
    {
      "inputs": [],
      "name": "contractURI",
      "outputs": [
        {
          "internalType": "string",
          "name": "",
          "type": "string"
        }
      ],
      "stateMutability": "view",
      "type": "function",
      "constant": true
    },
    {
      "inputs": [],
      "name": "owner",
      "outputs": [
        {
          "internalType": "address",
          "name": "",
          "type": "address"
        }
      ],
      "stateMutability": "view",
      "type": "function",
      "constant": true
    },
    {
      "inputs": [
        {
          "internalType": "string",
          "name": "baseURI",
          "type": "string"
        },
        {
          "internalType": "uint256",
          "name": "id",
          "type": "uint256"
        }
      ],
      "name": "setBaseURI",
      "outputs": [],
      "stateMutability": "nonpayable",
      "type": "function"
    },
    {
      "inputs": [
        {
          "internalType": "string",
          "name": "__contractURI",
          "type": "string"
        }
      ],
      "name": "setContractURI",
      "outputs": [],
      "stateMutability": "nonpayable",
      "type": "function"
    },
    {
      "inputs": [
        {
          "internalType": "uint256",
          "name": "multPrice",
          "type": "uint256"
        }
      ],
      "name": "setPrice",
      "outputs": [],
      "stateMutability": "nonpayable",
      "type": "function"
    },
    {
      "inputs": [
        {
          "internalType": "uint256",
          "name": "endTime",
          "type": "uint256"
        }
      ],
      "name": "setEndTime",
      "outputs": [],
      "stateMutability": "nonpayable",
      "type": "function"
    },
    {
      "inputs": [
        {
          "internalType": "uint256",
          "name": "id",
          "type": "uint256"
        }
      ],
      "name": "getMetaverse",
      "outputs": [
        {
          "internalType": "string",
          "name": "",
          "type": "string"
        }
      ],
      "stateMutability": "view",
      "type": "function",
      "constant": true
    },
    {
      "inputs": [
        {
          "internalType": "address",
          "name": "to",
          "type": "address"
        }
      ],
      "name": "mint",
      "outputs": [],
      "stateMutability": "nonpayable",
      "type": "function"
    },
    {
      "inputs": [
        {
          "internalType": "address",
          "name": "spAddress",
          "type": "address"
        }
      ],
      "name": "setSPContract",
      "outputs": [],
      "stateMutability": "nonpayable",
      "type": "function"
    },
    {
      "inputs": [
        {
          "internalType": "address",
          "name": "for_account",
          "type": "address"
        }
      ],
      "name": "getPrice",
      "outputs": [
        {
          "internalType": "uint256",
          "name": "price",
          "type": "uint256"
        },
        {
          "internalType": "bool",
          "name": "use_refund",
          "type": "bool"
        }
      ],
      "stateMutability": "view",
      "type": "function",
      "constant": true
    },
    {
      "inputs": [
        {
          "internalType": "uint256",
          "name": "id",
          "type": "uint256"
        }
      ],
      "name": "vote",
      "outputs": [],
      "stateMutability": "nonpayable",
      "type": "function"
    },
    {
      "inputs": [
        {
          "internalType": "uint256",
          "name": "id",
          "type": "uint256"
        }
      ],
      "name": "mintArtwork",
      "outputs": [
        {
          "internalType": "uint256",
          "name": "index",
          "type": "uint256"
        }
      ],
      "stateMutability": "payable",
      "type": "function",
      "payable": true
    },
    {
      "inputs": [],
      "name": "withdrawBalance",
      "outputs": [],
      "stateMutability": "nonpayable",
      "type": "function"
    }
  ],
  "bytecode": "0x608060405234801561001057600080fd5b5061511b806100206000396000f3fe6080604052600436106102435760003560e01c80629f25ff146102485780630121b93f146102fd57806301ffc9a71461032757806306fdde031461036f578063081812fc146103f9578063095ea7b31461043f5780630c53c51c146104785780630f7e59701461053a578063179b45ae1461054f57806318160ddd1461058257806320379ee5146105a957806323b872dd146105be578063248a9ca3146106015780632d0335ab1461062b5780632f2ff15d1461065e5780632f745c59146106975780633408e470146106d057806336568abe146106e55780633f4ba83a1461071e57806341976e091461073357806342842e0e1461077f57806342966c68146107c25780634f6ccce7146107ec5780635c975abb146108165780635fd8c7101461082b5780636352211e146108405780636a6278421461086a5780636c0360eb1461089d57806370a08231146108b25780638456cb59146108e55780638da5cb5b146108fa5780639010d07c1461090f57806391b7f5ed1461093f57806391d1485414610969578063938e3d7b146109a257806395d89b4114610a53578063a217fddf14610a68578063a22cb46514610a7d578063a523d35e14610ab8578063a6487c5314610cf8578063b88d4fde14610eb3578063bfb7c1bd14610f84578063c87b56dd14610fae578063ca15c87314610fd8578063ccb98ffc14611002578063d53913931461102c578063d547741f14611041578063e63ab1e91461107a578063e82f40621461108f578063e8a3d485146110ac578063e985e9c5146110c1575b600080fd5b34801561025457600080fd5b506102fb6004803603604081101561026b57600080fd5b810190602081018135600160201b81111561028557600080fd5b82018360208201111561029757600080fd5b803590602001918460018302840111600160201b831117156102b857600080fd5b91908080601f01602080910402602001604051908101604052809392919081815260200183838082843760009201919091525092955050913592506110fc915050565b005b34801561030957600080fd5b506102fb6004803603602081101561032057600080fd5b5035611156565b34801561033357600080fd5b5061035b6004803603602081101561034a57600080fd5b50356001600160e01b03191661141b565b604080519115158252519081900360200190f35b34801561037b57600080fd5b5061038461143e565b6040805160208082528351818301528351919283929083019185019080838360005b838110156103be5781810151838201526020016103a6565b50505050905090810190601f1680156103eb5780820380516001836020036101000a031916815260200191505b509250505060405180910390f35b34801561040557600080fd5b506104236004803603602081101561041c57600080fd5b50356114d5565b604080516001600160a01b039092168252519081900360200190f35b34801561044b57600080fd5b506102fb6004803603604081101561046257600080fd5b506001600160a01b038135169060200135611537565b610384600480360360a081101561048e57600080fd5b6001600160a01b038235169190810190604081016020820135600160201b8111156104b857600080fd5b8201836020820111156104ca57600080fd5b803590602001918460018302840111600160201b831117156104eb57600080fd5b91908080601f016020809104026020016040519081016040528093929190818152602001838380828437600092019190915250929550508235935050506020810135906040013560ff16611612565b34801561054657600080fd5b50610384611921565b34801561055b57600080fd5b506102fb6004803603602081101561057257600080fd5b50356001600160a01b031661193e565b34801561058e57600080fd5b506105976119db565b60408051918252519081900360200190f35b3480156105b557600080fd5b506105976119ec565b3480156105ca57600080fd5b506102fb600480360360608110156105e157600080fd5b506001600160a01b038135811691602081013590911690604001356119f3565b34801561060d57600080fd5b506105976004803603602081101561062457600080fd5b5035611a4a565b34801561063757600080fd5b506105976004803603602081101561064e57600080fd5b50356001600160a01b0316611a5f565b34801561066a57600080fd5b506102fb6004803603604081101561068157600080fd5b50803590602001356001600160a01b0316611a7b565b3480156106a357600080fd5b50610597600480360360408110156106ba57600080fd5b506001600160a01b038135169060200135611ade565b3480156106dc57600080fd5b50610597611b09565b3480156106f157600080fd5b506102fb6004803603604081101561070857600080fd5b50803590602001356001600160a01b0316611b0d565b34801561072a57600080fd5b506102fb611b6e565b34801561073f57600080fd5b506107666004803603602081101561075657600080fd5b50356001600160a01b0316611bcd565b6040805192835290151560208301528051918290030190f35b34801561078b57600080fd5b506102fb600480360360608110156107a257600080fd5b506001600160a01b03813581169160208101359091169060400135611e16565b3480156107ce57600080fd5b506102fb600480360360208110156107e557600080fd5b5035611e31565b3480156107f857600080fd5b506105976004803603602081101561080f57600080fd5b5035611e83565b34801561082257600080fd5b5061035b611e99565b34801561083757600080fd5b506102fb611ea2565b34801561084c57600080fd5b506104236004803603602081101561086357600080fd5b5035611f62565b34801561087657600080fd5b506102fb6004803603602081101561088d57600080fd5b50356001600160a01b0316611f8a565b3480156108a957600080fd5b50610384611fd4565b3480156108be57600080fd5b50610597600480360360208110156108d557600080fd5b50356001600160a01b0316612035565b3480156108f157600080fd5b506102fb61209d565b34801561090657600080fd5b506104236120fa565b34801561091b57600080fd5b506104236004803603604081101561093257600080fd5b5080359060200135612102565b34801561094b57600080fd5b506102fb6004803603602081101561096257600080fd5b503561211a565b34801561097557600080fd5b5061035b6004803603604081101561098c57600080fd5b50803590602001356001600160a01b031661219e565b3480156109ae57600080fd5b506102fb600480360360208110156109c557600080fd5b810190602081018135600160201b8111156109df57600080fd5b8201836020820111156109f157600080fd5b803590602001918460018302840111600160201b83111715610a1257600080fd5b91908080601f0160208091040260200160405190810160405280939291908181526020018383808284376000920191909152509295506121b6945050505050565b348015610a5f57600080fd5b506103846122af565b348015610a7457600080fd5b50610597612310565b348015610a8957600080fd5b506102fb60048036036040811015610aa057600080fd5b506001600160a01b0381351690602001351515612315565b348015610ac457600080fd5b506102fb60048036036080811015610adb57600080fd5b810190602081018135600160201b811115610af557600080fd5b820183602082011115610b0757600080fd5b803590602001918460018302840111600160201b83111715610b2857600080fd5b91908080601f0160208091040260200160405190810160405280939291908181526020018383808284376000920191909152509295949360208101935035915050600160201b811115610b7a57600080fd5b820183602082011115610b8c57600080fd5b803590602001918460018302840111600160201b83111715610bad57600080fd5b91908080601f0160208091040260200160405190810160405280939291908181526020018383808284376000920191909152509295949360208101935035915050600160201b811115610bff57600080fd5b820183602082011115610c1157600080fd5b803590602001918460018302840111600160201b83111715610c3257600080fd5b91908080601f0160208091040260200160405190810160405280939291908181526020018383808284376000920191909152509295949360208101935035915050600160201b811115610c8457600080fd5b820183602082011115610c9657600080fd5b803590602001918460018302840111600160201b83111715610cb757600080fd5b91908080601f016020809104026020016040519081016040528093929190818152602001838380828437600092019190915250929550612416945050505050565b348015610d0457600080fd5b506102fb60048036036060811015610d1b57600080fd5b810190602081018135600160201b811115610d3557600080fd5b820183602082011115610d4757600080fd5b803590602001918460018302840111600160201b83111715610d6857600080fd5b91908080601f0160208091040260200160405190810160405280939291908181526020018383808284376000920191909152509295949360208101935035915050600160201b811115610dba57600080fd5b820183602082011115610dcc57600080fd5b803590602001918460018302840111600160201b83111715610ded57600080fd5b91908080601f0160208091040260200160405190810160405280939291908181526020018383808284376000920191909152509295949360208101935035915050600160201b811115610e3f57600080fd5b820183602082011115610e5157600080fd5b803590602001918460018302840111600160201b83111715610e7257600080fd5b91908080601f01602080910402602001604051908101604052809392919081815260200183838082843760009201919091525092955061256f945050505050565b348015610ebf57600080fd5b506102fb60048036036080811015610ed657600080fd5b6001600160a01b03823581169260208101359091169160408201359190810190608081016060820135600160201b811115610f1057600080fd5b820183602082011115610f2257600080fd5b803590602001918460018302840111600160201b83111715610f4357600080fd5b91908080601f01602080910402602001604051908101604052809392919081815260200183838082843760009201919091525092955061261f945050505050565b348015610f9057600080fd5b5061038460048036036020811015610fa757600080fd5b5035612677565b348015610fba57600080fd5b5061038460048036036020811015610fd157600080fd5b503561278c565b348015610fe457600080fd5b5061059760048036036020811015610ffb57600080fd5b5035612a33565b34801561100e57600080fd5b506102fb6004803603602081101561102557600080fd5b5035612a4a565b34801561103857600080fd5b50610597612ace565b34801561104d57600080fd5b506102fb6004803603604081101561106457600080fd5b50803590602001356001600160a01b0316612ae0565b34801561108657600080fd5b50610597612b39565b610597600480360360208110156110a557600080fd5b5035612b4b565b3480156110b857600080fd5b50610384612eba565b3480156110cd57600080fd5b5061035b600480360360408110156110e457600080fd5b506001600160a01b0381358116916020013516612f1c565b61110e6000611109612f4a565b61219e565b6111495760405162461bcd60e51b8152600401808060200182810382526029815260200180614d716029913960400191505060405180910390fd5b61115282612f54565b5050565b61115e611e99565b156111ab576040805162461bcd60e51b815260206004820152601860248201527713595d18560e881d9bdd19481dda1a5b19481c185d5cd95960421b604482015290519081900360640190fd5b600081815261019d602052604090205460ff1615611210576040805162461bcd60e51b815260206004820152601d60248201527f4d657461583a20617274776f726b20616c7265616479206d696e746564000000604482015290519081900360640190fd5b6101975461019354600160201b90910463ffffffff16116112625760405162461bcd60e51b8152600401808060200182810382526022815260200180614d9a6022913960400191505060405180910390fd5b6101975460ff1661019a6000611276612f4a565b6001600160a01b0316815260208101919091526040016000205460ff16106112e0576040805162461bcd60e51b815260206004820152601860248201527713595d18560e881b585e081d9bdd195cc81c995858da195960421b604482015290519081900360640190fd5b6101975462010000900461ffff16811061132b5760405162461bcd60e51b8152600401808060200182810382526023815260200180614f2d6023913960400191505060405180910390fd5b8061019e6000611339612f4a565b6001600160a01b03166001600160a01b0316815260200190815260200160002061019a6000611366612f4a565b6001600160a01b0316815260208101919091526040016000205460ff16600a811061138d57fe5b0155600161019a600061139e612f4a565b6001600160a01b031681526020810191909152604001600020805460ff19811660ff91821693909301169190911790557f10a412bf229fbac2408912cb271b8ff9eb39eb72da91dd0c8accab0fb1011135816113f8612f4a565b604080519283526001600160a01b0390911660208301528051918290030190a150565b6001600160e01b0319811660009081526065602052604090205460ff165b919050565b609c8054604080516020601f60026000196101006001881615020190951694909404938401819004810282018101909252828152606093909290918301828280156114ca5780601f1061149f576101008083540402835291602001916114ca565b820191906000526020600020905b8154815290600101906020018083116114ad57829003601f168201915b505050505090505b90565b60006114e082612f67565b61151b5760405162461bcd60e51b815260040180806020018281038252602c815260200180614e20602c913960400191505060405180910390fd5b506000908152609a60205260409020546001600160a01b031690565b600061154282611f62565b9050806001600160a01b0316836001600160a01b031614156115955760405162461bcd60e51b8152600401808060200182810382526021815260200180614f706021913960400191505060405180910390fd5b806001600160a01b03166115a7612f4a565b6001600160a01b031614806115c857506115c8816115c3612f4a565b612f1c565b6116035760405162461bcd60e51b8152600401808060200182810382526038815260200180614c826038913960400191505060405180910390fd5b61160d8383612f74565b505050565b606061161c61493a565b50604080516060810182526001600160a01b038816600081815261019260209081529084902054835282015290810186905261165b8782878787612fe2565b6116965760405162461bcd60e51b8152600401808060200182810382526021815260200180614ebd6021913960400191505060405180910390fd5b6001600160a01b038716600090815261019260205260409020546116bb9060016130bc565b6101926000896001600160a01b03166001600160a01b03168152602001908152602001600020819055507f5845892132946850460bff5a0083f71031bc5bf9aadcd40f1de79423eac9b10b87338860405180846001600160a01b03168152602001836001600160a01b0316815260200180602001828103825283818151815260200191508051906020019080838360005b8381101561176457818101518382015260200161174c565b50505050905090810190601f1680156117915780820380516001836020036101000a031916815260200191505b5094505050505060405180910390a160006060306001600160a01b0316888a6040516020018083805190602001908083835b602083106117e25780518252601f1990920191602091820191016117c3565b6001836020036101000a038019825116818451168082178552505050505050905001826001600160a01b031660601b8152601401925050506040516020818303038152906040526040518082805190602001908083835b602083106118585780518252601f199092019160209182019101611839565b6001836020036101000a0380198251168184511680821785525050505050509050019150506000604051808303816000865af19150503d80600081146118ba576040519150601f19603f3d011682016040523d82523d6000602084013e6118bf565b606091505b509150915081611915576040805162461bcd60e51b815260206004820152601c60248201527b119d5b98dd1a5bdb8818d85b1b081b9bdd081cdd58d8d95cdcd99d5b60221b604482015290519081900360640190fd5b98975050505050505050565b604051806040016040528060018152602001603160f81b81525081565b61194b6000611109612f4a565b6119865760405162461bcd60e51b8152600401808060200182810382526036815260200180614ce46036913960400191505060405180910390fd5b61019980546001600160a01b0383166001600160a01b0319909116811790915560408051918252517fbd008fb0ebbf5fb324683b337c917c9f3a2ec86d3192e0def0a7fa2d8d019f199181900360200190a150565b60006119e76098613114565b905090565b6101915490565b611a046119fe612f4a565b8261311f565b611a3f5760405162461bcd60e51b8152600401808060200182810382526031815260200180614f916031913960400191505060405180910390fd5b61160d8383836131c3565b60009081526033602052604090206002015490565b6001600160a01b03166000908152610192602052604090205490565b600082815260336020526040902060020154611a9990611109612f4a565b611ad45760405162461bcd60e51b815260040180806020018281038252602f815260200180614a85602f913960400191505060405180910390fd5b61115282826132fd565b6001600160a01b0382166000908152609760205260408120611b009083613366565b90505b92915050565b4690565b611b15612f4a565b6001600160a01b0316816001600160a01b031614611b645760405162461bcd60e51b815260040180806020018281038252602f8152602001806150b7602f913960400191505060405180910390fd5b6111528282613372565b611b88600080516020614e4c833981519152611109612f4a565b611bc35760405162461bcd60e51b81526004018080602001828103825260408152602001806150246040913960400191505060405180910390fd5b611bcb6133db565b565b6001600160a01b038116600090815261019f60205260408120548190819060ff16611d4f576101995460408051627eeac760e11b81526001600160a01b03878116600483015260006024830181905292519293169162fdd58e91604480820192602092909190829003018186803b158015611c4757600080fd5b505afa158015611c5b573d6000803e3d6000fd5b505050506040513d6020811015611c7157600080fd5b50511115611c8157506001611d4f565b60005b6001600160a01b038516600090815261019a602052604090205460ff16811015611d4d576001600160a01b038516600081815261019e6020526040812061019c919084600a8110611cd157fe5b015481526020810191909152604001600020546001600160a01b03161415611cf857611d45565b6001600160a01b038516600090815261019e6020526040812061019d919083600a8110611d2157fe5b0154815260208101919091526040016000205460ff1615611d455760019150611d4d565b600101611c84565b505b61019554600090611d6290611388613479565b9050610190610193541015611d875761019554611d8090600a613479565b9050611dfa565b610320610193541015611da35761019554611d80906019613479565b6103b6610193541015611dbf5761019554611d8090602d613479565b6103de610193541015611ddb5761019554611d80906055613479565b610400610193541015611dfa5761019554611df7906096613479565b90505b81611e0d57611e0a816002613479565b90505b92509050915091565b61160d8383836040518060200160405280600081525061261f565b611e3c6119fe612f4a565b611e775760405162461bcd60e51b8152600401808060200182810382526030815260200180614ff46030913960400191505060405180910390fd5b611e80816134d2565b50565b600080611e9160988461358d565b509392505050565b60fb5460ff1690565b611eaf6000611109612f4a565b611eea5760405162461bcd60e51b8152600401808060200182810382526027815260200180614c066027913960400191505060405180910390fd5b47611ef3612f4a565b6001600160a01b03166108fc829081150290604051600060405180830381858888f19350505050158015611f2b573d6000803e3d6000fd5b506040805182815290517f5b6b431d4476a211bb7d41c20d1aab9ae2321deee0d20be3d9fc9b1093fa6e3d9181900360200190a150565b6000611b0382604051806060016040528060298152602001614d1a60299139609891906135a9565b6040805162461bcd60e51b815260206004820152601a60248201527913595d18560e881b5a5b9d081a5cc81b9bdd08185b1b1bddd95960321b604482015290519081900360640190fd5b609f8054604080516020601f60026000196101006001881615020190951694909404938401819004810282018101909252828152606093909290918301828280156114ca5780601f1061149f576101008083540402835291602001916114ca565b60006001600160a01b03821661207c5760405162461bcd60e51b815260040180806020018281038252602a815260200180614cba602a913960400191505060405180910390fd5b6001600160a01b0382166000908152609760205260409020611b0390613114565b6120b7600080516020614e4c833981519152611109612f4a565b6120f25760405162461bcd60e51b815260040180806020018281038252603e815260200180614b78603e913960400191505060405180910390fd5b611bcb6135c0565b60006119e781805b6000828152603360205260408120611b009083613366565b6121276000611109612f4a565b6121625760405162461bcd60e51b8152600401808060200182810382526028815260200180614e956028913960400191505060405180910390fd5b6101958190556040805182815290517f6bfd5e75539a9d2626425a2e2922675256b219fe546d63dad56011759b9a2f669181900360200190a150565b6000828152603360205260408120611b009083613641565b6121c36000611109612f4a565b6121fe5760405162461bcd60e51b8152600401808060200182810382526032815260200180614fc26032913960400191505060405180910390fd5b805161221290610198906020840190614964565b507faf497693a87db12ca89131a31edbb3db4bb5702dfb284e8ae7427d185f09112d816040518080602001828103825283818151815260200191508051906020019080838360005b8381101561227257818101518382015260200161225a565b50505050905090810190601f16801561229f5780820380516001836020036101000a031916815260200191505b509250505060405180910390a150565b609d8054604080516020601f60026000196101006001881615020190951694909404938401819004810282018101909252828152606093909290918301828280156114ca5780601f1061149f576101008083540402835291602001916114ca565b600081565b61231d612f4a565b6001600160a01b0316826001600160a01b0316141561237f576040805162461bcd60e51b815260206004820152601960248201527822a9219b99189d1030b8383937bb32903a379031b0b63632b960391b604482015290519081900360640190fd5b80609b600061238c612f4a565b6001600160a01b03908116825260208083019390935260409182016000908120918716808252919093529120805460ff1916921515929092179091556123d0612f4a565b6001600160a01b03167f17307eab39ab6107e8899845ad3d59bd9653f200f220920489ca2b5937696c318360405180821515815260200191505060405180910390a35050565b600054610100900460ff168061242f575061242f613656565b8061243d575060005460ff16155b6124785760405162461bcd60e51b815260040180806020018281038252602e815260200180614d43602e913960400191505060405180910390fd5b600054610100900460ff161580156124a3576000805460ff1961ff0019909116610100171660011790555b6124ae85858561365c565b6124b78261372e565b600061019355426124d36124ce8262278d006130bc565b612a4a565b6124e4674563918244f4000061211a565b6101978054611000600a60ff199092169190911763ffff0000191663100000001763ffffffff60201b19166001602a1b1761ff001916179055604080518082019091526018815277697066733a2f2f636f6e74726163742d6d6574616461746160401b6020820152612555906121b6565b508015612568576000805461ff00191690555b5050505050565b600054610100900460ff16806125885750612588613656565b80612596575060005460ff16155b6125d15760405162461bcd60e51b815260040180806020018281038252602e815260200180614d43602e913960400191505060405180910390fd5b600054610100900460ff161580156125fc576000805460ff1961ff0019909116610100171660011790555b61260784848461365c565b8015612619576000805461ff00191690555b50505050565b61263061262a612f4a565b8361311f565b61266b5760405162461bcd60e51b8152600401808060200182810382526031815260200180614f916031913960400191505060405180910390fd5b612619848484846137d9565b60606101975461ffff620100009091041682106126c55760405162461bcd60e51b8152600401808060200182810382526023815260200180614f2d6023913960400191505060405180910390fd5b6126cd611fd4565b6126d68361382b565b6040516020018083805190602001908083835b602083106127085780518252601f1990920191602091820191016126e9565b51815160209384036101000a600019018019909216911617905285519190930192850191508083835b602083106127505780518252601f199092019160209182019101612731565b6001836020036101000a038019825116818451168082178552505050505050905001925050506040516020818303038152906040529050919050565b606061279782612f67565b6127d25760405162461bcd60e51b815260040180806020018281038252602f815260200180614ede602f913960400191505060405180910390fd5b6000828152609e602090815260409182902080548351601f60026000196101006001861615020190931692909204918201849004840281018401909452808452606093928301828280156128675780601f1061283c57610100808354040283529160200191612867565b820191906000526020600020905b81548152906001019060200180831161284a57829003601f168201915b5050609f5493945050505060026000196101006001841615020190911604612890579050611439565b80511561296157609f8160405160200180838054600181600116156101000203166002900480156128f85780601f106128d65761010080835404028352918201916128f8565b820191906000526020600020905b8154815290600101906020018083116128e4575b5050825160208401908083835b602083106129245780518252601f199092019160209182019101612905565b6001836020036101000a03801982511681845116808217855250505050505090500192505050604051602081830303815290604052915050611439565b609f61296c8461382b565b60405160200180838054600181600116156101000203166002900480156129ca5780601f106129a85761010080835404028352918201916129ca565b820191906000526020600020905b8154815290600101906020018083116129b6575b5050825160208401908083835b602083106129f65780518252601f1990920191602091820191016129d7565b6001836020036101000a03801982511681845116808217855250505050505090500192505050604051602081830303815290604052915050919050565b6000818152603360205260408120611b0390613114565b612a576000611109612f4a565b612a925760405162461bcd60e51b815260040180806020018281038252602e815260200180615089602e913960400191505060405180910390fd5b6101948190556040805182815290517ff6cbe4843a1228f3f8095dc5d4e39525672af82ed99e5420176aea34e04fe1d99181900360200190a150565b600080516020614f0d83398151915281565b600082815260336020526040902060020154612afe90611109612f4a565b611b645760405162461bcd60e51b8152600401808060200182810382526030815260200180614c2d6030913960400191505060405180910390fd5b600080516020614e4c83398151915281565b6000612b55613905565b80341015612b945760405162461bcd60e51b8152600401808060200182810382526021815260200180614dde6021913960400191505060405180910390fd5b612b9c611e99565b15612bee576040805162461bcd60e51b815260206004820152601e60248201527f4d657461583a20746f6b656e206d696e74207768696c65207061757365640000604482015290519081900360640190fd5b610194544210612c42576040805162461bcd60e51b815260206004820152601a60248201527913595d18560e881b5a5b9d1a5b99c8195d995b9d08195b99195960321b604482015290519081900360640190fd5b600083815261019d602052604090205460ff1615612c915760405162461bcd60e51b81526004018080602001828103825260258152602001806150646025913960400191505060405180910390fd5b6101975461019354600160201b90910463ffffffff1611612ce35760405162461bcd60e51b8152600401808060200182810382526022815260200180614d9a6022913960400191505060405180910390fd5b6101975462010000900461ffff168310612d2e5760405162461bcd60e51b8152600401808060200182810382526023815260200180614f2d6023913960400191505060405180910390fd5b61019754610100900460ff1661019b6000612d47612f4a565b6001600160a01b0316815260208101919091526040016000205460ff1610612db1576040805162461bcd60e51b815260206004820152601860248201527713595d18560e881b585e081b5a5b9d1cc81c995858da195960421b604482015290519081900360640190fd5b61019354612dc09060016130bc565b61019355612dcc612f4a565b600084815261019c6020908152604080832080546001600160a01b0319166001600160a01b03959095169490941790935561019d9052908120805460ff191660019081179091559061019b90612e20612f4a565b6001600160a01b031681526020810191909152604001600020805460ff19811660ff9182169390930116919091179055612e61612e5b612f4a565b84613962565b82915080341115612eb457612e74612f4a565b6001600160a01b03166108fc612e8a3484613a7d565b6040518115909202916000818181858888f19350505050158015612eb2573d6000803e3d6000fd5b505b50919050565b6101988054604080516020601f60026000196101006001881615020190951694909404938401819004810282018101909252828152606093909290918301828280156114ca5780601f1061149f576101008083540402835291602001916114ca565b6001600160a01b039182166000908152609b6020908152604080832093909416825291909152205460ff1690565b60006119e7613abf565b805161115290609f906020840190614964565b6000611b03609883613b1c565b6000818152609a6020526040902080546001600160a01b0319166001600160a01b0384169081179091558190612fa982611f62565b6001600160a01b03167f8c5be1e5ebec7d5bd14f71427d1e84f3dd0314c0f7b2291e5b200ac8c7c3b92560405160405180910390a45050565b60006001600160a01b0386166130295760405162461bcd60e51b8152600401808060200182810382526025815260200180614c5d6025913960400191505060405180910390fd5b600161303c61303787613b28565b613bab565b83868660405160008152602001604052604051808581526020018460ff1681526020018381526020018281526020019450505050506020604051602081039080840390855afa158015613093573d6000803e3d6000fd5b505050602060405103516001600160a01b0316866001600160a01b031614905095945050505050565b600082820183811015611b00576040805162461bcd60e51b815260206004820152601b60248201527a536166654d6174683a206164646974696f6e206f766572666c6f7760281b604482015290519081900360640190fd5b6000611b0382613bf7565b600061312a82612f67565b6131655760405162461bcd60e51b815260040180806020018281038252602c815260200180614bda602c913960400191505060405180910390fd5b600061317083611f62565b9050806001600160a01b0316846001600160a01b031614806131ab5750836001600160a01b03166131a0846114d5565b6001600160a01b0316145b806131bb57506131bb8185612f1c565b949350505050565b826001600160a01b03166131d682611f62565b6001600160a01b03161461321b5760405162461bcd60e51b8152600401808060200182810382526029815260200180614e6c6029913960400191505060405180910390fd5b6001600160a01b0382166132605760405162461bcd60e51b8152600401808060200182810382526024815260200180614bb66024913960400191505060405180910390fd5b61326b838383613bfb565b613276600082612f74565b6001600160a01b03831660009081526097602052604090206132989082613c06565b506001600160a01b03821660009081526097602052604090206132bb9082613c12565b506132c860988284613c1e565b5080826001600160a01b0316846001600160a01b0316600080516020614f5083398151915260405160405180910390a4505050565b60008281526033602052604090206133159082613c34565b1561115257613322612f4a565b6001600160a01b0316816001600160a01b0316837f2f8788117e7eff1d82e926ec794901d17c78024a50270940304540a733656f0d60405160405180910390a45050565b6000611b008383613c49565b600082815260336020526040902061338a9082613cad565b1561115257613397612f4a565b6001600160a01b0316816001600160a01b0316837ff6391f5c32d9c69d2a47ea670b442974b53935d1edc7fd64eb21e047a839171b60405160405180910390a45050565b60fb5460ff16613429576040805162461bcd60e51b815260206004820152601460248201527314185d5cd8589b194e881b9bdd081c185d5cd95960621b604482015290519081900360640190fd5b60fb805460ff191690557f5db9ee0a495bf2e6ff9c91a7834c1ba4fdd244a5e8aa4e537bd38aeae4b073aa61345c612f4a565b604080516001600160a01b039092168252519081900360200190a1565b60008261348857506000611b03565b8282028284828161349557fe5b0414611b005760405162461bcd60e51b8152600401808060200182810382526021815260200180614dff6021913960400191505060405180910390fd5b60006134dd82611f62565b90506134eb81600084613bfb565b6134f6600083612f74565b6000828152609e60205260409020546002600019610100600184161502019091160415613534576000828152609e60205260408120613534916149e2565b6001600160a01b03811660009081526097602052604090206135569083613c06565b50613562609883613cc2565b5060405182906000906001600160a01b03841690600080516020614f50833981519152908390a45050565b600080808061359c8686613cce565b9097909650945050505050565b60006135b6848484613d49565b90505b9392505050565b60fb5460ff161561360b576040805162461bcd60e51b815260206004820152601060248201526f14185d5cd8589b194e881c185d5cd95960821b604482015290519081900360640190fd5b60fb805460ff191660011790557f62e78cea01bee320cd4e420270b5ea74000d11b0c9f74754ebdbfc544b05a25861345c612f4a565b6000611b00836001600160a01b038416613e13565b303b1590565b600054610100900460ff16806136755750613675613656565b80613683575060005460ff16155b6136be5760405162461bcd60e51b815260040180806020018281038252602e815260200180614d43602e913960400191505060405180910390fd5b600054610100900460ff161580156136e9576000805460ff1961ff0019909116610100171660011790555b6136f1613e2b565b6136f9613e2b565b613701613ecc565b61370b8484613f69565b613713613e2b565b61371b614064565b613723613e2b565b61260784848461410f565b600054610100900460ff16806137475750613747613656565b80613755575060005460ff16155b6137905760405162461bcd60e51b815260040180806020018281038252602e815260200180614d43602e913960400191505060405180910390fd5b600054610100900460ff161580156137bb576000805460ff1961ff0019909116610100171660011790555b6137c4826141eb565b8015611152576000805461ff00191690555050565b6137e48484846131c3565b6137f0848484846142ae565b6126195760405162461bcd60e51b8152600401808060200182810382526032815260200180614ab46032913960400191505060405180910390fd5b60608161385057506040805180820190915260018152600360fc1b6020820152611439565b8160005b811561386857600101600a82049150613854565b6060816001600160401b038111801561388057600080fd5b506040519080825280601f01601f1916602001820160405280156138ab576020820181803683370190505b50859350905060001982015b83156138fc57600a840660300160f81b828280600190039350815181106138da57fe5b60200101906001600160f81b031916908160001a905350600a840493506138b7565b50949350505050565b600080600061391a613915612f4a565b611bcd565b91509150801561395c57600161019f6000613933612f4a565b6001600160a01b031681526020810191909152604001600020805460ff19169115159190911790555b50905090565b6001600160a01b0382166139bd576040805162461bcd60e51b815260206004820181905260248201527f4552433732313a206d696e7420746f20746865207a65726f2061646472657373604482015290519081900360640190fd5b6139c681612f67565b15613a17576040805162461bcd60e51b815260206004820152601c60248201527b115490cdcc8c4e881d1bdad95b88185b1c9958591e481b5a5b9d195960221b604482015290519081900360640190fd5b613a2360008383613bfb565b6001600160a01b0382166000908152609760205260409020613a459082613c12565b50613a5260988284613c1e565b5060405181906001600160a01b03841690600090600080516020614f50833981519152908290a45050565b6000611b0083836040518060400160405280601e81526020017f536166654d6174683a207375627472616374696f6e206f766572666c6f770000815250614416565b600033301415613b175760606000368080601f0160208091040260200160405190810160405280939291908181526020018383808284376000920191909152505050503601516001600160a01b031691506114d29050565b503390565b6000611b008383613e13565b6000604051806080016040528060438152602001614ae660439139805190602001208260000151836020015184604001518051906020012060405160200180858152602001848152602001836001600160a01b03168152602001828152602001945050505050604051602081830303815290604052805190602001209050919050565b6000613bb56119ec565b82604051602001808061190160f01b81525060020183815260200182815260200192505050604051602081830303815290604052805190602001209050919050565b5490565b61160d838383614470565b6000611b0083836144bf565b6000611b008383614585565b60006135b684846001600160a01b0385166145cf565b6000611b00836001600160a01b038416614585565b81546000908210613c8b5760405162461bcd60e51b8152600401808060200182810382526022815260200180614a386022913960400191505060405180910390fd5b826000018281548110613c9a57fe5b9060005260206000200154905092915050565b6000611b00836001600160a01b0384166144bf565b6000611b008383614666565b815460009081908310613d125760405162461bcd60e51b8152600401808060200182810382526022815260200180614dbc6022913960400191505060405180910390fd5b6000846000018481548110613d2357fe5b906000526020600020906002020190508060000154816001015492509250509250929050565b60008281526001840160205260408120548281613de45760405162461bcd60e51b81526004018080602001828103825283818151815260200191508051906020019080838360005b83811015613da9578181015183820152602001613d91565b50505050905090810190601f168015613dd65780820380516001836020036101000a031916815260200191505b509250505060405180910390fd5b50846000016001820381548110613df757fe5b9060005260206000209060020201600101549150509392505050565b60009081526001919091016020526040902054151590565b600054610100900460ff1680613e445750613e44613656565b80613e52575060005460ff16155b613e8d5760405162461bcd60e51b815260040180806020018281038252602e815260200180614d43602e913960400191505060405180910390fd5b600054610100900460ff16158015613eb8576000805460ff1961ff0019909116610100171660011790555b8015611e80576000805461ff001916905550565b600054610100900460ff1680613ee55750613ee5613656565b80613ef3575060005460ff16155b613f2e5760405162461bcd60e51b815260040180806020018281038252602e815260200180614d43602e913960400191505060405180910390fd5b600054610100900460ff16158015613f59576000805460ff1961ff0019909116610100171660011790555b613eb86301ffc9a760e01b61473a565b600054610100900460ff1680613f825750613f82613656565b80613f90575060005460ff16155b613fcb5760405162461bcd60e51b815260040180806020018281038252602e815260200180614d43602e913960400191505060405180910390fd5b600054610100900460ff16158015613ff6576000805460ff1961ff0019909116610100171660011790555b825161400990609c906020860190614964565b50815161401d90609d906020850190614964565b5061402e6380ac58cd60e01b61473a565b61403e635b5e139f60e01b61473a565b61404e63780e9d6360e01b61473a565b801561160d576000805461ff0019169055505050565b600054610100900460ff168061407d575061407d613656565b8061408b575060005460ff16155b6140c65760405162461bcd60e51b815260040180806020018281038252602e815260200180614d43602e913960400191505060405180910390fd5b600054610100900460ff161580156140f1576000805460ff1961ff0019909116610100171660011790555b60fb805460ff191690558015611e80576000805461ff001916905550565b600054610100900460ff16806141285750614128613656565b80614136575060005460ff16155b6141715760405162461bcd60e51b815260040180806020018281038252602e815260200180614d43602e913960400191505060405180910390fd5b600054610100900460ff1615801561419c576000805460ff1961ff0019909116610100171660011790555b6141ae60006141a9612f4a565b611ad4565b6141c8600080516020614f0d8339815191526141a9612f4a565b6141e2600080516020614e4c8339815191526141a9612f4a565b61260782612f54565b6040518060800160405280604f8152602001614b29604f913980516020918201208251838301206040805180820190915260018152603160f81b930192909252907fc89efdaa54c0f20c7adf612882df0950f5a951637e0307cdcb4c672f298b8bc630614256611b09565b60001b60405160200180868152602001858152602001848152602001836001600160a01b0316815260200182815260200195505050505050604051602081830303815290604052805190602001206101918190555050565b60006142c2846001600160a01b03166147bd565b6142ce575060016131bb565b60606143dc630a85bd0160e11b6142e3612f4a565b88878760405160240180856001600160a01b03168152602001846001600160a01b0316815260200183815260200180602001828103825283818151815260200191508051906020019080838360005b8381101561434a578181015183820152602001614332565b50505050905090810190601f1680156143775780820380516001836020036101000a031916815260200191505b5095505050505050604051602081830303815290604052906001600160e01b0319166020820180516001600160e01b038381831617835250505050604051806060016040528060328152602001614ab4603291396001600160a01b03881691906147c3565b905060008180602001905160208110156143f557600080fd5b50516001600160e01b031916630a85bd0160e11b1492505050949350505050565b600081848411156144685760405162461bcd60e51b8152602060048201818152835160248401528351909283926044909101919085019080838360008315613da9578181015183820152602001613d91565b505050900390565b61447b83838361160d565b614483611e99565b1561160d5760405162461bcd60e51b815260040180806020018281038252602b815260200180614a5a602b913960400191505060405180910390fd5b6000818152600183016020526040812054801561457b57835460001980830191908101906000908790839081106144f257fe5b906000526020600020015490508087600001848154811061450f57fe5b60009182526020808320909101929092558281526001898101909252604090209084019055865487908061453f57fe5b60019003818190600052602060002001600090559055866001016000878152602001908152602001600020600090556001945050505050611b03565b6000915050611b03565b60006145918383613e13565b6145c757508154600181810184556000848152602080822090930184905584548482528286019093526040902091909155611b03565b506000611b03565b6000828152600184016020526040812054806146345750506040805180820182528381526020808201848152865460018181018955600089815284812095516002909302909501918255915190820155865486845281880190925292909120556135b9565b8285600001600183038154811061464757fe5b90600052602060002090600202016001018190555060009150506135b9565b6000818152600183016020526040812054801561457b578354600019808301919081019060009087908390811061469957fe5b90600052602060002090600202019050808760000184815481106146b957fe5b6000918252602080832084546002909302019182556001938401549184019190915583548252898301905260409020908401905586548790806146f857fe5b6000828152602080822060026000199094019384020182815560019081018390559290935588815289820190925260408220919091559450611b039350505050565b6001600160e01b03198082161415614798576040805162461bcd60e51b815260206004820152601c60248201527b115490cc4d8d4e881a5b9d985b1a59081a5b9d195c999858d9481a5960221b604482015290519081900360640190fd5b6001600160e01b0319166000908152606560205260409020805460ff19166001179055565b3b151590565b60606135b6848460008560606147d8856147bd565b614829576040805162461bcd60e51b815260206004820152601d60248201527f416464726573733a2063616c6c20746f206e6f6e2d636f6e7472616374000000604482015290519081900360640190fd5b60006060866001600160a01b031685876040518082805190602001908083835b602083106148685780518252601f199092019160209182019101614849565b6001836020036101000a03801982511681845116808217855250505050505090500191505060006040518083038185875af1925050503d80600081146148ca576040519150601f19603f3d011682016040523d82523d6000602084013e6148cf565b606091505b509150915081156148e35791506131bb9050565b8051156148f35780518082602001fd5b60405162461bcd60e51b8152602060048201818152865160248401528651879391928392604401919085019080838360008315613da9578181015183820152602001613d91565b60405180606001604052806000815260200160006001600160a01b03168152602001606081525090565b828054600181600116156101000203166002900490600052602060002090601f016020900481019282601f106149a557805160ff19168380011785556149d2565b828001600101855582156149d2579182015b828111156149d25782518255916020019190600101906149b7565b506149de929150614a22565b5090565b50805460018160011615610100020316600290046000825580601f10614a085750611e80565b601f016020900490600052602060002090810190611e8091905b5b808211156149de5760008155600101614a2356fe456e756d657261626c655365743a20696e646578206f7574206f6620626f756e64734552433732315061757361626c653a20746f6b656e207472616e73666572207768696c6520706175736564416363657373436f6e74726f6c3a2073656e646572206d75737420626520616e2061646d696e20746f206772616e744552433732313a207472616e7366657220746f206e6f6e20455243373231526563656976657220696d706c656d656e7465724d6574615472616e73616374696f6e2875696e74323536206e6f6e63652c616464726573732066726f6d2c62797465732066756e6374696f6e5369676e617475726529454950373132446f6d61696e28737472696e67206e616d652c737472696e672076657273696f6e2c6164647265737320766572696679696e67436f6e74726163742c627974657333322073616c74294552433732315072657365744d696e7465725061757365724175746f49643a206d75737420686176652070617573657220726f6c6520746f2070617573654552433732313a207472616e7366657220746f20746865207a65726f20616464726573734552433732313a206f70657261746f7220717565727920666f72206e6f6e6578697374656e7420746f6b656e4d657461583a206d75737420686176652061646d696e20726f6c6520746f207769746864726177416363657373436f6e74726f6c3a2073656e646572206d75737420626520616e2061646d696e20746f207265766f6b654e61746976654d6574615472616e73616374696f6e3a20494e56414c49445f5349474e45524552433732313a20617070726f76652063616c6c6572206973206e6f74206f776e6572206e6f7220617070726f76656420666f7220616c6c4552433732313a2062616c616e636520717565727920666f7220746865207a65726f20616464726573734d657461583a206d75737420686176652061646d696e20726f6c6520746f2073657420535020636f6e747261637420616464726573734552433732313a206f776e657220717565727920666f72206e6f6e6578697374656e7420746f6b656e496e697469616c697a61626c653a20636f6e747261637420697320616c726561647920696e697469616c697a65644d657461583a206d75737420686176652061646d696e20726f6c6520746f206368616e6765207572694d657461583a20636f6e7472616374206d696e74206c696d69742072656163686564456e756d657261626c654d61703a20696e646578206f7574206f6620626f756e64734d657461583a204e6f7420656e6f7567682045746865722070726f76696465642e536166654d6174683a206d756c7469706c69636174696f6e206f766572666c6f774552433732313a20617070726f76656420717565727920666f72206e6f6e6578697374656e7420746f6b656e65d7a28e3265b37a6474929f336521b332c1681b933f6cb9f3376673440d862a4552433732313a207472616e73666572206f6620746f6b656e2074686174206973206e6f74206f776e4d657461583a206d75737420686176652061646d696e20726f6c6520746f207365742070726963655369676e657220616e64207369676e617475726520646f206e6f74206d617463684552433732314d657461646174613a2055524920717565727920666f72206e6f6e6578697374656e7420746f6b656e9f2df0fed2c77648de5860a4cc508cd0818c85b8b8a1ab4ceeef8d981c8956a64d657461583a206d657461766572736520696420646f6573206e6f7420657869737473ddf252ad1be2c89b69c2b068fc378daa952ba7f163c4a11628f55a4df523b3ef4552433732313a20617070726f76616c20746f2063757272656e74206f776e65724552433732313a207472616e736665722063616c6c6572206973206e6f74206f776e6572206e6f7220617070726f7665644d657461583a206d75737420686176652061646d696e20726f6c6520746f206368616e676520636f6e7472616374207572694552433732314275726e61626c653a2063616c6c6572206973206e6f74206f776e6572206e6f7220617070726f7665644552433732315072657365744d696e7465725061757365724175746f49643a206d75737420686176652070617573657220726f6c6520746f20756e70617573654d657461583a206d657461766572736520696420697320616c7265616479206d696e7465644d657461583a206d75737420686176652061646d696e20726f6c6520746f206368616e676520656e642074696d65416363657373436f6e74726f6c3a2063616e206f6e6c792072656e6f756e636520726f6c657320666f722073656c66a2646970667358221220a461356ea6bd7986529e536738d92a5366aa59f09d9017bbb744e9086a6445a464736f6c634300060c0033",
  "immutableReferences": {},
  "source": "// SPDX-License-Identifier: MIT\npragma solidity ^0.6.0;\n\nimport \"@openzeppelin/contracts-upgradeable/presets/ERC721PresetMinterPauserAutoIdUpgradeable.sol\";\nimport \"@openzeppelin/contracts-upgradeable/math/SafeMathUpgradeable.sol\";\n\nimport {NativeMetaTransaction} from \"../../common/NativeMetaTransaction.sol\";\nimport {ContextMixin} from \"../../common/ContextMixin.sol\";\n\nimport { SoapPunkCollectiblesChild } from \"./SoupPunk_child.sol\";\n\ncontract MetaX is\n    ERC721PresetMinterPauserAutoIdUpgradeable,\n    NativeMetaTransaction,\n    ContextMixin\n{\n    using SafeMathUpgradeable for uint256;\n\n    uint256 private _tokenCount;\n    //uint256 private _startTime;\n    uint256 private _endTime;\n    //\n    uint256 private _multPrice;\n    uint256 private _refundByCatch;\n    //\n    uint8 private _maxVotes;\n    uint8 private _maxMintByAccount;\n    //\n    uint16 private _totalArtworkAmount;\n    uint32 private _totalTokenAmount;\n    //\n    string private _contractURI;\n\n    SoapPunkCollectiblesChild private _spContract;\n\n    // Mapping from address to vote count\n    mapping (address => uint8) private _accountVoteCount;\n\n    // Mapping from address to amount of mints\n    mapping (address => uint8) private _accountMintCount;\n\n    // Mapping from token id to minter\n    mapping (uint256 => address) private _artworkMinterAccount;\n\n    // Mapping from token id to boolean -> true if arwork is minted\n    mapping (uint256 => bool) private _artworkMinted;\n\n    // Mapping from address to votes array\n    mapping (address => uint256[10]) private _accountVoteArtwork;\n\n    // Mapping from address to boolean -> true if refund was used\n    mapping (address => bool) private _accountRefundUsed;\n\n\n    function initialize(string memory name, string memory symbol, string memory baseURI, string memory domainSeparator) initializer public {\n        __ERC721PresetMinterPauserAutoId_init(name, symbol, baseURI);\n\n        _initializeEIP712(domainSeparator);\n        _tokenCount = 0;\n\n        uint256 _startTime = block.timestamp;\n        setEndTime(_startTime.add(2592000));\n        setPrice(5000000000000000000); // 5 Matic\n\n        _maxVotes = 10;\n\n        _totalArtworkAmount = 4096;\n        _totalTokenAmount = 1024;\n\n        _maxMintByAccount = 16;\n\n        setContractURI(\"ipfs://contract-metadata\");\n    }\n\n\n    /**\n    * @dev the URL to a JSON file with contract metadata for OpenSea.\n    */\n    function contractURI() public view returns (string memory) {\n        return _contractURI;\n    }\n\n    /**\n    * @dev Returns the address of the current owner, OpenSea uses this information.\n    */\n    function owner() public view returns (address) {\n        return getRoleMember(DEFAULT_ADMIN_ROLE, 0);\n    }\n\n    function setBaseURI(string memory baseURI, uint256 id) external {\n    //function setBaseURI(string memory baseURI) external {\n        require(hasRole(DEFAULT_ADMIN_ROLE, _msgSender()), \"MetaX: must have admin role to change uri\");\n\n        _setBaseURI(baseURI);\n    }\n\n    function setContractURI(string memory __contractURI) public {\n        require(hasRole(DEFAULT_ADMIN_ROLE, _msgSender()), \"MetaX: must have admin role to change contract uri\");\n\n        _contractURI = __contractURI;\n\n        ContractURISet(__contractURI);\n    }\n\n    function setPrice(uint256 multPrice) public {\n        require(hasRole(DEFAULT_ADMIN_ROLE, _msgSender()), \"MetaX: must have admin role to set price\");\n\n        _multPrice = multPrice;\n\n        emit PriceSet(multPrice);\n    }\n\n    function setEndTime(uint256 endTime) public {\n        require(hasRole(DEFAULT_ADMIN_ROLE, _msgSender()), \"MetaX: must have admin role to change end time\");\n\n        _endTime = endTime;\n\n        emit EndTimeSet(endTime);\n    }\n\n    function getMetaverse(uint256 id) public view returns(string memory) {\n        require(id >= 0 && id < _totalArtworkAmount, \"MetaX: metaverse id does not exists\");\n\n        return string(abi.encodePacked(baseURI(), id.toString()));\n    }\n\n    /*function tokenURI(uint256 id) public view override {\n        return string(abi.encodePacked(baseURI(), id.toString(), \".json\"));\n    }*/\n\n    function mint(address to) public override {\n        require(false, \"MetaX: mint is not allowed\");\n        // Nobody can call mint()\n    }\n\n    function setSPContract(address spAddress) external {\n        require(hasRole(DEFAULT_ADMIN_ROLE, _msgSender()), \"MetaX: must have admin role to set SP contract address\");\n\n        _spContract = SoapPunkCollectiblesChild(spAddress);\n\n        SPAddressSet(spAddress);\n    }\n\n    function getPrice(address for_account) public view returns(uint256 price, bool use_refund) {\n        //\n        bool willUseRefund = false;\n        // If user didn't used the refund\n        if (!_accountRefundUsed[for_account]) {\n            // Check if owns Soaps\n            if (_spContract.balanceOf(for_account, 0)>0) {\n                willUseRefund = true;\n            } else {\n                // Iterate over votes\n                for (uint i=0; i<_accountVoteCount[for_account]; i++) {\n                    if (_artworkMinterAccount[_accountVoteArtwork[for_account][i]] == for_account) {\n                        continue;\n                    }\n                    // If the voted artwork was minted\n                    if (_artworkMinted[_accountVoteArtwork[for_account][i]]) {\n                        willUseRefund = true;\n                        break;\n                    }\n                }\n            }\n        }\n        //\n        uint256 tmpPrice = _multPrice.mul(5000);\n        if (_tokenCount < 400) {\n            tmpPrice = _multPrice.mul(10);\n        } else if (_tokenCount < 800) {\n            tmpPrice = _multPrice.mul(25);\n        } else if (_tokenCount < 950) {\n            tmpPrice = _multPrice.mul(45);\n        } else if (_tokenCount < 990) {\n            tmpPrice = _multPrice.mul(85);\n        } else if (_tokenCount < 1024) {\n            tmpPrice = _multPrice.mul(150);\n        }\n        if (!willUseRefund) {\n            // Price not cut in half\n            tmpPrice = tmpPrice.mul(2);\n        }\n        //\n        return (tmpPrice, willUseRefund);\n    }\n\n\n    /**\n    * @dev Get price, setting the refund as used.\n    */\n    function _getPrice() private returns(uint256 price) {\n        (uint256 tmpPrice, bool willUseRefund) = getPrice(_msgSender());\n\n        // Mark refund as used\n        if (willUseRefund) {\n            _accountRefundUsed[_msgSender()] = true;\n        }\n\n        return tmpPrice;\n    }\n\n    /**\n    * @dev Casts a vote on an artwork.\n    * @param id ID of the artwork\n    */\n    function vote(uint256 id) external {\n        // To keep gas low it will not check duplicated votes\n        require(!paused(), \"MetaX: vote while paused\");\n        require(!_artworkMinted[id], \"MetaX: artwork already minted\");\n        require(_tokenCount < _totalTokenAmount, \"MetaX: contract mint limit reached\");\n        require(_accountVoteCount[_msgSender()] < _maxVotes, \"MetaX: max votes reached\");\n        require(id >= 0 && id < _totalArtworkAmount, \"MetaX: metaverse id does not exists\");\n\n        _accountVoteArtwork[ _msgSender() ][ _accountVoteCount[_msgSender()] ] = id;\n        _accountVoteCount[_msgSender()] += 1;\n\n        emit Vote(id, _msgSender());\n    }\n\n\n    /**\n    * @dev Mints a new artwork from an id.\n    * @param id ID of the artwork\n    */\n    function mintArtwork(uint256 id)\n        external\n        payable\n        price(_getPrice())\n        returns(uint256 index)\n    {\n        require(!paused(), \"MetaX: token mint while paused\");\n        require(block.timestamp < _endTime, \"MetaX: minting event ended\");\n        require(!_artworkMinted[id], \"MetaX: metaverse id is already minted\");\n        require(_tokenCount < _totalTokenAmount, \"MetaX: contract mint limit reached\");\n        require(id >= 0 && id < _totalArtworkAmount, \"MetaX: metaverse id does not exists\");\n        require(_accountMintCount[_msgSender()] < _maxMintByAccount, \"MetaX: max mints reached\");\n\n        _tokenCount = _tokenCount.add(1);\n\n        _artworkMinterAccount[id] = _msgSender();\n\n        _artworkMinted[id] = true;\n\n        _accountMintCount[_msgSender()] += 1;\n\n        _mint(_msgSender(), id);\n\n        return id;\n    }\n\n\n    /*\n    * @dev Remove all Ether from the contract, and transfer it to account of owner\n    */\n    function withdrawBalance() external {\n        require(hasRole(DEFAULT_ADMIN_ROLE, _msgSender()), \"MetaX: must have admin role to withdraw\");\n        uint256 balance = address(this).balance;\n        _msgSender().transfer(balance);\n\n        emit Withdraw(balance);\n    }\n\n\n    // Modifiers\n\n\n    /**\n    * @dev modifier Associete fee with a function call. If the caller sent too much, then is refunded, but only after the function body.\n    * This was dangerous before Solidity version 0.4.0, where it was possible to skip the part after `_;`.\n    * @param _amount - ether needed to call the function\n    */\n    modifier price(uint256 _amount) {\n        require(msg.value >= _amount, \"MetaX: Not enough Ether provided.\");\n        _;\n        if (msg.value > _amount) {\n            _msgSender().transfer(msg.value.sub(_amount));\n        }\n        // Split earnings\n\n    }\n\n\n    // Events\n\n\n    /**\n    * @dev Emits when owner take ETH out of contract\n    * @param balance - amount of ETh sent out from contract\n    */\n    event Withdraw(uint256 balance);\n\n    /**\n    * @dev Emits when a new price is set\n    * @param multPrice - a multiplier for the price\n    */\n    event PriceSet(uint256 multPrice);\n\n    /**\n    * @dev Emits when an artwork is voted\n    * @param id - an artwork id\n    * @param account - an account address\n    */\n    event Vote(uint256 id, address account);\n\n    /**\n    * @dev Emits when the SoapPunk contract address is set\n    * @param spAddress - an address\n    */\n    event SPAddressSet(address spAddress);\n\n    /**\n    * @dev Emits when the contract URI is set\n    * @param contractURI - an URL to the metadata\n    */\n    event ContractURISet(string contractURI);\n\n    /**\n    * @dev Emits when the end time is set\n    * @param endTime - the event end time\n    */\n    event EndTimeSet(uint256 endTime);\n\n\n    // This is to support Native meta transactions\n    // never use msg.sender directly, use _msgSender() instead\n    function _msgSender()\n        internal\n        override\n        view\n        returns (address payable sender)\n        {\n            return ContextMixin.msgSender();\n    }\n}\n",
  "sourcePath": "/home/gabriel/Documentos/Trabajo/Eibriel/Proyectos/Decentraland/GoldRush/SPContracts/matic/contracts/MetaX.sol",
  "compiler": {
    "name": "solc",
    "version": "0.6.12+commit.27d51765.Emscripten.clang"
  },
  "schemaVersion": "3.3.2",
  "updatedAt": "2021-03-22T22:31:40.684Z",
  "networkType": "ethereum",
  "devdoc": {
    "events": {
      "ContractURISet(string)": {
        "details": "Emits when the contract URI is set",
        "params": {
          "contractURI": "- an URL to the metadata"
        }
      },
      "EndTimeSet(uint256)": {
        "details": "Emits when the end time is set",
        "params": {
          "endTime": "- the event end time"
        }
      },
      "PriceSet(uint256)": {
        "details": "Emits when a new price is set",
        "params": {
          "multPrice": "- a multiplier for the price"
        }
      },
      "SPAddressSet(address)": {
        "details": "Emits when the SoapPunk contract address is set",
        "params": {
          "spAddress": "- an address"
        }
      },
      "Vote(uint256,address)": {
        "details": "Emits when an artwork is voted",
        "params": {
          "account": "- an account address",
          "id": "- an artwork id"
        }
      },
      "Withdraw(uint256)": {
        "details": "Emits when owner take ETH out of contract",
        "params": {
          "balance": "- amount of ETh sent out from contract"
        }
      }
    },
    "kind": "dev",
    "methods": {
      "approve(address,uint256)": {
        "details": "See {IERC721-approve}."
      },
      "balanceOf(address)": {
        "details": "See {IERC721-balanceOf}."
      },
      "baseURI()": {
        "details": "Returns the base URI set via {_setBaseURI}. This will be automatically added as a prefix in {tokenURI} to each token's URI, or to the token ID if no specific URI is set for that token ID."
      },
      "burn(uint256)": {
        "details": "Burns `tokenId`. See {ERC721-_burn}. Requirements: - The caller must own `tokenId` or be an approved operator."
      },
      "contractURI()": {
        "details": "the URL to a JSON file with contract metadata for OpenSea."
      },
      "getApproved(uint256)": {
        "details": "See {IERC721-getApproved}."
      },
      "getRoleAdmin(bytes32)": {
        "details": "Returns the admin role that controls `role`. See {grantRole} and {revokeRole}. To change a role's admin, use {_setRoleAdmin}."
      },
      "getRoleMember(bytes32,uint256)": {
        "details": "Returns one of the accounts that have `role`. `index` must be a value between 0 and {getRoleMemberCount}, non-inclusive. Role bearers are not sorted in any particular way, and their ordering may change at any point. WARNING: When using {getRoleMember} and {getRoleMemberCount}, make sure you perform all queries on the same block. See the following https://forum.openzeppelin.com/t/iterating-over-elements-on-enumerableset-in-openzeppelin-contracts/2296[forum post] for more information."
      },
      "getRoleMemberCount(bytes32)": {
        "details": "Returns the number of accounts that have `role`. Can be used together with {getRoleMember} to enumerate all bearers of a role."
      },
      "grantRole(bytes32,address)": {
        "details": "Grants `role` to `account`. If `account` had not been already granted `role`, emits a {RoleGranted} event. Requirements: - the caller must have ``role``'s admin role."
      },
      "hasRole(bytes32,address)": {
        "details": "Returns `true` if `account` has been granted `role`."
      },
      "isApprovedForAll(address,address)": {
        "details": "See {IERC721-isApprovedForAll}."
      },
      "mint(address)": {
        "details": "Creates a new token for `to`. Its token ID will be automatically assigned (and available on the emitted {IERC721-Transfer} event), and the token URI autogenerated based on the base URI passed at construction. See {ERC721-_mint}. Requirements: - the caller must have the `MINTER_ROLE`."
      },
      "mintArtwork(uint256)": {
        "details": "Mints a new artwork from an id.",
        "params": {
          "id": "ID of the artwork"
        }
      },
      "name()": {
        "details": "See {IERC721Metadata-name}."
      },
      "owner()": {
        "details": "Returns the address of the current owner, OpenSea uses this information."
      },
      "ownerOf(uint256)": {
        "details": "See {IERC721-ownerOf}."
      },
      "pause()": {
        "details": "Pauses all token transfers. See {ERC721Pausable} and {Pausable-_pause}. Requirements: - the caller must have the `PAUSER_ROLE`."
      },
      "paused()": {
        "details": "Returns true if the contract is paused, and false otherwise."
      },
      "renounceRole(bytes32,address)": {
        "details": "Revokes `role` from the calling account. Roles are often managed via {grantRole} and {revokeRole}: this function's purpose is to provide a mechanism for accounts to lose their privileges if they are compromised (such as when a trusted device is misplaced). If the calling account had been granted `role`, emits a {RoleRevoked} event. Requirements: - the caller must be `account`."
      },
      "revokeRole(bytes32,address)": {
        "details": "Revokes `role` from `account`. If `account` had been granted `role`, emits a {RoleRevoked} event. Requirements: - the caller must have ``role``'s admin role."
      },
      "safeTransferFrom(address,address,uint256)": {
        "details": "See {IERC721-safeTransferFrom}."
      },
      "safeTransferFrom(address,address,uint256,bytes)": {
        "details": "See {IERC721-safeTransferFrom}."
      },
      "setApprovalForAll(address,bool)": {
        "details": "See {IERC721-setApprovalForAll}."
      },
      "supportsInterface(bytes4)": {
        "details": "See {IERC165-supportsInterface}. Time complexity O(1), guaranteed to always use less than 30 000 gas."
      },
      "symbol()": {
        "details": "See {IERC721Metadata-symbol}."
      },
      "tokenByIndex(uint256)": {
        "details": "See {IERC721Enumerable-tokenByIndex}."
      },
      "tokenOfOwnerByIndex(address,uint256)": {
        "details": "See {IERC721Enumerable-tokenOfOwnerByIndex}."
      },
      "tokenURI(uint256)": {
        "details": "See {IERC721Metadata-tokenURI}."
      },
      "totalSupply()": {
        "details": "See {IERC721Enumerable-totalSupply}."
      },
      "transferFrom(address,address,uint256)": {
        "details": "See {IERC721-transferFrom}."
      },
      "unpause()": {
        "details": "Unpauses all token transfers. See {ERC721Pausable} and {Pausable-_unpause}. Requirements: - the caller must have the `PAUSER_ROLE`."
      },
      "vote(uint256)": {
        "details": "Casts a vote on an artwork.",
        "params": {
          "id": "ID of the artwork"
        }
      }
    },
    "version": 1
  },
  "userdoc": {
    "kind": "user",
    "methods": {},
    "version": 1
  }
}