{
  "contractName": "SoapPunkCollectiblesChildV2",
  "abi": [
    {
      "anonymous": false,
      "inputs": [
        {
          "indexed": true,
          "internalType": "address",
          "name": "account",
          "type": "address"
        },
        {
          "indexed": true,
          "internalType": "address",
          "name": "operator",
          "type": "address"
        },
        {
          "indexed": false,
          "internalType": "bool",
          "name": "approved",
          "type": "bool"
        }
      ],
      "name": "ApprovalForAll",
      "type": "event"
    },
    {
      "anonymous": false,
      "inputs": [
        {
          "indexed": false,
          "internalType": "address",
          "name": "userAddress",
          "type": "address"
        },
        {
          "indexed": false,
          "internalType": "address payable",
          "name": "relayerAddress",
          "type": "address"
        },
        {
          "indexed": false,
          "internalType": "bytes",
          "name": "functionSignature",
          "type": "bytes"
        }
      ],
      "name": "MetaTransactionExecuted",
      "type": "event"
    },
    {
      "anonymous": false,
      "inputs": [
        {
          "indexed": false,
          "internalType": "address",
          "name": "account",
          "type": "address"
        }
      ],
      "name": "Paused",
      "type": "event"
    },
    {
      "anonymous": false,
      "inputs": [
        {
          "indexed": true,
          "internalType": "bytes32",
          "name": "role",
          "type": "bytes32"
        },
        {
          "indexed": true,
          "internalType": "bytes32",
          "name": "previousAdminRole",
          "type": "bytes32"
        },
        {
          "indexed": true,
          "internalType": "bytes32",
          "name": "newAdminRole",
          "type": "bytes32"
        }
      ],
      "name": "RoleAdminChanged",
      "type": "event"
    },
    {
      "anonymous": false,
      "inputs": [
        {
          "indexed": true,
          "internalType": "bytes32",
          "name": "role",
          "type": "bytes32"
        },
        {
          "indexed": true,
          "internalType": "address",
          "name": "account",
          "type": "address"
        },
        {
          "indexed": true,
          "internalType": "address",
          "name": "sender",
          "type": "address"
        }
      ],
      "name": "RoleGranted",
      "type": "event"
    },
    {
      "anonymous": false,
      "inputs": [
        {
          "indexed": true,
          "internalType": "bytes32",
          "name": "role",
          "type": "bytes32"
        },
        {
          "indexed": true,
          "internalType": "address",
          "name": "account",
          "type": "address"
        },
        {
          "indexed": true,
          "internalType": "address",
          "name": "sender",
          "type": "address"
        }
      ],
      "name": "RoleRevoked",
      "type": "event"
    },
    {
      "anonymous": false,
      "inputs": [
        {
          "indexed": true,
          "internalType": "address",
          "name": "operator",
          "type": "address"
        },
        {
          "indexed": true,
          "internalType": "address",
          "name": "from",
          "type": "address"
        },
        {
          "indexed": true,
          "internalType": "address",
          "name": "to",
          "type": "address"
        },
        {
          "indexed": false,
          "internalType": "uint256[]",
          "name": "ids",
          "type": "uint256[]"
        },
        {
          "indexed": false,
          "internalType": "uint256[]",
          "name": "values",
          "type": "uint256[]"
        }
      ],
      "name": "TransferBatch",
      "type": "event"
    },
    {
      "anonymous": false,
      "inputs": [
        {
          "indexed": true,
          "internalType": "address",
          "name": "operator",
          "type": "address"
        },
        {
          "indexed": true,
          "internalType": "address",
          "name": "from",
          "type": "address"
        },
        {
          "indexed": true,
          "internalType": "address",
          "name": "to",
          "type": "address"
        },
        {
          "indexed": false,
          "internalType": "uint256",
          "name": "id",
          "type": "uint256"
        },
        {
          "indexed": false,
          "internalType": "uint256",
          "name": "value",
          "type": "uint256"
        }
      ],
      "name": "TransferSingle",
      "type": "event"
    },
    {
      "anonymous": false,
      "inputs": [
        {
          "indexed": false,
          "internalType": "string",
          "name": "value",
          "type": "string"
        },
        {
          "indexed": true,
          "internalType": "uint256",
          "name": "id",
          "type": "uint256"
        }
      ],
      "name": "URI",
      "type": "event"
    },
    {
      "anonymous": false,
      "inputs": [
        {
          "indexed": false,
          "internalType": "address",
          "name": "account",
          "type": "address"
        }
      ],
      "name": "Unpaused",
      "type": "event"
    },
    {
      "inputs": [],
      "name": "DEFAULT_ADMIN_ROLE",
      "outputs": [
        {
          "internalType": "bytes32",
          "name": "",
          "type": "bytes32"
        }
      ],
      "stateMutability": "view",
      "type": "function"
    },
    {
      "inputs": [],
      "name": "DEPOSITOR_ROLE",
      "outputs": [
        {
          "internalType": "bytes32",
          "name": "",
          "type": "bytes32"
        }
      ],
      "stateMutability": "view",
      "type": "function"
    },
    {
      "inputs": [],
      "name": "ERC712_VERSION",
      "outputs": [
        {
          "internalType": "string",
          "name": "",
          "type": "string"
        }
      ],
      "stateMutability": "view",
      "type": "function"
    },
    {
      "inputs": [],
      "name": "MINTER_ROLE",
      "outputs": [
        {
          "internalType": "bytes32",
          "name": "",
          "type": "bytes32"
        }
      ],
      "stateMutability": "view",
      "type": "function"
    },
    {
      "inputs": [],
      "name": "PAUSER_ROLE",
      "outputs": [
        {
          "internalType": "bytes32",
          "name": "",
          "type": "bytes32"
        }
      ],
      "stateMutability": "view",
      "type": "function"
    },
    {
      "inputs": [
        {
          "internalType": "address",
          "name": "account",
          "type": "address"
        },
        {
          "internalType": "uint256",
          "name": "id",
          "type": "uint256"
        }
      ],
      "name": "balanceOf",
      "outputs": [
        {
          "internalType": "uint256",
          "name": "",
          "type": "uint256"
        }
      ],
      "stateMutability": "view",
      "type": "function"
    },
    {
      "inputs": [
        {
          "internalType": "address[]",
          "name": "accounts",
          "type": "address[]"
        },
        {
          "internalType": "uint256[]",
          "name": "ids",
          "type": "uint256[]"
        }
      ],
      "name": "balanceOfBatch",
      "outputs": [
        {
          "internalType": "uint256[]",
          "name": "",
          "type": "uint256[]"
        }
      ],
      "stateMutability": "view",
      "type": "function"
    },
    {
      "inputs": [
        {
          "internalType": "address",
          "name": "userAddress",
          "type": "address"
        },
        {
          "internalType": "bytes",
          "name": "functionSignature",
          "type": "bytes"
        },
        {
          "internalType": "bytes32",
          "name": "sigR",
          "type": "bytes32"
        },
        {
          "internalType": "bytes32",
          "name": "sigS",
          "type": "bytes32"
        },
        {
          "internalType": "uint8",
          "name": "sigV",
          "type": "uint8"
        }
      ],
      "name": "executeMetaTransaction",
      "outputs": [
        {
          "internalType": "bytes",
          "name": "",
          "type": "bytes"
        }
      ],
      "stateMutability": "payable",
      "type": "function"
    },
    {
      "inputs": [],
      "name": "getChainId",
      "outputs": [
        {
          "internalType": "uint256",
          "name": "",
          "type": "uint256"
        }
      ],
      "stateMutability": "pure",
      "type": "function"
    },
    {
      "inputs": [],
      "name": "getDomainSeperator",
      "outputs": [
        {
          "internalType": "bytes32",
          "name": "",
          "type": "bytes32"
        }
      ],
      "stateMutability": "view",
      "type": "function"
    },
    {
      "inputs": [
        {
          "internalType": "address",
          "name": "user",
          "type": "address"
        }
      ],
      "name": "getNonce",
      "outputs": [
        {
          "internalType": "uint256",
          "name": "nonce",
          "type": "uint256"
        }
      ],
      "stateMutability": "view",
      "type": "function"
    },
    {
      "inputs": [
        {
          "internalType": "bytes32",
          "name": "role",
          "type": "bytes32"
        }
      ],
      "name": "getRoleAdmin",
      "outputs": [
        {
          "internalType": "bytes32",
          "name": "",
          "type": "bytes32"
        }
      ],
      "stateMutability": "view",
      "type": "function"
    },
    {
      "inputs": [
        {
          "internalType": "bytes32",
          "name": "role",
          "type": "bytes32"
        },
        {
          "internalType": "uint256",
          "name": "index",
          "type": "uint256"
        }
      ],
      "name": "getRoleMember",
      "outputs": [
        {
          "internalType": "address",
          "name": "",
          "type": "address"
        }
      ],
      "stateMutability": "view",
      "type": "function"
    },
    {
      "inputs": [
        {
          "internalType": "bytes32",
          "name": "role",
          "type": "bytes32"
        }
      ],
      "name": "getRoleMemberCount",
      "outputs": [
        {
          "internalType": "uint256",
          "name": "",
          "type": "uint256"
        }
      ],
      "stateMutability": "view",
      "type": "function"
    },
    {
      "inputs": [
        {
          "internalType": "bytes32",
          "name": "role",
          "type": "bytes32"
        },
        {
          "internalType": "address",
          "name": "account",
          "type": "address"
        }
      ],
      "name": "grantRole",
      "outputs": [],
      "stateMutability": "nonpayable",
      "type": "function"
    },
    {
      "inputs": [
        {
          "internalType": "bytes32",
          "name": "role",
          "type": "bytes32"
        },
        {
          "internalType": "address",
          "name": "account",
          "type": "address"
        }
      ],
      "name": "hasRole",
      "outputs": [
        {
          "internalType": "bool",
          "name": "",
          "type": "bool"
        }
      ],
      "stateMutability": "view",
      "type": "function"
    },
    {
      "inputs": [
        {
          "internalType": "address",
          "name": "account",
          "type": "address"
        },
        {
          "internalType": "address",
          "name": "operator",
          "type": "address"
        }
      ],
      "name": "isApprovedForAll",
      "outputs": [
        {
          "internalType": "bool",
          "name": "",
          "type": "bool"
        }
      ],
      "stateMutability": "view",
      "type": "function"
    },
    {
      "inputs": [],
      "name": "pause",
      "outputs": [],
      "stateMutability": "nonpayable",
      "type": "function"
    },
    {
      "inputs": [],
      "name": "paused",
      "outputs": [
        {
          "internalType": "bool",
          "name": "",
          "type": "bool"
        }
      ],
      "stateMutability": "view",
      "type": "function"
    },
    {
      "inputs": [
        {
          "internalType": "bytes32",
          "name": "role",
          "type": "bytes32"
        },
        {
          "internalType": "address",
          "name": "account",
          "type": "address"
        }
      ],
      "name": "renounceRole",
      "outputs": [],
      "stateMutability": "nonpayable",
      "type": "function"
    },
    {
      "inputs": [
        {
          "internalType": "bytes32",
          "name": "role",
          "type": "bytes32"
        },
        {
          "internalType": "address",
          "name": "account",
          "type": "address"
        }
      ],
      "name": "revokeRole",
      "outputs": [],
      "stateMutability": "nonpayable",
      "type": "function"
    },
    {
      "inputs": [
        {
          "internalType": "address",
          "name": "from",
          "type": "address"
        },
        {
          "internalType": "address",
          "name": "to",
          "type": "address"
        },
        {
          "internalType": "uint256[]",
          "name": "ids",
          "type": "uint256[]"
        },
        {
          "internalType": "uint256[]",
          "name": "amounts",
          "type": "uint256[]"
        },
        {
          "internalType": "bytes",
          "name": "data",
          "type": "bytes"
        }
      ],
      "name": "safeBatchTransferFrom",
      "outputs": [],
      "stateMutability": "nonpayable",
      "type": "function"
    },
    {
      "inputs": [
        {
          "internalType": "address",
          "name": "from",
          "type": "address"
        },
        {
          "internalType": "address",
          "name": "to",
          "type": "address"
        },
        {
          "internalType": "uint256",
          "name": "id",
          "type": "uint256"
        },
        {
          "internalType": "uint256",
          "name": "amount",
          "type": "uint256"
        },
        {
          "internalType": "bytes",
          "name": "data",
          "type": "bytes"
        }
      ],
      "name": "safeTransferFrom",
      "outputs": [],
      "stateMutability": "nonpayable",
      "type": "function"
    },
    {
      "inputs": [
        {
          "internalType": "address",
          "name": "operator",
          "type": "address"
        },
        {
          "internalType": "bool",
          "name": "approved",
          "type": "bool"
        }
      ],
      "name": "setApprovalForAll",
      "outputs": [],
      "stateMutability": "nonpayable",
      "type": "function"
    },
    {
      "inputs": [
        {
          "internalType": "bytes4",
          "name": "interfaceId",
          "type": "bytes4"
        }
      ],
      "name": "supportsInterface",
      "outputs": [
        {
          "internalType": "bool",
          "name": "",
          "type": "bool"
        }
      ],
      "stateMutability": "view",
      "type": "function"
    },
    {
      "inputs": [],
      "name": "unpause",
      "outputs": [],
      "stateMutability": "nonpayable",
      "type": "function"
    },
    {
      "inputs": [
        {
          "internalType": "uint256",
          "name": "",
          "type": "uint256"
        }
      ],
      "name": "uri",
      "outputs": [
        {
          "internalType": "string",
          "name": "",
          "type": "string"
        }
      ],
      "stateMutability": "view",
      "type": "function"
    },
    {
      "inputs": [
        {
          "internalType": "uint256",
          "name": "",
          "type": "uint256"
        }
      ],
      "name": "withdrawnTokens",
      "outputs": [
        {
          "internalType": "bool",
          "name": "",
          "type": "bool"
        }
      ],
      "stateMutability": "view",
      "type": "function"
    },
    {
      "inputs": [
        {
          "internalType": "string",
          "name": "newuri",
          "type": "string"
        },
        {
          "internalType": "string",
          "name": "domainSeparator",
          "type": "string"
        },
        {
          "internalType": "address",
          "name": "childChainManager",
          "type": "address"
        }
      ],
      "name": "initialize",
      "outputs": [],
      "stateMutability": "nonpayable",
      "type": "function"
    },
    {
      "inputs": [
        {
          "internalType": "string",
          "name": "uri",
          "type": "string"
        }
      ],
      "name": "initialize",
      "outputs": [],
      "stateMutability": "nonpayable",
      "type": "function"
    },
    {
      "inputs": [
        {
          "internalType": "address",
          "name": "to",
          "type": "address"
        },
        {
          "internalType": "uint256",
          "name": "id",
          "type": "uint256"
        },
        {
          "internalType": "uint256",
          "name": "amount",
          "type": "uint256"
        },
        {
          "internalType": "bytes",
          "name": "data",
          "type": "bytes"
        }
      ],
      "name": "mint",
      "outputs": [],
      "stateMutability": "nonpayable",
      "type": "function"
    },
    {
      "inputs": [
        {
          "internalType": "address",
          "name": "to",
          "type": "address"
        },
        {
          "internalType": "uint256[]",
          "name": "ids",
          "type": "uint256[]"
        },
        {
          "internalType": "uint256[]",
          "name": "amounts",
          "type": "uint256[]"
        },
        {
          "internalType": "bytes",
          "name": "data",
          "type": "bytes"
        }
      ],
      "name": "mintBatch",
      "outputs": [],
      "stateMutability": "nonpayable",
      "type": "function"
    },
    {
      "inputs": [
        {
          "internalType": "address",
          "name": "account",
          "type": "address"
        },
        {
          "internalType": "uint256",
          "name": "id",
          "type": "uint256"
        },
        {
          "internalType": "uint256",
          "name": "value",
          "type": "uint256"
        }
      ],
      "name": "burn",
      "outputs": [],
      "stateMutability": "nonpayable",
      "type": "function"
    },
    {
      "inputs": [
        {
          "internalType": "address",
          "name": "account",
          "type": "address"
        },
        {
          "internalType": "uint256[]",
          "name": "ids",
          "type": "uint256[]"
        },
        {
          "internalType": "uint256[]",
          "name": "values",
          "type": "uint256[]"
        }
      ],
      "name": "burnBatch",
      "outputs": [],
      "stateMutability": "nonpayable",
      "type": "function"
    },
    {
      "inputs": [
        {
          "internalType": "address",
          "name": "user",
          "type": "address"
        },
        {
          "internalType": "bytes",
          "name": "depositData",
          "type": "bytes"
        }
      ],
      "name": "deposit",
      "outputs": [],
      "stateMutability": "nonpayable",
      "type": "function"
    },
    {
      "inputs": [
        {
          "internalType": "uint256",
          "name": "id",
          "type": "uint256"
        },
        {
          "internalType": "uint256",
          "name": "amount",
          "type": "uint256"
        }
      ],
      "name": "withdrawSingle",
      "outputs": [],
      "stateMutability": "nonpayable",
      "type": "function"
    },
    {
      "inputs": [
        {
          "internalType": "uint256[]",
          "name": "ids",
          "type": "uint256[]"
        },
        {
          "internalType": "uint256[]",
          "name": "amounts",
          "type": "uint256[]"
        }
      ],
      "name": "withdrawBatch",
      "outputs": [],
      "stateMutability": "nonpayable",
      "type": "function"
    }
  ],
  "bytecode": "0x608060405234801561001057600080fd5b506144d2806100206000396000f3fe6080604052600436106101a95760003560e01c8062fdd58e146101ae57806301ffc9a7146101f9578063077f224a1461024157806307a974fc146103845780630c53c51c146103ae5780630e89341c146104e55780630f7e59701461050f5780631f7fdffa1461052457806320379ee5146106e95780632262f53f146106fe578063248a9ca31461072e5780632d0335ab146107585780632eb2c2d61461078b5780632f2ff15d146109595780633408e4701461099257806336568abe146109a75780633f4ba83a146109e05780634e1273f4146109f55780635c5fb52114610b755780635c975abb14610c405780636b20c45414610c55578063731133e914610d955780638456cb5914610dee5780639010d07c14610e0357806391d1485414610e4f578063a217fddf14610e88578063a22cb46514610e9d578063a3b0b5a314610ed8578063ca15c87314610eed578063cf2c52cb14610f17578063d539139314610fa2578063d547741f14610fb7578063e63ab1e914610ff0578063e985e9c514611005578063f242432a14611040578063f5298aca14611116578063f62d188814611155575b600080fd5b3480156101ba57600080fd5b506101e7600480360360408110156101d157600080fd5b506001600160a01b038135169060200135611206565b60408051918252519081900360200190f35b34801561020557600080fd5b5061022d6004803603602081101561021c57600080fd5b50356001600160e01b031916611278565b604080519115158252519081900360200190f35b34801561024d57600080fd5b506103826004803603606081101561026457600080fd5b810190602081018135600160201b81111561027e57600080fd5b82018360208201111561029057600080fd5b803590602001918460018302840111600160201b831117156102b157600080fd5b91908080601f0160208091040260200160405190810160405280939291908181526020018383808284376000920191909152509295949360208101935035915050600160201b81111561030357600080fd5b82018360208201111561031557600080fd5b803590602001918460018302840111600160201b8311171561033657600080fd5b91908080601f016020809104026020016040519081016040528093929190818152602001838380828437600092019190915250929550505090356001600160a01b031691506112979050565b005b34801561039057600080fd5b5061022d600480360360208110156103a757600080fd5b503561137b565b610470600480360360a08110156103c457600080fd5b6001600160a01b038235169190810190604081016020820135600160201b8111156103ee57600080fd5b82018360208201111561040057600080fd5b803590602001918460018302840111600160201b8311171561042157600080fd5b91908080601f016020809104026020016040519081016040528093929190818152602001838380828437600092019190915250929550508235935050506020810135906040013560ff16611391565b6040805160208082528351818301528351919283929083019185019080838360005b838110156104aa578181015183820152602001610492565b50505050905090810190601f1680156104d75780820380516001836020036101000a031916815260200191505b509250505060405180910390f35b3480156104f157600080fd5b506104706004803603602081101561050857600080fd5b5035611696565b34801561051b57600080fd5b5061047061172e565b34801561053057600080fd5b506103826004803603608081101561054757600080fd5b6001600160a01b038235169190810190604081016020820135600160201b81111561057157600080fd5b82018360208201111561058357600080fd5b803590602001918460208302840111600160201b831117156105a457600080fd5b9190808060200260200160405190810160405280939291908181526020018383602002808284376000920191909152509295949360208101935035915050600160201b8111156105f357600080fd5b82018360208201111561060557600080fd5b803590602001918460208302840111600160201b8311171561062657600080fd5b9190808060200260200160405190810160405280939291908181526020018383602002808284376000920191909152509295949360208101935035915050600160201b81111561067557600080fd5b82018360208201111561068757600080fd5b803590602001918460018302840111600160201b831117156106a857600080fd5b91908080601f01602080910402602001604051908101604052809392919081815260200183838082843760009201919091525092955061174b945050505050565b3480156106f557600080fd5b506101e7611782565b34801561070a57600080fd5b506103826004803603604081101561072157600080fd5b508035906020013561178a565b34801561073a57600080fd5b506101e76004803603602081101561075157600080fd5b50356117a0565b34801561076457600080fd5b506101e76004803603602081101561077b57600080fd5b50356001600160a01b03166117b5565b34801561079757600080fd5b50610382600480360360a08110156107ae57600080fd5b6001600160a01b038235811692602081013590911691810190606081016040820135600160201b8111156107e157600080fd5b8201836020820111156107f357600080fd5b803590602001918460208302840111600160201b8311171561081457600080fd5b9190808060200260200160405190810160405280939291908181526020018383602002808284376000920191909152509295949360208101935035915050600160201b81111561086357600080fd5b82018360208201111561087557600080fd5b803590602001918460208302840111600160201b8311171561089657600080fd5b9190808060200260200160405190810160405280939291908181526020018383602002808284376000920191909152509295949360208101935035915050600160201b8111156108e557600080fd5b8201836020820111156108f757600080fd5b803590602001918460018302840111600160201b8311171561091857600080fd5b91908080601f0160208091040260200160405190810160405280939291908181526020018383808284376000920191909152509295506117d1945050505050565b34801561096557600080fd5b506103826004803603604081101561097c57600080fd5b50803590602001356001600160a01b0316611ac2565b34801561099e57600080fd5b506101e7611b2a565b3480156109b357600080fd5b50610382600480360360408110156109ca57600080fd5b50803590602001356001600160a01b0316611b2e565b3480156109ec57600080fd5b50610382611b8f565b348015610a0157600080fd5b50610b2560048036036040811015610a1857600080fd5b810190602081018135600160201b811115610a3257600080fd5b820183602082011115610a4457600080fd5b803590602001918460208302840111600160201b83111715610a6557600080fd5b9190808060200260200160405190810160405280939291908181526020018383602002808284376000920191909152509295949360208101935035915050600160201b811115610ab457600080fd5b820183602082011115610ac657600080fd5b803590602001918460208302840111600160201b83111715610ae757600080fd5b919080806020026020016040519081016040528093929190818152602001838360200280828437600092019190915250929550611c00945050505050565b60408051602080825283518183015283519192839290830191858101910280838360005b83811015610b61578181015183820152602001610b49565b505050509050019250505060405180910390f35b348015610b8157600080fd5b5061038260048036036040811015610b9857600080fd5b810190602081018135600160201b811115610bb257600080fd5b820183602082011115610bc457600080fd5b803590602001918460208302840111600160201b83111715610be557600080fd5b919390929091602081019035600160201b811115610c0257600080fd5b820183602082011115610c1457600080fd5b803590602001918460208302840111600160201b83111715610c3557600080fd5b509092509050611d7d565b348015610c4c57600080fd5b5061022d611df2565b348015610c6157600080fd5b5061038260048036036060811015610c7857600080fd5b6001600160a01b038235169190810190604081016020820135600160201b811115610ca257600080fd5b820183602082011115610cb457600080fd5b803590602001918460208302840111600160201b83111715610cd557600080fd5b9190808060200260200160405190810160405280939291908181526020018383602002808284376000920191909152509295949360208101935035915050600160201b811115610d2457600080fd5b820183602082011115610d3657600080fd5b803590602001918460208302840111600160201b83111715610d5757600080fd5b919080806020026020016040519081016040528093929190818152602001838360200280828437600092019190915250929550611dfb945050505050565b348015610da157600080fd5b5061038260048036036080811015610db857600080fd5b6001600160a01b038235169160208101359160408201359190810190608081016060820135600160201b81111561067557600080fd5b348015610dfa57600080fd5b50610382611e32565b348015610e0f57600080fd5b50610e3360048036036040811015610e2657600080fd5b5080359060200135611ea1565b604080516001600160a01b039092168252519081900360200190f35b348015610e5b57600080fd5b5061022d60048036036040811015610e7257600080fd5b50803590602001356001600160a01b0316611ec6565b348015610e9457600080fd5b506101e7611ee4565b348015610ea957600080fd5b5061038260048036036040811015610ec057600080fd5b506001600160a01b0381351690602001351515611ee9565b348015610ee457600080fd5b506101e7611fd8565b348015610ef957600080fd5b506101e760048036036020811015610f1057600080fd5b5035611ffe565b348015610f2357600080fd5b5061038260048036036040811015610f3a57600080fd5b6001600160a01b038235169190810190604081016020820135600160201b811115610f6457600080fd5b820183602082011115610f7657600080fd5b803590602001918460018302840111600160201b83111715610f9757600080fd5b509092509050612015565b348015610fae57600080fd5b506101e761227c565b348015610fc357600080fd5b5061038260048036036040811015610fda57600080fd5b50803590602001356001600160a01b031661229f565b348015610ffc57600080fd5b506101e76122f8565b34801561101157600080fd5b5061022d6004803603604081101561102857600080fd5b506001600160a01b038135811691602001351661231b565b34801561104c57600080fd5b50610382600480360360a081101561106357600080fd5b6001600160a01b03823581169260208101359091169160408201359160608101359181019060a081016080820135600160201b8111156110a257600080fd5b8201836020820111156110b457600080fd5b803590602001918460018302840111600160201b831117156110d557600080fd5b91908080601f016020809104026020016040519081016040528093929190818152602001838380828437600092019190915250929550612349945050505050565b34801561112257600080fd5b506103826004803603606081101561113957600080fd5b506001600160a01b038135169060208101359060400135611dfb565b34801561116157600080fd5b506103826004803603602081101561117857600080fd5b810190602081018135600160201b81111561119257600080fd5b8201836020820111156111a457600080fd5b803590602001918460018302840111600160201b831117156111c557600080fd5b91908080601f016020809104026020016040519081016040528093929190818152602001838380828437600092019190915250929550612508945050505050565b60006001600160a01b03831661124d5760405162461bcd60e51b815260040180806020018281038252602b81526020018061401d602b913960400191505060405180910390fd5b5060008181526097602090815260408083206001600160a01b03861684529091529020545b92915050565b6001600160e01b03191660009081526065602052604090205460ff1690565b600054610100900460ff16806112b057506112b06125b3565b806112be575060005460ff16155b6112f95760405162461bcd60e51b815260040180806020018281038252602e815260200180614252602e913960400191505060405180910390fd5b600054610100900460ff16158015611324576000805460ff1961ff0019909116610100171660011790555b61132d846125b9565b604080516d4445504f5349544f525f524f4c4560901b8152905190819003600e01902061135a9083611b20565b61136383612688565b8015611375576000805461ff00191690555b50505050565b6101936020526000908152604090205460ff1681565b606061139b613e3a565b50604080516060810182526001600160a01b03881660008181526101926020908152908490205483528201529081018690526113da878287878761271e565b6114155760405162461bcd60e51b81526004018080602001828103825260218152602001806143006021913960400191505060405180910390fd5b6001600160a01b0387166000908152610192602052604090205461144090600163ffffffff6127fb16565b6001600160a01b0388166000818152610192602090815260408083209490945583519283523383820181905260609484018581528b51958501959095528a517f5845892132946850460bff5a0083f71031bc5bf9aadcd40f1de79423eac9b10b958d9592948d94919260808501928601918190849084905b838110156114d05781810151838201526020016114b8565b50505050905090810190601f1680156114fd5780820380516001836020036101000a031916815260200191505b5094505050505060405180910390a160006060306001600160a01b0316888a6040516020018083805190602001908083835b6020831061154e5780518252601f19909201916020918201910161152f565b6001836020036101000a038019825116818451168082178552505050505050905001826001600160a01b03166001600160a01b031660601b8152601401925050506040516020818303038152906040526040518082805190602001908083835b602083106115cd5780518252601f1990920191602091820191016115ae565b6001836020036101000a0380198251168184511680821785525050505050509050019150506000604051808303816000865af19150503d806000811461162f576040519150601f19603f3d011682016040523d82523d6000602084013e611634565b606091505b50915091508161168a576040805162461bcd60e51b815260206004820152601c60248201527b119d5b98dd1a5bdb8818d85b1b081b9bdd081cdd58d8d95cdcd99d5b60221b604482015290519081900360640190fd5b98975050505050505050565b60998054604080516020601f60026000196101006001881615020190951694909404938401819004810282018101909252828152606093909290918301828280156117225780601f106116f757610100808354040283529160200191611722565b820191906000526020600020905b81548152906001019060200180831161170557829003601f168201915b50505050509050919050565b604051806040016040528060018152602001603160f81b81525081565b60405162461bcd60e51b81526004018080602001828103825260338152602001806142806033913960400191505060405180910390fd5b610191545b90565b61179c611795612853565b8383612862565b5050565b60009081526033602052604090206002015490565b6001600160a01b03166000908152610192602052604090205490565b81518351146118115760405162461bcd60e51b81526004018080602001828103825260288152602001806144256028913960400191505060405180910390fd5b6001600160a01b0384166118565760405162461bcd60e51b81526004018080602001828103825260258152602001806141fb6025913960400191505060405180910390fd5b61185e612853565b6001600160a01b0316856001600160a01b03161480611889575061188985611884612853565b61231b565b6118c45760405162461bcd60e51b81526004018080602001828103825260328152602001806142206032913960400191505060405180910390fd5b60006118ce612853565b90506118de818787878787612989565b60005b84518110156119e45760008582815181106118f857fe5b60200260200101519050600085838151811061191057fe5b6020026020010151905061197d816040518060600160405280602a81526020016142d6602a91396097600086815260200190815260200160002060008d6001600160a01b03166001600160a01b03168152602001908152602001600020546129979092919063ffffffff16565b60008381526097602090815260408083206001600160a01b038e811685529252808320939093558a16815220546119b490826127fb565b60009283526097602090815260408085206001600160a01b038c16865290915290922091909155506001016118e1565b50846001600160a01b0316866001600160a01b0316826001600160a01b0316600080516020613efd8339815191528787604051808060200180602001838103835285818151815260200191508051906020019060200280838360005b83811015611a58578181015183820152602001611a40565b50505050905001838103825284818151815260200191508051906020019060200280838360005b83811015611a97578181015183820152602001611a7f565b5050505090500194505050505060405180910390a4611aba818787878787612a2e565b505050505050565b600082815260336020526040902060020154611ae590611ae0612853565b611ec6565b611b205760405162461bcd60e51b815260040180806020018281038252602f815260200180613f9b602f913960400191505060405180910390fd5b61179c8282612d6a565b4690565b611b36612853565b6001600160a01b0316816001600160a01b031614611b855760405162461bcd60e51b815260040180806020018281038252602f81526020018061446e602f913960400191505060405180910390fd5b61179c8282612dd9565b604080516a5041555345525f524f4c4560a81b8152905190819003600b019020611bbb90611ae0612853565b611bf65760405162461bcd60e51b815260040180806020018281038252603b81526020018061435f603b913960400191505060405180910390fd5b611bfe612e48565b565b60608151835114611c425760405162461bcd60e51b81526004018080602001828103825260298152602001806143fc6029913960400191505060405180910390fd5b606083516001600160401b0381118015611c5b57600080fd5b50604051908082528060200260200182016040528015611c85578160200160208202803683370190505b50905060005b8451811015611d755760006001600160a01b0316858281518110611cab57fe5b60200260200101516001600160a01b03161415611cf95760405162461bcd60e51b81526004018080602001828103825260318152602001806140486031913960400191505060405180910390fd5b60976000858381518110611d0957fe5b602002602001015181526020019081526020016000206000868381518110611d2d57fe5b60200260200101516001600160a01b03166001600160a01b0316815260200190815260200160002054828281518110611d6257fe5b6020908102919091010152600101611c8b565b509392505050565b611375611d88612853565b85858080602002602001604051908101604052809392919081815260200183836020028082843760009201919091525050604080516020808902828101820190935288825290935088925087918291850190849080828437600092019190915250612ee692505050565b60fb5460ff1690565b60405162461bcd60e51b8152600401808060200182810382526033815260200180613fea6033913960400191505060405180910390fd5b604080516a5041555345525f524f4c4560a81b8152905190819003600b019020611e5e90611ae0612853565b611e995760405162461bcd60e51b815260040180806020018281038252603981526020018061439a6039913960400191505060405180910390fd5b611bfe613142565b6000828152603360205260408120611ebf908363ffffffff6131c316565b9392505050565b6000828152603360205260408120611ebf908363ffffffff6131cf16565b600081565b816001600160a01b0316611efb612853565b6001600160a01b03161415611f415760405162461bcd60e51b81526004018080602001828103825260298152602001806143d36029913960400191505060405180910390fd5b8060986000611f4e612853565b6001600160a01b03908116825260208083019390935260409182016000908120918716808252919093529120805460ff191692151592909217909155611f92612853565b60408051841515815290516001600160a01b0392909216917f17307eab39ab6107e8899845ad3d59bd9653f200f220920489ca2b5937696c319181900360200190a35050565b604080516d4445504f5349544f525f524f4c4560901b8152905190819003600e01902081565b6000818152603360205260408120611272906131e4565b604080516d4445504f5349544f525f524f4c4560901b8152905190819003600e01902061204490611ae0612853565b61207f5760405162461bcd60e51b815260040180806020018281038252603e815260200180614321603e913960400191505060405180910390fd5b60608060608484606081101561209457600080fd5b810190602081018135600160201b8111156120ae57600080fd5b8201836020820111156120c057600080fd5b803590602001918460208302840111600160201b831117156120e157600080fd5b9190808060200260200160405190810160405280939291908181526020018383602002808284376000920191909152509295949360208101935035915050600160201b81111561213057600080fd5b82018360208201111561214257600080fd5b803590602001918460208302840111600160201b8311171561216357600080fd5b9190808060200260200160405190810160405280939291908181526020018383602002808284376000920191909152509295949360208101935035915050600160201b8111156121b257600080fd5b8201836020820111156121c457600080fd5b803590602001918460018302840111600160201b831117156121e557600080fd5b91908080601f016020809104026020016040519081016040528093929190818152602001838380828437600092019190915250979a50959850909650505050506001600160a01b0388161515915061227090505760405162461bcd60e51b81526004018080602001828103825260228152602001806140e06022913960400191505060405180910390fd5b611aba868484846131ef565b604080516a4d494e5445525f524f4c4560a81b8152905190819003600b01902081565b6000828152603360205260409020600201546122bd90611ae0612853565b611b855760405162461bcd60e51b81526004018080602001828103825260308152602001806141a66030913960400191505060405180910390fd5b604080516a5041555345525f524f4c4560a81b8152905190819003600b01902081565b6001600160a01b03918216600090815260986020908152604080832093909416825291909152205460ff1690565b6001600160a01b03841661238e5760405162461bcd60e51b81526004018080602001828103825260258152602001806141fb6025913960400191505060405180910390fd5b612396612853565b6001600160a01b0316856001600160a01b031614806123bc57506123bc85611884612853565b6123f75760405162461bcd60e51b815260040180806020018281038252602981526020018061417d6029913960400191505060405180910390fd5b6000612401612853565b905061242181878761241288613432565b61241b88613432565b87612989565b61246e836040518060600160405280602a81526020016142d6602a913960008781526097602090815260408083206001600160a01b038d168452909152902054919063ffffffff61299716565b60008581526097602090815260408083206001600160a01b038b811685529252808320939093558716815220546124a590846127fb565b60008581526097602090815260408083206001600160a01b03808b168086529184529382902094909455805188815291820187905280518a841693861692600080516020613fca83398151915292908290030190a4611aba818787878787613476565b600054610100900460ff168061252157506125216125b3565b8061252f575060005460ff16155b61256a5760405162461bcd60e51b815260040180806020018281038252602e815260200180614252602e913960400191505060405180910390fd5b600054610100900460ff16158015612595576000805460ff1961ff0019909116610100171660011790555b61259e826125b9565b801561179c576000805461ff00191690555050565b303b1590565b600054610100900460ff16806125d257506125d26125b3565b806125e0575060005460ff16155b61261b5760405162461bcd60e51b815260040180806020018281038252602e815260200180614252602e913960400191505060405180910390fd5b600054610100900460ff16158015612646576000805460ff1961ff0019909116610100171660011790555b61264e613609565b612656613609565b61265e6136ab565b61266782613748565b61266f613609565b6126776137fe565b61267f613609565b61259e826138a9565b600054610100900460ff16806126a157506126a16125b3565b806126af575060005460ff16155b6126ea5760405162461bcd60e51b815260040180806020018281038252602e815260200180614252602e913960400191505060405180910390fd5b600054610100900460ff16158015612715576000805460ff1961ff0019909116610100171660011790555b61259e826139a0565b60006001600160a01b0386166127655760405162461bcd60e51b81526004018080602001828103825260258152602001806141d66025913960400191505060405180910390fd5b600161277861277387613a5d565b613ae9565b83868660405160008152602001604052604051808581526020018460ff1660ff1681526020018381526020018281526020019450505050506020604051602081039080840390855afa1580156127d2573d6000803e3d6000fd5b505050602060405103516001600160a01b0316866001600160a01b031614905095945050505050565b600082820183811015611ebf576040805162461bcd60e51b815260206004820152601b60248201527a536166654d6174683a206164646974696f6e206f766572666c6f7760281b604482015290519081900360640190fd5b600061285d613b35565b905090565b6001600160a01b0383166128a75760405162461bcd60e51b81526004018080602001828103825260238152602001806142b36023913960400191505060405180910390fd5b60006128b1612853565b90506128e1818560006128c387613432565b6128cc87613432565b60405180602001604052806000815250612989565b61292e826040518060600160405280602481526020016140bc6024913960008681526097602090815260408083206001600160a01b038b168452909152902054919063ffffffff61299716565b60008481526097602090815260408083206001600160a01b03808a1680865291845282852095909555815188815292830187905281519394909390861692600080516020613fca83398151915292908290030190a450505050565b611aba868686868686613b92565b60008184841115612a265760405162461bcd60e51b81526004018080602001828103825283818151815260200191508051906020019080838360005b838110156129eb5781810151838201526020016129d3565b50505050905090810190601f168015612a185780820380516001836020036101000a031916815260200191505b509250505060405180910390fd5b505050900390565b612a40846001600160a01b0316613be4565b15611aba57836001600160a01b031663bc197c8187878686866040518663ffffffff1660e01b815260040180866001600160a01b03166001600160a01b03168152602001856001600160a01b03166001600160a01b03168152602001806020018060200180602001848103845287818151815260200191508051906020019060200280838360005b83811015612ae0578181015183820152602001612ac8565b50505050905001848103835286818151815260200191508051906020019060200280838360005b83811015612b1f578181015183820152602001612b07565b50505050905001848103825285818151815260200191508051906020019080838360005b83811015612b5b578181015183820152602001612b43565b50505050905090810190601f168015612b885780820380516001836020036101000a031916815260200191505b5098505050505050505050602060405180830381600087803b158015612bad57600080fd5b505af1925050508015612bd257506040513d6020811015612bcd57600080fd5b505160015b612d12576040516000815260443d1015612bee57506000612c89565b60046000803e60005160e01c6308c379a08114612c0f576000915050612c89565b60043d036004833e81513d60248201116001600160401b0382111715612c3a57600092505050612c89565b80830180516001600160401b03811115612c5b576000945050505050612c89565b8060208301013d8601811115612c7957600095505050505050612c89565b601f01601f191660405250925050505b80612c945750612cdb565b60405162461bcd60e51b81526020600482018181528351602484015283518493919283926044019190850190808383600083156129eb5781810151838201526020016129d3565b60405162461bcd60e51b8152600401808060200182810382526034815260200180613f1d6034913960400191505060405180910390fd5b6001600160e01b0319811663bc197c8160e01b14612d615760405162461bcd60e51b8152600401808060200182810382526028815260200180613f736028913960400191505060405180910390fd5b50505050505050565b6000828152603360205260409020612d88908263ffffffff613bea16565b1561179c57612d95612853565b6001600160a01b0316816001600160a01b0316837f2f8788117e7eff1d82e926ec794901d17c78024a50270940304540a733656f0d60405160405180910390a45050565b6000828152603360205260409020612df7908263ffffffff613bff16565b1561179c57612e04612853565b6001600160a01b0316816001600160a01b0316837ff6391f5c32d9c69d2a47ea670b442974b53935d1edc7fd64eb21e047a839171b60405160405180910390a45050565b60fb5460ff16612e96576040805162461bcd60e51b815260206004820152601460248201527314185d5cd8589b194e881b9bdd081c185d5cd95960621b604482015290519081900360640190fd5b60fb805460ff191690557f5db9ee0a495bf2e6ff9c91a7834c1ba4fdd244a5e8aa4e537bd38aeae4b073aa612ec9612853565b604080516001600160a01b039092168252519081900360200190a1565b6001600160a01b038316612f2b5760405162461bcd60e51b81526004018080602001828103825260238152602001806142b36023913960400191505060405180910390fd5b8051825114612f6b5760405162461bcd60e51b81526004018080602001828103825260288152602001806144256028913960400191505060405180910390fd5b6000612f75612853565b9050612f9581856000868660405180602001604052806000815250612989565b60005b83518110156130735761302a838281518110612fb057fe5b60200260200101516040518060600160405280602481526020016140bc6024913960976000888681518110612fe157fe5b602002602001015181526020019081526020016000206000896001600160a01b03166001600160a01b03168152602001908152602001600020546129979092919063ffffffff16565b6097600086848151811061303a57fe5b602090810291909101810151825281810192909252604090810160009081206001600160a01b038a168252909252902055600101612f98565b5060006001600160a01b0316846001600160a01b0316826001600160a01b0316600080516020613efd8339815191528686604051808060200180602001838103835285818151815260200191508051906020019060200280838360005b838110156130e85781810151838201526020016130d0565b50505050905001838103825284818151815260200191508051906020019060200280838360005b8381101561312757818101518382015260200161310f565b5050505090500194505050505060405180910390a450505050565b60fb5460ff161561318d576040805162461bcd60e51b815260206004820152601060248201526f14185d5cd8589b194e881c185d5cd95960821b604482015290519081900360640190fd5b60fb805460ff191660011790557f62e78cea01bee320cd4e420270b5ea74000d11b0c9f74754ebdbfc544b05a258612ec9612853565b6000611ebf8383613c14565b6000611ebf836001600160a01b038416613c78565b600061127282613c90565b6001600160a01b0384166132345760405162461bcd60e51b815260040180806020018281038252602181526020018061444d6021913960400191505060405180910390fd5b81518351146132745760405162461bcd60e51b81526004018080602001828103825260288152602001806144256028913960400191505060405180910390fd5b600061327e612853565b905061328f81600087878787612989565b60005b84518110156133535761330a609760008784815181106132ae57fe5b602002602001015181526020019081526020016000206000886001600160a01b03166001600160a01b03168152602001908152602001600020548583815181106132f457fe5b60200260200101516127fb90919063ffffffff16565b6097600087848151811061331a57fe5b602090810291909101810151825281810192909252604090810160009081206001600160a01b038b168252909252902055600101613292565b50846001600160a01b031660006001600160a01b0316826001600160a01b0316600080516020613efd8339815191528787604051808060200180602001838103835285818151815260200191508051906020019060200280838360005b838110156133c85781810151838201526020016133b0565b50505050905001838103825284818151815260200191508051906020019060200280838360005b838110156134075781810151838201526020016133ef565b5050505090500194505050505060405180910390a461342b81600087878787612a2e565b5050505050565b60408051600180825281830190925260609182919060208083019080368337019050509050828160008151811061346557fe5b602090810291909101015292915050565b613488846001600160a01b0316613be4565b15611aba57836001600160a01b031663f23a6e6187878686866040518663ffffffff1660e01b815260040180866001600160a01b03166001600160a01b03168152602001856001600160a01b03166001600160a01b0316815260200184815260200183815260200180602001828103825283818151815260200191508051906020019080838360005b83811015613529578181015183820152602001613511565b50505050905090810190601f1680156135565780820380516001836020036101000a031916815260200191505b509650505050505050602060405180830381600087803b15801561357957600080fd5b505af192505050801561359e57506040513d602081101561359957600080fd5b505160015b6135ba576040516000815260443d1015612bee57506000612c89565b6001600160e01b0319811663f23a6e6160e01b14612d615760405162461bcd60e51b8152600401808060200182810382526028815260200180613f736028913960400191505060405180910390fd5b600054610100900460ff168061362257506136226125b3565b80613630575060005460ff16155b61366b5760405162461bcd60e51b815260040180806020018281038252602e815260200180614252602e913960400191505060405180910390fd5b600054610100900460ff16158015613696576000805460ff1961ff0019909116610100171660011790555b80156136a8576000805461ff00191690555b50565b600054610100900460ff16806136c457506136c46125b3565b806136d2575060005460ff16155b61370d5760405162461bcd60e51b815260040180806020018281038252602e815260200180614252602e913960400191505060405180910390fd5b600054610100900460ff16158015613738576000805460ff1961ff0019909116610100171660011790555b6136966301ffc9a760e01b613c94565b600054610100900460ff168061376157506137616125b3565b8061376f575060005460ff16155b6137aa5760405162461bcd60e51b815260040180806020018281038252602e815260200180614252602e913960400191505060405180910390fd5b600054610100900460ff161580156137d5576000805460ff1961ff0019909116610100171660011790555b6137de82613d17565b6137ee636cdb3d1360e11b613c94565b61259e6303a24d0760e21b613c94565b600054610100900460ff168061381757506138176125b3565b80613825575060005460ff16155b6138605760405162461bcd60e51b815260040180806020018281038252602e815260200180614252602e913960400191505060405180910390fd5b600054610100900460ff1615801561388b576000805460ff1961ff0019909116610100171660011790555b60fb805460ff1916905580156136a8576000805461ff001916905550565b600054610100900460ff16806138c257506138c26125b3565b806138d0575060005460ff16155b61390b5760405162461bcd60e51b815260040180806020018281038252602e815260200180614252602e913960400191505060405180910390fd5b600054610100900460ff16158015613936576000805460ff1961ff0019909116610100171660011790555b6139486000613943612853565b611b20565b604080516a4d494e5445525f524f4c4560a81b8152905190819003600b01902061397490613943612853565b604080516a5041555345525f524f4c4560a81b8152905190819003600b01902061259e90613943612853565b6040518060800160405280604f8152602001614102604f913980516020918201208251838301206040805180820190915260018152603160f81b930192909252907fc89efdaa54c0f20c7adf612882df0950f5a951637e0307cdcb4c672f298b8bc630613a0b611b2a565b604080516020808201979097528082019590955260608501939093526001600160a01b03909116608084015260a0808401919091528151808403909101815260c0909201905280519101206101915550565b600060405180608001604052806043815260200161407960439139805190602001208260000151836020015184604001518051906020012060405160200180858152602001848152602001836001600160a01b03166001600160a01b03168152602001828152602001945050505050604051602081830303815290604052805190602001209050919050565b6000613af3611782565b82604051602001808061190160f01b81525060020183815260200182815260200192505050604051602081830303815290604052805190602001209050919050565b600033301415613b8d5760606000368080601f0160208091040260200160405190810160405280939291908181526020018383808284376000920191909152505050503601516001600160a01b031691506117879050565b503390565b613ba0868686868686611aba565b613ba8611df2565b15611aba5760405162461bcd60e51b815260040180806020018281038252602c815260200180614151602c913960400191505060405180910390fd5b3b151590565b6000611ebf836001600160a01b038416613d2a565b6000611ebf836001600160a01b038416613d74565b81546000908210613c565760405162461bcd60e51b8152600401808060200182810382526022815260200180613f516022913960400191505060405180910390fd5b826000018281548110613c6557fe5b9060005260206000200154905092915050565b60009081526001919091016020526040902054151590565b5490565b6001600160e01b03198082161415613cf2576040805162461bcd60e51b815260206004820152601c60248201527b115490cc4d8d4e881a5b9d985b1a59081a5b9d195c999858d9481a5960221b604482015290519081900360640190fd5b6001600160e01b0319166000908152606560205260409020805460ff19166001179055565b805161179c906099906020840190613e64565b6000613d368383613c78565b613d6c57508154600181810184556000848152602080822090930184905584548482528286019093526040902091909155611272565b506000611272565b60008181526001830160205260408120548015613e305783546000198083019190810190600090879083908110613da757fe5b9060005260206000200154905080876000018481548110613dc457fe5b600091825260208083209091019290925582815260018981019092526040902090840190558654879080613df457fe5b60019003818190600052602060002001600090559055866001016000878152602001908152602001600020600090556001945050505050611272565b6000915050611272565b60405180606001604052806000815260200160006001600160a01b03168152602001606081525090565b828054600181600116156101000203166002900490600052602060002090601f016020900481019282601f10613ea557805160ff1916838001178555613ed2565b82800160010185558215613ed2579182015b82811115613ed2578251825591602001919060010190613eb7565b50613ede929150613ee2565b5090565b61178791905b80821115613ede5760008155600101613ee856fe4a39dc06d4c0dbc64b70af90fd698a233a518aa5d07e595d983b8c0526c8f7fb455243313135353a207472616e7366657220746f206e6f6e2045524331313535526563656976657220696d706c656d656e746572456e756d657261626c655365743a20696e646578206f7574206f6620626f756e6473455243313135353a204552433131353552656365697665722072656a656374656420746f6b656e73416363657373436f6e74726f6c3a2073656e646572206d75737420626520616e2061646d696e20746f206772616e74c3d58168c5ae7397731d063d5bbf3d657854427343f4c083240f7aacaa2d0f62536f617050756e6b436f6c6c65637469626c65733a2063616e6e6f74206275726e206f6e206368696c6420636f6e7472616374455243313135353a2062616c616e636520717565727920666f7220746865207a65726f2061646472657373455243313135353a2062617463682062616c616e636520717565727920666f7220746865207a65726f20616464726573734d6574615472616e73616374696f6e2875696e74323536206e6f6e63652c616464726573732066726f6d2c62797465732066756e6374696f6e5369676e617475726529455243313135353a206275726e20616d6f756e7420657863656564732062616c616e63654368696c64455243313135353a20494e56414c49445f4445504f5349545f55534552454950373132446f6d61696e28737472696e67206e616d652c737472696e672076657273696f6e2c6164647265737320766572696679696e67436f6e74726163742c627974657333322073616c7429455243313135355061757361626c653a20746f6b656e207472616e73666572207768696c6520706175736564455243313135353a2063616c6c6572206973206e6f74206f776e6572206e6f7220617070726f766564416363657373436f6e74726f6c3a2073656e646572206d75737420626520616e2061646d696e20746f207265766f6b654e61746976654d6574615472616e73616374696f6e3a20494e56414c49445f5349474e4552455243313135353a207472616e7366657220746f20746865207a65726f2061646472657373455243313135353a207472616e736665722063616c6c6572206973206e6f74206f776e6572206e6f7220617070726f766564496e697469616c697a61626c653a20636f6e747261637420697320616c726561647920696e697469616c697a6564536f617050756e6b436f6c6c65637469626c65733a2063616e6e6f74206d696e74206f6e206368696c6420636f6e7472616374455243313135353a206275726e2066726f6d20746865207a65726f2061646472657373455243313135353a20696e73756666696369656e742062616c616e636520666f72207472616e736665725369676e657220616e64207369676e617475726520646f206e6f74206d61746368536f617050756e6b436f6c6c65637469626c65733a206d7573742068617665206465706f7369746f7220726f6c6520746f206d616b65206465706f736974455243313135355072657365744d696e7465725061757365723a206d75737420686176652070617573657220726f6c6520746f20756e7061757365455243313135355072657365744d696e7465725061757365723a206d75737420686176652070617573657220726f6c6520746f207061757365455243313135353a2073657474696e6720617070726f76616c2073746174757320666f722073656c66455243313135353a206163636f756e747320616e6420696473206c656e677468206d69736d61746368455243313135353a2069647320616e6420616d6f756e7473206c656e677468206d69736d61746368455243313135353a206d696e7420746f20746865207a65726f2061646472657373416363657373436f6e74726f6c3a2063616e206f6e6c792072656e6f756e636520726f6c657320666f722073656c66a264697066735822122005c545e4a397c1ef696829482740f955e92f31d2b0ebb580476345c21de9b73364736f6c63430006060033",
  "immutableReferences": {},
  "source": "pragma solidity ^0.6.0;\n\nimport \"@openzeppelin/contracts-upgradeable/presets/ERC1155PresetMinterPauserUpgradeable.sol\";\nimport {NativeMetaTransaction} from \"../../common/NativeMetaTransaction.sol\";\nimport {ContextMixin} from \"../../common/ContextMixin.sol\";\n\ncontract SoapPunkCollectiblesChildV2 is\n    ERC1155PresetMinterPauserUpgradeable,\n    NativeMetaTransaction,\n    ContextMixin\n{\n    bytes32 public constant DEPOSITOR_ROLE = keccak256(\"DEPOSITOR_ROLE\");\n    mapping (uint256 => bool) public withdrawnTokens;\n\n    function initialize(string memory newuri, string memory domainSeparator, address childChainManager) initializer public {\n        __ERC1155PresetMinterPauser_init(newuri);\n\n        _setupRole(DEPOSITOR_ROLE, childChainManager);\n\n        _initializeEIP712(domainSeparator);\n     }\n\n     /*function setURI(string memory newuri, uint256 id) public {\n         require(hasRole(DEFAULT_ADMIN_ROLE, _msgSender()), \"SoapPunkCollectibles: must have admin role to change uri\");\n\n         emit URI(newuri, id);\n\n         _setURI(newuri);\n     }*/\n\n\n     // Disable minting\n     function mint(address to, uint256 id, uint256 amount, bytes memory data) public override {\n         // No account can mint\n         require(false, \"SoapPunkCollectibles: cannot mint on child contract\");\n     }\n\n     function mintBatch(address to, uint256[] memory ids, uint256[] memory amounts, bytes memory data) public override {\n         // No account can mint\n         require(false, \"SoapPunkCollectibles: cannot mint on child contract\");\n     }\n\n     // Disable burning\n     function burn(address account, uint256 id, uint256 value) public override {\n         // No account can burn\n         require(false, \"SoapPunkCollectibles: cannot burn on child contract\");\n     }\n\n     function burnBatch(address account, uint256[] memory ids, uint256[] memory values) public override {\n         // No account can burn\n         require(false, \"SoapPunkCollectibles: cannot burn on child contract\");\n     }\n\n     //Child\n\n    // This is to support Native meta transactions\n    // never use msg.sender directly, use _msgSender() instead\n    function _msgSender()\n        internal\n        override\n        view\n        returns (address payable sender)\n        {\n            return ContextMixin.msgSender();\n    }\n\n     /**\n     * @notice called when tokens are deposited on root chain\n     * @dev Should be callable only by ChildChainManager\n     * Should handle deposit by minting the required tokens for user\n     * Make sure minting is done only by this function\n     * @param user user address for whom deposit is being done\n     * @param depositData abi encoded ids array and amounts array\n     */\n    function deposit(address user, bytes calldata depositData)\n        external\n    {\n        require(hasRole(DEPOSITOR_ROLE, _msgSender()), \"SoapPunkCollectibles: must have depositor role to make deposit\");\n        (\n            uint256[] memory ids,\n            uint256[] memory amounts,\n            bytes memory data\n        ) = abi.decode(depositData, (uint256[], uint256[], bytes));\n        require(user != address(0x0), \"ChildERC1155: INVALID_DEPOSIT_USER\");\n        _mintBatch(user, ids, amounts, data);\n    }\n\n    /**\n     * @notice called when user wants to withdraw single token back to root chain\n     * @dev Should burn user's tokens. This transaction will be verified when exiting on root chain\n     * @param id id to withdraw\n     * @param amount amount to withdraw\n     */\n    function withdrawSingle(uint256 id, uint256 amount) external {\n        _burn(_msgSender(), id, amount);\n    }\n\n    /**\n     * @notice called when user wants to batch withdraw tokens back to root chain\n     * @dev Should burn user's tokens. This transaction will be verified when exiting on root chain\n     * @param ids ids to withdraw\n     * @param amounts amounts to withdraw\n     */\n    function withdrawBatch(uint256[] calldata ids, uint256[] calldata amounts)\n        external\n    {\n        _burnBatch(_msgSender(), ids, amounts);\n    }\n\n}\n",
  "sourcePath": "/home/gabriel/Documentos/Trabajo/Eibriel/Proyectos/Decentraland/GoldRush/SPContracts/matic/contracts/SoupPunkV2_child.sol",
  "compiler": {
    "name": "solc",
    "version": "0.6.6+commit.6c089d02.Emscripten.clang"
  },
  "schemaVersion": "3.3.2",
  "updatedAt": "2020-11-26T01:47:22.386Z",
  "devdoc": {
    "methods": {
      "balanceOf(address,uint256)": {
        "details": "See {IERC1155-balanceOf}.     * Requirements:     * - `account` cannot be the zero address."
      },
      "balanceOfBatch(address[],uint256[])": {
        "details": "See {IERC1155-balanceOfBatch}.     * Requirements:     * - `accounts` and `ids` must have the same length."
      },
      "deposit(address,bytes)": {
        "details": "Should be callable only by ChildChainManager Should handle deposit by minting the required tokens for user Make sure minting is done only by this function",
        "params": {
          "depositData": "abi encoded ids array and amounts array",
          "user": "user address for whom deposit is being done"
        }
      },
      "getRoleAdmin(bytes32)": {
        "details": "Returns the admin role that controls `role`. See {grantRole} and {revokeRole}.     * To change a role's admin, use {_setRoleAdmin}."
      },
      "getRoleMember(bytes32,uint256)": {
        "details": "Returns one of the accounts that have `role`. `index` must be a value between 0 and {getRoleMemberCount}, non-inclusive.     * Role bearers are not sorted in any particular way, and their ordering may change at any point.     * WARNING: When using {getRoleMember} and {getRoleMemberCount}, make sure you perform all queries on the same block. See the following https://forum.openzeppelin.com/t/iterating-over-elements-on-enumerableset-in-openzeppelin-contracts/2296[forum post] for more information."
      },
      "getRoleMemberCount(bytes32)": {
        "details": "Returns the number of accounts that have `role`. Can be used together with {getRoleMember} to enumerate all bearers of a role."
      },
      "grantRole(bytes32,address)": {
        "details": "Grants `role` to `account`.     * If `account` had not been already granted `role`, emits a {RoleGranted} event.     * Requirements:     * - the caller must have ``role``'s admin role."
      },
      "hasRole(bytes32,address)": {
        "details": "Returns `true` if `account` has been granted `role`."
      },
      "isApprovedForAll(address,address)": {
        "details": "See {IERC1155-isApprovedForAll}."
      },
      "pause()": {
        "details": "Pauses all token transfers.     * See {ERC1155Pausable} and {Pausable-_pause}.     * Requirements:     * - the caller must have the `PAUSER_ROLE`."
      },
      "paused()": {
        "details": "Returns true if the contract is paused, and false otherwise."
      },
      "renounceRole(bytes32,address)": {
        "details": "Revokes `role` from the calling account.     * Roles are often managed via {grantRole} and {revokeRole}: this function's purpose is to provide a mechanism for accounts to lose their privileges if they are compromised (such as when a trusted device is misplaced).     * If the calling account had been granted `role`, emits a {RoleRevoked} event.     * Requirements:     * - the caller must be `account`."
      },
      "revokeRole(bytes32,address)": {
        "details": "Revokes `role` from `account`.     * If `account` had been granted `role`, emits a {RoleRevoked} event.     * Requirements:     * - the caller must have ``role``'s admin role."
      },
      "safeBatchTransferFrom(address,address,uint256[],uint256[],bytes)": {
        "details": "See {IERC1155-safeBatchTransferFrom}."
      },
      "safeTransferFrom(address,address,uint256,uint256,bytes)": {
        "details": "See {IERC1155-safeTransferFrom}."
      },
      "setApprovalForAll(address,bool)": {
        "details": "See {IERC1155-setApprovalForAll}."
      },
      "supportsInterface(bytes4)": {
        "details": "See {IERC165-supportsInterface}.     * Time complexity O(1), guaranteed to always use less than 30 000 gas."
      },
      "unpause()": {
        "details": "Unpauses all token transfers.     * See {ERC1155Pausable} and {Pausable-_unpause}.     * Requirements:     * - the caller must have the `PAUSER_ROLE`."
      },
      "uri(uint256)": {
        "details": "See {IERC1155MetadataURI-uri}.     * This implementation returns the same URI for *all* token types. It relies on the token type ID substitution mechanism https://eips.ethereum.org/EIPS/eip-1155#metadata[defined in the EIP].     * Clients calling this function must replace the `\\{id\\}` substring with the actual token type ID."
      },
      "withdrawBatch(uint256[],uint256[])": {
        "details": "Should burn user's tokens. This transaction will be verified when exiting on root chain",
        "params": {
          "amounts": "amounts to withdraw",
          "ids": "ids to withdraw"
        }
      },
      "withdrawSingle(uint256,uint256)": {
        "details": "Should burn user's tokens. This transaction will be verified when exiting on root chain",
        "params": {
          "amount": "amount to withdraw",
          "id": "id to withdraw"
        }
      }
    }
  },
  "userdoc": {
    "methods": {
      "deposit(address,bytes)": {
        "notice": "called when tokens are deposited on root chain"
      },
      "withdrawBatch(uint256[],uint256[])": {
        "notice": "called when user wants to batch withdraw tokens back to root chain"
      },
      "withdrawSingle(uint256,uint256)": {
        "notice": "called when user wants to withdraw single token back to root chain"
      }
    }
  }
}