{
  "contractName": "SoapPunkCollectiblesChild",
  "abi": [
    {
      "anonymous": false,
      "inputs": [
        {
          "indexed": true,
          "internalType": "address",
          "name": "account",
          "type": "address"
        },
        {
          "indexed": true,
          "internalType": "address",
          "name": "operator",
          "type": "address"
        },
        {
          "indexed": false,
          "internalType": "bool",
          "name": "approved",
          "type": "bool"
        }
      ],
      "name": "ApprovalForAll",
      "type": "event"
    },
    {
      "anonymous": false,
      "inputs": [
        {
          "indexed": false,
          "internalType": "address",
          "name": "userAddress",
          "type": "address"
        },
        {
          "indexed": false,
          "internalType": "address payable",
          "name": "relayerAddress",
          "type": "address"
        },
        {
          "indexed": false,
          "internalType": "bytes",
          "name": "functionSignature",
          "type": "bytes"
        }
      ],
      "name": "MetaTransactionExecuted",
      "type": "event"
    },
    {
      "anonymous": false,
      "inputs": [
        {
          "indexed": false,
          "internalType": "address",
          "name": "account",
          "type": "address"
        }
      ],
      "name": "Paused",
      "type": "event"
    },
    {
      "anonymous": false,
      "inputs": [
        {
          "indexed": true,
          "internalType": "bytes32",
          "name": "role",
          "type": "bytes32"
        },
        {
          "indexed": true,
          "internalType": "bytes32",
          "name": "previousAdminRole",
          "type": "bytes32"
        },
        {
          "indexed": true,
          "internalType": "bytes32",
          "name": "newAdminRole",
          "type": "bytes32"
        }
      ],
      "name": "RoleAdminChanged",
      "type": "event"
    },
    {
      "anonymous": false,
      "inputs": [
        {
          "indexed": true,
          "internalType": "bytes32",
          "name": "role",
          "type": "bytes32"
        },
        {
          "indexed": true,
          "internalType": "address",
          "name": "account",
          "type": "address"
        },
        {
          "indexed": true,
          "internalType": "address",
          "name": "sender",
          "type": "address"
        }
      ],
      "name": "RoleGranted",
      "type": "event"
    },
    {
      "anonymous": false,
      "inputs": [
        {
          "indexed": true,
          "internalType": "bytes32",
          "name": "role",
          "type": "bytes32"
        },
        {
          "indexed": true,
          "internalType": "address",
          "name": "account",
          "type": "address"
        },
        {
          "indexed": true,
          "internalType": "address",
          "name": "sender",
          "type": "address"
        }
      ],
      "name": "RoleRevoked",
      "type": "event"
    },
    {
      "anonymous": false,
      "inputs": [
        {
          "indexed": true,
          "internalType": "address",
          "name": "operator",
          "type": "address"
        },
        {
          "indexed": true,
          "internalType": "address",
          "name": "from",
          "type": "address"
        },
        {
          "indexed": true,
          "internalType": "address",
          "name": "to",
          "type": "address"
        },
        {
          "indexed": false,
          "internalType": "uint256[]",
          "name": "ids",
          "type": "uint256[]"
        },
        {
          "indexed": false,
          "internalType": "uint256[]",
          "name": "values",
          "type": "uint256[]"
        }
      ],
      "name": "TransferBatch",
      "type": "event"
    },
    {
      "anonymous": false,
      "inputs": [
        {
          "indexed": true,
          "internalType": "address",
          "name": "operator",
          "type": "address"
        },
        {
          "indexed": true,
          "internalType": "address",
          "name": "from",
          "type": "address"
        },
        {
          "indexed": true,
          "internalType": "address",
          "name": "to",
          "type": "address"
        },
        {
          "indexed": false,
          "internalType": "uint256",
          "name": "id",
          "type": "uint256"
        },
        {
          "indexed": false,
          "internalType": "uint256",
          "name": "value",
          "type": "uint256"
        }
      ],
      "name": "TransferSingle",
      "type": "event"
    },
    {
      "anonymous": false,
      "inputs": [
        {
          "indexed": false,
          "internalType": "string",
          "name": "value",
          "type": "string"
        },
        {
          "indexed": true,
          "internalType": "uint256",
          "name": "id",
          "type": "uint256"
        }
      ],
      "name": "URI",
      "type": "event"
    },
    {
      "anonymous": false,
      "inputs": [
        {
          "indexed": false,
          "internalType": "address",
          "name": "account",
          "type": "address"
        }
      ],
      "name": "Unpaused",
      "type": "event"
    },
    {
      "inputs": [],
      "name": "DEFAULT_ADMIN_ROLE",
      "outputs": [
        {
          "internalType": "bytes32",
          "name": "",
          "type": "bytes32"
        }
      ],
      "stateMutability": "view",
      "type": "function",
      "constant": true
    },
    {
      "inputs": [],
      "name": "DEPOSITOR_ROLE",
      "outputs": [
        {
          "internalType": "bytes32",
          "name": "",
          "type": "bytes32"
        }
      ],
      "stateMutability": "view",
      "type": "function",
      "constant": true
    },
    {
      "inputs": [],
      "name": "ERC712_VERSION",
      "outputs": [
        {
          "internalType": "string",
          "name": "",
          "type": "string"
        }
      ],
      "stateMutability": "view",
      "type": "function",
      "constant": true
    },
    {
      "inputs": [],
      "name": "MINTER_ROLE",
      "outputs": [
        {
          "internalType": "bytes32",
          "name": "",
          "type": "bytes32"
        }
      ],
      "stateMutability": "view",
      "type": "function",
      "constant": true
    },
    {
      "inputs": [],
      "name": "PAUSER_ROLE",
      "outputs": [
        {
          "internalType": "bytes32",
          "name": "",
          "type": "bytes32"
        }
      ],
      "stateMutability": "view",
      "type": "function",
      "constant": true
    },
    {
      "inputs": [
        {
          "internalType": "address",
          "name": "account",
          "type": "address"
        },
        {
          "internalType": "uint256",
          "name": "id",
          "type": "uint256"
        }
      ],
      "name": "balanceOf",
      "outputs": [
        {
          "internalType": "uint256",
          "name": "",
          "type": "uint256"
        }
      ],
      "stateMutability": "view",
      "type": "function",
      "constant": true
    },
    {
      "inputs": [
        {
          "internalType": "address[]",
          "name": "accounts",
          "type": "address[]"
        },
        {
          "internalType": "uint256[]",
          "name": "ids",
          "type": "uint256[]"
        }
      ],
      "name": "balanceOfBatch",
      "outputs": [
        {
          "internalType": "uint256[]",
          "name": "",
          "type": "uint256[]"
        }
      ],
      "stateMutability": "view",
      "type": "function",
      "constant": true
    },
    {
      "inputs": [
        {
          "internalType": "address",
          "name": "userAddress",
          "type": "address"
        },
        {
          "internalType": "bytes",
          "name": "functionSignature",
          "type": "bytes"
        },
        {
          "internalType": "bytes32",
          "name": "sigR",
          "type": "bytes32"
        },
        {
          "internalType": "bytes32",
          "name": "sigS",
          "type": "bytes32"
        },
        {
          "internalType": "uint8",
          "name": "sigV",
          "type": "uint8"
        }
      ],
      "name": "executeMetaTransaction",
      "outputs": [
        {
          "internalType": "bytes",
          "name": "",
          "type": "bytes"
        }
      ],
      "stateMutability": "payable",
      "type": "function",
      "payable": true
    },
    {
      "inputs": [],
      "name": "getChainId",
      "outputs": [
        {
          "internalType": "uint256",
          "name": "",
          "type": "uint256"
        }
      ],
      "stateMutability": "pure",
      "type": "function",
      "constant": true
    },
    {
      "inputs": [],
      "name": "getDomainSeperator",
      "outputs": [
        {
          "internalType": "bytes32",
          "name": "",
          "type": "bytes32"
        }
      ],
      "stateMutability": "view",
      "type": "function",
      "constant": true
    },
    {
      "inputs": [
        {
          "internalType": "address",
          "name": "user",
          "type": "address"
        }
      ],
      "name": "getNonce",
      "outputs": [
        {
          "internalType": "uint256",
          "name": "nonce",
          "type": "uint256"
        }
      ],
      "stateMutability": "view",
      "type": "function",
      "constant": true
    },
    {
      "inputs": [
        {
          "internalType": "bytes32",
          "name": "role",
          "type": "bytes32"
        }
      ],
      "name": "getRoleAdmin",
      "outputs": [
        {
          "internalType": "bytes32",
          "name": "",
          "type": "bytes32"
        }
      ],
      "stateMutability": "view",
      "type": "function",
      "constant": true
    },
    {
      "inputs": [
        {
          "internalType": "bytes32",
          "name": "role",
          "type": "bytes32"
        },
        {
          "internalType": "uint256",
          "name": "index",
          "type": "uint256"
        }
      ],
      "name": "getRoleMember",
      "outputs": [
        {
          "internalType": "address",
          "name": "",
          "type": "address"
        }
      ],
      "stateMutability": "view",
      "type": "function",
      "constant": true
    },
    {
      "inputs": [
        {
          "internalType": "bytes32",
          "name": "role",
          "type": "bytes32"
        }
      ],
      "name": "getRoleMemberCount",
      "outputs": [
        {
          "internalType": "uint256",
          "name": "",
          "type": "uint256"
        }
      ],
      "stateMutability": "view",
      "type": "function",
      "constant": true
    },
    {
      "inputs": [
        {
          "internalType": "bytes32",
          "name": "role",
          "type": "bytes32"
        },
        {
          "internalType": "address",
          "name": "account",
          "type": "address"
        }
      ],
      "name": "grantRole",
      "outputs": [],
      "stateMutability": "nonpayable",
      "type": "function"
    },
    {
      "inputs": [
        {
          "internalType": "bytes32",
          "name": "role",
          "type": "bytes32"
        },
        {
          "internalType": "address",
          "name": "account",
          "type": "address"
        }
      ],
      "name": "hasRole",
      "outputs": [
        {
          "internalType": "bool",
          "name": "",
          "type": "bool"
        }
      ],
      "stateMutability": "view",
      "type": "function",
      "constant": true
    },
    {
      "inputs": [
        {
          "internalType": "address",
          "name": "account",
          "type": "address"
        },
        {
          "internalType": "address",
          "name": "operator",
          "type": "address"
        }
      ],
      "name": "isApprovedForAll",
      "outputs": [
        {
          "internalType": "bool",
          "name": "",
          "type": "bool"
        }
      ],
      "stateMutability": "view",
      "type": "function",
      "constant": true
    },
    {
      "inputs": [],
      "name": "pause",
      "outputs": [],
      "stateMutability": "nonpayable",
      "type": "function"
    },
    {
      "inputs": [],
      "name": "paused",
      "outputs": [
        {
          "internalType": "bool",
          "name": "",
          "type": "bool"
        }
      ],
      "stateMutability": "view",
      "type": "function",
      "constant": true
    },
    {
      "inputs": [
        {
          "internalType": "bytes32",
          "name": "role",
          "type": "bytes32"
        },
        {
          "internalType": "address",
          "name": "account",
          "type": "address"
        }
      ],
      "name": "renounceRole",
      "outputs": [],
      "stateMutability": "nonpayable",
      "type": "function"
    },
    {
      "inputs": [
        {
          "internalType": "bytes32",
          "name": "role",
          "type": "bytes32"
        },
        {
          "internalType": "address",
          "name": "account",
          "type": "address"
        }
      ],
      "name": "revokeRole",
      "outputs": [],
      "stateMutability": "nonpayable",
      "type": "function"
    },
    {
      "inputs": [
        {
          "internalType": "address",
          "name": "from",
          "type": "address"
        },
        {
          "internalType": "address",
          "name": "to",
          "type": "address"
        },
        {
          "internalType": "uint256[]",
          "name": "ids",
          "type": "uint256[]"
        },
        {
          "internalType": "uint256[]",
          "name": "amounts",
          "type": "uint256[]"
        },
        {
          "internalType": "bytes",
          "name": "data",
          "type": "bytes"
        }
      ],
      "name": "safeBatchTransferFrom",
      "outputs": [],
      "stateMutability": "nonpayable",
      "type": "function"
    },
    {
      "inputs": [
        {
          "internalType": "address",
          "name": "from",
          "type": "address"
        },
        {
          "internalType": "address",
          "name": "to",
          "type": "address"
        },
        {
          "internalType": "uint256",
          "name": "id",
          "type": "uint256"
        },
        {
          "internalType": "uint256",
          "name": "amount",
          "type": "uint256"
        },
        {
          "internalType": "bytes",
          "name": "data",
          "type": "bytes"
        }
      ],
      "name": "safeTransferFrom",
      "outputs": [],
      "stateMutability": "nonpayable",
      "type": "function"
    },
    {
      "inputs": [
        {
          "internalType": "address",
          "name": "operator",
          "type": "address"
        },
        {
          "internalType": "bool",
          "name": "approved",
          "type": "bool"
        }
      ],
      "name": "setApprovalForAll",
      "outputs": [],
      "stateMutability": "nonpayable",
      "type": "function"
    },
    {
      "inputs": [
        {
          "internalType": "bytes4",
          "name": "interfaceId",
          "type": "bytes4"
        }
      ],
      "name": "supportsInterface",
      "outputs": [
        {
          "internalType": "bool",
          "name": "",
          "type": "bool"
        }
      ],
      "stateMutability": "view",
      "type": "function",
      "constant": true
    },
    {
      "inputs": [],
      "name": "unpause",
      "outputs": [],
      "stateMutability": "nonpayable",
      "type": "function"
    },
    {
      "inputs": [
        {
          "internalType": "uint256",
          "name": "",
          "type": "uint256"
        }
      ],
      "name": "uri",
      "outputs": [
        {
          "internalType": "string",
          "name": "",
          "type": "string"
        }
      ],
      "stateMutability": "view",
      "type": "function",
      "constant": true
    },
    {
      "inputs": [
        {
          "internalType": "uint256",
          "name": "",
          "type": "uint256"
        }
      ],
      "name": "withdrawnTokens",
      "outputs": [
        {
          "internalType": "bool",
          "name": "",
          "type": "bool"
        }
      ],
      "stateMutability": "view",
      "type": "function",
      "constant": true
    },
    {
      "inputs": [
        {
          "internalType": "string",
          "name": "newuri",
          "type": "string"
        },
        {
          "internalType": "address",
          "name": "childChainManager",
          "type": "address"
        }
      ],
      "name": "initialize",
      "outputs": [],
      "stateMutability": "nonpayable",
      "type": "function"
    },
    {
      "inputs": [
        {
          "internalType": "string",
          "name": "uri",
          "type": "string"
        }
      ],
      "name": "initialize",
      "outputs": [],
      "stateMutability": "nonpayable",
      "type": "function"
    },
    {
      "inputs": [
        {
          "internalType": "string",
          "name": "newuri",
          "type": "string"
        },
        {
          "internalType": "uint256",
          "name": "id",
          "type": "uint256"
        }
      ],
      "name": "setURI",
      "outputs": [],
      "stateMutability": "nonpayable",
      "type": "function"
    },
    {
      "inputs": [
        {
          "internalType": "address",
          "name": "to",
          "type": "address"
        },
        {
          "internalType": "uint256",
          "name": "id",
          "type": "uint256"
        },
        {
          "internalType": "uint256",
          "name": "amount",
          "type": "uint256"
        },
        {
          "internalType": "bytes",
          "name": "data",
          "type": "bytes"
        }
      ],
      "name": "mint",
      "outputs": [],
      "stateMutability": "nonpayable",
      "type": "function"
    },
    {
      "inputs": [
        {
          "internalType": "address",
          "name": "to",
          "type": "address"
        },
        {
          "internalType": "uint256[]",
          "name": "ids",
          "type": "uint256[]"
        },
        {
          "internalType": "uint256[]",
          "name": "amounts",
          "type": "uint256[]"
        },
        {
          "internalType": "bytes",
          "name": "data",
          "type": "bytes"
        }
      ],
      "name": "mintBatch",
      "outputs": [],
      "stateMutability": "nonpayable",
      "type": "function"
    },
    {
      "inputs": [
        {
          "internalType": "address",
          "name": "account",
          "type": "address"
        },
        {
          "internalType": "uint256",
          "name": "id",
          "type": "uint256"
        },
        {
          "internalType": "uint256",
          "name": "value",
          "type": "uint256"
        }
      ],
      "name": "burn",
      "outputs": [],
      "stateMutability": "nonpayable",
      "type": "function"
    },
    {
      "inputs": [
        {
          "internalType": "address",
          "name": "account",
          "type": "address"
        },
        {
          "internalType": "uint256[]",
          "name": "ids",
          "type": "uint256[]"
        },
        {
          "internalType": "uint256[]",
          "name": "values",
          "type": "uint256[]"
        }
      ],
      "name": "burnBatch",
      "outputs": [],
      "stateMutability": "nonpayable",
      "type": "function"
    },
    {
      "inputs": [
        {
          "internalType": "address",
          "name": "user",
          "type": "address"
        },
        {
          "internalType": "bytes",
          "name": "depositData",
          "type": "bytes"
        }
      ],
      "name": "deposit",
      "outputs": [],
      "stateMutability": "nonpayable",
      "type": "function"
    },
    {
      "inputs": [
        {
          "internalType": "uint256",
          "name": "id",
          "type": "uint256"
        },
        {
          "internalType": "uint256",
          "name": "amount",
          "type": "uint256"
        }
      ],
      "name": "withdrawSingle",
      "outputs": [],
      "stateMutability": "nonpayable",
      "type": "function"
    },
    {
      "inputs": [
        {
          "internalType": "uint256[]",
          "name": "ids",
          "type": "uint256[]"
        },
        {
          "internalType": "uint256[]",
          "name": "amounts",
          "type": "uint256[]"
        }
      ],
      "name": "withdrawBatch",
      "outputs": [],
      "stateMutability": "nonpayable",
      "type": "function"
    }
  ],
  "bytecode": "0x608060405234801561001057600080fd5b50614640806100206000396000f3fe6080604052600436106101b45760003560e01c8062fdd58e146101b957806301ffc9a71461020457806307a974fc1461024c5780630c53c51c146102765780630e89341c146103ad5780630f7e5970146103d75780631f7fdffa146103ec57806320379ee5146105b35780632262f53f146105c8578063248a9ca3146105f85780632d0335ab146106225780632eb2c2d6146106555780632f2ff15d146108235780633408e4701461085c57806336568abe146108715780633f4ba83a146108aa5780634e1273f4146108bf5780635c5fb52114610a3f5780635c975abb14610b0a57806367db3b8f14610b1f5780636b20c45414610bd2578063731133e914610d125780637ab4339d14610d6b5780638456cb5914610e275780639010d07c14610e3c57806391d1485414610e88578063a217fddf14610ec1578063a22cb46514610ed6578063a3b0b5a314610f11578063ca15c87314610f26578063cf2c52cb14610f50578063d539139314610fdb578063d547741f14610ff0578063e63ab1e914611029578063e985e9c51461103e578063f242432a14611079578063f5298aca1461114f578063f62d18881461118e575b600080fd5b3480156101c557600080fd5b506101f2600480360360408110156101dc57600080fd5b506001600160a01b03813516906020013561123f565b60408051918252519081900360200190f35b34801561021057600080fd5b506102386004803603602081101561022757600080fd5b50356001600160e01b0319166112b1565b604080519115158252519081900360200190f35b34801561025857600080fd5b506102386004803603602081101561026f57600080fd5b50356112d0565b610338600480360360a081101561028c57600080fd5b6001600160a01b038235169190810190604081016020820135600160201b8111156102b657600080fd5b8201836020820111156102c857600080fd5b803590602001918460018302840111600160201b831117156102e957600080fd5b91908080601f016020809104026020016040519081016040528093929190818152602001838380828437600092019190915250929550508235935050506020810135906040013560ff166112e6565b6040805160208082528351818301528351919283929083019185019080838360005b8381101561037257818101518382015260200161035a565b50505050905090810190601f16801561039f5780820380516001836020036101000a031916815260200191505b509250505060405180910390f35b3480156103b957600080fd5b50610338600480360360208110156103d057600080fd5b50356115eb565b3480156103e357600080fd5b50610338611683565b3480156103f857600080fd5b506105b16004803603608081101561040f57600080fd5b6001600160a01b038235169190810190604081016020820135600160201b81111561043957600080fd5b82018360208201111561044b57600080fd5b803590602001918460208302840111600160201b8311171561046c57600080fd5b9190808060200260200160405190810160405280939291908181526020018383602002808284376000920191909152509295949360208101935035915050600160201b8111156104bb57600080fd5b8201836020820111156104cd57600080fd5b803590602001918460208302840111600160201b831117156104ee57600080fd5b9190808060200260200160405190810160405280939291908181526020018383602002808284376000920191909152509295949360208101935035915050600160201b81111561053d57600080fd5b82018360208201111561054f57600080fd5b803590602001918460018302840111600160201b8311171561057057600080fd5b91908080601f0160208091040260200160405190810160405280939291908181526020018383808284376000920191909152509295506116a0945050505050565b005b3480156105bf57600080fd5b506101f26116dd565b3480156105d457600080fd5b506105b1600480360360408110156105eb57600080fd5b50803590602001356116e5565b34801561060457600080fd5b506101f26004803603602081101561061b57600080fd5b50356116fb565b34801561062e57600080fd5b506101f26004803603602081101561064557600080fd5b50356001600160a01b0316611710565b34801561066157600080fd5b506105b1600480360360a081101561067857600080fd5b6001600160a01b038235811692602081013590911691810190606081016040820135600160201b8111156106ab57600080fd5b8201836020820111156106bd57600080fd5b803590602001918460208302840111600160201b831117156106de57600080fd5b9190808060200260200160405190810160405280939291908181526020018383602002808284376000920191909152509295949360208101935035915050600160201b81111561072d57600080fd5b82018360208201111561073f57600080fd5b803590602001918460208302840111600160201b8311171561076057600080fd5b9190808060200260200160405190810160405280939291908181526020018383602002808284376000920191909152509295949360208101935035915050600160201b8111156107af57600080fd5b8201836020820111156107c157600080fd5b803590602001918460018302840111600160201b831117156107e257600080fd5b91908080601f01602080910402602001604051908101604052809392919081815260200183838082843760009201919091525092955061172c945050505050565b34801561082f57600080fd5b506105b16004803603604081101561084657600080fd5b50803590602001356001600160a01b0316611a1d565b34801561086857600080fd5b506101f2611a85565b34801561087d57600080fd5b506105b16004803603604081101561089457600080fd5b50803590602001356001600160a01b0316611a89565b3480156108b657600080fd5b506105b1611aea565b3480156108cb57600080fd5b506109ef600480360360408110156108e257600080fd5b810190602081018135600160201b8111156108fc57600080fd5b82018360208201111561090e57600080fd5b803590602001918460208302840111600160201b8311171561092f57600080fd5b9190808060200260200160405190810160405280939291908181526020018383602002808284376000920191909152509295949360208101935035915050600160201b81111561097e57600080fd5b82018360208201111561099057600080fd5b803590602001918460208302840111600160201b831117156109b157600080fd5b919080806020026020016040519081016040528093929190818152602001838360200280828437600092019190915250929550611b5b945050505050565b60408051602080825283518183015283519192839290830191858101910280838360005b83811015610a2b578181015183820152602001610a13565b505050509050019250505060405180910390f35b348015610a4b57600080fd5b506105b160048036036040811015610a6257600080fd5b810190602081018135600160201b811115610a7c57600080fd5b820183602082011115610a8e57600080fd5b803590602001918460208302840111600160201b83111715610aaf57600080fd5b919390929091602081019035600160201b811115610acc57600080fd5b820183602082011115610ade57600080fd5b803590602001918460208302840111600160201b83111715610aff57600080fd5b509092509050611cd8565b348015610b1657600080fd5b50610238611d4d565b348015610b2b57600080fd5b506105b160048036036040811015610b4257600080fd5b810190602081018135600160201b811115610b5c57600080fd5b820183602082011115610b6e57600080fd5b803590602001918460018302840111600160201b83111715610b8f57600080fd5b91908080601f0160208091040260200160405190810160405280939291908181526020018383808284376000920191909152509295505091359250611d56915050565b348015610bde57600080fd5b506105b160048036036060811015610bf557600080fd5b6001600160a01b038235169190810190604081016020820135600160201b811115610c1f57600080fd5b820183602082011115610c3157600080fd5b803590602001918460208302840111600160201b83111715610c5257600080fd5b9190808060200260200160405190810160405280939291908181526020018383602002808284376000920191909152509295949360208101935035915050600160201b811115610ca157600080fd5b820183602082011115610cb357600080fd5b803590602001918460208302840111600160201b83111715610cd457600080fd5b919080806020026020016040519081016040528093929190818152602001838360200280828437600092019190915250929550611e4a945050505050565b348015610d1e57600080fd5b506105b160048036036080811015610d3557600080fd5b6001600160a01b038235169160208101359160408201359190810190608081016060820135600160201b81111561053d57600080fd5b348015610d7757600080fd5b506105b160048036036040811015610d8e57600080fd5b810190602081018135600160201b811115610da857600080fd5b820183602082011115610dba57600080fd5b803590602001918460018302840111600160201b83111715610ddb57600080fd5b91908080601f016020809104026020016040519081016040528093929190818152602001838380828437600092019190915250929550505090356001600160a01b03169150611e869050565b348015610e3357600080fd5b506105b1611f68565b348015610e4857600080fd5b50610e6c60048036036040811015610e5f57600080fd5b5080359060200135611fd7565b604080516001600160a01b039092168252519081900360200190f35b348015610e9457600080fd5b5061023860048036036040811015610eab57600080fd5b50803590602001356001600160a01b0316611ffc565b348015610ecd57600080fd5b506101f261201a565b348015610ee257600080fd5b506105b160048036036040811015610ef957600080fd5b506001600160a01b038135169060200135151561201f565b348015610f1d57600080fd5b506101f261210e565b348015610f3257600080fd5b506101f260048036036020811015610f4957600080fd5b5035612134565b348015610f5c57600080fd5b506105b160048036036040811015610f7357600080fd5b6001600160a01b038235169190810190604081016020820135600160201b811115610f9d57600080fd5b820183602082011115610faf57600080fd5b803590602001918460018302840111600160201b83111715610fd057600080fd5b50909250905061214b565b348015610fe757600080fd5b506101f26123b2565b348015610ffc57600080fd5b506105b16004803603604081101561101357600080fd5b50803590602001356001600160a01b03166123d5565b34801561103557600080fd5b506101f261242e565b34801561104a57600080fd5b506102386004803603604081101561106157600080fd5b506001600160a01b0381358116916020013516612451565b34801561108557600080fd5b506105b1600480360360a081101561109c57600080fd5b6001600160a01b03823581169260208101359091169160408201359160608101359181019060a081016080820135600160201b8111156110db57600080fd5b8201836020820111156110ed57600080fd5b803590602001918460018302840111600160201b8311171561110e57600080fd5b91908080601f01602080910402602001604051908101604052809392919081815260200183838082843760009201919091525092955061247f945050505050565b34801561115b57600080fd5b506105b16004803603606081101561117257600080fd5b506001600160a01b038135169060208101359060400135611e4a565b34801561119a57600080fd5b506105b1600480360360208110156111b157600080fd5b810190602081018135600160201b8111156111cb57600080fd5b8201836020820111156111dd57600080fd5b803590602001918460018302840111600160201b831117156111fe57600080fd5b91908080601f01602080910402602001604051908101604052809392919081815260200183838082843760009201919091525092955061263e945050505050565b60006001600160a01b0383166112865760405162461bcd60e51b815260040180806020018281038252602b815260200180614153602b913960400191505060405180910390fd5b5060008181526097602090815260408083206001600160a01b03861684529091529020545b92915050565b6001600160e01b03191660009081526065602052604090205460ff1690565b6101936020526000908152604090205460ff1681565b60606112f0613f70565b50604080516060810182526001600160a01b038816600081815261019260209081529084902054835282015290810186905261132f87828787876126e9565b61136a5760405162461bcd60e51b81526004018080602001828103825260218152602001806144366021913960400191505060405180910390fd5b6001600160a01b0387166000908152610192602052604090205461139590600163ffffffff6127c616565b6001600160a01b0388166000818152610192602090815260408083209490945583519283523383820181905260609484018581528b51958501959095528a517f5845892132946850460bff5a0083f71031bc5bf9aadcd40f1de79423eac9b10b958d9592948d94919260808501928601918190849084905b8381101561142557818101518382015260200161140d565b50505050905090810190601f1680156114525780820380516001836020036101000a031916815260200191505b5094505050505060405180910390a160006060306001600160a01b0316888a6040516020018083805190602001908083835b602083106114a35780518252601f199092019160209182019101611484565b6001836020036101000a038019825116818451168082178552505050505050905001826001600160a01b03166001600160a01b031660601b8152601401925050506040516020818303038152906040526040518082805190602001908083835b602083106115225780518252601f199092019160209182019101611503565b6001836020036101000a0380198251168184511680821785525050505050509050019150506000604051808303816000865af19150503d8060008114611584576040519150601f19603f3d011682016040523d82523d6000602084013e611589565b606091505b5091509150816115df576040805162461bcd60e51b815260206004820152601c60248201527b119d5b98dd1a5bdb8818d85b1b081b9bdd081cdd58d8d95cdcd99d5b60221b604482015290519081900360640190fd5b98975050505050505050565b60998054604080516020601f60026000196101006001881615020190951694909404938401819004810282018101909252828152606093909290918301828280156116775780601f1061164c57610100808354040283529160200191611677565b820191906000526020600020905b81548152906001019060200180831161165a57829003601f168201915b50505050509050919050565b604051806040016040528060018152602001603160f81b81525081565b60405162461bcd60e51b81526004018080602001828103825260338152602001806143b66033913960400191505060405180910390fd5b50505050565b610191545b90565b6116f76116f061281e565b838361282d565b5050565b60009081526033602052604090206002015490565b6001600160a01b03166000908152610192602052604090205490565b815183511461176c5760405162461bcd60e51b81526004018080602001828103825260288152602001806145936028913960400191505060405180910390fd5b6001600160a01b0384166117b15760405162461bcd60e51b81526004018080602001828103825260258152602001806143316025913960400191505060405180910390fd5b6117b961281e565b6001600160a01b0316856001600160a01b031614806117e457506117e4856117df61281e565b612451565b61181f5760405162461bcd60e51b81526004018080602001828103825260328152602001806143566032913960400191505060405180910390fd5b600061182961281e565b9050611839818787878787612954565b60005b845181101561193f57600085828151811061185357fe5b60200260200101519050600085838151811061186b57fe5b602002602001015190506118d8816040518060600160405280602a815260200161440c602a91396097600086815260200190815260200160002060008d6001600160a01b03166001600160a01b03168152602001908152602001600020546129629092919063ffffffff16565b60008381526097602090815260408083206001600160a01b038e811685529252808320939093558a168152205461190f90826127c6565b60009283526097602090815260408085206001600160a01b038c168652909152909220919091555060010161183c565b50846001600160a01b0316866001600160a01b0316826001600160a01b03166000805160206140338339815191528787604051808060200180602001838103835285818151815260200191508051906020019060200280838360005b838110156119b357818101518382015260200161199b565b50505050905001838103825284818151815260200191508051906020019060200280838360005b838110156119f25781810151838201526020016119da565b5050505090500194505050505060405180910390a4611a158187878787876129f9565b505050505050565b600082815260336020526040902060020154611a4090611a3b61281e565b611ffc565b611a7b5760405162461bcd60e51b815260040180806020018281038252602f8152602001806140d1602f913960400191505060405180910390fd5b6116f78282612d35565b4690565b611a9161281e565b6001600160a01b0316816001600160a01b031614611ae05760405162461bcd60e51b815260040180806020018281038252602f8152602001806145dc602f913960400191505060405180910390fd5b6116f78282612da4565b604080516a5041555345525f524f4c4560a81b8152905190819003600b019020611b1690611a3b61281e565b611b515760405162461bcd60e51b815260040180806020018281038252603b8152602001806144cd603b913960400191505060405180910390fd5b611b59612e13565b565b60608151835114611b9d5760405162461bcd60e51b815260040180806020018281038252602981526020018061456a6029913960400191505060405180910390fd5b606083516001600160401b0381118015611bb657600080fd5b50604051908082528060200260200182016040528015611be0578160200160208202803683370190505b50905060005b8451811015611cd05760006001600160a01b0316858281518110611c0657fe5b60200260200101516001600160a01b03161415611c545760405162461bcd60e51b815260040180806020018281038252603181526020018061417e6031913960400191505060405180910390fd5b60976000858381518110611c6457fe5b602002602001015181526020019081526020016000206000868381518110611c8857fe5b60200260200101516001600160a01b03166001600160a01b0316815260200190815260200160002054828281518110611cbd57fe5b6020908102919091010152600101611be6565b509392505050565b6116d7611ce361281e565b85858080602002602001604051908101604052809392919081815260200183836020028082843760009201919091525050604080516020808902828101820190935288825290935088925087918291850190849080828437600092019190915250612eb192505050565b60fb5460ff1690565b611d636000611a3b61281e565b611d9e5760405162461bcd60e51b81526004018080602001828103825260388152602001806144576038913960400191505060405180910390fd5b807f6bb7ff708619ba0610cba295a58592e0451dee2622938c8755667688daf3529b836040518080602001828103825283818151815260200191508051906020019080838360005b83811015611dfe578181015183820152602001611de6565b50505050905090810190601f168015611e2b5780820380516001836020036101000a031916815260200191505b509250505060405180910390a2611e418261310d565b6116f782613120565b60405162461bcd60e51b81526004018080602001828103825260338152602001806141206033913960400191505060405180910390fd5b505050565b600054610100900460ff1680611e9f5750611e9f6131dd565b80611ead575060005460ff16155b611ee85760405162461bcd60e51b815260040180806020018281038252602e815260200180614388602e913960400191505060405180910390fd5b600054610100900460ff16158015611f13576000805460ff1961ff0019909116610100171660011790555b611f1c836131e3565b604080516d4445504f5349544f525f524f4c4560901b8152905190819003600e019020611f499083611a7b565b611f52836132b2565b8015611e81576000805461ff0019169055505050565b604080516a5041555345525f524f4c4560a81b8152905190819003600b019020611f9490611a3b61281e565b611fcf5760405162461bcd60e51b81526004018080602001828103825260398152602001806145086039913960400191505060405180910390fd5b611b59613348565b6000828152603360205260408120611ff5908363ffffffff6133c916565b9392505050565b6000828152603360205260408120611ff5908363ffffffff6133d516565b600081565b816001600160a01b031661203161281e565b6001600160a01b031614156120775760405162461bcd60e51b81526004018080602001828103825260298152602001806145416029913960400191505060405180910390fd5b806098600061208461281e565b6001600160a01b03908116825260208083019390935260409182016000908120918716808252919093529120805460ff1916921515929092179091556120c861281e565b60408051841515815290516001600160a01b0392909216917f17307eab39ab6107e8899845ad3d59bd9653f200f220920489ca2b5937696c319181900360200190a35050565b604080516d4445504f5349544f525f524f4c4560901b8152905190819003600e01902081565b60008181526033602052604081206112ab906133ea565b604080516d4445504f5349544f525f524f4c4560901b8152905190819003600e01902061217a90611a3b61281e565b6121b55760405162461bcd60e51b815260040180806020018281038252603e81526020018061448f603e913960400191505060405180910390fd5b6060806060848460608110156121ca57600080fd5b810190602081018135600160201b8111156121e457600080fd5b8201836020820111156121f657600080fd5b803590602001918460208302840111600160201b8311171561221757600080fd5b9190808060200260200160405190810160405280939291908181526020018383602002808284376000920191909152509295949360208101935035915050600160201b81111561226657600080fd5b82018360208201111561227857600080fd5b803590602001918460208302840111600160201b8311171561229957600080fd5b9190808060200260200160405190810160405280939291908181526020018383602002808284376000920191909152509295949360208101935035915050600160201b8111156122e857600080fd5b8201836020820111156122fa57600080fd5b803590602001918460018302840111600160201b8311171561231b57600080fd5b91908080601f016020809104026020016040519081016040528093929190818152602001838380828437600092019190915250979a50959850909650505050506001600160a01b038816151591506123a690505760405162461bcd60e51b81526004018080602001828103825260228152602001806142166022913960400191505060405180910390fd5b611a15868484846133f5565b604080516a4d494e5445525f524f4c4560a81b8152905190819003600b01902081565b6000828152603360205260409020600201546123f390611a3b61281e565b611ae05760405162461bcd60e51b81526004018080602001828103825260308152602001806142dc6030913960400191505060405180910390fd5b604080516a5041555345525f524f4c4560a81b8152905190819003600b01902081565b6001600160a01b03918216600090815260986020908152604080832093909416825291909152205460ff1690565b6001600160a01b0384166124c45760405162461bcd60e51b81526004018080602001828103825260258152602001806143316025913960400191505060405180910390fd5b6124cc61281e565b6001600160a01b0316856001600160a01b031614806124f257506124f2856117df61281e565b61252d5760405162461bcd60e51b81526004018080602001828103825260298152602001806142b36029913960400191505060405180910390fd5b600061253761281e565b905061255781878761254888613638565b61255188613638565b87612954565b6125a4836040518060600160405280602a815260200161440c602a913960008781526097602090815260408083206001600160a01b038d168452909152902054919063ffffffff61296216565b60008581526097602090815260408083206001600160a01b038b811685529252808320939093558716815220546125db90846127c6565b60008581526097602090815260408083206001600160a01b03808b168086529184529382902094909455805188815291820187905280518a84169386169260008051602061410083398151915292908290030190a4611a1581878787878761367c565b600054610100900460ff168061265757506126576131dd565b80612665575060005460ff16155b6126a05760405162461bcd60e51b815260040180806020018281038252602e815260200180614388602e913960400191505060405180910390fd5b600054610100900460ff161580156126cb576000805460ff1961ff0019909116610100171660011790555b6126d4826131e3565b80156116f7576000805461ff00191690555050565b60006001600160a01b0386166127305760405162461bcd60e51b815260040180806020018281038252602581526020018061430c6025913960400191505060405180910390fd5b600161274361273e8761380f565b61389b565b83868660405160008152602001604052604051808581526020018460ff1660ff1681526020018381526020018281526020019450505050506020604051602081039080840390855afa15801561279d573d6000803e3d6000fd5b505050602060405103516001600160a01b0316866001600160a01b031614905095945050505050565b600082820183811015611ff5576040805162461bcd60e51b815260206004820152601b60248201527a536166654d6174683a206164646974696f6e206f766572666c6f7760281b604482015290519081900360640190fd5b60006128286138e7565b905090565b6001600160a01b0383166128725760405162461bcd60e51b81526004018080602001828103825260238152602001806143e96023913960400191505060405180910390fd5b600061287c61281e565b90506128ac8185600061288e87613638565b61289787613638565b60405180602001604052806000815250612954565b6128f9826040518060600160405280602481526020016141f26024913960008681526097602090815260408083206001600160a01b038b168452909152902054919063ffffffff61296216565b60008481526097602090815260408083206001600160a01b03808a168086529184528285209590955581518881529283018790528151939490939086169260008051602061410083398151915292908290030190a450505050565b611a15868686868686613944565b600081848411156129f15760405162461bcd60e51b81526004018080602001828103825283818151815260200191508051906020019080838360005b838110156129b657818101518382015260200161299e565b50505050905090810190601f1680156129e35780820380516001836020036101000a031916815260200191505b509250505060405180910390fd5b505050900390565b612a0b846001600160a01b0316613996565b15611a1557836001600160a01b031663bc197c8187878686866040518663ffffffff1660e01b815260040180866001600160a01b03166001600160a01b03168152602001856001600160a01b03166001600160a01b03168152602001806020018060200180602001848103845287818151815260200191508051906020019060200280838360005b83811015612aab578181015183820152602001612a93565b50505050905001848103835286818151815260200191508051906020019060200280838360005b83811015612aea578181015183820152602001612ad2565b50505050905001848103825285818151815260200191508051906020019080838360005b83811015612b26578181015183820152602001612b0e565b50505050905090810190601f168015612b535780820380516001836020036101000a031916815260200191505b5098505050505050505050602060405180830381600087803b158015612b7857600080fd5b505af1925050508015612b9d57506040513d6020811015612b9857600080fd5b505160015b612cdd576040516000815260443d1015612bb957506000612c54565b60046000803e60005160e01c6308c379a08114612bda576000915050612c54565b60043d036004833e81513d60248201116001600160401b0382111715612c0557600092505050612c54565b80830180516001600160401b03811115612c26576000945050505050612c54565b8060208301013d8601811115612c4457600095505050505050612c54565b601f01601f191660405250925050505b80612c5f5750612ca6565b60405162461bcd60e51b81526020600482018181528351602484015283518493919283926044019190850190808383600083156129b657818101518382015260200161299e565b60405162461bcd60e51b81526004018080602001828103825260348152602001806140536034913960400191505060405180910390fd5b6001600160e01b0319811663bc197c8160e01b14612d2c5760405162461bcd60e51b81526004018080602001828103825260288152602001806140a96028913960400191505060405180910390fd5b50505050505050565b6000828152603360205260409020612d53908263ffffffff61399c16565b156116f757612d6061281e565b6001600160a01b0316816001600160a01b0316837f2f8788117e7eff1d82e926ec794901d17c78024a50270940304540a733656f0d60405160405180910390a45050565b6000828152603360205260409020612dc2908263ffffffff6139b116565b156116f757612dcf61281e565b6001600160a01b0316816001600160a01b0316837ff6391f5c32d9c69d2a47ea670b442974b53935d1edc7fd64eb21e047a839171b60405160405180910390a45050565b60fb5460ff16612e61576040805162461bcd60e51b815260206004820152601460248201527314185d5cd8589b194e881b9bdd081c185d5cd95960621b604482015290519081900360640190fd5b60fb805460ff191690557f5db9ee0a495bf2e6ff9c91a7834c1ba4fdd244a5e8aa4e537bd38aeae4b073aa612e9461281e565b604080516001600160a01b039092168252519081900360200190a1565b6001600160a01b038316612ef65760405162461bcd60e51b81526004018080602001828103825260238152602001806143e96023913960400191505060405180910390fd5b8051825114612f365760405162461bcd60e51b81526004018080602001828103825260288152602001806145936028913960400191505060405180910390fd5b6000612f4061281e565b9050612f6081856000868660405180602001604052806000815250612954565b60005b835181101561303e57612ff5838281518110612f7b57fe5b60200260200101516040518060600160405280602481526020016141f26024913960976000888681518110612fac57fe5b602002602001015181526020019081526020016000206000896001600160a01b03166001600160a01b03168152602001908152602001600020546129629092919063ffffffff16565b6097600086848151811061300557fe5b602090810291909101810151825281810192909252604090810160009081206001600160a01b038a168252909252902055600101612f63565b5060006001600160a01b0316846001600160a01b0316826001600160a01b03166000805160206140338339815191528686604051808060200180602001838103835285818151815260200191508051906020019060200280838360005b838110156130b357818101518382015260200161309b565b50505050905001838103825284818151815260200191508051906020019060200280838360005b838110156130f25781810151838201526020016130da565b5050505090500194505050505060405180910390a450505050565b80516116f7906099906020840190613f9a565b6040518060800160405280604f8152602001614238604f913980516020918201208251838301206040805180820190915260018152603160f81b930192909252907fc89efdaa54c0f20c7adf612882df0950f5a951637e0307cdcb4c672f298b8bc63061318b611a85565b604080516020808201979097528082019590955260608501939093526001600160a01b03909116608084015260a0808401919091528151808403909101815260c0909201905280519101206101915550565b303b1590565b600054610100900460ff16806131fc57506131fc6131dd565b8061320a575060005460ff16155b6132455760405162461bcd60e51b815260040180806020018281038252602e815260200180614388602e913960400191505060405180910390fd5b600054610100900460ff16158015613270576000805460ff1961ff0019909116610100171660011790555b6132786139c6565b6132806139c6565b613288613a68565b61329182613b05565b6132996139c6565b6132a1613bbb565b6132a96139c6565b6126d482613c66565b600054610100900460ff16806132cb57506132cb6131dd565b806132d9575060005460ff16155b6133145760405162461bcd60e51b815260040180806020018281038252602e815260200180614388602e913960400191505060405180910390fd5b600054610100900460ff1615801561333f576000805460ff1961ff0019909116610100171660011790555b6126d482613120565b60fb5460ff1615613393576040805162461bcd60e51b815260206004820152601060248201526f14185d5cd8589b194e881c185d5cd95960821b604482015290519081900360640190fd5b60fb805460ff191660011790557f62e78cea01bee320cd4e420270b5ea74000d11b0c9f74754ebdbfc544b05a258612e9461281e565b6000611ff58383613d5d565b6000611ff5836001600160a01b038416613dc1565b60006112ab82613dd9565b6001600160a01b03841661343a5760405162461bcd60e51b81526004018080602001828103825260218152602001806145bb6021913960400191505060405180910390fd5b815183511461347a5760405162461bcd60e51b81526004018080602001828103825260288152602001806145936028913960400191505060405180910390fd5b600061348461281e565b905061349581600087878787612954565b60005b845181101561355957613510609760008784815181106134b457fe5b602002602001015181526020019081526020016000206000886001600160a01b03166001600160a01b03168152602001908152602001600020548583815181106134fa57fe5b60200260200101516127c690919063ffffffff16565b6097600087848151811061352057fe5b602090810291909101810151825281810192909252604090810160009081206001600160a01b038b168252909252902055600101613498565b50846001600160a01b031660006001600160a01b0316826001600160a01b03166000805160206140338339815191528787604051808060200180602001838103835285818151815260200191508051906020019060200280838360005b838110156135ce5781810151838201526020016135b6565b50505050905001838103825284818151815260200191508051906020019060200280838360005b8381101561360d5781810151838201526020016135f5565b5050505090500194505050505060405180910390a4613631816000878787876129f9565b5050505050565b60408051600180825281830190925260609182919060208083019080368337019050509050828160008151811061366b57fe5b602090810291909101015292915050565b61368e846001600160a01b0316613996565b15611a1557836001600160a01b031663f23a6e6187878686866040518663ffffffff1660e01b815260040180866001600160a01b03166001600160a01b03168152602001856001600160a01b03166001600160a01b0316815260200184815260200183815260200180602001828103825283818151815260200191508051906020019080838360005b8381101561372f578181015183820152602001613717565b50505050905090810190601f16801561375c5780820380516001836020036101000a031916815260200191505b509650505050505050602060405180830381600087803b15801561377f57600080fd5b505af19250505080156137a457506040513d602081101561379f57600080fd5b505160015b6137c0576040516000815260443d1015612bb957506000612c54565b6001600160e01b0319811663f23a6e6160e01b14612d2c5760405162461bcd60e51b81526004018080602001828103825260288152602001806140a96028913960400191505060405180910390fd5b60006040518060800160405280604381526020016141af60439139805190602001208260000151836020015184604001518051906020012060405160200180858152602001848152602001836001600160a01b03166001600160a01b03168152602001828152602001945050505050604051602081830303815290604052805190602001209050919050565b60006138a56116dd565b82604051602001808061190160f01b81525060020183815260200182815260200192505050604051602081830303815290604052805190602001209050919050565b60003330141561393f5760606000368080601f0160208091040260200160405190810160405280939291908181526020018383808284376000920191909152505050503601516001600160a01b031691506116e29050565b503390565b613952868686868686611a15565b61395a611d4d565b15611a155760405162461bcd60e51b815260040180806020018281038252602c815260200180614287602c913960400191505060405180910390fd5b3b151590565b6000611ff5836001600160a01b038416613ddd565b6000611ff5836001600160a01b038416613e27565b600054610100900460ff16806139df57506139df6131dd565b806139ed575060005460ff16155b613a285760405162461bcd60e51b815260040180806020018281038252602e815260200180614388602e913960400191505060405180910390fd5b600054610100900460ff16158015613a53576000805460ff1961ff0019909116610100171660011790555b8015613a65576000805461ff00191690555b50565b600054610100900460ff1680613a815750613a816131dd565b80613a8f575060005460ff16155b613aca5760405162461bcd60e51b815260040180806020018281038252602e815260200180614388602e913960400191505060405180910390fd5b600054610100900460ff16158015613af5576000805460ff1961ff0019909116610100171660011790555b613a536301ffc9a760e01b613eed565b600054610100900460ff1680613b1e5750613b1e6131dd565b80613b2c575060005460ff16155b613b675760405162461bcd60e51b815260040180806020018281038252602e815260200180614388602e913960400191505060405180910390fd5b600054610100900460ff16158015613b92576000805460ff1961ff0019909116610100171660011790555b613b9b8261310d565b613bab636cdb3d1360e11b613eed565b6126d46303a24d0760e21b613eed565b600054610100900460ff1680613bd45750613bd46131dd565b80613be2575060005460ff16155b613c1d5760405162461bcd60e51b815260040180806020018281038252602e815260200180614388602e913960400191505060405180910390fd5b600054610100900460ff16158015613c48576000805460ff1961ff0019909116610100171660011790555b60fb805460ff191690558015613a65576000805461ff001916905550565b600054610100900460ff1680613c7f5750613c7f6131dd565b80613c8d575060005460ff16155b613cc85760405162461bcd60e51b815260040180806020018281038252602e815260200180614388602e913960400191505060405180910390fd5b600054610100900460ff16158015613cf3576000805460ff1961ff0019909116610100171660011790555b613d056000613d0061281e565b611a7b565b604080516a4d494e5445525f524f4c4560a81b8152905190819003600b019020613d3190613d0061281e565b604080516a5041555345525f524f4c4560a81b8152905190819003600b0190206126d490613d0061281e565b81546000908210613d9f5760405162461bcd60e51b81526004018080602001828103825260228152602001806140876022913960400191505060405180910390fd5b826000018281548110613dae57fe5b9060005260206000200154905092915050565b60009081526001919091016020526040902054151590565b5490565b6000613de98383613dc1565b613e1f575081546001818101845560008481526020808220909301849055845484825282860190935260409020919091556112ab565b5060006112ab565b60008181526001830160205260408120548015613ee35783546000198083019190810190600090879083908110613e5a57fe5b9060005260206000200154905080876000018481548110613e7757fe5b600091825260208083209091019290925582815260018981019092526040902090840190558654879080613ea757fe5b600190038181906000526020600020016000905590558660010160008781526020019081526020016000206000905560019450505050506112ab565b60009150506112ab565b6001600160e01b03198082161415613f4b576040805162461bcd60e51b815260206004820152601c60248201527b115490cc4d8d4e881a5b9d985b1a59081a5b9d195c999858d9481a5960221b604482015290519081900360640190fd5b6001600160e01b0319166000908152606560205260409020805460ff19166001179055565b60405180606001604052806000815260200160006001600160a01b03168152602001606081525090565b828054600181600116156101000203166002900490600052602060002090601f016020900481019282601f10613fdb57805160ff1916838001178555614008565b82800160010185558215614008579182015b82811115614008578251825591602001919060010190613fed565b50614014929150614018565b5090565b6116e291905b80821115614014576000815560010161401e56fe4a39dc06d4c0dbc64b70af90fd698a233a518aa5d07e595d983b8c0526c8f7fb455243313135353a207472616e7366657220746f206e6f6e2045524331313535526563656976657220696d706c656d656e746572456e756d657261626c655365743a20696e646578206f7574206f6620626f756e6473455243313135353a204552433131353552656365697665722072656a656374656420746f6b656e73416363657373436f6e74726f6c3a2073656e646572206d75737420626520616e2061646d696e20746f206772616e74c3d58168c5ae7397731d063d5bbf3d657854427343f4c083240f7aacaa2d0f62536f617050756e6b436f6c6c65637469626c65733a2063616e6e6f74206275726e206f6e206368696c6420636f6e7472616374455243313135353a2062616c616e636520717565727920666f7220746865207a65726f2061646472657373455243313135353a2062617463682062616c616e636520717565727920666f7220746865207a65726f20616464726573734d6574615472616e73616374696f6e2875696e74323536206e6f6e63652c616464726573732066726f6d2c62797465732066756e6374696f6e5369676e617475726529455243313135353a206275726e20616d6f756e7420657863656564732062616c616e63654368696c64455243313135353a20494e56414c49445f4445504f5349545f55534552454950373132446f6d61696e28737472696e67206e616d652c737472696e672076657273696f6e2c6164647265737320766572696679696e67436f6e74726163742c627974657333322073616c7429455243313135355061757361626c653a20746f6b656e207472616e73666572207768696c6520706175736564455243313135353a2063616c6c6572206973206e6f74206f776e6572206e6f7220617070726f766564416363657373436f6e74726f6c3a2073656e646572206d75737420626520616e2061646d696e20746f207265766f6b654e61746976654d6574615472616e73616374696f6e3a20494e56414c49445f5349474e4552455243313135353a207472616e7366657220746f20746865207a65726f2061646472657373455243313135353a207472616e736665722063616c6c6572206973206e6f74206f776e6572206e6f7220617070726f766564496e697469616c697a61626c653a20636f6e747261637420697320616c726561647920696e697469616c697a6564536f617050756e6b436f6c6c65637469626c65733a2063616e6e6f74206d696e74206f6e206368696c6420636f6e7472616374455243313135353a206275726e2066726f6d20746865207a65726f2061646472657373455243313135353a20696e73756666696369656e742062616c616e636520666f72207472616e736665725369676e657220616e64207369676e617475726520646f206e6f74206d61746368536f617050756e6b436f6c6c65637469626c65733a206d75737420686176652061646d696e20726f6c6520746f206368616e676520757269536f617050756e6b436f6c6c65637469626c65733a206d7573742068617665206465706f7369746f7220726f6c6520746f206d616b65206465706f736974455243313135355072657365744d696e7465725061757365723a206d75737420686176652070617573657220726f6c6520746f20756e7061757365455243313135355072657365744d696e7465725061757365723a206d75737420686176652070617573657220726f6c6520746f207061757365455243313135353a2073657474696e6720617070726f76616c2073746174757320666f722073656c66455243313135353a206163636f756e747320616e6420696473206c656e677468206d69736d61746368455243313135353a2069647320616e6420616d6f756e7473206c656e677468206d69736d61746368455243313135353a206d696e7420746f20746865207a65726f2061646472657373416363657373436f6e74726f6c3a2063616e206f6e6c792072656e6f756e636520726f6c657320666f722073656c66a264697066735822122033d2e4c09f9654a31e4a88a8e3d8ffad3b4926ea9420465d616980366a824e6964736f6c63430006060033",
  "immutableReferences": {},
  "source": "pragma solidity ^0.6.0;\n\nimport \"@openzeppelin/contracts-upgradeable/presets/ERC1155PresetMinterPauserUpgradeable.sol\";\nimport {NativeMetaTransaction} from \"../../common/NativeMetaTransaction.sol\";\nimport {ContextMixin} from \"../../common/ContextMixin.sol\";\n\ncontract SoapPunkCollectiblesChild is\n    ERC1155PresetMinterPauserUpgradeable,\n    NativeMetaTransaction,\n    ContextMixin\n{\n    bytes32 public constant DEPOSITOR_ROLE = keccak256(\"DEPOSITOR_ROLE\");\n    mapping (uint256 => bool) public withdrawnTokens;\n\n    function initialize(string memory newuri, address childChainManager) initializer public {\n        __ERC1155PresetMinterPauser_init(newuri);\n\n        _setupRole(DEPOSITOR_ROLE, childChainManager);\n\n        _initializeEIP712(newuri);\n     }\n\n     function setURI(string memory newuri, uint256 id) public {\n         require(hasRole(DEFAULT_ADMIN_ROLE, _msgSender()), \"SoapPunkCollectibles: must have admin role to change uri\");\n\n         emit URI(newuri, id);\n\n         _setURI(newuri);\n         _setDomainSeperator(newuri);\n     }\n\n\n     // Disable minting\n     function mint(address to, uint256 id, uint256 amount, bytes memory data) public override {\n         // No account can mint\n         require(false, \"SoapPunkCollectibles: cannot mint on child contract\");\n     }\n\n     function mintBatch(address to, uint256[] memory ids, uint256[] memory amounts, bytes memory data) public override {\n         // No account can mint\n         require(false, \"SoapPunkCollectibles: cannot mint on child contract\");\n     }\n\n     // Disable burning\n     function burn(address account, uint256 id, uint256 value) public override {\n         // No account can burn\n         require(false, \"SoapPunkCollectibles: cannot burn on child contract\");\n     }\n\n     function burnBatch(address account, uint256[] memory ids, uint256[] memory values) public override {\n         // No account can burn\n         require(false, \"SoapPunkCollectibles: cannot burn on child contract\");\n     }\n\n     //Child\n\n    // This is to support Native meta transactions\n    // never use msg.sender directly, use _msgSender() instead\n    function _msgSender()\n        internal\n        override\n        view\n        returns (address payable sender)\n        {\n            return ContextMixin.msgSender();\n    }\n\n     /**\n     * @notice called when tokens are deposited on root chain\n     * @dev Should be callable only by ChildChainManager\n     * Should handle deposit by minting the required tokens for user\n     * Make sure minting is done only by this function\n     * @param user user address for whom deposit is being done\n     * @param depositData abi encoded ids array and amounts array\n     */\n    function deposit(address user, bytes calldata depositData)\n        external\n    {\n        require(hasRole(DEPOSITOR_ROLE, _msgSender()), \"SoapPunkCollectibles: must have depositor role to make deposit\");\n        (\n            uint256[] memory ids,\n            uint256[] memory amounts,\n            bytes memory data\n        ) = abi.decode(depositData, (uint256[], uint256[], bytes));\n        require(user != address(0x0), \"ChildERC1155: INVALID_DEPOSIT_USER\");\n        _mintBatch(user, ids, amounts, data);\n    }\n\n    /**\n     * @notice called when user wants to withdraw single token back to root chain\n     * @dev Should burn user's tokens. This transaction will be verified when exiting on root chain\n     * @param id id to withdraw\n     * @param amount amount to withdraw\n     */\n    function withdrawSingle(uint256 id, uint256 amount) external {\n        _burn(_msgSender(), id, amount);\n    }\n\n    /**\n     * @notice called when user wants to batch withdraw tokens back to root chain\n     * @dev Should burn user's tokens. This transaction will be verified when exiting on root chain\n     * @param ids ids to withdraw\n     * @param amounts amounts to withdraw\n     */\n    function withdrawBatch(uint256[] calldata ids, uint256[] calldata amounts)\n        external\n    {\n        _burnBatch(_msgSender(), ids, amounts);\n    }\n\n}\n",
  "sourcePath": "/home/gabriel/Documentos/Trabajo/Eibriel/Proyectos/Decentraland/GoldRush/SPContracts/matic/contracts/SoupPunk_child.sol",
  "compiler": {
    "name": "solc",
    "version": "0.6.6+commit.6c089d02.Emscripten.clang"
  },
  "schemaVersion": "3.3.2",
  "updatedAt": "2020-11-23T22:59:06.979Z",
  "networkType": "ethereum",
  "devdoc": {
    "methods": {
      "balanceOf(address,uint256)": {
        "details": "See {IERC1155-balanceOf}.     * Requirements:     * - `account` cannot be the zero address."
      },
      "balanceOfBatch(address[],uint256[])": {
        "details": "See {IERC1155-balanceOfBatch}.     * Requirements:     * - `accounts` and `ids` must have the same length."
      },
      "deposit(address,bytes)": {
        "details": "Should be callable only by ChildChainManager Should handle deposit by minting the required tokens for user Make sure minting is done only by this function",
        "params": {
          "depositData": "abi encoded ids array and amounts array",
          "user": "user address for whom deposit is being done"
        }
      },
      "getRoleAdmin(bytes32)": {
        "details": "Returns the admin role that controls `role`. See {grantRole} and {revokeRole}.     * To change a role's admin, use {_setRoleAdmin}."
      },
      "getRoleMember(bytes32,uint256)": {
        "details": "Returns one of the accounts that have `role`. `index` must be a value between 0 and {getRoleMemberCount}, non-inclusive.     * Role bearers are not sorted in any particular way, and their ordering may change at any point.     * WARNING: When using {getRoleMember} and {getRoleMemberCount}, make sure you perform all queries on the same block. See the following https://forum.openzeppelin.com/t/iterating-over-elements-on-enumerableset-in-openzeppelin-contracts/2296[forum post] for more information."
      },
      "getRoleMemberCount(bytes32)": {
        "details": "Returns the number of accounts that have `role`. Can be used together with {getRoleMember} to enumerate all bearers of a role."
      },
      "grantRole(bytes32,address)": {
        "details": "Grants `role` to `account`.     * If `account` had not been already granted `role`, emits a {RoleGranted} event.     * Requirements:     * - the caller must have ``role``'s admin role."
      },
      "hasRole(bytes32,address)": {
        "details": "Returns `true` if `account` has been granted `role`."
      },
      "isApprovedForAll(address,address)": {
        "details": "See {IERC1155-isApprovedForAll}."
      },
      "pause()": {
        "details": "Pauses all token transfers.     * See {ERC1155Pausable} and {Pausable-_pause}.     * Requirements:     * - the caller must have the `PAUSER_ROLE`."
      },
      "paused()": {
        "details": "Returns true if the contract is paused, and false otherwise."
      },
      "renounceRole(bytes32,address)": {
        "details": "Revokes `role` from the calling account.     * Roles are often managed via {grantRole} and {revokeRole}: this function's purpose is to provide a mechanism for accounts to lose their privileges if they are compromised (such as when a trusted device is misplaced).     * If the calling account had been granted `role`, emits a {RoleRevoked} event.     * Requirements:     * - the caller must be `account`."
      },
      "revokeRole(bytes32,address)": {
        "details": "Revokes `role` from `account`.     * If `account` had been granted `role`, emits a {RoleRevoked} event.     * Requirements:     * - the caller must have ``role``'s admin role."
      },
      "safeBatchTransferFrom(address,address,uint256[],uint256[],bytes)": {
        "details": "See {IERC1155-safeBatchTransferFrom}."
      },
      "safeTransferFrom(address,address,uint256,uint256,bytes)": {
        "details": "See {IERC1155-safeTransferFrom}."
      },
      "setApprovalForAll(address,bool)": {
        "details": "See {IERC1155-setApprovalForAll}."
      },
      "supportsInterface(bytes4)": {
        "details": "See {IERC165-supportsInterface}.     * Time complexity O(1), guaranteed to always use less than 30 000 gas."
      },
      "unpause()": {
        "details": "Unpauses all token transfers.     * See {ERC1155Pausable} and {Pausable-_unpause}.     * Requirements:     * - the caller must have the `PAUSER_ROLE`."
      },
      "uri(uint256)": {
        "details": "See {IERC1155MetadataURI-uri}.     * This implementation returns the same URI for *all* token types. It relies on the token type ID substitution mechanism https://eips.ethereum.org/EIPS/eip-1155#metadata[defined in the EIP].     * Clients calling this function must replace the `\\{id\\}` substring with the actual token type ID."
      },
      "withdrawBatch(uint256[],uint256[])": {
        "details": "Should burn user's tokens. This transaction will be verified when exiting on root chain",
        "params": {
          "amounts": "amounts to withdraw",
          "ids": "ids to withdraw"
        }
      },
      "withdrawSingle(uint256,uint256)": {
        "details": "Should burn user's tokens. This transaction will be verified when exiting on root chain",
        "params": {
          "amount": "amount to withdraw",
          "id": "id to withdraw"
        }
      }
    }
  },
  "userdoc": {
    "methods": {
      "deposit(address,bytes)": {
        "notice": "called when tokens are deposited on root chain"
      },
      "withdrawBatch(uint256[],uint256[])": {
        "notice": "called when user wants to batch withdraw tokens back to root chain"
      },
      "withdrawSingle(uint256,uint256)": {
        "notice": "called when user wants to withdraw single token back to root chain"
      }
    }
  }
}