{
  "contractName": "SoapPunkCollectiblesChild",
  "abi": [
    {
      "anonymous": false,
      "inputs": [
        {
          "indexed": true,
          "internalType": "address",
          "name": "account",
          "type": "address"
        },
        {
          "indexed": true,
          "internalType": "address",
          "name": "operator",
          "type": "address"
        },
        {
          "indexed": false,
          "internalType": "bool",
          "name": "approved",
          "type": "bool"
        }
      ],
      "name": "ApprovalForAll",
      "type": "event"
    },
    {
      "anonymous": false,
      "inputs": [
        {
          "indexed": false,
          "internalType": "address",
          "name": "userAddress",
          "type": "address"
        },
        {
          "indexed": false,
          "internalType": "address payable",
          "name": "relayerAddress",
          "type": "address"
        },
        {
          "indexed": false,
          "internalType": "bytes",
          "name": "functionSignature",
          "type": "bytes"
        }
      ],
      "name": "MetaTransactionExecuted",
      "type": "event"
    },
    {
      "anonymous": false,
      "inputs": [
        {
          "indexed": false,
          "internalType": "address",
          "name": "account",
          "type": "address"
        }
      ],
      "name": "Paused",
      "type": "event"
    },
    {
      "anonymous": false,
      "inputs": [
        {
          "indexed": true,
          "internalType": "bytes32",
          "name": "role",
          "type": "bytes32"
        },
        {
          "indexed": true,
          "internalType": "bytes32",
          "name": "previousAdminRole",
          "type": "bytes32"
        },
        {
          "indexed": true,
          "internalType": "bytes32",
          "name": "newAdminRole",
          "type": "bytes32"
        }
      ],
      "name": "RoleAdminChanged",
      "type": "event"
    },
    {
      "anonymous": false,
      "inputs": [
        {
          "indexed": true,
          "internalType": "bytes32",
          "name": "role",
          "type": "bytes32"
        },
        {
          "indexed": true,
          "internalType": "address",
          "name": "account",
          "type": "address"
        },
        {
          "indexed": true,
          "internalType": "address",
          "name": "sender",
          "type": "address"
        }
      ],
      "name": "RoleGranted",
      "type": "event"
    },
    {
      "anonymous": false,
      "inputs": [
        {
          "indexed": true,
          "internalType": "bytes32",
          "name": "role",
          "type": "bytes32"
        },
        {
          "indexed": true,
          "internalType": "address",
          "name": "account",
          "type": "address"
        },
        {
          "indexed": true,
          "internalType": "address",
          "name": "sender",
          "type": "address"
        }
      ],
      "name": "RoleRevoked",
      "type": "event"
    },
    {
      "anonymous": false,
      "inputs": [
        {
          "indexed": true,
          "internalType": "address",
          "name": "operator",
          "type": "address"
        },
        {
          "indexed": true,
          "internalType": "address",
          "name": "from",
          "type": "address"
        },
        {
          "indexed": true,
          "internalType": "address",
          "name": "to",
          "type": "address"
        },
        {
          "indexed": false,
          "internalType": "uint256[]",
          "name": "ids",
          "type": "uint256[]"
        },
        {
          "indexed": false,
          "internalType": "uint256[]",
          "name": "values",
          "type": "uint256[]"
        }
      ],
      "name": "TransferBatch",
      "type": "event"
    },
    {
      "anonymous": false,
      "inputs": [
        {
          "indexed": true,
          "internalType": "address",
          "name": "operator",
          "type": "address"
        },
        {
          "indexed": true,
          "internalType": "address",
          "name": "from",
          "type": "address"
        },
        {
          "indexed": true,
          "internalType": "address",
          "name": "to",
          "type": "address"
        },
        {
          "indexed": false,
          "internalType": "uint256",
          "name": "id",
          "type": "uint256"
        },
        {
          "indexed": false,
          "internalType": "uint256",
          "name": "value",
          "type": "uint256"
        }
      ],
      "name": "TransferSingle",
      "type": "event"
    },
    {
      "anonymous": false,
      "inputs": [
        {
          "indexed": false,
          "internalType": "string",
          "name": "value",
          "type": "string"
        },
        {
          "indexed": true,
          "internalType": "uint256",
          "name": "id",
          "type": "uint256"
        }
      ],
      "name": "URI",
      "type": "event"
    },
    {
      "anonymous": false,
      "inputs": [
        {
          "indexed": false,
          "internalType": "address",
          "name": "account",
          "type": "address"
        }
      ],
      "name": "Unpaused",
      "type": "event"
    },
    {
      "inputs": [],
      "name": "DEFAULT_ADMIN_ROLE",
      "outputs": [
        {
          "internalType": "bytes32",
          "name": "",
          "type": "bytes32"
        }
      ],
      "stateMutability": "view",
      "type": "function",
      "constant": true
    },
    {
      "inputs": [],
      "name": "DEPOSITOR_ROLE",
      "outputs": [
        {
          "internalType": "bytes32",
          "name": "",
          "type": "bytes32"
        }
      ],
      "stateMutability": "view",
      "type": "function",
      "constant": true
    },
    {
      "inputs": [],
      "name": "ERC712_VERSION",
      "outputs": [
        {
          "internalType": "string",
          "name": "",
          "type": "string"
        }
      ],
      "stateMutability": "view",
      "type": "function",
      "constant": true
    },
    {
      "inputs": [],
      "name": "MINTER_ROLE",
      "outputs": [
        {
          "internalType": "bytes32",
          "name": "",
          "type": "bytes32"
        }
      ],
      "stateMutability": "view",
      "type": "function",
      "constant": true
    },
    {
      "inputs": [],
      "name": "PAUSER_ROLE",
      "outputs": [
        {
          "internalType": "bytes32",
          "name": "",
          "type": "bytes32"
        }
      ],
      "stateMutability": "view",
      "type": "function",
      "constant": true
    },
    {
      "inputs": [
        {
          "internalType": "address",
          "name": "account",
          "type": "address"
        },
        {
          "internalType": "uint256",
          "name": "id",
          "type": "uint256"
        }
      ],
      "name": "balanceOf",
      "outputs": [
        {
          "internalType": "uint256",
          "name": "",
          "type": "uint256"
        }
      ],
      "stateMutability": "view",
      "type": "function",
      "constant": true
    },
    {
      "inputs": [
        {
          "internalType": "address[]",
          "name": "accounts",
          "type": "address[]"
        },
        {
          "internalType": "uint256[]",
          "name": "ids",
          "type": "uint256[]"
        }
      ],
      "name": "balanceOfBatch",
      "outputs": [
        {
          "internalType": "uint256[]",
          "name": "",
          "type": "uint256[]"
        }
      ],
      "stateMutability": "view",
      "type": "function",
      "constant": true
    },
    {
      "inputs": [
        {
          "internalType": "address",
          "name": "userAddress",
          "type": "address"
        },
        {
          "internalType": "bytes",
          "name": "functionSignature",
          "type": "bytes"
        },
        {
          "internalType": "bytes32",
          "name": "sigR",
          "type": "bytes32"
        },
        {
          "internalType": "bytes32",
          "name": "sigS",
          "type": "bytes32"
        },
        {
          "internalType": "uint8",
          "name": "sigV",
          "type": "uint8"
        }
      ],
      "name": "executeMetaTransaction",
      "outputs": [
        {
          "internalType": "bytes",
          "name": "",
          "type": "bytes"
        }
      ],
      "stateMutability": "payable",
      "type": "function",
      "payable": true
    },
    {
      "inputs": [],
      "name": "getChainId",
      "outputs": [
        {
          "internalType": "uint256",
          "name": "",
          "type": "uint256"
        }
      ],
      "stateMutability": "pure",
      "type": "function",
      "constant": true
    },
    {
      "inputs": [],
      "name": "getDomainSeperator",
      "outputs": [
        {
          "internalType": "bytes32",
          "name": "",
          "type": "bytes32"
        }
      ],
      "stateMutability": "view",
      "type": "function",
      "constant": true
    },
    {
      "inputs": [
        {
          "internalType": "address",
          "name": "user",
          "type": "address"
        }
      ],
      "name": "getNonce",
      "outputs": [
        {
          "internalType": "uint256",
          "name": "nonce",
          "type": "uint256"
        }
      ],
      "stateMutability": "view",
      "type": "function",
      "constant": true
    },
    {
      "inputs": [
        {
          "internalType": "bytes32",
          "name": "role",
          "type": "bytes32"
        }
      ],
      "name": "getRoleAdmin",
      "outputs": [
        {
          "internalType": "bytes32",
          "name": "",
          "type": "bytes32"
        }
      ],
      "stateMutability": "view",
      "type": "function",
      "constant": true
    },
    {
      "inputs": [
        {
          "internalType": "bytes32",
          "name": "role",
          "type": "bytes32"
        },
        {
          "internalType": "uint256",
          "name": "index",
          "type": "uint256"
        }
      ],
      "name": "getRoleMember",
      "outputs": [
        {
          "internalType": "address",
          "name": "",
          "type": "address"
        }
      ],
      "stateMutability": "view",
      "type": "function",
      "constant": true
    },
    {
      "inputs": [
        {
          "internalType": "bytes32",
          "name": "role",
          "type": "bytes32"
        }
      ],
      "name": "getRoleMemberCount",
      "outputs": [
        {
          "internalType": "uint256",
          "name": "",
          "type": "uint256"
        }
      ],
      "stateMutability": "view",
      "type": "function",
      "constant": true
    },
    {
      "inputs": [
        {
          "internalType": "bytes32",
          "name": "role",
          "type": "bytes32"
        },
        {
          "internalType": "address",
          "name": "account",
          "type": "address"
        }
      ],
      "name": "grantRole",
      "outputs": [],
      "stateMutability": "nonpayable",
      "type": "function"
    },
    {
      "inputs": [
        {
          "internalType": "bytes32",
          "name": "role",
          "type": "bytes32"
        },
        {
          "internalType": "address",
          "name": "account",
          "type": "address"
        }
      ],
      "name": "hasRole",
      "outputs": [
        {
          "internalType": "bool",
          "name": "",
          "type": "bool"
        }
      ],
      "stateMutability": "view",
      "type": "function",
      "constant": true
    },
    {
      "inputs": [
        {
          "internalType": "address",
          "name": "account",
          "type": "address"
        },
        {
          "internalType": "address",
          "name": "operator",
          "type": "address"
        }
      ],
      "name": "isApprovedForAll",
      "outputs": [
        {
          "internalType": "bool",
          "name": "",
          "type": "bool"
        }
      ],
      "stateMutability": "view",
      "type": "function",
      "constant": true
    },
    {
      "inputs": [],
      "name": "pause",
      "outputs": [],
      "stateMutability": "nonpayable",
      "type": "function"
    },
    {
      "inputs": [],
      "name": "paused",
      "outputs": [
        {
          "internalType": "bool",
          "name": "",
          "type": "bool"
        }
      ],
      "stateMutability": "view",
      "type": "function",
      "constant": true
    },
    {
      "inputs": [
        {
          "internalType": "bytes32",
          "name": "role",
          "type": "bytes32"
        },
        {
          "internalType": "address",
          "name": "account",
          "type": "address"
        }
      ],
      "name": "renounceRole",
      "outputs": [],
      "stateMutability": "nonpayable",
      "type": "function"
    },
    {
      "inputs": [
        {
          "internalType": "bytes32",
          "name": "role",
          "type": "bytes32"
        },
        {
          "internalType": "address",
          "name": "account",
          "type": "address"
        }
      ],
      "name": "revokeRole",
      "outputs": [],
      "stateMutability": "nonpayable",
      "type": "function"
    },
    {
      "inputs": [
        {
          "internalType": "address",
          "name": "from",
          "type": "address"
        },
        {
          "internalType": "address",
          "name": "to",
          "type": "address"
        },
        {
          "internalType": "uint256[]",
          "name": "ids",
          "type": "uint256[]"
        },
        {
          "internalType": "uint256[]",
          "name": "amounts",
          "type": "uint256[]"
        },
        {
          "internalType": "bytes",
          "name": "data",
          "type": "bytes"
        }
      ],
      "name": "safeBatchTransferFrom",
      "outputs": [],
      "stateMutability": "nonpayable",
      "type": "function"
    },
    {
      "inputs": [
        {
          "internalType": "address",
          "name": "from",
          "type": "address"
        },
        {
          "internalType": "address",
          "name": "to",
          "type": "address"
        },
        {
          "internalType": "uint256",
          "name": "id",
          "type": "uint256"
        },
        {
          "internalType": "uint256",
          "name": "amount",
          "type": "uint256"
        },
        {
          "internalType": "bytes",
          "name": "data",
          "type": "bytes"
        }
      ],
      "name": "safeTransferFrom",
      "outputs": [],
      "stateMutability": "nonpayable",
      "type": "function"
    },
    {
      "inputs": [
        {
          "internalType": "address",
          "name": "operator",
          "type": "address"
        },
        {
          "internalType": "bool",
          "name": "approved",
          "type": "bool"
        }
      ],
      "name": "setApprovalForAll",
      "outputs": [],
      "stateMutability": "nonpayable",
      "type": "function"
    },
    {
      "inputs": [
        {
          "internalType": "bytes4",
          "name": "interfaceId",
          "type": "bytes4"
        }
      ],
      "name": "supportsInterface",
      "outputs": [
        {
          "internalType": "bool",
          "name": "",
          "type": "bool"
        }
      ],
      "stateMutability": "view",
      "type": "function",
      "constant": true
    },
    {
      "inputs": [],
      "name": "unpause",
      "outputs": [],
      "stateMutability": "nonpayable",
      "type": "function"
    },
    {
      "inputs": [
        {
          "internalType": "uint256",
          "name": "",
          "type": "uint256"
        }
      ],
      "name": "uri",
      "outputs": [
        {
          "internalType": "string",
          "name": "",
          "type": "string"
        }
      ],
      "stateMutability": "view",
      "type": "function",
      "constant": true
    },
    {
      "inputs": [
        {
          "internalType": "uint256",
          "name": "",
          "type": "uint256"
        }
      ],
      "name": "withdrawnTokens",
      "outputs": [
        {
          "internalType": "bool",
          "name": "",
          "type": "bool"
        }
      ],
      "stateMutability": "view",
      "type": "function",
      "constant": true
    },
    {
      "inputs": [
        {
          "internalType": "string",
          "name": "newuri",
          "type": "string"
        },
        {
          "internalType": "string",
          "name": "domainSeparator",
          "type": "string"
        },
        {
          "internalType": "address",
          "name": "childChainManager",
          "type": "address"
        }
      ],
      "name": "initialize",
      "outputs": [],
      "stateMutability": "nonpayable",
      "type": "function"
    },
    {
      "inputs": [
        {
          "internalType": "string",
          "name": "uri",
          "type": "string"
        }
      ],
      "name": "initialize",
      "outputs": [],
      "stateMutability": "nonpayable",
      "type": "function"
    },
    {
      "inputs": [
        {
          "internalType": "string",
          "name": "newuri",
          "type": "string"
        },
        {
          "internalType": "uint256",
          "name": "id",
          "type": "uint256"
        }
      ],
      "name": "setURI",
      "outputs": [],
      "stateMutability": "nonpayable",
      "type": "function"
    },
    {
      "inputs": [
        {
          "internalType": "address",
          "name": "to",
          "type": "address"
        },
        {
          "internalType": "uint256",
          "name": "id",
          "type": "uint256"
        },
        {
          "internalType": "uint256",
          "name": "amount",
          "type": "uint256"
        },
        {
          "internalType": "bytes",
          "name": "data",
          "type": "bytes"
        }
      ],
      "name": "mint",
      "outputs": [],
      "stateMutability": "nonpayable",
      "type": "function"
    },
    {
      "inputs": [
        {
          "internalType": "address",
          "name": "to",
          "type": "address"
        },
        {
          "internalType": "uint256[]",
          "name": "ids",
          "type": "uint256[]"
        },
        {
          "internalType": "uint256[]",
          "name": "amounts",
          "type": "uint256[]"
        },
        {
          "internalType": "bytes",
          "name": "data",
          "type": "bytes"
        }
      ],
      "name": "mintBatch",
      "outputs": [],
      "stateMutability": "nonpayable",
      "type": "function"
    },
    {
      "inputs": [
        {
          "internalType": "address",
          "name": "account",
          "type": "address"
        },
        {
          "internalType": "uint256",
          "name": "id",
          "type": "uint256"
        },
        {
          "internalType": "uint256",
          "name": "value",
          "type": "uint256"
        }
      ],
      "name": "burn",
      "outputs": [],
      "stateMutability": "nonpayable",
      "type": "function"
    },
    {
      "inputs": [
        {
          "internalType": "address",
          "name": "account",
          "type": "address"
        },
        {
          "internalType": "uint256[]",
          "name": "ids",
          "type": "uint256[]"
        },
        {
          "internalType": "uint256[]",
          "name": "values",
          "type": "uint256[]"
        }
      ],
      "name": "burnBatch",
      "outputs": [],
      "stateMutability": "nonpayable",
      "type": "function"
    },
    {
      "inputs": [
        {
          "internalType": "address",
          "name": "user",
          "type": "address"
        },
        {
          "internalType": "bytes",
          "name": "depositData",
          "type": "bytes"
        }
      ],
      "name": "deposit",
      "outputs": [],
      "stateMutability": "nonpayable",
      "type": "function"
    },
    {
      "inputs": [
        {
          "internalType": "uint256",
          "name": "id",
          "type": "uint256"
        },
        {
          "internalType": "uint256",
          "name": "amount",
          "type": "uint256"
        }
      ],
      "name": "withdrawSingle",
      "outputs": [],
      "stateMutability": "nonpayable",
      "type": "function"
    },
    {
      "inputs": [
        {
          "internalType": "uint256[]",
          "name": "ids",
          "type": "uint256[]"
        },
        {
          "internalType": "uint256[]",
          "name": "amounts",
          "type": "uint256[]"
        }
      ],
      "name": "withdrawBatch",
      "outputs": [],
      "stateMutability": "nonpayable",
      "type": "function"
    }
  ],
  "bytecode": "0x608060405234801561001057600080fd5b50614611806100206000396000f3fe6080604052600436106101b45760003560e01c8062fdd58e146101b957806301ffc9a714610204578063077f224a1461024c57806307a974fc1461038f5780630c53c51c146103b95780630e89341c146104f05780630f7e59701461051a5780631f7fdffa1461052f57806320379ee5146106f45780632262f53f14610709578063248a9ca3146107395780632d0335ab146107635780632eb2c2d6146107965780632f2ff15d146109645780633408e4701461099d57806336568abe146109b25780633f4ba83a146109eb5780634e1273f414610a005780635c5fb52114610b805780635c975abb14610c4b57806367db3b8f14610c605780636b20c45414610d13578063731133e914610e535780638456cb5914610eac5780639010d07c14610ec157806391d1485414610f0d578063a217fddf14610f46578063a22cb46514610f5b578063a3b0b5a314610f96578063ca15c87314610fab578063cf2c52cb14610fd5578063d539139314611060578063d547741f14611075578063e63ab1e9146110ae578063e985e9c5146110c3578063f242432a146110fe578063f5298aca146111d4578063f62d188814611213575b600080fd5b3480156101c557600080fd5b506101f2600480360360408110156101dc57600080fd5b506001600160a01b0381351690602001356112c4565b60408051918252519081900360200190f35b34801561021057600080fd5b506102386004803603602081101561022757600080fd5b50356001600160e01b031916611336565b604080519115158252519081900360200190f35b34801561025857600080fd5b5061038d6004803603606081101561026f57600080fd5b810190602081018135600160201b81111561028957600080fd5b82018360208201111561029b57600080fd5b803590602001918460018302840111600160201b831117156102bc57600080fd5b91908080601f0160208091040260200160405190810160405280939291908181526020018383808284376000920191909152509295949360208101935035915050600160201b81111561030e57600080fd5b82018360208201111561032057600080fd5b803590602001918460018302840111600160201b8311171561034157600080fd5b91908080601f016020809104026020016040519081016040528093929190818152602001838380828437600092019190915250929550505090356001600160a01b031691506113559050565b005b34801561039b57600080fd5b50610238600480360360208110156103b257600080fd5b5035611424565b61047b600480360360a08110156103cf57600080fd5b6001600160a01b038235169190810190604081016020820135600160201b8111156103f957600080fd5b82018360208201111561040b57600080fd5b803590602001918460018302840111600160201b8311171561042c57600080fd5b91908080601f016020809104026020016040519081016040528093929190818152602001838380828437600092019190915250929550508235935050506020810135906040013560ff1661143a565b6040805160208082528351818301528351919283929083019185019080838360005b838110156104b557818101518382015260200161049d565b50505050905090810190601f1680156104e25780820380516001836020036101000a031916815260200191505b509250505060405180910390f35b3480156104fc57600080fd5b5061047b6004803603602081101561051357600080fd5b5035611749565b34801561052657600080fd5b5061047b6117e1565b34801561053b57600080fd5b5061038d6004803603608081101561055257600080fd5b6001600160a01b038235169190810190604081016020820135600160201b81111561057c57600080fd5b82018360208201111561058e57600080fd5b803590602001918460208302840111600160201b831117156105af57600080fd5b9190808060200260200160405190810160405280939291908181526020018383602002808284376000920191909152509295949360208101935035915050600160201b8111156105fe57600080fd5b82018360208201111561061057600080fd5b803590602001918460208302840111600160201b8311171561063157600080fd5b9190808060200260200160405190810160405280939291908181526020018383602002808284376000920191909152509295949360208101935035915050600160201b81111561068057600080fd5b82018360208201111561069257600080fd5b803590602001918460018302840111600160201b831117156106b357600080fd5b91908080601f0160208091040260200160405190810160405280939291908181526020018383808284376000920191909152509295506117fe945050505050565b34801561070057600080fd5b506101f2611835565b34801561071557600080fd5b5061038d6004803603604081101561072c57600080fd5b508035906020013561183d565b34801561074557600080fd5b506101f26004803603602081101561075c57600080fd5b5035611853565b34801561076f57600080fd5b506101f26004803603602081101561078657600080fd5b50356001600160a01b0316611868565b3480156107a257600080fd5b5061038d600480360360a08110156107b957600080fd5b6001600160a01b038235811692602081013590911691810190606081016040820135600160201b8111156107ec57600080fd5b8201836020820111156107fe57600080fd5b803590602001918460208302840111600160201b8311171561081f57600080fd5b9190808060200260200160405190810160405280939291908181526020018383602002808284376000920191909152509295949360208101935035915050600160201b81111561086e57600080fd5b82018360208201111561088057600080fd5b803590602001918460208302840111600160201b831117156108a157600080fd5b9190808060200260200160405190810160405280939291908181526020018383602002808284376000920191909152509295949360208101935035915050600160201b8111156108f057600080fd5b82018360208201111561090257600080fd5b803590602001918460018302840111600160201b8311171561092357600080fd5b91908080601f016020809104026020016040519081016040528093929190818152602001838380828437600092019190915250929550611884945050505050565b34801561097057600080fd5b5061038d6004803603604081101561098757600080fd5b50803590602001356001600160a01b0316611b75565b3480156109a957600080fd5b506101f2611bdd565b3480156109be57600080fd5b5061038d600480360360408110156109d557600080fd5b50803590602001356001600160a01b0316611be1565b3480156109f757600080fd5b5061038d611c42565b348015610a0c57600080fd5b50610b3060048036036040811015610a2357600080fd5b810190602081018135600160201b811115610a3d57600080fd5b820183602082011115610a4f57600080fd5b803590602001918460208302840111600160201b83111715610a7057600080fd5b9190808060200260200160405190810160405280939291908181526020018383602002808284376000920191909152509295949360208101935035915050600160201b811115610abf57600080fd5b820183602082011115610ad157600080fd5b803590602001918460208302840111600160201b83111715610af257600080fd5b919080806020026020016040519081016040528093929190818152602001838360200280828437600092019190915250929550611ca1945050505050565b60408051602080825283518183015283519192839290830191858101910280838360005b83811015610b6c578181015183820152602001610b54565b505050509050019250505060405180910390f35b348015610b8c57600080fd5b5061038d60048036036040811015610ba357600080fd5b810190602081018135600160201b811115610bbd57600080fd5b820183602082011115610bcf57600080fd5b803590602001918460208302840111600160201b83111715610bf057600080fd5b919390929091602081019035600160201b811115610c0d57600080fd5b820183602082011115610c1f57600080fd5b803590602001918460208302840111600160201b83111715610c4057600080fd5b509092509050611e1e565b348015610c5757600080fd5b50610238611e93565b348015610c6c57600080fd5b5061038d60048036036040811015610c8357600080fd5b810190602081018135600160201b811115610c9d57600080fd5b820183602082011115610caf57600080fd5b803590602001918460018302840111600160201b83111715610cd057600080fd5b91908080601f0160208091040260200160405190810160405280939291908181526020018383808284376000920191909152509295505091359250611e9c915050565b348015610d1f57600080fd5b5061038d60048036036060811015610d3657600080fd5b6001600160a01b038235169190810190604081016020820135600160201b811115610d6057600080fd5b820183602082011115610d7257600080fd5b803590602001918460208302840111600160201b83111715610d9357600080fd5b9190808060200260200160405190810160405280939291908181526020018383602002808284376000920191909152509295949360208101935035915050600160201b811115610de257600080fd5b820183602082011115610df457600080fd5b803590602001918460208302840111600160201b83111715610e1557600080fd5b919080806020026020016040519081016040528093929190818152602001838360200280828437600092019190915250929550611f87945050505050565b348015610e5f57600080fd5b5061038d60048036036080811015610e7657600080fd5b6001600160a01b038235169160208101359160408201359190810190608081016060820135600160201b81111561068057600080fd5b348015610eb857600080fd5b5061038d611fbe565b348015610ecd57600080fd5b50610ef160048036036040811015610ee457600080fd5b508035906020013561201b565b604080516001600160a01b039092168252519081900360200190f35b348015610f1957600080fd5b5061023860048036036040811015610f3057600080fd5b50803590602001356001600160a01b031661203a565b348015610f5257600080fd5b506101f2612052565b348015610f6757600080fd5b5061038d60048036036040811015610f7e57600080fd5b506001600160a01b0381351690602001351515612057565b348015610fa257600080fd5b506101f2612146565b348015610fb757600080fd5b506101f260048036036020811015610fce57600080fd5b5035612158565b348015610fe157600080fd5b5061038d60048036036040811015610ff857600080fd5b6001600160a01b038235169190810190604081016020820135600160201b81111561102257600080fd5b82018360208201111561103457600080fd5b803590602001918460018302840111600160201b8311171561105557600080fd5b50909250905061216f565b34801561106c57600080fd5b506101f26123c1565b34801561108157600080fd5b5061038d6004803603604081101561109857600080fd5b50803590602001356001600160a01b03166123d3565b3480156110ba57600080fd5b506101f261242c565b3480156110cf57600080fd5b50610238600480360360408110156110e657600080fd5b506001600160a01b038135811691602001351661243e565b34801561110a57600080fd5b5061038d600480360360a081101561112157600080fd5b6001600160a01b03823581169260208101359091169160408201359160608101359181019060a081016080820135600160201b81111561116057600080fd5b82018360208201111561117257600080fd5b803590602001918460018302840111600160201b8311171561119357600080fd5b91908080601f01602080910402602001604051908101604052809392919081815260200183838082843760009201919091525092955061246c945050505050565b3480156111e057600080fd5b5061038d600480360360608110156111f757600080fd5b506001600160a01b038135169060208101359060400135611f87565b34801561121f57600080fd5b5061038d6004803603602081101561123657600080fd5b810190602081018135600160201b81111561125057600080fd5b82018360208201111561126257600080fd5b803590602001918460018302840111600160201b8311171561128357600080fd5b91908080601f016020809104026020016040519081016040528093929190818152602001838380828437600092019190915250929550612625945050505050565b60006001600160a01b03831661130b5760405162461bcd60e51b815260040180806020018281038252602b8152602001806140c4602b913960400191505060405180910390fd5b5060008181526097602090815260408083206001600160a01b03861684529091529020545b92915050565b6001600160e01b03191660009081526065602052604090205460ff1690565b600054610100900460ff168061136e575061136e6126d0565b8061137c575060005460ff16155b6113b75760405162461bcd60e51b815260040180806020018281038252602e8152602001806142f9602e913960400191505060405180910390fd5b600054610100900460ff161580156113e2576000805460ff1961ff0019909116610100171660011790555b6113eb846126d6565b61140360008051602061432783398151915283611bd3565b61140c836127a5565b801561141e576000805461ff00191690555b50505050565b6101936020526000908152604090205460ff1681565b6060611444613e3c565b50604080516060810182526001600160a01b0388166000818152610192602090815290849020548352820152908101869052611483878287878761283b565b6114be5760405162461bcd60e51b81526004018080602001828103825260218152602001806143e76021913960400191505060405180910390fd5b6001600160a01b038716600090815261019260205260409020546114e3906001612915565b6101926000896001600160a01b03166001600160a01b03168152602001908152602001600020819055507f5845892132946850460bff5a0083f71031bc5bf9aadcd40f1de79423eac9b10b87338860405180846001600160a01b03168152602001836001600160a01b0316815260200180602001828103825283818151815260200191508051906020019080838360005b8381101561158c578181015183820152602001611574565b50505050905090810190601f1680156115b95780820380516001836020036101000a031916815260200191505b5094505050505060405180910390a160006060306001600160a01b0316888a6040516020018083805190602001908083835b6020831061160a5780518252601f1990920191602091820191016115eb565b6001836020036101000a038019825116818451168082178552505050505050905001826001600160a01b031660601b8152601401925050506040516020818303038152906040526040518082805190602001908083835b602083106116805780518252601f199092019160209182019101611661565b6001836020036101000a0380198251168184511680821785525050505050509050019150506000604051808303816000865af19150503d80600081146116e2576040519150601f19603f3d011682016040523d82523d6000602084013e6116e7565b606091505b50915091508161173d576040805162461bcd60e51b815260206004820152601c60248201527b119d5b98dd1a5bdb8818d85b1b081b9bdd081cdd58d8d95cdcd99d5b60221b604482015290519081900360640190fd5b98975050505050505050565b60998054604080516020601f60026000196101006001881615020190951694909404938401819004810282018101909252828152606093909290918301828280156117d55780601f106117aa576101008083540402835291602001916117d5565b820191906000526020600020905b8154815290600101906020018083116117b857829003601f168201915b50505050509050919050565b604051806040016040528060018152602001603160f81b81525081565b60405162461bcd60e51b81526004018080602001828103825260338152602001806143476033913960400191505060405180910390fd5b610191545b90565b61184f61184861296d565b838361297c565b5050565b60009081526033602052604090206002015490565b6001600160a01b03166000908152610192602052604090205490565b81518351146118c45760405162461bcd60e51b81526004018080602001828103825260288152602001806145646028913960400191505060405180910390fd5b6001600160a01b0384166119095760405162461bcd60e51b81526004018080602001828103825260258152602001806142a26025913960400191505060405180910390fd5b61191161296d565b6001600160a01b0316856001600160a01b0316148061193c575061193c8561193761296d565b61243e565b6119775760405162461bcd60e51b81526004018080602001828103825260328152602001806142c76032913960400191505060405180910390fd5b600061198161296d565b9050611991818787878787612a9d565b60005b8451811015611a975760008582815181106119ab57fe5b6020026020010151905060008583815181106119c357fe5b60200260200101519050611a30816040518060600160405280602a815260200161439d602a91396097600086815260200190815260200160002060008d6001600160a01b03166001600160a01b0316815260200190815260200160002054612aab9092919063ffffffff16565b60008381526097602090815260408083206001600160a01b038e811685529252808320939093558a1681522054611a679082612915565b60009283526097602090815260408085206001600160a01b038c1686529091529092209190915550600101611994565b50846001600160a01b0316866001600160a01b0316826001600160a01b0316600080516020613fa48339815191528787604051808060200180602001838103835285818151815260200191508051906020019060200280838360005b83811015611b0b578181015183820152602001611af3565b50505050905001838103825284818151815260200191508051906020019060200280838360005b83811015611b4a578181015183820152602001611b32565b5050505090500194505050505060405180910390a4611b6d818787878787612b42565b505050505050565b600082815260336020526040902060020154611b9890611b9361296d565b61203a565b611bd35760405162461bcd60e51b815260040180806020018281038252602f815260200180614042602f913960400191505060405180910390fd5b61184f8282612dc1565b4690565b611be961296d565b6001600160a01b0316816001600160a01b031614611c385760405162461bcd60e51b815260040180806020018281038252602f8152602001806145ad602f913960400191505060405180910390fd5b61184f8282612e2a565b611c5c6000805160206143c7833981519152611b9361296d565b611c975760405162461bcd60e51b815260040180806020018281038252603b81526020018061449e603b913960400191505060405180910390fd5b611c9f612e93565b565b60608151835114611ce35760405162461bcd60e51b815260040180806020018281038252602981526020018061453b6029913960400191505060405180910390fd5b606083516001600160401b0381118015611cfc57600080fd5b50604051908082528060200260200182016040528015611d26578160200160208202803683370190505b50905060005b8451811015611e165760006001600160a01b0316858281518110611d4c57fe5b60200260200101516001600160a01b03161415611d9a5760405162461bcd60e51b81526004018080602001828103825260318152602001806140ef6031913960400191505060405180910390fd5b60976000858381518110611daa57fe5b602002602001015181526020019081526020016000206000868381518110611dce57fe5b60200260200101516001600160a01b03166001600160a01b0316815260200190815260200160002054828281518110611e0357fe5b6020908102919091010152600101611d2c565b509392505050565b61141e611e2961296d565b85858080602002602001604051908101604052809392919081815260200183836020028082843760009201919091525050604080516020808902828101820190935288825290935088925087918291850190849080828437600092019190915250612f3192505050565b60fb5460ff1690565b611ea96000611b9361296d565b611ee45760405162461bcd60e51b81526004018080602001828103825260388152602001806144286038913960400191505060405180910390fd5b807f6bb7ff708619ba0610cba295a58592e0451dee2622938c8755667688daf3529b836040518080602001828103825283818151815260200191508051906020019080838360005b83811015611f44578181015183820152602001611f2c565b50505050905090810190601f168015611f715780820380516001836020036101000a031916815260200191505b509250505060405180910390a261184f8261318d565b60405162461bcd60e51b81526004018080602001828103825260338152602001806140916033913960400191505060405180910390fd5b611fd86000805160206143c7833981519152611b9361296d565b6120135760405162461bcd60e51b81526004018080602001828103825260398152602001806144d96039913960400191505060405180910390fd5b611c9f6131a0565b60008281526033602052604081206120339083613221565b9392505050565b6000828152603360205260408120612033908361322d565b600081565b816001600160a01b031661206961296d565b6001600160a01b031614156120af5760405162461bcd60e51b81526004018080602001828103825260298152602001806145126029913960400191505060405180910390fd5b80609860006120bc61296d565b6001600160a01b03908116825260208083019390935260409182016000908120918716808252919093529120805460ff19169215159290921790915561210061296d565b6001600160a01b03167f17307eab39ab6107e8899845ad3d59bd9653f200f220920489ca2b5937696c318360405180821515815260200191505060405180910390a35050565b60008051602061432783398151915281565b600081815260336020526040812061133090613242565b612189600080516020614327833981519152611b9361296d565b6121c45760405162461bcd60e51b815260040180806020018281038252603e815260200180614460603e913960400191505060405180910390fd5b6060806060848460608110156121d957600080fd5b810190602081018135600160201b8111156121f357600080fd5b82018360208201111561220557600080fd5b803590602001918460208302840111600160201b8311171561222657600080fd5b9190808060200260200160405190810160405280939291908181526020018383602002808284376000920191909152509295949360208101935035915050600160201b81111561227557600080fd5b82018360208201111561228757600080fd5b803590602001918460208302840111600160201b831117156122a857600080fd5b9190808060200260200160405190810160405280939291908181526020018383602002808284376000920191909152509295949360208101935035915050600160201b8111156122f757600080fd5b82018360208201111561230957600080fd5b803590602001918460018302840111600160201b8311171561232a57600080fd5b91908080601f016020809104026020016040519081016040528093929190818152602001838380828437600092019190915250979a50959850909650505050506001600160a01b038816151591506123b590505760405162461bcd60e51b81526004018080602001828103825260228152602001806141876022913960400191505060405180910390fd5b611b6d8684848461324d565b60008051602061440883398151915281565b6000828152603360205260409020600201546123f190611b9361296d565b611c385760405162461bcd60e51b815260040180806020018281038252603081526020018061424d6030913960400191505060405180910390fd5b6000805160206143c783398151915281565b6001600160a01b03918216600090815260986020908152604080832093909416825291909152205460ff1690565b6001600160a01b0384166124b15760405162461bcd60e51b81526004018080602001828103825260258152602001806142a26025913960400191505060405180910390fd5b6124b961296d565b6001600160a01b0316856001600160a01b031614806124df57506124df8561193761296d565b61251a5760405162461bcd60e51b81526004018080602001828103825260298152602001806142246029913960400191505060405180910390fd5b600061252461296d565b905061254481878761253588613490565b61253e88613490565b87612a9d565b61258b836040518060600160405280602a815260200161439d602a913960008781526097602090815260408083206001600160a01b038d1684529091529020549190612aab565b60008581526097602090815260408083206001600160a01b038b811685529252808320939093558716815220546125c29084612915565b60008581526097602090815260408083206001600160a01b03808b168086529184529382902094909455805188815291820187905280518a84169386169260008051602061407183398151915292908290030190a4611b6d8187878787876134d4565b600054610100900460ff168061263e575061263e6126d0565b8061264c575060005460ff16155b6126875760405162461bcd60e51b815260040180806020018281038252602e8152602001806142f9602e913960400191505060405180910390fd5b600054610100900460ff161580156126b2576000805460ff1961ff0019909116610100171660011790555b6126bb826126d6565b801561184f576000805461ff00191690555050565b303b1590565b600054610100900460ff16806126ef57506126ef6126d0565b806126fd575060005460ff16155b6127385760405162461bcd60e51b815260040180806020018281038252602e8152602001806142f9602e913960400191505060405180910390fd5b600054610100900460ff16158015612763576000805460ff1961ff0019909116610100171660011790555b61276b613645565b612773613645565b61277b6136e7565b61278482613784565b61278c613645565b61279461383a565b61279c613645565b6126bb826138e5565b600054610100900460ff16806127be57506127be6126d0565b806127cc575060005460ff16155b6128075760405162461bcd60e51b815260040180806020018281038252602e8152602001806142f9602e913960400191505060405180910390fd5b600054610100900460ff16158015612832576000805460ff1961ff0019909116610100171660011790555b6126bb826139b8565b60006001600160a01b0386166128825760405162461bcd60e51b815260040180806020018281038252602581526020018061427d6025913960400191505060405180910390fd5b600161289561289087613a7b565b613afe565b83868660405160008152602001604052604051808581526020018460ff1681526020018381526020018281526020019450505050506020604051602081039080840390855afa1580156128ec573d6000803e3d6000fd5b505050602060405103516001600160a01b0316866001600160a01b031614905095945050505050565b600082820183811015612033576040805162461bcd60e51b815260206004820152601b60248201527a536166654d6174683a206164646974696f6e206f766572666c6f7760281b604482015290519081900360640190fd5b6000612977613b4a565b905090565b6001600160a01b0383166129c15760405162461bcd60e51b815260040180806020018281038252602381526020018061437a6023913960400191505060405180910390fd5b60006129cb61296d565b90506129fb818560006129dd87613490565b6129e687613490565b60405180602001604052806000815250612a9d565b612a42826040518060600160405280602481526020016141636024913960008681526097602090815260408083206001600160a01b038b1684529091529020549190612aab565b60008481526097602090815260408083206001600160a01b03808a168086529184528285209590955581518881529283018790528151939490939086169260008051602061407183398151915292908290030190a450505050565b611b6d868686868686613ba7565b60008184841115612b3a5760405162461bcd60e51b81526004018080602001828103825283818151815260200191508051906020019080838360005b83811015612aff578181015183820152602001612ae7565b50505050905090810190601f168015612b2c5780820380516001836020036101000a031916815260200191505b509250505060405180910390fd5b505050900390565b612b54846001600160a01b0316613bf9565b15611b6d57836001600160a01b031663bc197c8187878686866040518663ffffffff1660e01b815260040180866001600160a01b03168152602001856001600160a01b03168152602001806020018060200180602001848103845287818151815260200191508051906020019060200280838360005b83811015612be2578181015183820152602001612bca565b50505050905001848103835286818151815260200191508051906020019060200280838360005b83811015612c21578181015183820152602001612c09565b50505050905001848103825285818151815260200191508051906020019080838360005b83811015612c5d578181015183820152602001612c45565b50505050905090810190601f168015612c8a5780820380516001836020036101000a031916815260200191505b5098505050505050505050602060405180830381600087803b158015612caf57600080fd5b505af1925050508015612cd457506040513d6020811015612ccf57600080fd5b505160015b612d6957612ce0613eff565b80612ceb5750612d32565b60405162461bcd60e51b8152602060048201818152835160248401528351849391928392604401919085019080838360008315612aff578181015183820152602001612ae7565b60405162461bcd60e51b8152600401808060200182810382526034815260200180613fc46034913960400191505060405180910390fd5b6001600160e01b0319811663bc197c8160e01b14612db85760405162461bcd60e51b815260040180806020018281038252602881526020018061401a6028913960400191505060405180910390fd5b50505050505050565b6000828152603360205260409020612dd99082613bff565b1561184f57612de661296d565b6001600160a01b0316816001600160a01b0316837f2f8788117e7eff1d82e926ec794901d17c78024a50270940304540a733656f0d60405160405180910390a45050565b6000828152603360205260409020612e429082613c14565b1561184f57612e4f61296d565b6001600160a01b0316816001600160a01b0316837ff6391f5c32d9c69d2a47ea670b442974b53935d1edc7fd64eb21e047a839171b60405160405180910390a45050565b60fb5460ff16612ee1576040805162461bcd60e51b815260206004820152601460248201527314185d5cd8589b194e881b9bdd081c185d5cd95960621b604482015290519081900360640190fd5b60fb805460ff191690557f5db9ee0a495bf2e6ff9c91a7834c1ba4fdd244a5e8aa4e537bd38aeae4b073aa612f1461296d565b604080516001600160a01b039092168252519081900360200190a1565b6001600160a01b038316612f765760405162461bcd60e51b815260040180806020018281038252602381526020018061437a6023913960400191505060405180910390fd5b8051825114612fb65760405162461bcd60e51b81526004018080602001828103825260288152602001806145646028913960400191505060405180910390fd5b6000612fc061296d565b9050612fe081856000868660405180602001604052806000815250612a9d565b60005b83518110156130be57613075838281518110612ffb57fe5b6020026020010151604051806060016040528060248152602001614163602491396097600088868151811061302c57fe5b602002602001015181526020019081526020016000206000896001600160a01b03166001600160a01b0316815260200190815260200160002054612aab9092919063ffffffff16565b6097600086848151811061308557fe5b602090810291909101810151825281810192909252604090810160009081206001600160a01b038a168252909252902055600101612fe3565b5060006001600160a01b0316846001600160a01b0316826001600160a01b0316600080516020613fa48339815191528686604051808060200180602001838103835285818151815260200191508051906020019060200280838360005b8381101561313357818101518382015260200161311b565b50505050905001838103825284818151815260200191508051906020019060200280838360005b8381101561317257818101518382015260200161315a565b5050505090500194505050505060405180910390a450505050565b805161184f906099906020840190613e66565b60fb5460ff16156131eb576040805162461bcd60e51b815260206004820152601060248201526f14185d5cd8589b194e881c185d5cd95960821b604482015290519081900360640190fd5b60fb805460ff191660011790557f62e78cea01bee320cd4e420270b5ea74000d11b0c9f74754ebdbfc544b05a258612f1461296d565b60006120338383613c29565b6000612033836001600160a01b038416613c8d565b600061133082613ca5565b6001600160a01b0384166132925760405162461bcd60e51b815260040180806020018281038252602181526020018061458c6021913960400191505060405180910390fd5b81518351146132d25760405162461bcd60e51b81526004018080602001828103825260288152602001806145646028913960400191505060405180910390fd5b60006132dc61296d565b90506132ed81600087878787612a9d565b60005b84518110156133b1576133686097600087848151811061330c57fe5b602002602001015181526020019081526020016000206000886001600160a01b03166001600160a01b031681526020019081526020016000205485838151811061335257fe5b602002602001015161291590919063ffffffff16565b6097600087848151811061337857fe5b602090810291909101810151825281810192909252604090810160009081206001600160a01b038b1682529092529020556001016132f0565b50846001600160a01b031660006001600160a01b0316826001600160a01b0316600080516020613fa48339815191528787604051808060200180602001838103835285818151815260200191508051906020019060200280838360005b8381101561342657818101518382015260200161340e565b50505050905001838103825284818151815260200191508051906020019060200280838360005b8381101561346557818101518382015260200161344d565b5050505090500194505050505060405180910390a461348981600087878787612b42565b5050505050565b6040805160018082528183019092526060918291906020808301908036833701905050905082816000815181106134c357fe5b602090810291909101015292915050565b6134e6846001600160a01b0316613bf9565b15611b6d57836001600160a01b031663f23a6e6187878686866040518663ffffffff1660e01b815260040180866001600160a01b03168152602001856001600160a01b0316815260200184815260200183815260200180602001828103825283818151815260200191508051906020019080838360005b8381101561357557818101518382015260200161355d565b50505050905090810190601f1680156135a25780820380516001836020036101000a031916815260200191505b509650505050505050602060405180830381600087803b1580156135c557600080fd5b505af19250505080156135ea57506040513d60208110156135e557600080fd5b505160015b6135f657612ce0613eff565b6001600160e01b0319811663f23a6e6160e01b14612db85760405162461bcd60e51b815260040180806020018281038252602881526020018061401a6028913960400191505060405180910390fd5b600054610100900460ff168061365e575061365e6126d0565b8061366c575060005460ff16155b6136a75760405162461bcd60e51b815260040180806020018281038252602e8152602001806142f9602e913960400191505060405180910390fd5b600054610100900460ff161580156136d2576000805460ff1961ff0019909116610100171660011790555b80156136e4576000805461ff00191690555b50565b600054610100900460ff168061370057506137006126d0565b8061370e575060005460ff16155b6137495760405162461bcd60e51b815260040180806020018281038252602e8152602001806142f9602e913960400191505060405180910390fd5b600054610100900460ff16158015613774576000805460ff1961ff0019909116610100171660011790555b6136d26301ffc9a760e01b613ca9565b600054610100900460ff168061379d575061379d6126d0565b806137ab575060005460ff16155b6137e65760405162461bcd60e51b815260040180806020018281038252602e8152602001806142f9602e913960400191505060405180910390fd5b600054610100900460ff16158015613811576000805460ff1961ff0019909116610100171660011790555b61381a8261318d565b61382a636cdb3d1360e11b613ca9565b6126bb6303a24d0760e21b613ca9565b600054610100900460ff168061385357506138536126d0565b80613861575060005460ff16155b61389c5760405162461bcd60e51b815260040180806020018281038252602e8152602001806142f9602e913960400191505060405180910390fd5b600054610100900460ff161580156138c7576000805460ff1961ff0019909116610100171660011790555b60fb805460ff1916905580156136e4576000805461ff001916905550565b600054610100900460ff16806138fe57506138fe6126d0565b8061390c575060005460ff16155b6139475760405162461bcd60e51b815260040180806020018281038252602e8152602001806142f9602e913960400191505060405180910390fd5b600054610100900460ff16158015613972576000805460ff1961ff0019909116610100171660011790555b613984600061397f61296d565b611bd3565b61399e60008051602061440883398151915261397f61296d565b6126bb6000805160206143c783398151915261397f61296d565b6040518060800160405280604f81526020016141a9604f913980516020918201208251838301206040805180820190915260018152603160f81b930192909252907fc89efdaa54c0f20c7adf612882df0950f5a951637e0307cdcb4c672f298b8bc630613a23611bdd565b60001b60405160200180868152602001858152602001848152602001836001600160a01b0316815260200182815260200195505050505050604051602081830303815290604052805190602001206101918190555050565b600060405180608001604052806043815260200161412060439139805190602001208260000151836020015184604001518051906020012060405160200180858152602001848152602001836001600160a01b03168152602001828152602001945050505050604051602081830303815290604052805190602001209050919050565b6000613b08611835565b82604051602001808061190160f01b81525060020183815260200182815260200192505050604051602081830303815290604052805190602001209050919050565b600033301415613ba25760606000368080601f0160208091040260200160405190810160405280939291908181526020018383808284376000920191909152505050503601516001600160a01b0316915061183a9050565b503390565b613bb5868686868686611b6d565b613bbd611e93565b15611b6d5760405162461bcd60e51b815260040180806020018281038252602c8152602001806141f8602c913960400191505060405180910390fd5b3b151590565b6000612033836001600160a01b038416613d2c565b6000612033836001600160a01b038416613d76565b81546000908210613c6b5760405162461bcd60e51b8152600401808060200182810382526022815260200180613ff86022913960400191505060405180910390fd5b826000018281548110613c7a57fe5b9060005260206000200154905092915050565b60009081526001919091016020526040902054151590565b5490565b6001600160e01b03198082161415613d07576040805162461bcd60e51b815260206004820152601c60248201527b115490cc4d8d4e881a5b9d985b1a59081a5b9d195c999858d9481a5960221b604482015290519081900360640190fd5b6001600160e01b0319166000908152606560205260409020805460ff19166001179055565b6000613d388383613c8d565b613d6e57508154600181810184556000848152602080822090930184905584548482528286019093526040902091909155611330565b506000611330565b60008181526001830160205260408120548015613e325783546000198083019190810190600090879083908110613da957fe5b9060005260206000200154905080876000018481548110613dc657fe5b600091825260208083209091019290925582815260018981019092526040902090840190558654879080613df657fe5b60019003818190600052602060002001600090559055866001016000878152602001908152602001600020600090556001945050505050611330565b6000915050611330565b60405180606001604052806000815260200160006001600160a01b03168152602001606081525090565b828054600181600116156101000203166002900490600052602060002090601f016020900481019282601f10613ea757805160ff1916838001178555613ed4565b82800160010185558215613ed4579182015b82811115613ed4578251825591602001919060010190613eb9565b50613ee0929150613ee4565b5090565b5b80821115613ee05760008155600101613ee5565b60e01c90565b600060443d1015613f0f5761183a565b600481823e6308c379a0613f238251613ef9565b14613f2d5761183a565b6040513d600319016004823e80513d6001600160401b038083116024840183101715613f5c575050505061183a565b82840192508251915080821115613f76575050505061183a565b503d83016020828401011115613f8e5750505061183a565b601f01601f191681016020016040529150509056fe4a39dc06d4c0dbc64b70af90fd698a233a518aa5d07e595d983b8c0526c8f7fb455243313135353a207472616e7366657220746f206e6f6e2045524331313535526563656976657220696d706c656d656e746572456e756d657261626c655365743a20696e646578206f7574206f6620626f756e6473455243313135353a204552433131353552656365697665722072656a656374656420746f6b656e73416363657373436f6e74726f6c3a2073656e646572206d75737420626520616e2061646d696e20746f206772616e74c3d58168c5ae7397731d063d5bbf3d657854427343f4c083240f7aacaa2d0f62536f617050756e6b436f6c6c65637469626c65733a2063616e6e6f74206275726e206f6e206368696c6420636f6e7472616374455243313135353a2062616c616e636520717565727920666f7220746865207a65726f2061646472657373455243313135353a2062617463682062616c616e636520717565727920666f7220746865207a65726f20616464726573734d6574615472616e73616374696f6e2875696e74323536206e6f6e63652c616464726573732066726f6d2c62797465732066756e6374696f6e5369676e617475726529455243313135353a206275726e20616d6f756e7420657863656564732062616c616e63654368696c64455243313135353a20494e56414c49445f4445504f5349545f55534552454950373132446f6d61696e28737472696e67206e616d652c737472696e672076657273696f6e2c6164647265737320766572696679696e67436f6e74726163742c627974657333322073616c7429455243313135355061757361626c653a20746f6b656e207472616e73666572207768696c6520706175736564455243313135353a2063616c6c6572206973206e6f74206f776e6572206e6f7220617070726f766564416363657373436f6e74726f6c3a2073656e646572206d75737420626520616e2061646d696e20746f207265766f6b654e61746976654d6574615472616e73616374696f6e3a20494e56414c49445f5349474e4552455243313135353a207472616e7366657220746f20746865207a65726f2061646472657373455243313135353a207472616e736665722063616c6c6572206973206e6f74206f776e6572206e6f7220617070726f766564496e697469616c697a61626c653a20636f6e747261637420697320616c726561647920696e697469616c697a65648f4f2da22e8ac8f11e15f9fc141cddbb5deea8800186560abb6e68c5496619a9536f617050756e6b436f6c6c65637469626c65733a2063616e6e6f74206d696e74206f6e206368696c6420636f6e7472616374455243313135353a206275726e2066726f6d20746865207a65726f2061646472657373455243313135353a20696e73756666696369656e742062616c616e636520666f72207472616e7366657265d7a28e3265b37a6474929f336521b332c1681b933f6cb9f3376673440d862a5369676e657220616e64207369676e617475726520646f206e6f74206d617463689f2df0fed2c77648de5860a4cc508cd0818c85b8b8a1ab4ceeef8d981c8956a6536f617050756e6b436f6c6c65637469626c65733a206d75737420686176652061646d696e20726f6c6520746f206368616e676520757269536f617050756e6b436f6c6c65637469626c65733a206d7573742068617665206465706f7369746f7220726f6c6520746f206d616b65206465706f736974455243313135355072657365744d696e7465725061757365723a206d75737420686176652070617573657220726f6c6520746f20756e7061757365455243313135355072657365744d696e7465725061757365723a206d75737420686176652070617573657220726f6c6520746f207061757365455243313135353a2073657474696e6720617070726f76616c2073746174757320666f722073656c66455243313135353a206163636f756e747320616e6420696473206c656e677468206d69736d61746368455243313135353a2069647320616e6420616d6f756e7473206c656e677468206d69736d61746368455243313135353a206d696e7420746f20746865207a65726f2061646472657373416363657373436f6e74726f6c3a2063616e206f6e6c792072656e6f756e636520726f6c657320666f722073656c66a26469706673582212201e0b0cc9608c83f13e580572c83c5a94ed1db0b8f694cf114e22d16bb5f135f964736f6c634300060c0033",
  "immutableReferences": {},
  "source": "pragma solidity ^0.6.0;\n\nimport \"@openzeppelin/contracts-upgradeable/presets/ERC1155PresetMinterPauserUpgradeable.sol\";\nimport {NativeMetaTransaction} from \"../../common/NativeMetaTransaction.sol\";\nimport {ContextMixin} from \"../../common/ContextMixin.sol\";\n\ncontract SoapPunkCollectiblesChild is\n    ERC1155PresetMinterPauserUpgradeable,\n    NativeMetaTransaction,\n    ContextMixin\n{\n    bytes32 public constant DEPOSITOR_ROLE = keccak256(\"DEPOSITOR_ROLE\");\n    mapping (uint256 => bool) public withdrawnTokens;\n\n    function initialize(string memory newuri, string memory domainSeparator, address childChainManager) initializer public {\n        __ERC1155PresetMinterPauser_init(newuri);\n\n        _setupRole(DEPOSITOR_ROLE, childChainManager);\n\n        _initializeEIP712(domainSeparator);\n     }\n\n     function setURI(string memory newuri, uint256 id) public {\n         require(hasRole(DEFAULT_ADMIN_ROLE, _msgSender()), \"SoapPunkCollectibles: must have admin role to change uri\");\n\n         emit URI(newuri, id);\n\n         _setURI(newuri);\n     }\n\n\n     // Disable minting\n     function mint(address to, uint256 id, uint256 amount, bytes memory data) public override {\n         // No account can mint\n         require(false, \"SoapPunkCollectibles: cannot mint on child contract\");\n     }\n\n     function mintBatch(address to, uint256[] memory ids, uint256[] memory amounts, bytes memory data) public override {\n         // No account can mint\n         require(false, \"SoapPunkCollectibles: cannot mint on child contract\");\n     }\n\n     // Disable burning\n     function burn(address account, uint256 id, uint256 value) public override {\n         // No account can burn\n         require(false, \"SoapPunkCollectibles: cannot burn on child contract\");\n     }\n\n     function burnBatch(address account, uint256[] memory ids, uint256[] memory values) public override {\n         // No account can burn\n         require(false, \"SoapPunkCollectibles: cannot burn on child contract\");\n     }\n\n     //Child\n\n    // This is to support Native meta transactions\n    // never use msg.sender directly, use _msgSender() instead\n    function _msgSender()\n        internal\n        override\n        view\n        returns (address payable sender)\n        {\n            return ContextMixin.msgSender();\n    }\n\n     /**\n     * @notice called when tokens are deposited on root chain\n     * @dev Should be callable only by ChildChainManager\n     * Should handle deposit by minting the required tokens for user\n     * Make sure minting is done only by this function\n     * @param user user address for whom deposit is being done\n     * @param depositData abi encoded ids array and amounts array\n     */\n    function deposit(address user, bytes calldata depositData)\n        external\n    {\n        require(hasRole(DEPOSITOR_ROLE, _msgSender()), \"SoapPunkCollectibles: must have depositor role to make deposit\");\n        (\n            uint256[] memory ids,\n            uint256[] memory amounts,\n            bytes memory data\n        ) = abi.decode(depositData, (uint256[], uint256[], bytes));\n        require(user != address(0x0), \"ChildERC1155: INVALID_DEPOSIT_USER\");\n        _mintBatch(user, ids, amounts, data);\n    }\n\n    /**\n     * @notice called when user wants to withdraw single token back to root chain\n     * @dev Should burn user's tokens. This transaction will be verified when exiting on root chain\n     * @param id id to withdraw\n     * @param amount amount to withdraw\n     */\n    function withdrawSingle(uint256 id, uint256 amount) external {\n        _burn(_msgSender(), id, amount);\n    }\n\n    /**\n     * @notice called when user wants to batch withdraw tokens back to root chain\n     * @dev Should burn user's tokens. This transaction will be verified when exiting on root chain\n     * @param ids ids to withdraw\n     * @param amounts amounts to withdraw\n     */\n    function withdrawBatch(uint256[] calldata ids, uint256[] calldata amounts)\n        external\n    {\n        _burnBatch(_msgSender(), ids, amounts);\n    }\n\n}\n",
  "sourcePath": "/home/gabriel/Documentos/Trabajo/Eibriel/Proyectos/Decentraland/GoldRush/SPContracts/matic/contracts/SoupPunk_child.sol",
  "compiler": {
    "name": "solc",
    "version": "0.6.12+commit.27d51765.Emscripten.clang"
  },
  "schemaVersion": "3.3.2",
  "updatedAt": "2020-11-26T14:07:04.461Z",
  "networkType": "ethereum",
  "devdoc": {
    "kind": "dev",
    "methods": {
      "balanceOf(address,uint256)": {
        "details": "See {IERC1155-balanceOf}. Requirements: - `account` cannot be the zero address."
      },
      "balanceOfBatch(address[],uint256[])": {
        "details": "See {IERC1155-balanceOfBatch}. Requirements: - `accounts` and `ids` must have the same length."
      },
      "deposit(address,bytes)": {
        "details": "Should be callable only by ChildChainManager Should handle deposit by minting the required tokens for user Make sure minting is done only by this function",
        "params": {
          "depositData": "abi encoded ids array and amounts array",
          "user": "user address for whom deposit is being done"
        }
      },
      "getRoleAdmin(bytes32)": {
        "details": "Returns the admin role that controls `role`. See {grantRole} and {revokeRole}. To change a role's admin, use {_setRoleAdmin}."
      },
      "getRoleMember(bytes32,uint256)": {
        "details": "Returns one of the accounts that have `role`. `index` must be a value between 0 and {getRoleMemberCount}, non-inclusive. Role bearers are not sorted in any particular way, and their ordering may change at any point. WARNING: When using {getRoleMember} and {getRoleMemberCount}, make sure you perform all queries on the same block. See the following https://forum.openzeppelin.com/t/iterating-over-elements-on-enumerableset-in-openzeppelin-contracts/2296[forum post] for more information."
      },
      "getRoleMemberCount(bytes32)": {
        "details": "Returns the number of accounts that have `role`. Can be used together with {getRoleMember} to enumerate all bearers of a role."
      },
      "grantRole(bytes32,address)": {
        "details": "Grants `role` to `account`. If `account` had not been already granted `role`, emits a {RoleGranted} event. Requirements: - the caller must have ``role``'s admin role."
      },
      "hasRole(bytes32,address)": {
        "details": "Returns `true` if `account` has been granted `role`."
      },
      "isApprovedForAll(address,address)": {
        "details": "See {IERC1155-isApprovedForAll}."
      },
      "mint(address,uint256,uint256,bytes)": {
        "details": "Creates `amount` new tokens for `to`, of token type `id`. See {ERC1155-_mint}. Requirements: - the caller must have the `MINTER_ROLE`."
      },
      "mintBatch(address,uint256[],uint256[],bytes)": {
        "details": "xref:ROOT:erc1155.adoc#batch-operations[Batched] variant of {mint}."
      },
      "pause()": {
        "details": "Pauses all token transfers. See {ERC1155Pausable} and {Pausable-_pause}. Requirements: - the caller must have the `PAUSER_ROLE`."
      },
      "paused()": {
        "details": "Returns true if the contract is paused, and false otherwise."
      },
      "renounceRole(bytes32,address)": {
        "details": "Revokes `role` from the calling account. Roles are often managed via {grantRole} and {revokeRole}: this function's purpose is to provide a mechanism for accounts to lose their privileges if they are compromised (such as when a trusted device is misplaced). If the calling account had been granted `role`, emits a {RoleRevoked} event. Requirements: - the caller must be `account`."
      },
      "revokeRole(bytes32,address)": {
        "details": "Revokes `role` from `account`. If `account` had been granted `role`, emits a {RoleRevoked} event. Requirements: - the caller must have ``role``'s admin role."
      },
      "safeBatchTransferFrom(address,address,uint256[],uint256[],bytes)": {
        "details": "See {IERC1155-safeBatchTransferFrom}."
      },
      "safeTransferFrom(address,address,uint256,uint256,bytes)": {
        "details": "See {IERC1155-safeTransferFrom}."
      },
      "setApprovalForAll(address,bool)": {
        "details": "See {IERC1155-setApprovalForAll}."
      },
      "supportsInterface(bytes4)": {
        "details": "See {IERC165-supportsInterface}. Time complexity O(1), guaranteed to always use less than 30 000 gas."
      },
      "unpause()": {
        "details": "Unpauses all token transfers. See {ERC1155Pausable} and {Pausable-_unpause}. Requirements: - the caller must have the `PAUSER_ROLE`."
      },
      "uri(uint256)": {
        "details": "See {IERC1155MetadataURI-uri}. This implementation returns the same URI for *all* token types. It relies on the token type ID substitution mechanism https://eips.ethereum.org/EIPS/eip-1155#metadata[defined in the EIP]. Clients calling this function must replace the `\\{id\\}` substring with the actual token type ID."
      },
      "withdrawBatch(uint256[],uint256[])": {
        "details": "Should burn user's tokens. This transaction will be verified when exiting on root chain",
        "params": {
          "amounts": "amounts to withdraw",
          "ids": "ids to withdraw"
        }
      },
      "withdrawSingle(uint256,uint256)": {
        "details": "Should burn user's tokens. This transaction will be verified when exiting on root chain",
        "params": {
          "amount": "amount to withdraw",
          "id": "id to withdraw"
        }
      }
    },
    "version": 1
  },
  "userdoc": {
    "kind": "user",
    "methods": {
      "deposit(address,bytes)": {
        "notice": "called when tokens are deposited on root chain"
      },
      "withdrawBatch(uint256[],uint256[])": {
        "notice": "called when user wants to batch withdraw tokens back to root chain"
      },
      "withdrawSingle(uint256,uint256)": {
        "notice": "called when user wants to withdraw single token back to root chain"
      }
    },
    "version": 1
  }
}