{
  "contractName": "SoapPunkCollectiblesChild",
  "abi": [
    {
      "anonymous": false,
      "inputs": [
        {
          "indexed": true,
          "internalType": "address",
          "name": "account",
          "type": "address"
        },
        {
          "indexed": true,
          "internalType": "address",
          "name": "operator",
          "type": "address"
        },
        {
          "indexed": false,
          "internalType": "bool",
          "name": "approved",
          "type": "bool"
        }
      ],
      "name": "ApprovalForAll",
      "type": "event"
    },
    {
      "anonymous": false,
      "inputs": [
        {
          "indexed": false,
          "internalType": "address",
          "name": "userAddress",
          "type": "address"
        },
        {
          "indexed": false,
          "internalType": "address payable",
          "name": "relayerAddress",
          "type": "address"
        },
        {
          "indexed": false,
          "internalType": "bytes",
          "name": "functionSignature",
          "type": "bytes"
        }
      ],
      "name": "MetaTransactionExecuted",
      "type": "event"
    },
    {
      "anonymous": false,
      "inputs": [
        {
          "indexed": false,
          "internalType": "address",
          "name": "account",
          "type": "address"
        }
      ],
      "name": "Paused",
      "type": "event"
    },
    {
      "anonymous": false,
      "inputs": [
        {
          "indexed": true,
          "internalType": "bytes32",
          "name": "role",
          "type": "bytes32"
        },
        {
          "indexed": true,
          "internalType": "bytes32",
          "name": "previousAdminRole",
          "type": "bytes32"
        },
        {
          "indexed": true,
          "internalType": "bytes32",
          "name": "newAdminRole",
          "type": "bytes32"
        }
      ],
      "name": "RoleAdminChanged",
      "type": "event"
    },
    {
      "anonymous": false,
      "inputs": [
        {
          "indexed": true,
          "internalType": "bytes32",
          "name": "role",
          "type": "bytes32"
        },
        {
          "indexed": true,
          "internalType": "address",
          "name": "account",
          "type": "address"
        },
        {
          "indexed": true,
          "internalType": "address",
          "name": "sender",
          "type": "address"
        }
      ],
      "name": "RoleGranted",
      "type": "event"
    },
    {
      "anonymous": false,
      "inputs": [
        {
          "indexed": true,
          "internalType": "bytes32",
          "name": "role",
          "type": "bytes32"
        },
        {
          "indexed": true,
          "internalType": "address",
          "name": "account",
          "type": "address"
        },
        {
          "indexed": true,
          "internalType": "address",
          "name": "sender",
          "type": "address"
        }
      ],
      "name": "RoleRevoked",
      "type": "event"
    },
    {
      "anonymous": false,
      "inputs": [
        {
          "indexed": true,
          "internalType": "address",
          "name": "operator",
          "type": "address"
        },
        {
          "indexed": true,
          "internalType": "address",
          "name": "from",
          "type": "address"
        },
        {
          "indexed": true,
          "internalType": "address",
          "name": "to",
          "type": "address"
        },
        {
          "indexed": false,
          "internalType": "uint256[]",
          "name": "ids",
          "type": "uint256[]"
        },
        {
          "indexed": false,
          "internalType": "uint256[]",
          "name": "values",
          "type": "uint256[]"
        }
      ],
      "name": "TransferBatch",
      "type": "event"
    },
    {
      "anonymous": false,
      "inputs": [
        {
          "indexed": true,
          "internalType": "address",
          "name": "operator",
          "type": "address"
        },
        {
          "indexed": true,
          "internalType": "address",
          "name": "from",
          "type": "address"
        },
        {
          "indexed": true,
          "internalType": "address",
          "name": "to",
          "type": "address"
        },
        {
          "indexed": false,
          "internalType": "uint256",
          "name": "id",
          "type": "uint256"
        },
        {
          "indexed": false,
          "internalType": "uint256",
          "name": "value",
          "type": "uint256"
        }
      ],
      "name": "TransferSingle",
      "type": "event"
    },
    {
      "anonymous": false,
      "inputs": [
        {
          "indexed": false,
          "internalType": "string",
          "name": "value",
          "type": "string"
        },
        {
          "indexed": true,
          "internalType": "uint256",
          "name": "id",
          "type": "uint256"
        }
      ],
      "name": "URI",
      "type": "event"
    },
    {
      "anonymous": false,
      "inputs": [
        {
          "indexed": false,
          "internalType": "address",
          "name": "account",
          "type": "address"
        }
      ],
      "name": "Unpaused",
      "type": "event"
    },
    {
      "inputs": [],
      "name": "DEFAULT_ADMIN_ROLE",
      "outputs": [
        {
          "internalType": "bytes32",
          "name": "",
          "type": "bytes32"
        }
      ],
      "stateMutability": "view",
      "type": "function"
    },
    {
      "inputs": [],
      "name": "DEPOSITOR_ROLE",
      "outputs": [
        {
          "internalType": "bytes32",
          "name": "",
          "type": "bytes32"
        }
      ],
      "stateMutability": "view",
      "type": "function"
    },
    {
      "inputs": [],
      "name": "ERC712_VERSION",
      "outputs": [
        {
          "internalType": "string",
          "name": "",
          "type": "string"
        }
      ],
      "stateMutability": "view",
      "type": "function"
    },
    {
      "inputs": [],
      "name": "MINTER_ROLE",
      "outputs": [
        {
          "internalType": "bytes32",
          "name": "",
          "type": "bytes32"
        }
      ],
      "stateMutability": "view",
      "type": "function"
    },
    {
      "inputs": [],
      "name": "PAUSER_ROLE",
      "outputs": [
        {
          "internalType": "bytes32",
          "name": "",
          "type": "bytes32"
        }
      ],
      "stateMutability": "view",
      "type": "function"
    },
    {
      "inputs": [
        {
          "internalType": "address",
          "name": "account",
          "type": "address"
        },
        {
          "internalType": "uint256",
          "name": "id",
          "type": "uint256"
        }
      ],
      "name": "balanceOf",
      "outputs": [
        {
          "internalType": "uint256",
          "name": "",
          "type": "uint256"
        }
      ],
      "stateMutability": "view",
      "type": "function"
    },
    {
      "inputs": [
        {
          "internalType": "address[]",
          "name": "accounts",
          "type": "address[]"
        },
        {
          "internalType": "uint256[]",
          "name": "ids",
          "type": "uint256[]"
        }
      ],
      "name": "balanceOfBatch",
      "outputs": [
        {
          "internalType": "uint256[]",
          "name": "",
          "type": "uint256[]"
        }
      ],
      "stateMutability": "view",
      "type": "function"
    },
    {
      "inputs": [
        {
          "internalType": "address",
          "name": "userAddress",
          "type": "address"
        },
        {
          "internalType": "bytes",
          "name": "functionSignature",
          "type": "bytes"
        },
        {
          "internalType": "bytes32",
          "name": "sigR",
          "type": "bytes32"
        },
        {
          "internalType": "bytes32",
          "name": "sigS",
          "type": "bytes32"
        },
        {
          "internalType": "uint8",
          "name": "sigV",
          "type": "uint8"
        }
      ],
      "name": "executeMetaTransaction",
      "outputs": [
        {
          "internalType": "bytes",
          "name": "",
          "type": "bytes"
        }
      ],
      "stateMutability": "payable",
      "type": "function"
    },
    {
      "inputs": [],
      "name": "getChainId",
      "outputs": [
        {
          "internalType": "uint256",
          "name": "",
          "type": "uint256"
        }
      ],
      "stateMutability": "pure",
      "type": "function"
    },
    {
      "inputs": [],
      "name": "getDomainSeperator",
      "outputs": [
        {
          "internalType": "bytes32",
          "name": "",
          "type": "bytes32"
        }
      ],
      "stateMutability": "view",
      "type": "function"
    },
    {
      "inputs": [
        {
          "internalType": "address",
          "name": "user",
          "type": "address"
        }
      ],
      "name": "getNonce",
      "outputs": [
        {
          "internalType": "uint256",
          "name": "nonce",
          "type": "uint256"
        }
      ],
      "stateMutability": "view",
      "type": "function"
    },
    {
      "inputs": [
        {
          "internalType": "bytes32",
          "name": "role",
          "type": "bytes32"
        }
      ],
      "name": "getRoleAdmin",
      "outputs": [
        {
          "internalType": "bytes32",
          "name": "",
          "type": "bytes32"
        }
      ],
      "stateMutability": "view",
      "type": "function"
    },
    {
      "inputs": [
        {
          "internalType": "bytes32",
          "name": "role",
          "type": "bytes32"
        },
        {
          "internalType": "uint256",
          "name": "index",
          "type": "uint256"
        }
      ],
      "name": "getRoleMember",
      "outputs": [
        {
          "internalType": "address",
          "name": "",
          "type": "address"
        }
      ],
      "stateMutability": "view",
      "type": "function"
    },
    {
      "inputs": [
        {
          "internalType": "bytes32",
          "name": "role",
          "type": "bytes32"
        }
      ],
      "name": "getRoleMemberCount",
      "outputs": [
        {
          "internalType": "uint256",
          "name": "",
          "type": "uint256"
        }
      ],
      "stateMutability": "view",
      "type": "function"
    },
    {
      "inputs": [
        {
          "internalType": "bytes32",
          "name": "role",
          "type": "bytes32"
        },
        {
          "internalType": "address",
          "name": "account",
          "type": "address"
        }
      ],
      "name": "grantRole",
      "outputs": [],
      "stateMutability": "nonpayable",
      "type": "function"
    },
    {
      "inputs": [
        {
          "internalType": "bytes32",
          "name": "role",
          "type": "bytes32"
        },
        {
          "internalType": "address",
          "name": "account",
          "type": "address"
        }
      ],
      "name": "hasRole",
      "outputs": [
        {
          "internalType": "bool",
          "name": "",
          "type": "bool"
        }
      ],
      "stateMutability": "view",
      "type": "function"
    },
    {
      "inputs": [
        {
          "internalType": "address",
          "name": "account",
          "type": "address"
        },
        {
          "internalType": "address",
          "name": "operator",
          "type": "address"
        }
      ],
      "name": "isApprovedForAll",
      "outputs": [
        {
          "internalType": "bool",
          "name": "",
          "type": "bool"
        }
      ],
      "stateMutability": "view",
      "type": "function"
    },
    {
      "inputs": [],
      "name": "pause",
      "outputs": [],
      "stateMutability": "nonpayable",
      "type": "function"
    },
    {
      "inputs": [],
      "name": "paused",
      "outputs": [
        {
          "internalType": "bool",
          "name": "",
          "type": "bool"
        }
      ],
      "stateMutability": "view",
      "type": "function"
    },
    {
      "inputs": [
        {
          "internalType": "bytes32",
          "name": "role",
          "type": "bytes32"
        },
        {
          "internalType": "address",
          "name": "account",
          "type": "address"
        }
      ],
      "name": "renounceRole",
      "outputs": [],
      "stateMutability": "nonpayable",
      "type": "function"
    },
    {
      "inputs": [
        {
          "internalType": "bytes32",
          "name": "role",
          "type": "bytes32"
        },
        {
          "internalType": "address",
          "name": "account",
          "type": "address"
        }
      ],
      "name": "revokeRole",
      "outputs": [],
      "stateMutability": "nonpayable",
      "type": "function"
    },
    {
      "inputs": [
        {
          "internalType": "address",
          "name": "from",
          "type": "address"
        },
        {
          "internalType": "address",
          "name": "to",
          "type": "address"
        },
        {
          "internalType": "uint256[]",
          "name": "ids",
          "type": "uint256[]"
        },
        {
          "internalType": "uint256[]",
          "name": "amounts",
          "type": "uint256[]"
        },
        {
          "internalType": "bytes",
          "name": "data",
          "type": "bytes"
        }
      ],
      "name": "safeBatchTransferFrom",
      "outputs": [],
      "stateMutability": "nonpayable",
      "type": "function"
    },
    {
      "inputs": [
        {
          "internalType": "address",
          "name": "from",
          "type": "address"
        },
        {
          "internalType": "address",
          "name": "to",
          "type": "address"
        },
        {
          "internalType": "uint256",
          "name": "id",
          "type": "uint256"
        },
        {
          "internalType": "uint256",
          "name": "amount",
          "type": "uint256"
        },
        {
          "internalType": "bytes",
          "name": "data",
          "type": "bytes"
        }
      ],
      "name": "safeTransferFrom",
      "outputs": [],
      "stateMutability": "nonpayable",
      "type": "function"
    },
    {
      "inputs": [
        {
          "internalType": "address",
          "name": "operator",
          "type": "address"
        },
        {
          "internalType": "bool",
          "name": "approved",
          "type": "bool"
        }
      ],
      "name": "setApprovalForAll",
      "outputs": [],
      "stateMutability": "nonpayable",
      "type": "function"
    },
    {
      "inputs": [
        {
          "internalType": "bytes4",
          "name": "interfaceId",
          "type": "bytes4"
        }
      ],
      "name": "supportsInterface",
      "outputs": [
        {
          "internalType": "bool",
          "name": "",
          "type": "bool"
        }
      ],
      "stateMutability": "view",
      "type": "function"
    },
    {
      "inputs": [],
      "name": "unpause",
      "outputs": [],
      "stateMutability": "nonpayable",
      "type": "function"
    },
    {
      "inputs": [
        {
          "internalType": "uint256",
          "name": "",
          "type": "uint256"
        }
      ],
      "name": "uri",
      "outputs": [
        {
          "internalType": "string",
          "name": "",
          "type": "string"
        }
      ],
      "stateMutability": "view",
      "type": "function"
    },
    {
      "inputs": [
        {
          "internalType": "uint256",
          "name": "",
          "type": "uint256"
        }
      ],
      "name": "withdrawnTokens",
      "outputs": [
        {
          "internalType": "bool",
          "name": "",
          "type": "bool"
        }
      ],
      "stateMutability": "view",
      "type": "function"
    },
    {
      "inputs": [
        {
          "internalType": "string",
          "name": "newuri",
          "type": "string"
        },
        {
          "internalType": "string",
          "name": "domainSeparator",
          "type": "string"
        },
        {
          "internalType": "address",
          "name": "childChainManager",
          "type": "address"
        }
      ],
      "name": "initialize",
      "outputs": [],
      "stateMutability": "nonpayable",
      "type": "function"
    },
    {
      "inputs": [
        {
          "internalType": "string",
          "name": "uri",
          "type": "string"
        }
      ],
      "name": "initialize",
      "outputs": [],
      "stateMutability": "nonpayable",
      "type": "function"
    },
    {
      "inputs": [
        {
          "internalType": "string",
          "name": "newuri",
          "type": "string"
        },
        {
          "internalType": "uint256",
          "name": "id",
          "type": "uint256"
        }
      ],
      "name": "setURI",
      "outputs": [],
      "stateMutability": "nonpayable",
      "type": "function"
    },
    {
      "inputs": [
        {
          "internalType": "address",
          "name": "to",
          "type": "address"
        },
        {
          "internalType": "uint256",
          "name": "id",
          "type": "uint256"
        },
        {
          "internalType": "uint256",
          "name": "amount",
          "type": "uint256"
        },
        {
          "internalType": "bytes",
          "name": "data",
          "type": "bytes"
        }
      ],
      "name": "mint",
      "outputs": [],
      "stateMutability": "nonpayable",
      "type": "function"
    },
    {
      "inputs": [
        {
          "internalType": "address",
          "name": "to",
          "type": "address"
        },
        {
          "internalType": "uint256[]",
          "name": "ids",
          "type": "uint256[]"
        },
        {
          "internalType": "uint256[]",
          "name": "amounts",
          "type": "uint256[]"
        },
        {
          "internalType": "bytes",
          "name": "data",
          "type": "bytes"
        }
      ],
      "name": "mintBatch",
      "outputs": [],
      "stateMutability": "nonpayable",
      "type": "function"
    },
    {
      "inputs": [
        {
          "internalType": "address",
          "name": "account",
          "type": "address"
        },
        {
          "internalType": "uint256",
          "name": "id",
          "type": "uint256"
        },
        {
          "internalType": "uint256",
          "name": "value",
          "type": "uint256"
        }
      ],
      "name": "burn",
      "outputs": [],
      "stateMutability": "nonpayable",
      "type": "function"
    },
    {
      "inputs": [
        {
          "internalType": "address",
          "name": "account",
          "type": "address"
        },
        {
          "internalType": "uint256[]",
          "name": "ids",
          "type": "uint256[]"
        },
        {
          "internalType": "uint256[]",
          "name": "values",
          "type": "uint256[]"
        }
      ],
      "name": "burnBatch",
      "outputs": [],
      "stateMutability": "nonpayable",
      "type": "function"
    },
    {
      "inputs": [
        {
          "internalType": "address",
          "name": "user",
          "type": "address"
        },
        {
          "internalType": "bytes",
          "name": "depositData",
          "type": "bytes"
        }
      ],
      "name": "deposit",
      "outputs": [],
      "stateMutability": "nonpayable",
      "type": "function"
    },
    {
      "inputs": [
        {
          "internalType": "uint256",
          "name": "id",
          "type": "uint256"
        },
        {
          "internalType": "uint256",
          "name": "amount",
          "type": "uint256"
        }
      ],
      "name": "withdrawSingle",
      "outputs": [],
      "stateMutability": "nonpayable",
      "type": "function"
    },
    {
      "inputs": [
        {
          "internalType": "uint256[]",
          "name": "ids",
          "type": "uint256[]"
        },
        {
          "internalType": "uint256[]",
          "name": "amounts",
          "type": "uint256[]"
        }
      ],
      "name": "withdrawBatch",
      "outputs": [],
      "stateMutability": "nonpayable",
      "type": "function"
    }
  ],
  "bytecode": "0x608060405234801561001057600080fd5b506146b3806100206000396000f3fe6080604052600436106101b45760003560e01c8062fdd58e146101b957806301ffc9a714610204578063077f224a1461024c57806307a974fc1461038f5780630c53c51c146103b95780630e89341c146104f05780630f7e59701461051a5780631f7fdffa1461052f57806320379ee5146106f45780632262f53f14610709578063248a9ca3146107395780632d0335ab146107635780632eb2c2d6146107965780632f2ff15d146109645780633408e4701461099d57806336568abe146109b25780633f4ba83a146109eb5780634e1273f414610a005780635c5fb52114610b805780635c975abb14610c4b57806367db3b8f14610c605780636b20c45414610d13578063731133e914610e535780638456cb5914610eac5780639010d07c14610ec157806391d1485414610f0d578063a217fddf14610f46578063a22cb46514610f5b578063a3b0b5a314610f96578063ca15c87314610fab578063cf2c52cb14610fd5578063d539139314611060578063d547741f14611075578063e63ab1e9146110ae578063e985e9c5146110c3578063f242432a146110fe578063f5298aca146111d4578063f62d188814611213575b600080fd5b3480156101c557600080fd5b506101f2600480360360408110156101dc57600080fd5b506001600160a01b0381351690602001356112c4565b60408051918252519081900360200190f35b34801561021057600080fd5b506102386004803603602081101561022757600080fd5b50356001600160e01b031916611336565b604080519115158252519081900360200190f35b34801561025857600080fd5b5061038d6004803603606081101561026f57600080fd5b810190602081018135600160201b81111561028957600080fd5b82018360208201111561029b57600080fd5b803590602001918460018302840111600160201b831117156102bc57600080fd5b91908080601f0160208091040260200160405190810160405280939291908181526020018383808284376000920191909152509295949360208101935035915050600160201b81111561030e57600080fd5b82018360208201111561032057600080fd5b803590602001918460018302840111600160201b8311171561034157600080fd5b91908080601f016020809104026020016040519081016040528093929190818152602001838380828437600092019190915250929550505090356001600160a01b031691506113559050565b005b34801561039b57600080fd5b50610238600480360360208110156103b257600080fd5b5035611439565b61047b600480360360a08110156103cf57600080fd5b6001600160a01b038235169190810190604081016020820135600160201b8111156103f957600080fd5b82018360208201111561040b57600080fd5b803590602001918460018302840111600160201b8311171561042c57600080fd5b91908080601f016020809104026020016040519081016040528093929190818152602001838380828437600092019190915250929550508235935050506020810135906040013560ff1661144f565b6040805160208082528351818301528351919283929083019185019080838360005b838110156104b557818101518382015260200161049d565b50505050905090810190601f1680156104e25780820380516001836020036101000a031916815260200191505b509250505060405180910390f35b3480156104fc57600080fd5b5061047b6004803603602081101561051357600080fd5b5035611754565b34801561052657600080fd5b5061047b6117ec565b34801561053b57600080fd5b5061038d6004803603608081101561055257600080fd5b6001600160a01b038235169190810190604081016020820135600160201b81111561057c57600080fd5b82018360208201111561058e57600080fd5b803590602001918460208302840111600160201b831117156105af57600080fd5b9190808060200260200160405190810160405280939291908181526020018383602002808284376000920191909152509295949360208101935035915050600160201b8111156105fe57600080fd5b82018360208201111561061057600080fd5b803590602001918460208302840111600160201b8311171561063157600080fd5b9190808060200260200160405190810160405280939291908181526020018383602002808284376000920191909152509295949360208101935035915050600160201b81111561068057600080fd5b82018360208201111561069257600080fd5b803590602001918460018302840111600160201b831117156106b357600080fd5b91908080601f016020809104026020016040519081016040528093929190818152602001838380828437600092019190915250929550611809945050505050565b34801561070057600080fd5b506101f2611840565b34801561071557600080fd5b5061038d6004803603604081101561072c57600080fd5b5080359060200135611848565b34801561074557600080fd5b506101f26004803603602081101561075c57600080fd5b503561185e565b34801561076f57600080fd5b506101f26004803603602081101561078657600080fd5b50356001600160a01b0316611873565b3480156107a257600080fd5b5061038d600480360360a08110156107b957600080fd5b6001600160a01b038235811692602081013590911691810190606081016040820135600160201b8111156107ec57600080fd5b8201836020820111156107fe57600080fd5b803590602001918460208302840111600160201b8311171561081f57600080fd5b9190808060200260200160405190810160405280939291908181526020018383602002808284376000920191909152509295949360208101935035915050600160201b81111561086e57600080fd5b82018360208201111561088057600080fd5b803590602001918460208302840111600160201b831117156108a157600080fd5b9190808060200260200160405190810160405280939291908181526020018383602002808284376000920191909152509295949360208101935035915050600160201b8111156108f057600080fd5b82018360208201111561090257600080fd5b803590602001918460018302840111600160201b8311171561092357600080fd5b91908080601f01602080910402602001604051908101604052809392919081815260200183838082843760009201919091525092955061188f945050505050565b34801561097057600080fd5b5061038d6004803603604081101561098757600080fd5b50803590602001356001600160a01b0316611b80565b3480156109a957600080fd5b506101f2611be8565b3480156109be57600080fd5b5061038d600480360360408110156109d557600080fd5b50803590602001356001600160a01b0316611bec565b3480156109f757600080fd5b5061038d611c4d565b348015610a0c57600080fd5b50610b3060048036036040811015610a2357600080fd5b810190602081018135600160201b811115610a3d57600080fd5b820183602082011115610a4f57600080fd5b803590602001918460208302840111600160201b83111715610a7057600080fd5b9190808060200260200160405190810160405280939291908181526020018383602002808284376000920191909152509295949360208101935035915050600160201b811115610abf57600080fd5b820183602082011115610ad157600080fd5b803590602001918460208302840111600160201b83111715610af257600080fd5b919080806020026020016040519081016040528093929190818152602001838360200280828437600092019190915250929550611cbe945050505050565b60408051602080825283518183015283519192839290830191858101910280838360005b83811015610b6c578181015183820152602001610b54565b505050509050019250505060405180910390f35b348015610b8c57600080fd5b5061038d60048036036040811015610ba357600080fd5b810190602081018135600160201b811115610bbd57600080fd5b820183602082011115610bcf57600080fd5b803590602001918460208302840111600160201b83111715610bf057600080fd5b919390929091602081019035600160201b811115610c0d57600080fd5b820183602082011115610c1f57600080fd5b803590602001918460208302840111600160201b83111715610c4057600080fd5b509092509050611e3b565b348015610c5757600080fd5b50610238611eb0565b348015610c6c57600080fd5b5061038d60048036036040811015610c8357600080fd5b810190602081018135600160201b811115610c9d57600080fd5b820183602082011115610caf57600080fd5b803590602001918460018302840111600160201b83111715610cd057600080fd5b91908080601f0160208091040260200160405190810160405280939291908181526020018383808284376000920191909152509295505091359250611eb9915050565b348015610d1f57600080fd5b5061038d60048036036060811015610d3657600080fd5b6001600160a01b038235169190810190604081016020820135600160201b811115610d6057600080fd5b820183602082011115610d7257600080fd5b803590602001918460208302840111600160201b83111715610d9357600080fd5b9190808060200260200160405190810160405280939291908181526020018383602002808284376000920191909152509295949360208101935035915050600160201b811115610de257600080fd5b820183602082011115610df457600080fd5b803590602001918460208302840111600160201b83111715610e1557600080fd5b919080806020026020016040519081016040528093929190818152602001838360200280828437600092019190915250929550611fa4945050505050565b348015610e5f57600080fd5b5061038d60048036036080811015610e7657600080fd5b6001600160a01b038235169160208101359160408201359190810190608081016060820135600160201b81111561068057600080fd5b348015610eb857600080fd5b5061038d611fdb565b348015610ecd57600080fd5b50610ef160048036036040811015610ee457600080fd5b508035906020013561204a565b604080516001600160a01b039092168252519081900360200190f35b348015610f1957600080fd5b5061023860048036036040811015610f3057600080fd5b50803590602001356001600160a01b031661206f565b348015610f5257600080fd5b506101f261208d565b348015610f6757600080fd5b5061038d60048036036040811015610f7e57600080fd5b506001600160a01b0381351690602001351515612092565b348015610fa257600080fd5b506101f2612181565b348015610fb757600080fd5b506101f260048036036020811015610fce57600080fd5b50356121a7565b348015610fe157600080fd5b5061038d60048036036040811015610ff857600080fd5b6001600160a01b038235169190810190604081016020820135600160201b81111561102257600080fd5b82018360208201111561103457600080fd5b803590602001918460018302840111600160201b8311171561105557600080fd5b5090925090506121be565b34801561106c57600080fd5b506101f2612425565b34801561108157600080fd5b5061038d6004803603604081101561109857600080fd5b50803590602001356001600160a01b0316612448565b3480156110ba57600080fd5b506101f26124a1565b3480156110cf57600080fd5b50610238600480360360408110156110e657600080fd5b506001600160a01b03813581169160200135166124c4565b34801561110a57600080fd5b5061038d600480360360a081101561112157600080fd5b6001600160a01b03823581169260208101359091169160408201359160608101359181019060a081016080820135600160201b81111561116057600080fd5b82018360208201111561117257600080fd5b803590602001918460018302840111600160201b8311171561119357600080fd5b91908080601f0160208091040260200160405190810160405280939291908181526020018383808284376000920191909152509295506124f2945050505050565b3480156111e057600080fd5b5061038d600480360360608110156111f757600080fd5b506001600160a01b038135169060208101359060400135611fa4565b34801561121f57600080fd5b5061038d6004803603602081101561123657600080fd5b810190602081018135600160201b81111561125057600080fd5b82018360208201111561126257600080fd5b803590602001918460018302840111600160201b8311171561128357600080fd5b91908080601f0160208091040260200160405190810160405280939291908181526020018383808284376000920191909152509295506126b1945050505050565b60006001600160a01b03831661130b5760405162461bcd60e51b815260040180806020018281038252602b8152602001806141c6602b913960400191505060405180910390fd5b5060008181526097602090815260408083206001600160a01b03861684529091529020545b92915050565b6001600160e01b03191660009081526065602052604090205460ff1690565b600054610100900460ff168061136e575061136e61275c565b8061137c575060005460ff16155b6113b75760405162461bcd60e51b815260040180806020018281038252602e8152602001806143fb602e913960400191505060405180910390fd5b600054610100900460ff161580156113e2576000805460ff1961ff0019909116610100171660011790555b6113eb84612762565b604080516d4445504f5349544f525f524f4c4560901b8152905190819003600e0190206114189083611bde565b61142183612831565b8015611433576000805461ff00191690555b50505050565b6101936020526000908152604090205460ff1681565b6060611459613fe3565b50604080516060810182526001600160a01b038816600081815261019260209081529084902054835282015290810186905261149887828787876128c7565b6114d35760405162461bcd60e51b81526004018080602001828103825260218152602001806144a96021913960400191505060405180910390fd5b6001600160a01b038716600090815261019260205260409020546114fe90600163ffffffff6129a416565b6001600160a01b0388166000818152610192602090815260408083209490945583519283523383820181905260609484018581528b51958501959095528a517f5845892132946850460bff5a0083f71031bc5bf9aadcd40f1de79423eac9b10b958d9592948d94919260808501928601918190849084905b8381101561158e578181015183820152602001611576565b50505050905090810190601f1680156115bb5780820380516001836020036101000a031916815260200191505b5094505050505060405180910390a160006060306001600160a01b0316888a6040516020018083805190602001908083835b6020831061160c5780518252601f1990920191602091820191016115ed565b6001836020036101000a038019825116818451168082178552505050505050905001826001600160a01b03166001600160a01b031660601b8152601401925050506040516020818303038152906040526040518082805190602001908083835b6020831061168b5780518252601f19909201916020918201910161166c565b6001836020036101000a0380198251168184511680821785525050505050509050019150506000604051808303816000865af19150503d80600081146116ed576040519150601f19603f3d011682016040523d82523d6000602084013e6116f2565b606091505b509150915081611748576040805162461bcd60e51b815260206004820152601c60248201527b119d5b98dd1a5bdb8818d85b1b081b9bdd081cdd58d8d95cdcd99d5b60221b604482015290519081900360640190fd5b98975050505050505050565b60998054604080516020601f60026000196101006001881615020190951694909404938401819004810282018101909252828152606093909290918301828280156117e05780601f106117b5576101008083540402835291602001916117e0565b820191906000526020600020905b8154815290600101906020018083116117c357829003601f168201915b50505050509050919050565b604051806040016040528060018152602001603160f81b81525081565b60405162461bcd60e51b81526004018080602001828103825260338152602001806144296033913960400191505060405180910390fd5b610191545b90565b61185a6118536129fc565b8383612a0b565b5050565b60009081526033602052604090206002015490565b6001600160a01b03166000908152610192602052604090205490565b81518351146118cf5760405162461bcd60e51b81526004018080602001828103825260288152602001806146066028913960400191505060405180910390fd5b6001600160a01b0384166119145760405162461bcd60e51b81526004018080602001828103825260258152602001806143a46025913960400191505060405180910390fd5b61191c6129fc565b6001600160a01b0316856001600160a01b031614806119475750611947856119426129fc565b6124c4565b6119825760405162461bcd60e51b81526004018080602001828103825260328152602001806143c96032913960400191505060405180910390fd5b600061198c6129fc565b905061199c818787878787612b32565b60005b8451811015611aa25760008582815181106119b657fe5b6020026020010151905060008583815181106119ce57fe5b60200260200101519050611a3b816040518060600160405280602a815260200161447f602a91396097600086815260200190815260200160002060008d6001600160a01b03166001600160a01b0316815260200190815260200160002054612b409092919063ffffffff16565b60008381526097602090815260408083206001600160a01b038e811685529252808320939093558a1681522054611a7290826129a4565b60009283526097602090815260408085206001600160a01b038c168652909152909220919091555060010161199f565b50846001600160a01b0316866001600160a01b0316826001600160a01b03166000805160206140a68339815191528787604051808060200180602001838103835285818151815260200191508051906020019060200280838360005b83811015611b16578181015183820152602001611afe565b50505050905001838103825284818151815260200191508051906020019060200280838360005b83811015611b55578181015183820152602001611b3d565b5050505090500194505050505060405180910390a4611b78818787878787612bd7565b505050505050565b600082815260336020526040902060020154611ba390611b9e6129fc565b61206f565b611bde5760405162461bcd60e51b815260040180806020018281038252602f815260200180614144602f913960400191505060405180910390fd5b61185a8282612f13565b4690565b611bf46129fc565b6001600160a01b0316816001600160a01b031614611c435760405162461bcd60e51b815260040180806020018281038252602f81526020018061464f602f913960400191505060405180910390fd5b61185a8282612f82565b604080516a5041555345525f524f4c4560a81b8152905190819003600b019020611c7990611b9e6129fc565b611cb45760405162461bcd60e51b815260040180806020018281038252603b815260200180614540603b913960400191505060405180910390fd5b611cbc612ff1565b565b60608151835114611d005760405162461bcd60e51b81526004018080602001828103825260298152602001806145dd6029913960400191505060405180910390fd5b606083516001600160401b0381118015611d1957600080fd5b50604051908082528060200260200182016040528015611d43578160200160208202803683370190505b50905060005b8451811015611e335760006001600160a01b0316858281518110611d6957fe5b60200260200101516001600160a01b03161415611db75760405162461bcd60e51b81526004018080602001828103825260318152602001806141f16031913960400191505060405180910390fd5b60976000858381518110611dc757fe5b602002602001015181526020019081526020016000206000868381518110611deb57fe5b60200260200101516001600160a01b03166001600160a01b0316815260200190815260200160002054828281518110611e2057fe5b6020908102919091010152600101611d49565b509392505050565b611433611e466129fc565b8585808060200260200160405190810160405280939291908181526020018383602002808284376000920191909152505060408051602080890282810182019093528882529093508892508791829185019084908082843760009201919091525061308f92505050565b60fb5460ff1690565b611ec66000611b9e6129fc565b611f015760405162461bcd60e51b81526004018080602001828103825260388152602001806144ca6038913960400191505060405180910390fd5b807f6bb7ff708619ba0610cba295a58592e0451dee2622938c8755667688daf3529b836040518080602001828103825283818151815260200191508051906020019080838360005b83811015611f61578181015183820152602001611f49565b50505050905090810190601f168015611f8e5780820380516001836020036101000a031916815260200191505b509250505060405180910390a261185a826132eb565b60405162461bcd60e51b81526004018080602001828103825260338152602001806141936033913960400191505060405180910390fd5b604080516a5041555345525f524f4c4560a81b8152905190819003600b01902061200790611b9e6129fc565b6120425760405162461bcd60e51b815260040180806020018281038252603981526020018061457b6039913960400191505060405180910390fd5b611cbc6132fe565b6000828152603360205260408120612068908363ffffffff61337f16565b9392505050565b6000828152603360205260408120612068908363ffffffff61338b16565b600081565b816001600160a01b03166120a46129fc565b6001600160a01b031614156120ea5760405162461bcd60e51b81526004018080602001828103825260298152602001806145b46029913960400191505060405180910390fd5b80609860006120f76129fc565b6001600160a01b03908116825260208083019390935260409182016000908120918716808252919093529120805460ff19169215159290921790915561213b6129fc565b60408051841515815290516001600160a01b0392909216917f17307eab39ab6107e8899845ad3d59bd9653f200f220920489ca2b5937696c319181900360200190a35050565b604080516d4445504f5349544f525f524f4c4560901b8152905190819003600e01902081565b6000818152603360205260408120611330906133a0565b604080516d4445504f5349544f525f524f4c4560901b8152905190819003600e0190206121ed90611b9e6129fc565b6122285760405162461bcd60e51b815260040180806020018281038252603e815260200180614502603e913960400191505060405180910390fd5b60608060608484606081101561223d57600080fd5b810190602081018135600160201b81111561225757600080fd5b82018360208201111561226957600080fd5b803590602001918460208302840111600160201b8311171561228a57600080fd5b9190808060200260200160405190810160405280939291908181526020018383602002808284376000920191909152509295949360208101935035915050600160201b8111156122d957600080fd5b8201836020820111156122eb57600080fd5b803590602001918460208302840111600160201b8311171561230c57600080fd5b9190808060200260200160405190810160405280939291908181526020018383602002808284376000920191909152509295949360208101935035915050600160201b81111561235b57600080fd5b82018360208201111561236d57600080fd5b803590602001918460018302840111600160201b8311171561238e57600080fd5b91908080601f016020809104026020016040519081016040528093929190818152602001838380828437600092019190915250979a50959850909650505050506001600160a01b0388161515915061241990505760405162461bcd60e51b81526004018080602001828103825260228152602001806142896022913960400191505060405180910390fd5b611b78868484846133ab565b604080516a4d494e5445525f524f4c4560a81b8152905190819003600b01902081565b60008281526033602052604090206002015461246690611b9e6129fc565b611c435760405162461bcd60e51b815260040180806020018281038252603081526020018061434f6030913960400191505060405180910390fd5b604080516a5041555345525f524f4c4560a81b8152905190819003600b01902081565b6001600160a01b03918216600090815260986020908152604080832093909416825291909152205460ff1690565b6001600160a01b0384166125375760405162461bcd60e51b81526004018080602001828103825260258152602001806143a46025913960400191505060405180910390fd5b61253f6129fc565b6001600160a01b0316856001600160a01b031614806125655750612565856119426129fc565b6125a05760405162461bcd60e51b81526004018080602001828103825260298152602001806143266029913960400191505060405180910390fd5b60006125aa6129fc565b90506125ca8187876125bb886135ee565b6125c4886135ee565b87612b32565b612617836040518060600160405280602a815260200161447f602a913960008781526097602090815260408083206001600160a01b038d168452909152902054919063ffffffff612b4016565b60008581526097602090815260408083206001600160a01b038b8116855292528083209390935587168152205461264e90846129a4565b60008581526097602090815260408083206001600160a01b03808b168086529184529382902094909455805188815291820187905280518a84169386169260008051602061417383398151915292908290030190a4611b78818787878787613632565b600054610100900460ff16806126ca57506126ca61275c565b806126d8575060005460ff16155b6127135760405162461bcd60e51b815260040180806020018281038252602e8152602001806143fb602e913960400191505060405180910390fd5b600054610100900460ff1615801561273e576000805460ff1961ff0019909116610100171660011790555b61274782612762565b801561185a576000805461ff00191690555050565b303b1590565b600054610100900460ff168061277b575061277b61275c565b80612789575060005460ff16155b6127c45760405162461bcd60e51b815260040180806020018281038252602e8152602001806143fb602e913960400191505060405180910390fd5b600054610100900460ff161580156127ef576000805460ff1961ff0019909116610100171660011790555b6127f76137c5565b6127ff6137c5565b612807613867565b61281082613904565b6128186137c5565b6128206139ba565b6128286137c5565b61274782613a65565b600054610100900460ff168061284a575061284a61275c565b80612858575060005460ff16155b6128935760405162461bcd60e51b815260040180806020018281038252602e8152602001806143fb602e913960400191505060405180910390fd5b600054610100900460ff161580156128be576000805460ff1961ff0019909116610100171660011790555b61274782613b5c565b60006001600160a01b03861661290e5760405162461bcd60e51b815260040180806020018281038252602581526020018061437f6025913960400191505060405180910390fd5b600161292161291c87613c19565b613ca5565b83868660405160008152602001604052604051808581526020018460ff1660ff1681526020018381526020018281526020019450505050506020604051602081039080840390855afa15801561297b573d6000803e3d6000fd5b505050602060405103516001600160a01b0316866001600160a01b031614905095945050505050565b600082820183811015612068576040805162461bcd60e51b815260206004820152601b60248201527a536166654d6174683a206164646974696f6e206f766572666c6f7760281b604482015290519081900360640190fd5b6000612a06613cf1565b905090565b6001600160a01b038316612a505760405162461bcd60e51b815260040180806020018281038252602381526020018061445c6023913960400191505060405180910390fd5b6000612a5a6129fc565b9050612a8a81856000612a6c876135ee565b612a75876135ee565b60405180602001604052806000815250612b32565b612ad7826040518060600160405280602481526020016142656024913960008681526097602090815260408083206001600160a01b038b168452909152902054919063ffffffff612b4016565b60008481526097602090815260408083206001600160a01b03808a168086529184528285209590955581518881529283018790528151939490939086169260008051602061417383398151915292908290030190a450505050565b611b78868686868686613d4e565b60008184841115612bcf5760405162461bcd60e51b81526004018080602001828103825283818151815260200191508051906020019080838360005b83811015612b94578181015183820152602001612b7c565b50505050905090810190601f168015612bc15780820380516001836020036101000a031916815260200191505b509250505060405180910390fd5b505050900390565b612be9846001600160a01b0316613da0565b15611b7857836001600160a01b031663bc197c8187878686866040518663ffffffff1660e01b815260040180866001600160a01b03166001600160a01b03168152602001856001600160a01b03166001600160a01b03168152602001806020018060200180602001848103845287818151815260200191508051906020019060200280838360005b83811015612c89578181015183820152602001612c71565b50505050905001848103835286818151815260200191508051906020019060200280838360005b83811015612cc8578181015183820152602001612cb0565b50505050905001848103825285818151815260200191508051906020019080838360005b83811015612d04578181015183820152602001612cec565b50505050905090810190601f168015612d315780820380516001836020036101000a031916815260200191505b5098505050505050505050602060405180830381600087803b158015612d5657600080fd5b505af1925050508015612d7b57506040513d6020811015612d7657600080fd5b505160015b612ebb576040516000815260443d1015612d9757506000612e32565b60046000803e60005160e01c6308c379a08114612db8576000915050612e32565b60043d036004833e81513d60248201116001600160401b0382111715612de357600092505050612e32565b80830180516001600160401b03811115612e04576000945050505050612e32565b8060208301013d8601811115612e2257600095505050505050612e32565b601f01601f191660405250925050505b80612e3d5750612e84565b60405162461bcd60e51b8152602060048201818152835160248401528351849391928392604401919085019080838360008315612b94578181015183820152602001612b7c565b60405162461bcd60e51b81526004018080602001828103825260348152602001806140c66034913960400191505060405180910390fd5b6001600160e01b0319811663bc197c8160e01b14612f0a5760405162461bcd60e51b815260040180806020018281038252602881526020018061411c6028913960400191505060405180910390fd5b50505050505050565b6000828152603360205260409020612f31908263ffffffff613da616565b1561185a57612f3e6129fc565b6001600160a01b0316816001600160a01b0316837f2f8788117e7eff1d82e926ec794901d17c78024a50270940304540a733656f0d60405160405180910390a45050565b6000828152603360205260409020612fa0908263ffffffff613dbb16565b1561185a57612fad6129fc565b6001600160a01b0316816001600160a01b0316837ff6391f5c32d9c69d2a47ea670b442974b53935d1edc7fd64eb21e047a839171b60405160405180910390a45050565b60fb5460ff1661303f576040805162461bcd60e51b815260206004820152601460248201527314185d5cd8589b194e881b9bdd081c185d5cd95960621b604482015290519081900360640190fd5b60fb805460ff191690557f5db9ee0a495bf2e6ff9c91a7834c1ba4fdd244a5e8aa4e537bd38aeae4b073aa6130726129fc565b604080516001600160a01b039092168252519081900360200190a1565b6001600160a01b0383166130d45760405162461bcd60e51b815260040180806020018281038252602381526020018061445c6023913960400191505060405180910390fd5b80518251146131145760405162461bcd60e51b81526004018080602001828103825260288152602001806146066028913960400191505060405180910390fd5b600061311e6129fc565b905061313e81856000868660405180602001604052806000815250612b32565b60005b835181101561321c576131d383828151811061315957fe5b6020026020010151604051806060016040528060248152602001614265602491396097600088868151811061318a57fe5b602002602001015181526020019081526020016000206000896001600160a01b03166001600160a01b0316815260200190815260200160002054612b409092919063ffffffff16565b609760008684815181106131e357fe5b602090810291909101810151825281810192909252604090810160009081206001600160a01b038a168252909252902055600101613141565b5060006001600160a01b0316846001600160a01b0316826001600160a01b03166000805160206140a68339815191528686604051808060200180602001838103835285818151815260200191508051906020019060200280838360005b83811015613291578181015183820152602001613279565b50505050905001838103825284818151815260200191508051906020019060200280838360005b838110156132d05781810151838201526020016132b8565b5050505090500194505050505060405180910390a450505050565b805161185a90609990602084019061400d565b60fb5460ff1615613349576040805162461bcd60e51b815260206004820152601060248201526f14185d5cd8589b194e881c185d5cd95960821b604482015290519081900360640190fd5b60fb805460ff191660011790557f62e78cea01bee320cd4e420270b5ea74000d11b0c9f74754ebdbfc544b05a2586130726129fc565b60006120688383613dd0565b6000612068836001600160a01b038416613e34565b600061133082613e4c565b6001600160a01b0384166133f05760405162461bcd60e51b815260040180806020018281038252602181526020018061462e6021913960400191505060405180910390fd5b81518351146134305760405162461bcd60e51b81526004018080602001828103825260288152602001806146066028913960400191505060405180910390fd5b600061343a6129fc565b905061344b81600087878787612b32565b60005b845181101561350f576134c66097600087848151811061346a57fe5b602002602001015181526020019081526020016000206000886001600160a01b03166001600160a01b03168152602001908152602001600020548583815181106134b057fe5b60200260200101516129a490919063ffffffff16565b609760008784815181106134d657fe5b602090810291909101810151825281810192909252604090810160009081206001600160a01b038b16825290925290205560010161344e565b50846001600160a01b031660006001600160a01b0316826001600160a01b03166000805160206140a68339815191528787604051808060200180602001838103835285818151815260200191508051906020019060200280838360005b8381101561358457818101518382015260200161356c565b50505050905001838103825284818151815260200191508051906020019060200280838360005b838110156135c35781810151838201526020016135ab565b5050505090500194505050505060405180910390a46135e781600087878787612bd7565b5050505050565b60408051600180825281830190925260609182919060208083019080368337019050509050828160008151811061362157fe5b602090810291909101015292915050565b613644846001600160a01b0316613da0565b15611b7857836001600160a01b031663f23a6e6187878686866040518663ffffffff1660e01b815260040180866001600160a01b03166001600160a01b03168152602001856001600160a01b03166001600160a01b0316815260200184815260200183815260200180602001828103825283818151815260200191508051906020019080838360005b838110156136e55781810151838201526020016136cd565b50505050905090810190601f1680156137125780820380516001836020036101000a031916815260200191505b509650505050505050602060405180830381600087803b15801561373557600080fd5b505af192505050801561375a57506040513d602081101561375557600080fd5b505160015b613776576040516000815260443d1015612d9757506000612e32565b6001600160e01b0319811663f23a6e6160e01b14612f0a5760405162461bcd60e51b815260040180806020018281038252602881526020018061411c6028913960400191505060405180910390fd5b600054610100900460ff16806137de57506137de61275c565b806137ec575060005460ff16155b6138275760405162461bcd60e51b815260040180806020018281038252602e8152602001806143fb602e913960400191505060405180910390fd5b600054610100900460ff16158015613852576000805460ff1961ff0019909116610100171660011790555b8015613864576000805461ff00191690555b50565b600054610100900460ff1680613880575061388061275c565b8061388e575060005460ff16155b6138c95760405162461bcd60e51b815260040180806020018281038252602e8152602001806143fb602e913960400191505060405180910390fd5b600054610100900460ff161580156138f4576000805460ff1961ff0019909116610100171660011790555b6138526301ffc9a760e01b613e50565b600054610100900460ff168061391d575061391d61275c565b8061392b575060005460ff16155b6139665760405162461bcd60e51b815260040180806020018281038252602e8152602001806143fb602e913960400191505060405180910390fd5b600054610100900460ff16158015613991576000805460ff1961ff0019909116610100171660011790555b61399a826132eb565b6139aa636cdb3d1360e11b613e50565b6127476303a24d0760e21b613e50565b600054610100900460ff16806139d357506139d361275c565b806139e1575060005460ff16155b613a1c5760405162461bcd60e51b815260040180806020018281038252602e8152602001806143fb602e913960400191505060405180910390fd5b600054610100900460ff16158015613a47576000805460ff1961ff0019909116610100171660011790555b60fb805460ff191690558015613864576000805461ff001916905550565b600054610100900460ff1680613a7e5750613a7e61275c565b80613a8c575060005460ff16155b613ac75760405162461bcd60e51b815260040180806020018281038252602e8152602001806143fb602e913960400191505060405180910390fd5b600054610100900460ff16158015613af2576000805460ff1961ff0019909116610100171660011790555b613b046000613aff6129fc565b611bde565b604080516a4d494e5445525f524f4c4560a81b8152905190819003600b019020613b3090613aff6129fc565b604080516a5041555345525f524f4c4560a81b8152905190819003600b01902061274790613aff6129fc565b6040518060800160405280604f81526020016142ab604f913980516020918201208251838301206040805180820190915260018152603160f81b930192909252907fc89efdaa54c0f20c7adf612882df0950f5a951637e0307cdcb4c672f298b8bc630613bc7611be8565b604080516020808201979097528082019590955260608501939093526001600160a01b03909116608084015260a0808401919091528151808403909101815260c0909201905280519101206101915550565b600060405180608001604052806043815260200161422260439139805190602001208260000151836020015184604001518051906020012060405160200180858152602001848152602001836001600160a01b03166001600160a01b03168152602001828152602001945050505050604051602081830303815290604052805190602001209050919050565b6000613caf611840565b82604051602001808061190160f01b81525060020183815260200182815260200192505050604051602081830303815290604052805190602001209050919050565b600033301415613d495760606000368080601f0160208091040260200160405190810160405280939291908181526020018383808284376000920191909152505050503601516001600160a01b031691506118459050565b503390565b613d5c868686868686611b78565b613d64611eb0565b15611b785760405162461bcd60e51b815260040180806020018281038252602c8152602001806142fa602c913960400191505060405180910390fd5b3b151590565b6000612068836001600160a01b038416613ed3565b6000612068836001600160a01b038416613f1d565b81546000908210613e125760405162461bcd60e51b81526004018080602001828103825260228152602001806140fa6022913960400191505060405180910390fd5b826000018281548110613e2157fe5b9060005260206000200154905092915050565b60009081526001919091016020526040902054151590565b5490565b6001600160e01b03198082161415613eae576040805162461bcd60e51b815260206004820152601c60248201527b115490cc4d8d4e881a5b9d985b1a59081a5b9d195c999858d9481a5960221b604482015290519081900360640190fd5b6001600160e01b0319166000908152606560205260409020805460ff19166001179055565b6000613edf8383613e34565b613f1557508154600181810184556000848152602080822090930184905584548482528286019093526040902091909155611330565b506000611330565b60008181526001830160205260408120548015613fd95783546000198083019190810190600090879083908110613f5057fe5b9060005260206000200154905080876000018481548110613f6d57fe5b600091825260208083209091019290925582815260018981019092526040902090840190558654879080613f9d57fe5b60019003818190600052602060002001600090559055866001016000878152602001908152602001600020600090556001945050505050611330565b6000915050611330565b60405180606001604052806000815260200160006001600160a01b03168152602001606081525090565b828054600181600116156101000203166002900490600052602060002090601f016020900481019282601f1061404e57805160ff191683800117855561407b565b8280016001018555821561407b579182015b8281111561407b578251825591602001919060010190614060565b5061408792915061408b565b5090565b61184591905b80821115614087576000815560010161409156fe4a39dc06d4c0dbc64b70af90fd698a233a518aa5d07e595d983b8c0526c8f7fb455243313135353a207472616e7366657220746f206e6f6e2045524331313535526563656976657220696d706c656d656e746572456e756d657261626c655365743a20696e646578206f7574206f6620626f756e6473455243313135353a204552433131353552656365697665722072656a656374656420746f6b656e73416363657373436f6e74726f6c3a2073656e646572206d75737420626520616e2061646d696e20746f206772616e74c3d58168c5ae7397731d063d5bbf3d657854427343f4c083240f7aacaa2d0f62536f617050756e6b436f6c6c65637469626c65733a2063616e6e6f74206275726e206f6e206368696c6420636f6e7472616374455243313135353a2062616c616e636520717565727920666f7220746865207a65726f2061646472657373455243313135353a2062617463682062616c616e636520717565727920666f7220746865207a65726f20616464726573734d6574615472616e73616374696f6e2875696e74323536206e6f6e63652c616464726573732066726f6d2c62797465732066756e6374696f6e5369676e617475726529455243313135353a206275726e20616d6f756e7420657863656564732062616c616e63654368696c64455243313135353a20494e56414c49445f4445504f5349545f55534552454950373132446f6d61696e28737472696e67206e616d652c737472696e672076657273696f6e2c6164647265737320766572696679696e67436f6e74726163742c627974657333322073616c7429455243313135355061757361626c653a20746f6b656e207472616e73666572207768696c6520706175736564455243313135353a2063616c6c6572206973206e6f74206f776e6572206e6f7220617070726f766564416363657373436f6e74726f6c3a2073656e646572206d75737420626520616e2061646d696e20746f207265766f6b654e61746976654d6574615472616e73616374696f6e3a20494e56414c49445f5349474e4552455243313135353a207472616e7366657220746f20746865207a65726f2061646472657373455243313135353a207472616e736665722063616c6c6572206973206e6f74206f776e6572206e6f7220617070726f766564496e697469616c697a61626c653a20636f6e747261637420697320616c726561647920696e697469616c697a6564536f617050756e6b436f6c6c65637469626c65733a2063616e6e6f74206d696e74206f6e206368696c6420636f6e7472616374455243313135353a206275726e2066726f6d20746865207a65726f2061646472657373455243313135353a20696e73756666696369656e742062616c616e636520666f72207472616e736665725369676e657220616e64207369676e617475726520646f206e6f74206d61746368536f617050756e6b436f6c6c65637469626c65733a206d75737420686176652061646d696e20726f6c6520746f206368616e676520757269536f617050756e6b436f6c6c65637469626c65733a206d7573742068617665206465706f7369746f7220726f6c6520746f206d616b65206465706f736974455243313135355072657365744d696e7465725061757365723a206d75737420686176652070617573657220726f6c6520746f20756e7061757365455243313135355072657365744d696e7465725061757365723a206d75737420686176652070617573657220726f6c6520746f207061757365455243313135353a2073657474696e6720617070726f76616c2073746174757320666f722073656c66455243313135353a206163636f756e747320616e6420696473206c656e677468206d69736d61746368455243313135353a2069647320616e6420616d6f756e7473206c656e677468206d69736d61746368455243313135353a206d696e7420746f20746865207a65726f2061646472657373416363657373436f6e74726f6c3a2063616e206f6e6c792072656e6f756e636520726f6c657320666f722073656c66a2646970667358221220d5bb4b6f2d25e3ce5c1054b40145eb72aae3992b80828967acafb65b79e96e2c64736f6c63430006060033",
  "immutableReferences": {},
  "source": "pragma solidity ^0.6.0;\n\nimport \"@openzeppelin/contracts-upgradeable/presets/ERC1155PresetMinterPauserUpgradeable.sol\";\nimport {NativeMetaTransaction} from \"../../common/NativeMetaTransaction.sol\";\nimport {ContextMixin} from \"../../common/ContextMixin.sol\";\n\ncontract SoapPunkCollectiblesChild is\n    ERC1155PresetMinterPauserUpgradeable,\n    NativeMetaTransaction,\n    ContextMixin\n{\n    bytes32 public constant DEPOSITOR_ROLE = keccak256(\"DEPOSITOR_ROLE\");\n    mapping (uint256 => bool) public withdrawnTokens;\n\n    function initialize(string memory newuri, string memory domainSeparator, address childChainManager) initializer public {\n        __ERC1155PresetMinterPauser_init(newuri);\n\n        _setupRole(DEPOSITOR_ROLE, childChainManager);\n\n        _initializeEIP712(domainSeparator);\n     }\n\n     function setURI(string memory newuri, uint256 id) public {\n         require(hasRole(DEFAULT_ADMIN_ROLE, _msgSender()), \"SoapPunkCollectibles: must have admin role to change uri\");\n\n         emit URI(newuri, id);\n\n         _setURI(newuri);\n     }\n\n\n     // Disable minting\n     function mint(address to, uint256 id, uint256 amount, bytes memory data) public override {\n         // No account can mint\n         require(false, \"SoapPunkCollectibles: cannot mint on child contract\");\n     }\n\n     function mintBatch(address to, uint256[] memory ids, uint256[] memory amounts, bytes memory data) public override {\n         // No account can mint\n         require(false, \"SoapPunkCollectibles: cannot mint on child contract\");\n     }\n\n     // Disable burning\n     function burn(address account, uint256 id, uint256 value) public override {\n         // No account can burn\n         require(false, \"SoapPunkCollectibles: cannot burn on child contract\");\n     }\n\n     function burnBatch(address account, uint256[] memory ids, uint256[] memory values) public override {\n         // No account can burn\n         require(false, \"SoapPunkCollectibles: cannot burn on child contract\");\n     }\n\n     //Child\n\n    // This is to support Native meta transactions\n    // never use msg.sender directly, use _msgSender() instead\n    function _msgSender()\n        internal\n        override\n        view\n        returns (address payable sender)\n        {\n            return ContextMixin.msgSender();\n    }\n\n     /**\n     * @notice called when tokens are deposited on root chain\n     * @dev Should be callable only by ChildChainManager\n     * Should handle deposit by minting the required tokens for user\n     * Make sure minting is done only by this function\n     * @param user user address for whom deposit is being done\n     * @param depositData abi encoded ids array and amounts array\n     */\n    function deposit(address user, bytes calldata depositData)\n        external\n    {\n        require(hasRole(DEPOSITOR_ROLE, _msgSender()), \"SoapPunkCollectibles: must have depositor role to make deposit\");\n        (\n            uint256[] memory ids,\n            uint256[] memory amounts,\n            bytes memory data\n        ) = abi.decode(depositData, (uint256[], uint256[], bytes));\n        require(user != address(0x0), \"ChildERC1155: INVALID_DEPOSIT_USER\");\n        _mintBatch(user, ids, amounts, data);\n    }\n\n    /**\n     * @notice called when user wants to withdraw single token back to root chain\n     * @dev Should burn user's tokens. This transaction will be verified when exiting on root chain\n     * @param id id to withdraw\n     * @param amount amount to withdraw\n     */\n    function withdrawSingle(uint256 id, uint256 amount) external {\n        _burn(_msgSender(), id, amount);\n    }\n\n    /**\n     * @notice called when user wants to batch withdraw tokens back to root chain\n     * @dev Should burn user's tokens. This transaction will be verified when exiting on root chain\n     * @param ids ids to withdraw\n     * @param amounts amounts to withdraw\n     */\n    function withdrawBatch(uint256[] calldata ids, uint256[] calldata amounts)\n        external\n    {\n        _burnBatch(_msgSender(), ids, amounts);\n    }\n\n}\n",
  "sourcePath": "/home/gabriel/Documentos/Trabajo/Eibriel/Proyectos/Decentraland/GoldRush/SPContracts/matic/contracts/SoupPunk_child.sol",
  "compiler": {
    "name": "solc",
    "version": "0.6.6+commit.6c089d02.Emscripten.clang"
  },
  "schemaVersion": "3.3.2",
  "updatedAt": "2020-11-25T18:22:33.472Z",
  "devdoc": {
    "methods": {
      "balanceOf(address,uint256)": {
        "details": "See {IERC1155-balanceOf}.     * Requirements:     * - `account` cannot be the zero address."
      },
      "balanceOfBatch(address[],uint256[])": {
        "details": "See {IERC1155-balanceOfBatch}.     * Requirements:     * - `accounts` and `ids` must have the same length."
      },
      "deposit(address,bytes)": {
        "details": "Should be callable only by ChildChainManager Should handle deposit by minting the required tokens for user Make sure minting is done only by this function",
        "params": {
          "depositData": "abi encoded ids array and amounts array",
          "user": "user address for whom deposit is being done"
        }
      },
      "getRoleAdmin(bytes32)": {
        "details": "Returns the admin role that controls `role`. See {grantRole} and {revokeRole}.     * To change a role's admin, use {_setRoleAdmin}."
      },
      "getRoleMember(bytes32,uint256)": {
        "details": "Returns one of the accounts that have `role`. `index` must be a value between 0 and {getRoleMemberCount}, non-inclusive.     * Role bearers are not sorted in any particular way, and their ordering may change at any point.     * WARNING: When using {getRoleMember} and {getRoleMemberCount}, make sure you perform all queries on the same block. See the following https://forum.openzeppelin.com/t/iterating-over-elements-on-enumerableset-in-openzeppelin-contracts/2296[forum post] for more information."
      },
      "getRoleMemberCount(bytes32)": {
        "details": "Returns the number of accounts that have `role`. Can be used together with {getRoleMember} to enumerate all bearers of a role."
      },
      "grantRole(bytes32,address)": {
        "details": "Grants `role` to `account`.     * If `account` had not been already granted `role`, emits a {RoleGranted} event.     * Requirements:     * - the caller must have ``role``'s admin role."
      },
      "hasRole(bytes32,address)": {
        "details": "Returns `true` if `account` has been granted `role`."
      },
      "isApprovedForAll(address,address)": {
        "details": "See {IERC1155-isApprovedForAll}."
      },
      "pause()": {
        "details": "Pauses all token transfers.     * See {ERC1155Pausable} and {Pausable-_pause}.     * Requirements:     * - the caller must have the `PAUSER_ROLE`."
      },
      "paused()": {
        "details": "Returns true if the contract is paused, and false otherwise."
      },
      "renounceRole(bytes32,address)": {
        "details": "Revokes `role` from the calling account.     * Roles are often managed via {grantRole} and {revokeRole}: this function's purpose is to provide a mechanism for accounts to lose their privileges if they are compromised (such as when a trusted device is misplaced).     * If the calling account had been granted `role`, emits a {RoleRevoked} event.     * Requirements:     * - the caller must be `account`."
      },
      "revokeRole(bytes32,address)": {
        "details": "Revokes `role` from `account`.     * If `account` had been granted `role`, emits a {RoleRevoked} event.     * Requirements:     * - the caller must have ``role``'s admin role."
      },
      "safeBatchTransferFrom(address,address,uint256[],uint256[],bytes)": {
        "details": "See {IERC1155-safeBatchTransferFrom}."
      },
      "safeTransferFrom(address,address,uint256,uint256,bytes)": {
        "details": "See {IERC1155-safeTransferFrom}."
      },
      "setApprovalForAll(address,bool)": {
        "details": "See {IERC1155-setApprovalForAll}."
      },
      "supportsInterface(bytes4)": {
        "details": "See {IERC165-supportsInterface}.     * Time complexity O(1), guaranteed to always use less than 30 000 gas."
      },
      "unpause()": {
        "details": "Unpauses all token transfers.     * See {ERC1155Pausable} and {Pausable-_unpause}.     * Requirements:     * - the caller must have the `PAUSER_ROLE`."
      },
      "uri(uint256)": {
        "details": "See {IERC1155MetadataURI-uri}.     * This implementation returns the same URI for *all* token types. It relies on the token type ID substitution mechanism https://eips.ethereum.org/EIPS/eip-1155#metadata[defined in the EIP].     * Clients calling this function must replace the `\\{id\\}` substring with the actual token type ID."
      },
      "withdrawBatch(uint256[],uint256[])": {
        "details": "Should burn user's tokens. This transaction will be verified when exiting on root chain",
        "params": {
          "amounts": "amounts to withdraw",
          "ids": "ids to withdraw"
        }
      },
      "withdrawSingle(uint256,uint256)": {
        "details": "Should burn user's tokens. This transaction will be verified when exiting on root chain",
        "params": {
          "amount": "amount to withdraw",
          "id": "id to withdraw"
        }
      }
    }
  },
  "userdoc": {
    "methods": {
      "deposit(address,bytes)": {
        "notice": "called when tokens are deposited on root chain"
      },
      "withdrawBatch(uint256[],uint256[])": {
        "notice": "called when user wants to batch withdraw tokens back to root chain"
      },
      "withdrawSingle(uint256,uint256)": {
        "notice": "called when user wants to withdraw single token back to root chain"
      }
    }
  }
}