{
  "contractName": "SoapPunkCollectiblesChild",
  "abi": [
    {
      "anonymous": false,
      "inputs": [
        {
          "indexed": true,
          "internalType": "address",
          "name": "account",
          "type": "address"
        },
        {
          "indexed": true,
          "internalType": "address",
          "name": "operator",
          "type": "address"
        },
        {
          "indexed": false,
          "internalType": "bool",
          "name": "approved",
          "type": "bool"
        }
      ],
      "name": "ApprovalForAll",
      "type": "event"
    },
    {
      "anonymous": false,
      "inputs": [
        {
          "indexed": false,
          "internalType": "address",
          "name": "userAddress",
          "type": "address"
        },
        {
          "indexed": false,
          "internalType": "address payable",
          "name": "relayerAddress",
          "type": "address"
        },
        {
          "indexed": false,
          "internalType": "bytes",
          "name": "functionSignature",
          "type": "bytes"
        }
      ],
      "name": "MetaTransactionExecuted",
      "type": "event"
    },
    {
      "anonymous": false,
      "inputs": [
        {
          "indexed": false,
          "internalType": "address",
          "name": "account",
          "type": "address"
        }
      ],
      "name": "Paused",
      "type": "event"
    },
    {
      "anonymous": false,
      "inputs": [
        {
          "indexed": true,
          "internalType": "bytes32",
          "name": "role",
          "type": "bytes32"
        },
        {
          "indexed": true,
          "internalType": "bytes32",
          "name": "previousAdminRole",
          "type": "bytes32"
        },
        {
          "indexed": true,
          "internalType": "bytes32",
          "name": "newAdminRole",
          "type": "bytes32"
        }
      ],
      "name": "RoleAdminChanged",
      "type": "event"
    },
    {
      "anonymous": false,
      "inputs": [
        {
          "indexed": true,
          "internalType": "bytes32",
          "name": "role",
          "type": "bytes32"
        },
        {
          "indexed": true,
          "internalType": "address",
          "name": "account",
          "type": "address"
        },
        {
          "indexed": true,
          "internalType": "address",
          "name": "sender",
          "type": "address"
        }
      ],
      "name": "RoleGranted",
      "type": "event"
    },
    {
      "anonymous": false,
      "inputs": [
        {
          "indexed": true,
          "internalType": "bytes32",
          "name": "role",
          "type": "bytes32"
        },
        {
          "indexed": true,
          "internalType": "address",
          "name": "account",
          "type": "address"
        },
        {
          "indexed": true,
          "internalType": "address",
          "name": "sender",
          "type": "address"
        }
      ],
      "name": "RoleRevoked",
      "type": "event"
    },
    {
      "anonymous": false,
      "inputs": [
        {
          "indexed": true,
          "internalType": "address",
          "name": "operator",
          "type": "address"
        },
        {
          "indexed": true,
          "internalType": "address",
          "name": "from",
          "type": "address"
        },
        {
          "indexed": true,
          "internalType": "address",
          "name": "to",
          "type": "address"
        },
        {
          "indexed": false,
          "internalType": "uint256[]",
          "name": "ids",
          "type": "uint256[]"
        },
        {
          "indexed": false,
          "internalType": "uint256[]",
          "name": "values",
          "type": "uint256[]"
        }
      ],
      "name": "TransferBatch",
      "type": "event"
    },
    {
      "anonymous": false,
      "inputs": [
        {
          "indexed": true,
          "internalType": "address",
          "name": "operator",
          "type": "address"
        },
        {
          "indexed": true,
          "internalType": "address",
          "name": "from",
          "type": "address"
        },
        {
          "indexed": true,
          "internalType": "address",
          "name": "to",
          "type": "address"
        },
        {
          "indexed": false,
          "internalType": "uint256",
          "name": "id",
          "type": "uint256"
        },
        {
          "indexed": false,
          "internalType": "uint256",
          "name": "value",
          "type": "uint256"
        }
      ],
      "name": "TransferSingle",
      "type": "event"
    },
    {
      "anonymous": false,
      "inputs": [
        {
          "indexed": false,
          "internalType": "string",
          "name": "value",
          "type": "string"
        },
        {
          "indexed": true,
          "internalType": "uint256",
          "name": "id",
          "type": "uint256"
        }
      ],
      "name": "URI",
      "type": "event"
    },
    {
      "anonymous": false,
      "inputs": [
        {
          "indexed": false,
          "internalType": "address",
          "name": "account",
          "type": "address"
        }
      ],
      "name": "Unpaused",
      "type": "event"
    },
    {
      "inputs": [],
      "name": "DEFAULT_ADMIN_ROLE",
      "outputs": [
        {
          "internalType": "bytes32",
          "name": "",
          "type": "bytes32"
        }
      ],
      "stateMutability": "view",
      "type": "function",
      "constant": true
    },
    {
      "inputs": [],
      "name": "DEPOSITOR_ROLE",
      "outputs": [
        {
          "internalType": "bytes32",
          "name": "",
          "type": "bytes32"
        }
      ],
      "stateMutability": "view",
      "type": "function",
      "constant": true
    },
    {
      "inputs": [],
      "name": "ERC712_VERSION",
      "outputs": [
        {
          "internalType": "string",
          "name": "",
          "type": "string"
        }
      ],
      "stateMutability": "view",
      "type": "function",
      "constant": true
    },
    {
      "inputs": [],
      "name": "MINTER_ROLE",
      "outputs": [
        {
          "internalType": "bytes32",
          "name": "",
          "type": "bytes32"
        }
      ],
      "stateMutability": "view",
      "type": "function",
      "constant": true
    },
    {
      "inputs": [],
      "name": "PAUSER_ROLE",
      "outputs": [
        {
          "internalType": "bytes32",
          "name": "",
          "type": "bytes32"
        }
      ],
      "stateMutability": "view",
      "type": "function",
      "constant": true
    },
    {
      "inputs": [
        {
          "internalType": "address",
          "name": "account",
          "type": "address"
        },
        {
          "internalType": "uint256",
          "name": "id",
          "type": "uint256"
        }
      ],
      "name": "balanceOf",
      "outputs": [
        {
          "internalType": "uint256",
          "name": "",
          "type": "uint256"
        }
      ],
      "stateMutability": "view",
      "type": "function",
      "constant": true
    },
    {
      "inputs": [
        {
          "internalType": "address[]",
          "name": "accounts",
          "type": "address[]"
        },
        {
          "internalType": "uint256[]",
          "name": "ids",
          "type": "uint256[]"
        }
      ],
      "name": "balanceOfBatch",
      "outputs": [
        {
          "internalType": "uint256[]",
          "name": "",
          "type": "uint256[]"
        }
      ],
      "stateMutability": "view",
      "type": "function",
      "constant": true
    },
    {
      "inputs": [
        {
          "internalType": "address",
          "name": "account",
          "type": "address"
        },
        {
          "internalType": "uint256",
          "name": "id",
          "type": "uint256"
        },
        {
          "internalType": "uint256",
          "name": "value",
          "type": "uint256"
        }
      ],
      "name": "burn",
      "outputs": [],
      "stateMutability": "nonpayable",
      "type": "function"
    },
    {
      "inputs": [
        {
          "internalType": "address",
          "name": "account",
          "type": "address"
        },
        {
          "internalType": "uint256[]",
          "name": "ids",
          "type": "uint256[]"
        },
        {
          "internalType": "uint256[]",
          "name": "values",
          "type": "uint256[]"
        }
      ],
      "name": "burnBatch",
      "outputs": [],
      "stateMutability": "nonpayable",
      "type": "function"
    },
    {
      "inputs": [
        {
          "internalType": "address",
          "name": "userAddress",
          "type": "address"
        },
        {
          "internalType": "bytes",
          "name": "functionSignature",
          "type": "bytes"
        },
        {
          "internalType": "bytes32",
          "name": "sigR",
          "type": "bytes32"
        },
        {
          "internalType": "bytes32",
          "name": "sigS",
          "type": "bytes32"
        },
        {
          "internalType": "uint8",
          "name": "sigV",
          "type": "uint8"
        }
      ],
      "name": "executeMetaTransaction",
      "outputs": [
        {
          "internalType": "bytes",
          "name": "",
          "type": "bytes"
        }
      ],
      "stateMutability": "payable",
      "type": "function",
      "payable": true
    },
    {
      "inputs": [],
      "name": "getChainId",
      "outputs": [
        {
          "internalType": "uint256",
          "name": "",
          "type": "uint256"
        }
      ],
      "stateMutability": "pure",
      "type": "function",
      "constant": true
    },
    {
      "inputs": [],
      "name": "getDomainSeperator",
      "outputs": [
        {
          "internalType": "bytes32",
          "name": "",
          "type": "bytes32"
        }
      ],
      "stateMutability": "view",
      "type": "function",
      "constant": true
    },
    {
      "inputs": [
        {
          "internalType": "address",
          "name": "user",
          "type": "address"
        }
      ],
      "name": "getNonce",
      "outputs": [
        {
          "internalType": "uint256",
          "name": "nonce",
          "type": "uint256"
        }
      ],
      "stateMutability": "view",
      "type": "function",
      "constant": true
    },
    {
      "inputs": [
        {
          "internalType": "bytes32",
          "name": "role",
          "type": "bytes32"
        }
      ],
      "name": "getRoleAdmin",
      "outputs": [
        {
          "internalType": "bytes32",
          "name": "",
          "type": "bytes32"
        }
      ],
      "stateMutability": "view",
      "type": "function",
      "constant": true
    },
    {
      "inputs": [
        {
          "internalType": "bytes32",
          "name": "role",
          "type": "bytes32"
        },
        {
          "internalType": "uint256",
          "name": "index",
          "type": "uint256"
        }
      ],
      "name": "getRoleMember",
      "outputs": [
        {
          "internalType": "address",
          "name": "",
          "type": "address"
        }
      ],
      "stateMutability": "view",
      "type": "function",
      "constant": true
    },
    {
      "inputs": [
        {
          "internalType": "bytes32",
          "name": "role",
          "type": "bytes32"
        }
      ],
      "name": "getRoleMemberCount",
      "outputs": [
        {
          "internalType": "uint256",
          "name": "",
          "type": "uint256"
        }
      ],
      "stateMutability": "view",
      "type": "function",
      "constant": true
    },
    {
      "inputs": [
        {
          "internalType": "bytes32",
          "name": "role",
          "type": "bytes32"
        },
        {
          "internalType": "address",
          "name": "account",
          "type": "address"
        }
      ],
      "name": "grantRole",
      "outputs": [],
      "stateMutability": "nonpayable",
      "type": "function"
    },
    {
      "inputs": [
        {
          "internalType": "bytes32",
          "name": "role",
          "type": "bytes32"
        },
        {
          "internalType": "address",
          "name": "account",
          "type": "address"
        }
      ],
      "name": "hasRole",
      "outputs": [
        {
          "internalType": "bool",
          "name": "",
          "type": "bool"
        }
      ],
      "stateMutability": "view",
      "type": "function",
      "constant": true
    },
    {
      "inputs": [
        {
          "internalType": "address",
          "name": "account",
          "type": "address"
        },
        {
          "internalType": "address",
          "name": "operator",
          "type": "address"
        }
      ],
      "name": "isApprovedForAll",
      "outputs": [
        {
          "internalType": "bool",
          "name": "",
          "type": "bool"
        }
      ],
      "stateMutability": "view",
      "type": "function",
      "constant": true
    },
    {
      "inputs": [],
      "name": "pause",
      "outputs": [],
      "stateMutability": "nonpayable",
      "type": "function"
    },
    {
      "inputs": [],
      "name": "paused",
      "outputs": [
        {
          "internalType": "bool",
          "name": "",
          "type": "bool"
        }
      ],
      "stateMutability": "view",
      "type": "function",
      "constant": true
    },
    {
      "inputs": [
        {
          "internalType": "bytes32",
          "name": "role",
          "type": "bytes32"
        },
        {
          "internalType": "address",
          "name": "account",
          "type": "address"
        }
      ],
      "name": "renounceRole",
      "outputs": [],
      "stateMutability": "nonpayable",
      "type": "function"
    },
    {
      "inputs": [
        {
          "internalType": "bytes32",
          "name": "role",
          "type": "bytes32"
        },
        {
          "internalType": "address",
          "name": "account",
          "type": "address"
        }
      ],
      "name": "revokeRole",
      "outputs": [],
      "stateMutability": "nonpayable",
      "type": "function"
    },
    {
      "inputs": [
        {
          "internalType": "address",
          "name": "from",
          "type": "address"
        },
        {
          "internalType": "address",
          "name": "to",
          "type": "address"
        },
        {
          "internalType": "uint256[]",
          "name": "ids",
          "type": "uint256[]"
        },
        {
          "internalType": "uint256[]",
          "name": "amounts",
          "type": "uint256[]"
        },
        {
          "internalType": "bytes",
          "name": "data",
          "type": "bytes"
        }
      ],
      "name": "safeBatchTransferFrom",
      "outputs": [],
      "stateMutability": "nonpayable",
      "type": "function"
    },
    {
      "inputs": [
        {
          "internalType": "address",
          "name": "from",
          "type": "address"
        },
        {
          "internalType": "address",
          "name": "to",
          "type": "address"
        },
        {
          "internalType": "uint256",
          "name": "id",
          "type": "uint256"
        },
        {
          "internalType": "uint256",
          "name": "amount",
          "type": "uint256"
        },
        {
          "internalType": "bytes",
          "name": "data",
          "type": "bytes"
        }
      ],
      "name": "safeTransferFrom",
      "outputs": [],
      "stateMutability": "nonpayable",
      "type": "function"
    },
    {
      "inputs": [
        {
          "internalType": "address",
          "name": "operator",
          "type": "address"
        },
        {
          "internalType": "bool",
          "name": "approved",
          "type": "bool"
        }
      ],
      "name": "setApprovalForAll",
      "outputs": [],
      "stateMutability": "nonpayable",
      "type": "function"
    },
    {
      "inputs": [
        {
          "internalType": "bytes4",
          "name": "interfaceId",
          "type": "bytes4"
        }
      ],
      "name": "supportsInterface",
      "outputs": [
        {
          "internalType": "bool",
          "name": "",
          "type": "bool"
        }
      ],
      "stateMutability": "view",
      "type": "function",
      "constant": true
    },
    {
      "inputs": [],
      "name": "unpause",
      "outputs": [],
      "stateMutability": "nonpayable",
      "type": "function"
    },
    {
      "inputs": [
        {
          "internalType": "uint256",
          "name": "",
          "type": "uint256"
        }
      ],
      "name": "uri",
      "outputs": [
        {
          "internalType": "string",
          "name": "",
          "type": "string"
        }
      ],
      "stateMutability": "view",
      "type": "function",
      "constant": true
    },
    {
      "inputs": [
        {
          "internalType": "uint256",
          "name": "",
          "type": "uint256"
        }
      ],
      "name": "withdrawnTokens",
      "outputs": [
        {
          "internalType": "bool",
          "name": "",
          "type": "bool"
        }
      ],
      "stateMutability": "view",
      "type": "function",
      "constant": true
    },
    {
      "inputs": [
        {
          "internalType": "string",
          "name": "newuri",
          "type": "string"
        },
        {
          "internalType": "address",
          "name": "childChainManager",
          "type": "address"
        }
      ],
      "name": "initialize",
      "outputs": [],
      "stateMutability": "nonpayable",
      "type": "function"
    },
    {
      "inputs": [
        {
          "internalType": "string",
          "name": "uri",
          "type": "string"
        }
      ],
      "name": "initialize",
      "outputs": [],
      "stateMutability": "nonpayable",
      "type": "function"
    },
    {
      "inputs": [
        {
          "internalType": "string",
          "name": "newuri",
          "type": "string"
        },
        {
          "internalType": "uint256",
          "name": "id",
          "type": "uint256"
        }
      ],
      "name": "setURI",
      "outputs": [],
      "stateMutability": "nonpayable",
      "type": "function"
    },
    {
      "inputs": [
        {
          "internalType": "address",
          "name": "to",
          "type": "address"
        },
        {
          "internalType": "uint256",
          "name": "id",
          "type": "uint256"
        },
        {
          "internalType": "uint256",
          "name": "amount",
          "type": "uint256"
        },
        {
          "internalType": "bytes",
          "name": "data",
          "type": "bytes"
        }
      ],
      "name": "mint",
      "outputs": [],
      "stateMutability": "nonpayable",
      "type": "function"
    },
    {
      "inputs": [
        {
          "internalType": "address",
          "name": "to",
          "type": "address"
        },
        {
          "internalType": "uint256[]",
          "name": "ids",
          "type": "uint256[]"
        },
        {
          "internalType": "uint256[]",
          "name": "amounts",
          "type": "uint256[]"
        },
        {
          "internalType": "bytes",
          "name": "data",
          "type": "bytes"
        }
      ],
      "name": "mintBatch",
      "outputs": [],
      "stateMutability": "nonpayable",
      "type": "function"
    },
    {
      "inputs": [
        {
          "internalType": "address",
          "name": "user",
          "type": "address"
        },
        {
          "internalType": "bytes",
          "name": "depositData",
          "type": "bytes"
        }
      ],
      "name": "deposit",
      "outputs": [],
      "stateMutability": "nonpayable",
      "type": "function"
    },
    {
      "inputs": [
        {
          "internalType": "uint256",
          "name": "id",
          "type": "uint256"
        },
        {
          "internalType": "uint256",
          "name": "amount",
          "type": "uint256"
        }
      ],
      "name": "withdrawSingle",
      "outputs": [],
      "stateMutability": "nonpayable",
      "type": "function"
    },
    {
      "inputs": [
        {
          "internalType": "uint256[]",
          "name": "ids",
          "type": "uint256[]"
        },
        {
          "internalType": "uint256[]",
          "name": "amounts",
          "type": "uint256[]"
        }
      ],
      "name": "withdrawBatch",
      "outputs": [],
      "stateMutability": "nonpayable",
      "type": "function"
    }
  ],
  "bytecode": "0x608060405234801561001057600080fd5b50614679806100206000396000f3fe6080604052600436106101b45760003560e01c8062fdd58e146101b957806301ffc9a71461020457806307a974fc1461024c5780630c53c51c146102765780630e89341c146103ad5780630f7e5970146103d75780631f7fdffa146103ec57806320379ee5146105b35780632262f53f146105c8578063248a9ca3146105f85780632d0335ab146106225780632eb2c2d6146106555780632f2ff15d146108235780633408e4701461085c57806336568abe146108715780633f4ba83a146108aa5780634e1273f4146108bf5780635c5fb52114610a3f5780635c975abb14610b0a57806367db3b8f14610b1f5780636b20c45414610bd2578063731133e914610d125780637ab4339d14610d6b5780638456cb5914610e275780639010d07c14610e3c57806391d1485414610e88578063a217fddf14610ec1578063a22cb46514610ed6578063a3b0b5a314610f11578063ca15c87314610f26578063cf2c52cb14610f50578063d539139314610fdb578063d547741f14610ff0578063e63ab1e914611029578063e985e9c51461103e578063f242432a14611079578063f5298aca1461114f578063f62d18881461118e575b600080fd5b3480156101c557600080fd5b506101f2600480360360408110156101dc57600080fd5b506001600160a01b03813516906020013561123f565b60408051918252519081900360200190f35b34801561021057600080fd5b506102386004803603602081101561022757600080fd5b50356001600160e01b0319166112b1565b604080519115158252519081900360200190f35b34801561025857600080fd5b506102386004803603602081101561026f57600080fd5b50356112d0565b610338600480360360a081101561028c57600080fd5b6001600160a01b038235169190810190604081016020820135600160201b8111156102b657600080fd5b8201836020820111156102c857600080fd5b803590602001918460018302840111600160201b831117156102e957600080fd5b91908080601f016020809104026020016040519081016040528093929190818152602001838380828437600092019190915250929550508235935050506020810135906040013560ff166112e6565b6040805160208082528351818301528351919283929083019185019080838360005b8381101561037257818101518382015260200161035a565b50505050905090810190601f16801561039f5780820380516001836020036101000a031916815260200191505b509250505060405180910390f35b3480156103b957600080fd5b50610338600480360360208110156103d057600080fd5b50356115eb565b3480156103e357600080fd5b50610338611683565b3480156103f857600080fd5b506105b16004803603608081101561040f57600080fd5b6001600160a01b038235169190810190604081016020820135600160201b81111561043957600080fd5b82018360208201111561044b57600080fd5b803590602001918460208302840111600160201b8311171561046c57600080fd5b9190808060200260200160405190810160405280939291908181526020018383602002808284376000920191909152509295949360208101935035915050600160201b8111156104bb57600080fd5b8201836020820111156104cd57600080fd5b803590602001918460208302840111600160201b831117156104ee57600080fd5b9190808060200260200160405190810160405280939291908181526020018383602002808284376000920191909152509295949360208101935035915050600160201b81111561053d57600080fd5b82018360208201111561054f57600080fd5b803590602001918460018302840111600160201b8311171561057057600080fd5b91908080601f0160208091040260200160405190810160405280939291908181526020018383808284376000920191909152509295506116a0945050505050565b005b3480156105bf57600080fd5b506101f26116dd565b3480156105d457600080fd5b506105b1600480360360408110156105eb57600080fd5b50803590602001356116e5565b34801561060457600080fd5b506101f26004803603602081101561061b57600080fd5b50356116fb565b34801561062e57600080fd5b506101f26004803603602081101561064557600080fd5b50356001600160a01b0316611710565b34801561066157600080fd5b506105b1600480360360a081101561067857600080fd5b6001600160a01b038235811692602081013590911691810190606081016040820135600160201b8111156106ab57600080fd5b8201836020820111156106bd57600080fd5b803590602001918460208302840111600160201b831117156106de57600080fd5b9190808060200260200160405190810160405280939291908181526020018383602002808284376000920191909152509295949360208101935035915050600160201b81111561072d57600080fd5b82018360208201111561073f57600080fd5b803590602001918460208302840111600160201b8311171561076057600080fd5b9190808060200260200160405190810160405280939291908181526020018383602002808284376000920191909152509295949360208101935035915050600160201b8111156107af57600080fd5b8201836020820111156107c157600080fd5b803590602001918460018302840111600160201b831117156107e257600080fd5b91908080601f01602080910402602001604051908101604052809392919081815260200183838082843760009201919091525092955061172c945050505050565b34801561082f57600080fd5b506105b16004803603604081101561084657600080fd5b50803590602001356001600160a01b0316611a1d565b34801561086857600080fd5b506101f2611a85565b34801561087d57600080fd5b506105b16004803603604081101561089457600080fd5b50803590602001356001600160a01b0316611a89565b3480156108b657600080fd5b506105b1611aea565b3480156108cb57600080fd5b506109ef600480360360408110156108e257600080fd5b810190602081018135600160201b8111156108fc57600080fd5b82018360208201111561090e57600080fd5b803590602001918460208302840111600160201b8311171561092f57600080fd5b9190808060200260200160405190810160405280939291908181526020018383602002808284376000920191909152509295949360208101935035915050600160201b81111561097e57600080fd5b82018360208201111561099057600080fd5b803590602001918460208302840111600160201b831117156109b157600080fd5b919080806020026020016040519081016040528093929190818152602001838360200280828437600092019190915250929550611b5b945050505050565b60408051602080825283518183015283519192839290830191858101910280838360005b83811015610a2b578181015183820152602001610a13565b505050509050019250505060405180910390f35b348015610a4b57600080fd5b506105b160048036036040811015610a6257600080fd5b810190602081018135600160201b811115610a7c57600080fd5b820183602082011115610a8e57600080fd5b803590602001918460208302840111600160201b83111715610aaf57600080fd5b919390929091602081019035600160201b811115610acc57600080fd5b820183602082011115610ade57600080fd5b803590602001918460208302840111600160201b83111715610aff57600080fd5b509092509050611cd8565b348015610b1657600080fd5b50610238611d4d565b348015610b2b57600080fd5b506105b160048036036040811015610b4257600080fd5b810190602081018135600160201b811115610b5c57600080fd5b820183602082011115610b6e57600080fd5b803590602001918460018302840111600160201b83111715610b8f57600080fd5b91908080601f0160208091040260200160405190810160405280939291908181526020018383808284376000920191909152509295505091359250611d56915050565b348015610bde57600080fd5b506105b160048036036060811015610bf557600080fd5b6001600160a01b038235169190810190604081016020820135600160201b811115610c1f57600080fd5b820183602082011115610c3157600080fd5b803590602001918460208302840111600160201b83111715610c5257600080fd5b9190808060200260200160405190810160405280939291908181526020018383602002808284376000920191909152509295949360208101935035915050600160201b811115610ca157600080fd5b820183602082011115610cb357600080fd5b803590602001918460208302840111600160201b83111715610cd457600080fd5b919080806020026020016040519081016040528093929190818152602001838360200280828437600092019190915250929550611e41945050505050565b348015610d1e57600080fd5b506105b160048036036080811015610d3557600080fd5b6001600160a01b038235169160208101359160408201359190810190608081016060820135600160201b81111561053d57600080fd5b348015610d7757600080fd5b506105b160048036036040811015610d8e57600080fd5b810190602081018135600160201b811115610da857600080fd5b820183602082011115610dba57600080fd5b803590602001918460018302840111600160201b83111715610ddb57600080fd5b91908080601f016020809104026020016040519081016040528093929190818152602001838380828437600092019190915250929550505090356001600160a01b03169150611eba9050565b348015610e3357600080fd5b506105b1611fc8565b348015610e4857600080fd5b50610e6c60048036036040811015610e5f57600080fd5b5080359060200135612037565b604080516001600160a01b039092168252519081900360200190f35b348015610e9457600080fd5b5061023860048036036040811015610eab57600080fd5b50803590602001356001600160a01b031661205c565b348015610ecd57600080fd5b506101f261207a565b348015610ee257600080fd5b506105b160048036036040811015610ef957600080fd5b506001600160a01b038135169060200135151561207f565b348015610f1d57600080fd5b506101f261216e565b348015610f3257600080fd5b506101f260048036036020811015610f4957600080fd5b5035612194565b348015610f5c57600080fd5b506105b160048036036040811015610f7357600080fd5b6001600160a01b038235169190810190604081016020820135600160201b811115610f9d57600080fd5b820183602082011115610faf57600080fd5b803590602001918460018302840111600160201b83111715610fd057600080fd5b5090925090506121ab565b348015610fe757600080fd5b506101f2612412565b348015610ffc57600080fd5b506105b16004803603604081101561101357600080fd5b50803590602001356001600160a01b0316612435565b34801561103557600080fd5b506101f261248e565b34801561104a57600080fd5b506102386004803603604081101561106157600080fd5b506001600160a01b03813581169160200135166124b1565b34801561108557600080fd5b506105b1600480360360a081101561109c57600080fd5b6001600160a01b03823581169260208101359091169160408201359160608101359181019060a081016080820135600160201b8111156110db57600080fd5b8201836020820111156110ed57600080fd5b803590602001918460018302840111600160201b8311171561110e57600080fd5b91908080601f0160208091040260200160405190810160405280939291908181526020018383808284376000920191909152509295506124df945050505050565b34801561115b57600080fd5b506105b16004803603606081101561117257600080fd5b506001600160a01b03813516906020810135906040013561269e565b34801561119a57600080fd5b506105b1600480360360208110156111b157600080fd5b810190602081018135600160201b8111156111cb57600080fd5b8201836020820111156111dd57600080fd5b803590602001918460018302840111600160201b831117156111fe57600080fd5b91908080601f016020809104026020016040519081016040528093929190818152602001838380828437600092019190915250929550612712945050505050565b60006001600160a01b0383166112865760405162461bcd60e51b815260040180806020018281038252602b81526020018061418c602b913960400191505060405180910390fd5b5060008181526097602090815260408083206001600160a01b03861684529091529020545b92915050565b6001600160e01b03191660009081526065602052604090205460ff1690565b6101936020526000908152604090205460ff1681565b60606112f0613fdc565b50604080516060810182526001600160a01b038816600081815261019260209081529084902054835282015290810186905261132f87828787876127bd565b61136a5760405162461bcd60e51b815260040180806020018281038252602181526020018061446f6021913960400191505060405180910390fd5b6001600160a01b0387166000908152610192602052604090205461139590600163ffffffff61289a16565b6001600160a01b0388166000818152610192602090815260408083209490945583519283523383820181905260609484018581528b51958501959095528a517f5845892132946850460bff5a0083f71031bc5bf9aadcd40f1de79423eac9b10b958d9592948d94919260808501928601918190849084905b8381101561142557818101518382015260200161140d565b50505050905090810190601f1680156114525780820380516001836020036101000a031916815260200191505b5094505050505060405180910390a160006060306001600160a01b0316888a6040516020018083805190602001908083835b602083106114a35780518252601f199092019160209182019101611484565b6001836020036101000a038019825116818451168082178552505050505050905001826001600160a01b03166001600160a01b031660601b8152601401925050506040516020818303038152906040526040518082805190602001908083835b602083106115225780518252601f199092019160209182019101611503565b6001836020036101000a0380198251168184511680821785525050505050509050019150506000604051808303816000865af19150503d8060008114611584576040519150601f19603f3d011682016040523d82523d6000602084013e611589565b606091505b5091509150816115df576040805162461bcd60e51b815260206004820152601c60248201527b119d5b98dd1a5bdb8818d85b1b081b9bdd081cdd58d8d95cdcd99d5b60221b604482015290519081900360640190fd5b98975050505050505050565b60998054604080516020601f60026000196101006001881615020190951694909404938401819004810282018101909252828152606093909290918301828280156116775780601f1061164c57610100808354040283529160200191611677565b820191906000526020600020905b81548152906001019060200180831161165a57829003601f168201915b50505050509050919050565b604051806040016040528060018152602001603160f81b81525081565b60405162461bcd60e51b81526004018080602001828103825260338152602001806143ef6033913960400191505060405180910390fd5b50505050565b610191545b90565b6116f76116f06128f2565b83836128f6565b5050565b60009081526033602052604090206002015490565b6001600160a01b03166000908152610192602052604090205490565b815183511461176c5760405162461bcd60e51b81526004018080602001828103825260288152602001806145cc6028913960400191505060405180910390fd5b6001600160a01b0384166117b15760405162461bcd60e51b815260040180806020018281038252602581526020018061436a6025913960400191505060405180910390fd5b6117b96128f2565b6001600160a01b0316856001600160a01b031614806117e457506117e4856117df6128f2565b6124b1565b61181f5760405162461bcd60e51b815260040180806020018281038252603281526020018061438f6032913960400191505060405180910390fd5b60006118296128f2565b9050611839818787878787612a1d565b60005b845181101561193f57600085828151811061185357fe5b60200260200101519050600085838151811061186b57fe5b602002602001015190506118d8816040518060600160405280602a8152602001614445602a91396097600086815260200190815260200160002060008d6001600160a01b03166001600160a01b0316815260200190815260200160002054612a2b9092919063ffffffff16565b60008381526097602090815260408083206001600160a01b038e811685529252808320939093558a168152205461190f908261289a565b60009283526097602090815260408085206001600160a01b038c168652909152909220919091555060010161183c565b50846001600160a01b0316866001600160a01b0316826001600160a01b031660008051602061409f8339815191528787604051808060200180602001838103835285818151815260200191508051906020019060200280838360005b838110156119b357818101518382015260200161199b565b50505050905001838103825284818151815260200191508051906020019060200280838360005b838110156119f25781810151838201526020016119da565b5050505090500194505050505060405180910390a4611a15818787878787612ac2565b505050505050565b600082815260336020526040902060020154611a4090611a3b6128f2565b61205c565b611a7b5760405162461bcd60e51b815260040180806020018281038252602f81526020018061413d602f913960400191505060405180910390fd5b6116f78282612dfe565b4690565b611a916128f2565b6001600160a01b0316816001600160a01b031614611ae05760405162461bcd60e51b815260040180806020018281038252602f815260200180614615602f913960400191505060405180910390fd5b6116f78282612e6d565b604080516a5041555345525f524f4c4560a81b8152905190819003600b019020611b1690611a3b6128f2565b611b515760405162461bcd60e51b815260040180806020018281038252603b815260200180614506603b913960400191505060405180910390fd5b611b59612edc565b565b60608151835114611b9d5760405162461bcd60e51b81526004018080602001828103825260298152602001806145a36029913960400191505060405180910390fd5b606083516001600160401b0381118015611bb657600080fd5b50604051908082528060200260200182016040528015611be0578160200160208202803683370190505b50905060005b8451811015611cd05760006001600160a01b0316858281518110611c0657fe5b60200260200101516001600160a01b03161415611c545760405162461bcd60e51b81526004018080602001828103825260318152602001806141b76031913960400191505060405180910390fd5b60976000858381518110611c6457fe5b602002602001015181526020019081526020016000206000868381518110611c8857fe5b60200260200101516001600160a01b03166001600160a01b0316815260200190815260200160002054828281518110611cbd57fe5b6020908102919091010152600101611be6565b509392505050565b6116d7611ce36128f2565b85858080602002602001604051908101604052809392919081815260200183836020028082843760009201919091525050604080516020808902828101820190935288825290935088925087918291850190849080828437600092019190915250612f7a92505050565b60fb5460ff1690565b611d636000611a3b6128f2565b611d9e5760405162461bcd60e51b81526004018080602001828103825260388152602001806144906038913960400191505060405180910390fd5b807f6bb7ff708619ba0610cba295a58592e0451dee2622938c8755667688daf3529b836040518080602001828103825283818151815260200191508051906020019080838360005b83811015611dfe578181015183820152602001611de6565b50505050905090810190601f168015611e2b5780820380516001836020036101000a031916815260200191505b509250505060405180910390a26116f7826131d6565b611e496128f2565b6001600160a01b0316836001600160a01b03161480611e6f5750611e6f836117df6128f2565b611eaa5760405162461bcd60e51b81526004018080602001828103825260298152602001806142ec6029913960400191505060405180910390fd5b611eb5838383612f7a565b505050565b600054610100900460ff1680611ed35750611ed36131e9565b80611ee1575060005460ff16155b611f1c5760405162461bcd60e51b815260040180806020018281038252602e8152602001806143c1602e913960400191505060405180910390fd5b600054610100900460ff16158015611f47576000805460ff1961ff0019909116610100171660011790555b611f50836131ef565b604080516d4445504f5349544f525f524f4c4560901b8152905190819003600e019020611f7d9083611a7b565b611fb260405180604001604052806014815260200173536f757050756e6b436f6c6c65637469626c657360601b8152506132be565b8015611eb5576000805461ff0019169055505050565b604080516a5041555345525f524f4c4560a81b8152905190819003600b019020611ff490611a3b6128f2565b61202f5760405162461bcd60e51b81526004018080602001828103825260398152602001806145416039913960400191505060405180910390fd5b611b59613354565b6000828152603360205260408120612055908363ffffffff6133d516565b9392505050565b6000828152603360205260408120612055908363ffffffff6133e116565b600081565b816001600160a01b03166120916128f2565b6001600160a01b031614156120d75760405162461bcd60e51b815260040180806020018281038252602981526020018061457a6029913960400191505060405180910390fd5b80609860006120e46128f2565b6001600160a01b03908116825260208083019390935260409182016000908120918716808252919093529120805460ff1916921515929092179091556121286128f2565b60408051841515815290516001600160a01b0392909216917f17307eab39ab6107e8899845ad3d59bd9653f200f220920489ca2b5937696c319181900360200190a35050565b604080516d4445504f5349544f525f524f4c4560901b8152905190819003600e01902081565b60008181526033602052604081206112ab906133f6565b604080516d4445504f5349544f525f524f4c4560901b8152905190819003600e0190206121da90611a3b6128f2565b6122155760405162461bcd60e51b815260040180806020018281038252603e8152602001806144c8603e913960400191505060405180910390fd5b60608060608484606081101561222a57600080fd5b810190602081018135600160201b81111561224457600080fd5b82018360208201111561225657600080fd5b803590602001918460208302840111600160201b8311171561227757600080fd5b9190808060200260200160405190810160405280939291908181526020018383602002808284376000920191909152509295949360208101935035915050600160201b8111156122c657600080fd5b8201836020820111156122d857600080fd5b803590602001918460208302840111600160201b831117156122f957600080fd5b9190808060200260200160405190810160405280939291908181526020018383602002808284376000920191909152509295949360208101935035915050600160201b81111561234857600080fd5b82018360208201111561235a57600080fd5b803590602001918460018302840111600160201b8311171561237b57600080fd5b91908080601f016020809104026020016040519081016040528093929190818152602001838380828437600092019190915250979a50959850909650505050506001600160a01b0388161515915061240690505760405162461bcd60e51b815260040180806020018281038252602281526020018061424f6022913960400191505060405180910390fd5b611a1586848484613401565b604080516a4d494e5445525f524f4c4560a81b8152905190819003600b01902081565b60008281526033602052604090206002015461245390611a3b6128f2565b611ae05760405162461bcd60e51b81526004018080602001828103825260308152602001806143156030913960400191505060405180910390fd5b604080516a5041555345525f524f4c4560a81b8152905190819003600b01902081565b6001600160a01b03918216600090815260986020908152604080832093909416825291909152205460ff1690565b6001600160a01b0384166125245760405162461bcd60e51b815260040180806020018281038252602581526020018061436a6025913960400191505060405180910390fd5b61252c6128f2565b6001600160a01b0316856001600160a01b031614806125525750612552856117df6128f2565b61258d5760405162461bcd60e51b81526004018080602001828103825260298152602001806142ec6029913960400191505060405180910390fd5b60006125976128f2565b90506125b78187876125a888613644565b6125b188613644565b87612a1d565b612604836040518060600160405280602a8152602001614445602a913960008781526097602090815260408083206001600160a01b038d168452909152902054919063ffffffff612a2b16565b60008581526097602090815260408083206001600160a01b038b8116855292528083209390935587168152205461263b908461289a565b60008581526097602090815260408083206001600160a01b03808b168086529184529382902094909455805188815291820187905280518a84169386169260008051602061416c83398151915292908290030190a4611a15818787878787613688565b6126a66128f2565b6001600160a01b0316836001600160a01b031614806126cc57506126cc836117df6128f2565b6127075760405162461bcd60e51b81526004018080602001828103825260298152602001806142ec6029913960400191505060405180910390fd5b611eb58383836128f6565b600054610100900460ff168061272b575061272b6131e9565b80612739575060005460ff16155b6127745760405162461bcd60e51b815260040180806020018281038252602e8152602001806143c1602e913960400191505060405180910390fd5b600054610100900460ff1615801561279f576000805460ff1961ff0019909116610100171660011790555b6127a8826131ef565b80156116f7576000805461ff00191690555050565b60006001600160a01b0386166128045760405162461bcd60e51b81526004018080602001828103825260258152602001806143456025913960400191505060405180910390fd5b60016128176128128761381b565b6138a7565b83868660405160008152602001604052604051808581526020018460ff1660ff1681526020018381526020018281526020019450505050506020604051602081039080840390855afa158015612871573d6000803e3d6000fd5b505050602060405103516001600160a01b0316866001600160a01b031614905095945050505050565b600082820183811015612055576040805162461bcd60e51b815260206004820152601b60248201527a536166654d6174683a206164646974696f6e206f766572666c6f7760281b604482015290519081900360640190fd5b3390565b6001600160a01b03831661293b5760405162461bcd60e51b81526004018080602001828103825260238152602001806144226023913960400191505060405180910390fd5b60006129456128f2565b90506129758185600061295787613644565b61296087613644565b60405180602001604052806000815250612a1d565b6129c28260405180606001604052806024815260200161422b6024913960008681526097602090815260408083206001600160a01b038b168452909152902054919063ffffffff612a2b16565b60008481526097602090815260408083206001600160a01b03808a168086529184528285209590955581518881529283018790528151939490939086169260008051602061416c83398151915292908290030190a450505050565b611a158686868686866138f3565b60008184841115612aba5760405162461bcd60e51b81526004018080602001828103825283818151815260200191508051906020019080838360005b83811015612a7f578181015183820152602001612a67565b50505050905090810190601f168015612aac5780820380516001836020036101000a031916815260200191505b509250505060405180910390fd5b505050900390565b612ad4846001600160a01b0316613945565b15611a1557836001600160a01b031663bc197c8187878686866040518663ffffffff1660e01b815260040180866001600160a01b03166001600160a01b03168152602001856001600160a01b03166001600160a01b03168152602001806020018060200180602001848103845287818151815260200191508051906020019060200280838360005b83811015612b74578181015183820152602001612b5c565b50505050905001848103835286818151815260200191508051906020019060200280838360005b83811015612bb3578181015183820152602001612b9b565b50505050905001848103825285818151815260200191508051906020019080838360005b83811015612bef578181015183820152602001612bd7565b50505050905090810190601f168015612c1c5780820380516001836020036101000a031916815260200191505b5098505050505050505050602060405180830381600087803b158015612c4157600080fd5b505af1925050508015612c6657506040513d6020811015612c6157600080fd5b505160015b612da6576040516000815260443d1015612c8257506000612d1d565b60046000803e60005160e01c6308c379a08114612ca3576000915050612d1d565b60043d036004833e81513d60248201116001600160401b0382111715612cce57600092505050612d1d565b80830180516001600160401b03811115612cef576000945050505050612d1d565b8060208301013d8601811115612d0d57600095505050505050612d1d565b601f01601f191660405250925050505b80612d285750612d6f565b60405162461bcd60e51b8152602060048201818152835160248401528351849391928392604401919085019080838360008315612a7f578181015183820152602001612a67565b60405162461bcd60e51b81526004018080602001828103825260348152602001806140bf6034913960400191505060405180910390fd5b6001600160e01b0319811663bc197c8160e01b14612df55760405162461bcd60e51b81526004018080602001828103825260288152602001806141156028913960400191505060405180910390fd5b50505050505050565b6000828152603360205260409020612e1c908263ffffffff61394b16565b156116f757612e296128f2565b6001600160a01b0316816001600160a01b0316837f2f8788117e7eff1d82e926ec794901d17c78024a50270940304540a733656f0d60405160405180910390a45050565b6000828152603360205260409020612e8b908263ffffffff61396016565b156116f757612e986128f2565b6001600160a01b0316816001600160a01b0316837ff6391f5c32d9c69d2a47ea670b442974b53935d1edc7fd64eb21e047a839171b60405160405180910390a45050565b60fb5460ff16612f2a576040805162461bcd60e51b815260206004820152601460248201527314185d5cd8589b194e881b9bdd081c185d5cd95960621b604482015290519081900360640190fd5b60fb805460ff191690557f5db9ee0a495bf2e6ff9c91a7834c1ba4fdd244a5e8aa4e537bd38aeae4b073aa612f5d6128f2565b604080516001600160a01b039092168252519081900360200190a1565b6001600160a01b038316612fbf5760405162461bcd60e51b81526004018080602001828103825260238152602001806144226023913960400191505060405180910390fd5b8051825114612fff5760405162461bcd60e51b81526004018080602001828103825260288152602001806145cc6028913960400191505060405180910390fd5b60006130096128f2565b905061302981856000868660405180602001604052806000815250612a1d565b60005b8351811015613107576130be83828151811061304457fe5b602002602001015160405180606001604052806024815260200161422b602491396097600088868151811061307557fe5b602002602001015181526020019081526020016000206000896001600160a01b03166001600160a01b0316815260200190815260200160002054612a2b9092919063ffffffff16565b609760008684815181106130ce57fe5b602090810291909101810151825281810192909252604090810160009081206001600160a01b038a16825290925290205560010161302c565b5060006001600160a01b0316846001600160a01b0316826001600160a01b031660008051602061409f8339815191528686604051808060200180602001838103835285818151815260200191508051906020019060200280838360005b8381101561317c578181015183820152602001613164565b50505050905001838103825284818151815260200191508051906020019060200280838360005b838110156131bb5781810151838201526020016131a3565b5050505090500194505050505060405180910390a450505050565b80516116f7906099906020840190614006565b303b1590565b600054610100900460ff168061320857506132086131e9565b80613216575060005460ff16155b6132515760405162461bcd60e51b815260040180806020018281038252602e8152602001806143c1602e913960400191505060405180910390fd5b600054610100900460ff1615801561327c576000805460ff1961ff0019909116610100171660011790555b613284613975565b61328c613975565b613294613a17565b61329d82613ab4565b6132a5613975565b6132ad613b6a565b6132b5613975565b6127a882613c15565b600054610100900460ff16806132d757506132d76131e9565b806132e5575060005460ff16155b6133205760405162461bcd60e51b815260040180806020018281038252602e8152602001806143c1602e913960400191505060405180910390fd5b600054610100900460ff1615801561334b576000805460ff1961ff0019909116610100171660011790555b6127a882613d0c565b60fb5460ff161561339f576040805162461bcd60e51b815260206004820152601060248201526f14185d5cd8589b194e881c185d5cd95960821b604482015290519081900360640190fd5b60fb805460ff191660011790557f62e78cea01bee320cd4e420270b5ea74000d11b0c9f74754ebdbfc544b05a258612f5d6128f2565b60006120558383613dc9565b6000612055836001600160a01b038416613e2d565b60006112ab82613e45565b6001600160a01b0384166134465760405162461bcd60e51b81526004018080602001828103825260218152602001806145f46021913960400191505060405180910390fd5b81518351146134865760405162461bcd60e51b81526004018080602001828103825260288152602001806145cc6028913960400191505060405180910390fd5b60006134906128f2565b90506134a181600087878787612a1d565b60005b84518110156135655761351c609760008784815181106134c057fe5b602002602001015181526020019081526020016000206000886001600160a01b03166001600160a01b031681526020019081526020016000205485838151811061350657fe5b602002602001015161289a90919063ffffffff16565b6097600087848151811061352c57fe5b602090810291909101810151825281810192909252604090810160009081206001600160a01b038b1682529092529020556001016134a4565b50846001600160a01b031660006001600160a01b0316826001600160a01b031660008051602061409f8339815191528787604051808060200180602001838103835285818151815260200191508051906020019060200280838360005b838110156135da5781810151838201526020016135c2565b50505050905001838103825284818151815260200191508051906020019060200280838360005b83811015613619578181015183820152602001613601565b5050505090500194505050505060405180910390a461363d81600087878787612ac2565b5050505050565b60408051600180825281830190925260609182919060208083019080368337019050509050828160008151811061367757fe5b602090810291909101015292915050565b61369a846001600160a01b0316613945565b15611a1557836001600160a01b031663f23a6e6187878686866040518663ffffffff1660e01b815260040180866001600160a01b03166001600160a01b03168152602001856001600160a01b03166001600160a01b0316815260200184815260200183815260200180602001828103825283818151815260200191508051906020019080838360005b8381101561373b578181015183820152602001613723565b50505050905090810190601f1680156137685780820380516001836020036101000a031916815260200191505b509650505050505050602060405180830381600087803b15801561378b57600080fd5b505af19250505080156137b057506040513d60208110156137ab57600080fd5b505160015b6137cc576040516000815260443d1015612c8257506000612d1d565b6001600160e01b0319811663f23a6e6160e01b14612df55760405162461bcd60e51b81526004018080602001828103825260288152602001806141156028913960400191505060405180910390fd5b60006040518060800160405280604381526020016141e860439139805190602001208260000151836020015184604001518051906020012060405160200180858152602001848152602001836001600160a01b03166001600160a01b03168152602001828152602001945050505050604051602081830303815290604052805190602001209050919050565b60006138b16116dd565b82604051602001808061190160f01b81525060020183815260200182815260200192505050604051602081830303815290604052805190602001209050919050565b613901868686868686611a15565b613909611d4d565b15611a155760405162461bcd60e51b815260040180806020018281038252602c8152602001806142c0602c913960400191505060405180910390fd5b3b151590565b6000612055836001600160a01b038416613e49565b6000612055836001600160a01b038416613e93565b600054610100900460ff168061398e575061398e6131e9565b8061399c575060005460ff16155b6139d75760405162461bcd60e51b815260040180806020018281038252602e8152602001806143c1602e913960400191505060405180910390fd5b600054610100900460ff16158015613a02576000805460ff1961ff0019909116610100171660011790555b8015613a14576000805461ff00191690555b50565b600054610100900460ff1680613a305750613a306131e9565b80613a3e575060005460ff16155b613a795760405162461bcd60e51b815260040180806020018281038252602e8152602001806143c1602e913960400191505060405180910390fd5b600054610100900460ff16158015613aa4576000805460ff1961ff0019909116610100171660011790555b613a026301ffc9a760e01b613f59565b600054610100900460ff1680613acd5750613acd6131e9565b80613adb575060005460ff16155b613b165760405162461bcd60e51b815260040180806020018281038252602e8152602001806143c1602e913960400191505060405180910390fd5b600054610100900460ff16158015613b41576000805460ff1961ff0019909116610100171660011790555b613b4a826131d6565b613b5a636cdb3d1360e11b613f59565b6127a86303a24d0760e21b613f59565b600054610100900460ff1680613b835750613b836131e9565b80613b91575060005460ff16155b613bcc5760405162461bcd60e51b815260040180806020018281038252602e8152602001806143c1602e913960400191505060405180910390fd5b600054610100900460ff16158015613bf7576000805460ff1961ff0019909116610100171660011790555b60fb805460ff191690558015613a14576000805461ff001916905550565b600054610100900460ff1680613c2e5750613c2e6131e9565b80613c3c575060005460ff16155b613c775760405162461bcd60e51b815260040180806020018281038252602e8152602001806143c1602e913960400191505060405180910390fd5b600054610100900460ff16158015613ca2576000805460ff1961ff0019909116610100171660011790555b613cb46000613caf6128f2565b611a7b565b604080516a4d494e5445525f524f4c4560a81b8152905190819003600b019020613ce090613caf6128f2565b604080516a5041555345525f524f4c4560a81b8152905190819003600b0190206127a890613caf6128f2565b6040518060800160405280604f8152602001614271604f913980516020918201208251838301206040805180820190915260018152603160f81b930192909252907fc89efdaa54c0f20c7adf612882df0950f5a951637e0307cdcb4c672f298b8bc630613d77611a85565b604080516020808201979097528082019590955260608501939093526001600160a01b03909116608084015260a0808401919091528151808403909101815260c0909201905280519101206101915550565b81546000908210613e0b5760405162461bcd60e51b81526004018080602001828103825260228152602001806140f36022913960400191505060405180910390fd5b826000018281548110613e1a57fe5b9060005260206000200154905092915050565b60009081526001919091016020526040902054151590565b5490565b6000613e558383613e2d565b613e8b575081546001818101845560008481526020808220909301849055845484825282860190935260409020919091556112ab565b5060006112ab565b60008181526001830160205260408120548015613f4f5783546000198083019190810190600090879083908110613ec657fe5b9060005260206000200154905080876000018481548110613ee357fe5b600091825260208083209091019290925582815260018981019092526040902090840190558654879080613f1357fe5b600190038181906000526020600020016000905590558660010160008781526020019081526020016000206000905560019450505050506112ab565b60009150506112ab565b6001600160e01b03198082161415613fb7576040805162461bcd60e51b815260206004820152601c60248201527b115490cc4d8d4e881a5b9d985b1a59081a5b9d195c999858d9481a5960221b604482015290519081900360640190fd5b6001600160e01b0319166000908152606560205260409020805460ff19166001179055565b60405180606001604052806000815260200160006001600160a01b03168152602001606081525090565b828054600181600116156101000203166002900490600052602060002090601f016020900481019282601f1061404757805160ff1916838001178555614074565b82800160010185558215614074579182015b82811115614074578251825591602001919060010190614059565b50614080929150614084565b5090565b6116e291905b80821115614080576000815560010161408a56fe4a39dc06d4c0dbc64b70af90fd698a233a518aa5d07e595d983b8c0526c8f7fb455243313135353a207472616e7366657220746f206e6f6e2045524331313535526563656976657220696d706c656d656e746572456e756d657261626c655365743a20696e646578206f7574206f6620626f756e6473455243313135353a204552433131353552656365697665722072656a656374656420746f6b656e73416363657373436f6e74726f6c3a2073656e646572206d75737420626520616e2061646d696e20746f206772616e74c3d58168c5ae7397731d063d5bbf3d657854427343f4c083240f7aacaa2d0f62455243313135353a2062616c616e636520717565727920666f7220746865207a65726f2061646472657373455243313135353a2062617463682062616c616e636520717565727920666f7220746865207a65726f20616464726573734d6574615472616e73616374696f6e2875696e74323536206e6f6e63652c616464726573732066726f6d2c62797465732066756e6374696f6e5369676e617475726529455243313135353a206275726e20616d6f756e7420657863656564732062616c616e63654368696c64455243313135353a20494e56414c49445f4445504f5349545f55534552454950373132446f6d61696e28737472696e67206e616d652c737472696e672076657273696f6e2c6164647265737320766572696679696e67436f6e74726163742c627974657333322073616c7429455243313135355061757361626c653a20746f6b656e207472616e73666572207768696c6520706175736564455243313135353a2063616c6c6572206973206e6f74206f776e6572206e6f7220617070726f766564416363657373436f6e74726f6c3a2073656e646572206d75737420626520616e2061646d696e20746f207265766f6b654e61746976654d6574615472616e73616374696f6e3a20494e56414c49445f5349474e4552455243313135353a207472616e7366657220746f20746865207a65726f2061646472657373455243313135353a207472616e736665722063616c6c6572206973206e6f74206f776e6572206e6f7220617070726f766564496e697469616c697a61626c653a20636f6e747261637420697320616c726561647920696e697469616c697a6564536f617050756e6b436f6c6c65637469626c65733a2063616e6e6f74206d696e74206f6e206368696c6420636f6e7472616374455243313135353a206275726e2066726f6d20746865207a65726f2061646472657373455243313135353a20696e73756666696369656e742062616c616e636520666f72207472616e736665725369676e657220616e64207369676e617475726520646f206e6f74206d61746368536f617050756e6b436f6c6c65637469626c65733a206d75737420686176652061646d696e20726f6c6520746f206368616e676520757269536f617050756e6b436f6c6c65637469626c65733a206d7573742068617665206465706f7369746f7220726f6c6520746f206d616b65206465706f736974455243313135355072657365744d696e7465725061757365723a206d75737420686176652070617573657220726f6c6520746f20756e7061757365455243313135355072657365744d696e7465725061757365723a206d75737420686176652070617573657220726f6c6520746f207061757365455243313135353a2073657474696e6720617070726f76616c2073746174757320666f722073656c66455243313135353a206163636f756e747320616e6420696473206c656e677468206d69736d61746368455243313135353a2069647320616e6420616d6f756e7473206c656e677468206d69736d61746368455243313135353a206d696e7420746f20746865207a65726f2061646472657373416363657373436f6e74726f6c3a2063616e206f6e6c792072656e6f756e636520726f6c657320666f722073656c66a26469706673582212200f1bac78c23fa261763ecfac68f290de2c95facfd65756c7f5e70d84a4db065964736f6c63430006060033",
  "immutableReferences": {},
  "source": "pragma solidity ^0.6.0;\n\nimport \"@openzeppelin/contracts-upgradeable/presets/ERC1155PresetMinterPauserUpgradeable.sol\";\nimport {NativeMetaTransaction} from \"../../common/NativeMetaTransaction.sol\";\nimport {ContextMixin} from \"../../common/ContextMixin.sol\";\n\ncontract SoapPunkCollectiblesChild is\n    ERC1155PresetMinterPauserUpgradeable,\n    NativeMetaTransaction,\n    ContextMixin\n{\n    bytes32 public constant DEPOSITOR_ROLE = keccak256(\"DEPOSITOR_ROLE\");\n    mapping (uint256 => bool) public withdrawnTokens;\n\n    function initialize(string memory newuri, address childChainManager) initializer public {\n        __ERC1155PresetMinterPauser_init(newuri);\n\n        _setupRole(DEPOSITOR_ROLE, childChainManager);\n\n        _initializeEIP712(\"SoupPunkCollectibles\");\n     }\n\n     function setURI(string memory newuri, uint256 id) public {\n         require(hasRole(DEFAULT_ADMIN_ROLE, _msgSender()), \"SoapPunkCollectibles: must have admin role to change uri\");\n\n         emit URI(newuri, id);\n\n         _setURI(newuri);\n     }\n\n\n     // Disable minting\n     function mint(address to, uint256 id, uint256 amount, bytes memory data) public override {\n         // No account can mint\n         require(false, \"SoapPunkCollectibles: cannot mint on child contract\");\n     }\n\n     function mintBatch(address to, uint256[] memory ids, uint256[] memory amounts, bytes memory data) public override {\n         // No account can mint\n         require(false, \"SoapPunkCollectibles: cannot mint on child contract\");\n     }\n\n\n     //Child\n\n     /**\n     * @notice called when tokens are deposited on root chain\n     * @dev Should be callable only by ChildChainManager\n     * Should handle deposit by minting the required tokens for user\n     * Make sure minting is done only by this function\n     * @param user user address for whom deposit is being done\n     * @param depositData abi encoded ids array and amounts array\n     */\n    function deposit(address user, bytes calldata depositData)\n        external\n    {\n        require(hasRole(DEPOSITOR_ROLE, _msgSender()), \"SoapPunkCollectibles: must have depositor role to make deposit\");\n        (\n            uint256[] memory ids,\n            uint256[] memory amounts,\n            bytes memory data\n        ) = abi.decode(depositData, (uint256[], uint256[], bytes));\n        require(user != address(0x0), \"ChildERC1155: INVALID_DEPOSIT_USER\");\n        _mintBatch(user, ids, amounts, data);\n    }\n\n    /**\n     * @notice called when user wants to withdraw single token back to root chain\n     * @dev Should burn user's tokens. This transaction will be verified when exiting on root chain\n     * @param id id to withdraw\n     * @param amount amount to withdraw\n     */\n    function withdrawSingle(uint256 id, uint256 amount) external {\n        _burn(_msgSender(), id, amount);\n    }\n\n    /**\n     * @notice called when user wants to batch withdraw tokens back to root chain\n     * @dev Should burn user's tokens. This transaction will be verified when exiting on root chain\n     * @param ids ids to withdraw\n     * @param amounts amounts to withdraw\n     */\n    function withdrawBatch(uint256[] calldata ids, uint256[] calldata amounts)\n        external\n    {\n        _burnBatch(_msgSender(), ids, amounts);\n    }\n\n}\n",
  "sourcePath": "/home/gabriel/Documentos/Trabajo/Eibriel/Proyectos/Decentraland/GoldRush/SPContracts/matic/contracts/SoupPunk_child.sol",
  "compiler": {
    "name": "solc",
    "version": "0.6.6+commit.6c089d02.Emscripten.clang"
  },
  "schemaVersion": "3.3.2",
  "updatedAt": "2020-11-20T15:52:21.984Z",
  "networkType": "ethereum",
  "devdoc": {
    "methods": {
      "balanceOf(address,uint256)": {
        "details": "See {IERC1155-balanceOf}.     * Requirements:     * - `account` cannot be the zero address."
      },
      "balanceOfBatch(address[],uint256[])": {
        "details": "See {IERC1155-balanceOfBatch}.     * Requirements:     * - `accounts` and `ids` must have the same length."
      },
      "deposit(address,bytes)": {
        "details": "Should be callable only by ChildChainManager Should handle deposit by minting the required tokens for user Make sure minting is done only by this function",
        "params": {
          "depositData": "abi encoded ids array and amounts array",
          "user": "user address for whom deposit is being done"
        }
      },
      "getRoleAdmin(bytes32)": {
        "details": "Returns the admin role that controls `role`. See {grantRole} and {revokeRole}.     * To change a role's admin, use {_setRoleAdmin}."
      },
      "getRoleMember(bytes32,uint256)": {
        "details": "Returns one of the accounts that have `role`. `index` must be a value between 0 and {getRoleMemberCount}, non-inclusive.     * Role bearers are not sorted in any particular way, and their ordering may change at any point.     * WARNING: When using {getRoleMember} and {getRoleMemberCount}, make sure you perform all queries on the same block. See the following https://forum.openzeppelin.com/t/iterating-over-elements-on-enumerableset-in-openzeppelin-contracts/2296[forum post] for more information."
      },
      "getRoleMemberCount(bytes32)": {
        "details": "Returns the number of accounts that have `role`. Can be used together with {getRoleMember} to enumerate all bearers of a role."
      },
      "grantRole(bytes32,address)": {
        "details": "Grants `role` to `account`.     * If `account` had not been already granted `role`, emits a {RoleGranted} event.     * Requirements:     * - the caller must have ``role``'s admin role."
      },
      "hasRole(bytes32,address)": {
        "details": "Returns `true` if `account` has been granted `role`."
      },
      "isApprovedForAll(address,address)": {
        "details": "See {IERC1155-isApprovedForAll}."
      },
      "pause()": {
        "details": "Pauses all token transfers.     * See {ERC1155Pausable} and {Pausable-_pause}.     * Requirements:     * - the caller must have the `PAUSER_ROLE`."
      },
      "paused()": {
        "details": "Returns true if the contract is paused, and false otherwise."
      },
      "renounceRole(bytes32,address)": {
        "details": "Revokes `role` from the calling account.     * Roles are often managed via {grantRole} and {revokeRole}: this function's purpose is to provide a mechanism for accounts to lose their privileges if they are compromised (such as when a trusted device is misplaced).     * If the calling account had been granted `role`, emits a {RoleRevoked} event.     * Requirements:     * - the caller must be `account`."
      },
      "revokeRole(bytes32,address)": {
        "details": "Revokes `role` from `account`.     * If `account` had been granted `role`, emits a {RoleRevoked} event.     * Requirements:     * - the caller must have ``role``'s admin role."
      },
      "safeBatchTransferFrom(address,address,uint256[],uint256[],bytes)": {
        "details": "See {IERC1155-safeBatchTransferFrom}."
      },
      "safeTransferFrom(address,address,uint256,uint256,bytes)": {
        "details": "See {IERC1155-safeTransferFrom}."
      },
      "setApprovalForAll(address,bool)": {
        "details": "See {IERC1155-setApprovalForAll}."
      },
      "supportsInterface(bytes4)": {
        "details": "See {IERC165-supportsInterface}.     * Time complexity O(1), guaranteed to always use less than 30 000 gas."
      },
      "unpause()": {
        "details": "Unpauses all token transfers.     * See {ERC1155Pausable} and {Pausable-_unpause}.     * Requirements:     * - the caller must have the `PAUSER_ROLE`."
      },
      "uri(uint256)": {
        "details": "See {IERC1155MetadataURI-uri}.     * This implementation returns the same URI for *all* token types. It relies on the token type ID substitution mechanism https://eips.ethereum.org/EIPS/eip-1155#metadata[defined in the EIP].     * Clients calling this function must replace the `\\{id\\}` substring with the actual token type ID."
      },
      "withdrawBatch(uint256[],uint256[])": {
        "details": "Should burn user's tokens. This transaction will be verified when exiting on root chain",
        "params": {
          "amounts": "amounts to withdraw",
          "ids": "ids to withdraw"
        }
      },
      "withdrawSingle(uint256,uint256)": {
        "details": "Should burn user's tokens. This transaction will be verified when exiting on root chain",
        "params": {
          "amount": "amount to withdraw",
          "id": "id to withdraw"
        }
      }
    }
  },
  "userdoc": {
    "methods": {
      "deposit(address,bytes)": {
        "notice": "called when tokens are deposited on root chain"
      },
      "withdrawBatch(uint256[],uint256[])": {
        "notice": "called when user wants to batch withdraw tokens back to root chain"
      },
      "withdrawSingle(uint256,uint256)": {
        "notice": "called when user wants to withdraw single token back to root chain"
      }
    }
  }
}